{
  "_format": "hh-sol-artifact-1",
  "contractName": "E5",
  "sourceName": "contracts/E5D/E5.sol",
  "abi": [
    {
      "inputs": [],
      "stateMutability": "nonpayable",
      "type": "constructor"
    },
    {
      "anonymous": false,
      "inputs": [
        {
          "indexed": true,
          "internalType": "uint256",
          "name": "p1",
          "type": "uint256"
        },
        {
          "indexed": true,
          "internalType": "uint256",
          "name": "p2",
          "type": "uint256"
        },
        {
          "indexed": true,
          "internalType": "uint256",
          "name": "p3",
          "type": "uint256"
        },
        {
          "indexed": false,
          "internalType": "uint256",
          "name": "p4",
          "type": "uint256"
        },
        {
          "indexed": false,
          "internalType": "uint256",
          "name": "p5",
          "type": "uint256"
        }
      ],
      "name": "e1",
      "type": "event"
    },
    {
      "anonymous": false,
      "inputs": [
        {
          "indexed": true,
          "internalType": "uint256",
          "name": "p1",
          "type": "uint256"
        },
        {
          "indexed": true,
          "internalType": "address",
          "name": "p2",
          "type": "address"
        },
        {
          "indexed": true,
          "internalType": "address",
          "name": "p3",
          "type": "address"
        },
        {
          "indexed": false,
          "internalType": "uint256",
          "name": "p4",
          "type": "uint256"
        },
        {
          "indexed": false,
          "internalType": "uint256",
          "name": "p5",
          "type": "uint256"
        },
        {
          "indexed": false,
          "internalType": "uint256",
          "name": "p6",
          "type": "uint256"
        },
        {
          "indexed": false,
          "internalType": "uint256",
          "name": "p7",
          "type": "uint256"
        }
      ],
      "name": "e2",
      "type": "event"
    },
    {
      "anonymous": false,
      "inputs": [
        {
          "indexed": true,
          "internalType": "uint256",
          "name": "p1",
          "type": "uint256"
        },
        {
          "indexed": false,
          "internalType": "uint256",
          "name": "p2",
          "type": "uint256"
        },
        {
          "indexed": false,
          "internalType": "uint256",
          "name": "p3",
          "type": "uint256"
        },
        {
          "indexed": false,
          "internalType": "uint256",
          "name": "p4",
          "type": "uint256"
        }
      ],
      "name": "e3",
      "type": "event"
    },
    {
      "anonymous": false,
      "inputs": [
        {
          "indexed": true,
          "internalType": "uint256",
          "name": "p1",
          "type": "uint256"
        },
        {
          "indexed": true,
          "internalType": "address",
          "name": "p2",
          "type": "address"
        },
        {
          "indexed": false,
          "internalType": "uint256",
          "name": "p3",
          "type": "uint256"
        },
        {
          "indexed": false,
          "internalType": "uint256",
          "name": "p4",
          "type": "uint256"
        },
        {
          "indexed": false,
          "internalType": "uint256",
          "name": "p5",
          "type": "uint256"
        },
        {
          "indexed": false,
          "internalType": "uint256",
          "name": "p6",
          "type": "uint256"
        },
        {
          "indexed": false,
          "internalType": "uint256",
          "name": "p7",
          "type": "uint256"
        },
        {
          "indexed": false,
          "internalType": "uint256",
          "name": "p8",
          "type": "uint256"
        },
        {
          "indexed": false,
          "internalType": "uint256",
          "name": "p9",
          "type": "uint256"
        },
        {
          "indexed": false,
          "internalType": "address",
          "name": "p10",
          "type": "address"
        },
        {
          "indexed": false,
          "internalType": "uint256",
          "name": "p11",
          "type": "uint256"
        }
      ],
      "name": "e4",
      "type": "event"
    },
    {
      "anonymous": false,
      "inputs": [
        {
          "indexed": true,
          "internalType": "uint256",
          "name": "p1",
          "type": "uint256"
        },
        {
          "indexed": true,
          "internalType": "string",
          "name": "p2",
          "type": "string"
        },
        {
          "indexed": false,
          "internalType": "uint256",
          "name": "p3",
          "type": "uint256"
        },
        {
          "indexed": false,
          "internalType": "uint256",
          "name": "p4",
          "type": "uint256"
        }
      ],
      "name": "e5",
      "type": "event"
    },
    {
      "anonymous": false,
      "inputs": [
        {
          "indexed": true,
          "internalType": "uint256",
          "name": "p1",
          "type": "uint256"
        },
        {
          "indexed": true,
          "internalType": "address",
          "name": "p2",
          "type": "address"
        },
        {
          "indexed": true,
          "internalType": "uint256",
          "name": "p3",
          "type": "uint256"
        },
        {
          "indexed": false,
          "internalType": "uint256",
          "name": "p4",
          "type": "uint256"
        },
        {
          "indexed": false,
          "internalType": "uint256",
          "name": "p5",
          "type": "uint256"
        },
        {
          "indexed": false,
          "internalType": "uint256",
          "name": "p6",
          "type": "uint256"
        }
      ],
      "name": "e6",
      "type": "event"
    },
    {
      "anonymous": false,
      "inputs": [
        {
          "indexed": true,
          "internalType": "address",
          "name": "p1",
          "type": "address"
        },
        {
          "indexed": true,
          "internalType": "address",
          "name": "p2",
          "type": "address"
        },
        {
          "indexed": false,
          "internalType": "uint256",
          "name": "p3",
          "type": "uint256"
        },
        {
          "indexed": false,
          "internalType": "uint256",
          "name": "p4",
          "type": "uint256"
        },
        {
          "indexed": false,
          "internalType": "address[7]",
          "name": "p5",
          "type": "address[7]"
        }
      ],
      "name": "e7",
      "type": "event"
    },
    {
      "inputs": [
        {
          "internalType": "uint256[2]",
          "name": "p1",
          "type": "uint256[2]"
        },
        {
          "internalType": "address[][]",
          "name": "p2",
          "type": "address[][]"
        },
        {
          "internalType": "uint256[][][]",
          "name": "p3",
          "type": "uint256[][][]"
        },
        {
          "internalType": "string[][][]",
          "name": "p4",
          "type": "string[][][]"
        }
      ],
      "name": "e",
      "outputs": [],
      "stateMutability": "payable",
      "type": "function"
    },
    {
      "inputs": [
        {
          "internalType": "address",
          "name": "p1",
          "type": "address"
        },
        {
          "internalType": "uint256[2]",
          "name": "p2",
          "type": "uint256[2]"
        }
      ],
      "name": "f145",
      "outputs": [],
      "stateMutability": "nonpayable",
      "type": "function"
    },
    {
      "inputs": [
        {
          "internalType": "uint256",
          "name": "v1",
          "type": "uint256"
        }
      ],
      "name": "f147",
      "outputs": [
        {
          "internalType": "uint256",
          "name": "",
          "type": "uint256"
        }
      ],
      "stateMutability": "view",
      "type": "function"
    },
    {
      "inputs": [
        {
          "internalType": "address[7]",
          "name": "p1",
          "type": "address[7]"
        },
        {
          "internalType": "uint256[][][]",
          "name": "p2",
          "type": "uint256[][][]"
        },
        {
          "internalType": "uint256[][]",
          "name": "p3",
          "type": "uint256[][]"
        },
        {
          "internalType": "string[][]",
          "name": "p4",
          "type": "string[][]"
        },
        {
          "internalType": "uint256[]",
          "name": "p5",
          "type": "uint256[]"
        }
      ],
      "name": "f157",
      "outputs": [],
      "stateMutability": "nonpayable",
      "type": "function"
    },
    {
      "inputs": [
        {
          "internalType": "uint256[]",
          "name": "p1",
          "type": "uint256[]"
        },
        {
          "internalType": "address[]",
          "name": "p2",
          "type": "address[]"
        },
        {
          "internalType": "uint256",
          "name": "p3",
          "type": "uint256"
        }
      ],
      "name": "f167",
      "outputs": [
        {
          "internalType": "uint256[]",
          "name": "",
          "type": "uint256[]"
        }
      ],
      "stateMutability": "view",
      "type": "function"
    },
    {
      "inputs": [
        {
          "internalType": "address[7]",
          "name": "p1",
          "type": "address[7]"
        }
      ],
      "name": "f2023",
      "outputs": [],
      "stateMutability": "nonpayable",
      "type": "function"
    },
    {
      "inputs": [
        {
          "internalType": "uint256[]",
          "name": "p1",
          "type": "uint256[]"
        }
      ],
      "name": "f206",
      "outputs": [],
      "stateMutability": "nonpayable",
      "type": "function"
    },
    {
      "inputs": [],
      "name": "f2232",
      "outputs": [],
      "stateMutability": "nonpayable",
      "type": "function"
    },
    {
      "inputs": [
        {
          "internalType": "uint256[]",
          "name": "p1",
          "type": "uint256[]"
        }
      ],
      "name": "f280",
      "outputs": [
        {
          "internalType": "uint256[]",
          "name": "v1",
          "type": "uint256[]"
        }
      ],
      "stateMutability": "view",
      "type": "function"
    },
    {
      "inputs": [
        {
          "internalType": "uint256[]",
          "name": "p1",
          "type": "uint256[]"
        }
      ],
      "name": "f287",
      "outputs": [
        {
          "internalType": "uint256[4][]",
          "name": "v1",
          "type": "uint256[4][]"
        }
      ],
      "stateMutability": "view",
      "type": "function"
    }
  ],
  "bytecode": "0x60a06040526103e86000556000600160006101000a81548160ff0219169083151502179055503373ffffffffffffffffffffffffffffffffffffffff1660809073ffffffffffffffffffffffffffffffffffffffff1660601b81525060016003556001600f5534801561007157600080fd5b5060805160601c615df6620000986000396000818161076d0152610dbb0152615df66000f3fe6080604052600436106100815760003560e01c80630a6f3c9c146100865780631b6976a3146100c35780633fc51072146100df57806341a619bc1461011c57806376f2111d146101455780638d8a20bc14610182578063a2703b71146101ab578063a321e6ea146101d4578063cff3e9a8146101eb578063f291690a14610228575b600080fd5b34801561009257600080fd5b506100ad60048036038101906100a8919061386b565b610251565b6040516100ba9190614e10565b60405180910390f35b6100dd60048036038101906100d89190613789565b6102ec565b005b3480156100eb57600080fd5b506101066004803603810190610101919061386b565b6106d0565b6040516101139190614ec6565b60405180910390f35b34801561012857600080fd5b50610143600480360381019061013e919061361b565b61076b565b005b34801561015157600080fd5b5061016c600480360381019061016791906138f1565b610d1b565b6040516101799190614ec6565b60405180910390f35b34801561018e57600080fd5b506101a960048036038101906101a491906135f2565b610db9565b005b3480156101b757600080fd5b506101d260048036038101906101cd919061386b565b610e7d565b005b3480156101e057600080fd5b506101e9610fdb565b005b3480156101f757600080fd5b50610212600480360381019061020d9190613a07565b61103e565b60405161021f9190615019565b60405180910390f35b34801561023457600080fd5b5061024f600480360381019061024a91906135b6565b61109f565b005b606073__$f27e79961c3433e31ab5fa1d53780be647$__63b9ae91dc848460046040518463ffffffff1660e01b815260040161028f93929190614e94565b60006040518083038186803b1580156102a757600080fd5b505af41580156102bb573d6000803e3d6000fd5b505050506040513d6000823e3d601f19601f820116820180604052508101906102e49190613707565b905092915050565b60005a905060006102fc89611273565b9050600061030f878787878d8d89611348565b905060005b878790508110156105f457808260c0018181525050600081146104995787878281811061036a577f4e487b7100000000000000000000000000000000000000000000000000000000600052603260045260246000fd5b905060200281019061037c91906152d1565b906103879190615bb3565b8260600181905250808a8a9050111561042e578989828181106103d3577f4e487b7100000000000000000000000000000000000000000000000000000000600052603260045260246000fd5b90506020028101906103e59190615223565b80806020026020016040519081016040528093929190818152602001838360200280828437600081840152601f19601f8201169050808301925050505050505082608001819052505b8086869050111561049857858582818110610472577f4e487b7100000000000000000000000000000000000000000000000000000000600052603260045260246000fd5b9050602002810190610484919061527a565b9061048f9190615b9e565b8260a001819052505b5b6127108888838181106104d5577f4e487b7100000000000000000000000000000000000000000000000000000000600052603260045260246000fd5b90506020028101906104e791906152d1565b600081811061051f577f4e487b7100000000000000000000000000000000000000000000000000000000600052603260045260246000fd5b90506020028101906105319190615328565b6000818110610569577f4e487b7100000000000000000000000000000000000000000000000000000000600052603260045260246000fd5b9050602002013514156105cd5761057f8261170b565b826040015182815181106105bc577f4e487b7100000000000000000000000000000000000000000000000000000000600052603260045260246000fd5b6020026020010181815250506105e1565b6105d68261184d565b826101000181815250505b80806105ec90615c71565b915050610314565b506001600460030160008360000151815260200190815260200160002060006001815260200190815260200160002060006003815260200190815260200160002060008282546106449190615acc565b92505081905550610653611fe5565b3373ffffffffffffffffffffffffffffffffffffffff1681600001517f51560e0be7b5fee8b1796cc3713c67a0aa68bb449b93c46f3cb90a895b66c942848a8a90505a886106a19190615b22565b343a424341446040516106bc99989796959493929190615196565b60405180910390a350505050505050505050565b606073__$f27e79961c3433e31ab5fa1d53780be647$__632ac19780848460046040518463ffffffff1660e01b815260040161070e93929190614e94565b60006040518083038186803b15801561072657600080fd5b505af415801561073a573d6000803e3d6000fd5b505050506040513d6000823e3d601f19601f8201168201806040525081019061076391906138b0565b905092915050565b7f000000000000000000000000000000000000000000000000000000000000000073ffffffffffffffffffffffffffffffffffffffff163373ffffffffffffffffffffffffffffffffffffffff161480156107d35750600160009054906101000a900460ff16155b6107dc57600080fd5b60018060006101000a81548160ff02191690831515021790555060005b60078110156108b8576001600260008c8460078110610841577f4e487b7100000000000000000000000000000000000000000000000000000000600052603260045260246000fd5b602002016020810190610854919061358d565b73ffffffffffffffffffffffffffffffffffffffff1673ffffffffffffffffffffffffffffffffffffffff16815260200190815260200160002060006101000a81548160ff02191690831515021790555080806108b090615c71565b9150506107f9565b50886001600781106108f3577f4e487b7100000000000000000000000000000000000000000000000000000000600052603260045260246000fd5b602002016020810190610906919061358d565b600960006101000a81548173ffffffffffffffffffffffffffffffffffffffff021916908373ffffffffffffffffffffffffffffffffffffffff16021790555088600260078110610980577f4e487b7100000000000000000000000000000000000000000000000000000000600052603260045260246000fd5b602002016020810190610993919061358d565b600c60006101000a81548173ffffffffffffffffffffffffffffffffffffffff021916908373ffffffffffffffffffffffffffffffffffffffff16021790555088600360078110610a0d577f4e487b7100000000000000000000000000000000000000000000000000000000600052603260045260246000fd5b602002016020810190610a20919061358d565b600a60006101000a81548173ffffffffffffffffffffffffffffffffffffffff021916908373ffffffffffffffffffffffffffffffffffffffff16021790555088600460078110610a9a577f4e487b7100000000000000000000000000000000000000000000000000000000600052603260045260246000fd5b602002016020810190610aad919061358d565b600b60006101000a81548173ffffffffffffffffffffffffffffffffffffffff021916908373ffffffffffffffffffffffffffffffffffffffff16021790555088600560078110610b27577f4e487b7100000000000000000000000000000000000000000000000000000000600052603260045260246000fd5b602002016020810190610b3a919061358d565b600d60006101000a81548173ffffffffffffffffffffffffffffffffffffffff021916908373ffffffffffffffffffffffffffffffffffffffff16021790555088600660078110610bb4577f4e487b7100000000000000000000000000000000000000000000000000000000600052603260045260246000fd5b602002016020810190610bc7919061358d565b600e60006101000a81548173ffffffffffffffffffffffffffffffffffffffff021916908373ffffffffffffffffffffffffffffffffffffffff160217905550600c60009054906101000a900473ffffffffffffffffffffffffffffffffffffffff1673ffffffffffffffffffffffffffffffffffffffff1663ec21a35f8a8a8a8a8a8a8a8a8a6040518a63ffffffff1660e01b8152600401610c7299989796959493929190614d95565b600060405180830381600087803b158015610c8c57600080fd5b505af1158015610ca0573d6000803e3d6000fd5b5050505073__$f27e79961c3433e31ab5fa1d53780be647$__63e0f62d2a838360046040518463ffffffff1660e01b8152600401610ce093929190614e94565b60006040518083038186803b158015610cf857600080fd5b505af4158015610d0c573d6000803e3d6000fd5b50505050505050505050505050565b606073__$f27e79961c3433e31ab5fa1d53780be647$__63a4417f2185858560046040518563ffffffff1660e01b8152600401610d5b9493929190614ee8565b60006040518083038186803b158015610d7357600080fd5b505af4158015610d87573d6000803e3d6000fd5b505050506040513d6000823e3d601f19601f82011682018060405250810190610db091906138b0565b90509392505050565b7f000000000000000000000000000000000000000000000000000000000000000073ffffffffffffffffffffffffffffffffffffffff163373ffffffffffffffffffffffffffffffffffffffff1614610e1157600080fd5b3373ffffffffffffffffffffffffffffffffffffffff163073ffffffffffffffffffffffffffffffffffffffff167fd9432748d2aa3f7169aef587dbfa3326350a8535cbe4eed4d4ff1f58b14dbc69424385604051610e72939291906150e2565b60405180910390a350565b3360011515600260008373ffffffffffffffffffffffffffffffffffffffff1673ffffffffffffffffffffffffffffffffffffffff16815260200190815260200160002060009054906101000a900460ff16151514610edb57600080fd5b73__$f27e79961c3433e31ab5fa1d53780be647$__63e0f62d2a848460046040518463ffffffff1660e01b8152600401610f1793929190614e94565b60006040518083038186803b158015610f2f57600080fd5b505af4158015610f43573d6000803e3d6000fd5b50505050600960009054906101000a900473ffffffffffffffffffffffffffffffffffffffff1673ffffffffffffffffffffffffffffffffffffffff1663f6cd7dc584846040518363ffffffff1660e01b8152600401610fa4929190614e70565b600060405180830381600087803b158015610fbe57600080fd5b505af1158015610fd2573d6000803e3d6000fd5b50505050505050565b6000600460030160006103ea81526020019081526020016000206000600181526020019081526020016000209050603281600060038152602001908152602001600020819055506032816000600481526020019081526020016000208190555050565b600060018214156110515747905061109a565b60028214156110625742905061109a565b60038214156110735743905061109a565b60048214156110845745905061109a565b60058214156110955744905061109a565b600090505b919050565b61fde85a11156110ae57600080fd5b60006110b982611273565b9050600060046001016000600a815260200190815260200160002060003373ffffffffffffffffffffffffffffffffffffffff1673ffffffffffffffffffffffffffffffffffffffff1681526020019081526020016000205490506000600460000160008381526020019081526020016000205490506000600460000160008481526020019081526020016000208190555060008573ffffffffffffffffffffffffffffffffffffffff168260405161117190614d80565b60006040518083038185875af1925050503d80600081146111ae576040519150601f19603f3d011682016040523d82523d6000602084013e6111b3565b606091505b50509050806111f7576040517f08c379a00000000000000000000000000000000000000000000000000000000081526004016111ee90614fb5565b60405180910390fd5b6111ff611fe5565b8573ffffffffffffffffffffffffffffffffffffffff163373ffffffffffffffffffffffffffffffffffffffff16847f6f4f9f0d35e6404d637454b89ae29dac4517a51d4490567c3c3c8c0e6cef6c7c878642436040516112639493929190615151565b60405180910390a4505050505050565b6000600160009054906101000a900460ff16801561129357506001600354145b61129c57600080fd5b6002600381905550816000600281106112de577f4e487b7100000000000000000000000000000000000000000000000000000000600052603260045260246000fd5b60200201354311158015611330575081600160028110611327577f4e487b7100000000000000000000000000000000000000000000000000000000600052603260045260246000fd5b60200201354211155b61133957600080fd5b611341611fef565b9050919050565b611350612a61565b6000806000611360858c8c612010565b9250925092506000600460030160008581526020019081526020016000206000600181526020019081526020016000209050600080898990501461142f57888860008181106113d8577f4e487b7100000000000000000000000000000000000000000000000000000000600052603260045260246000fd5b90506020028101906113ea9190615223565b80806020026020016040519081016040528093929190818152602001838360200280828437600081840152601f19601f820116905080830192505050505050506114a0565b600067ffffffffffffffff811115611470577f4e487b7100000000000000000000000000000000000000000000000000000000600052604160045260246000fd5b60405190808252806020026020018201604052801561149e5781602001602082028036833780820191505090505b505b90506000808c8c90501461150a578b8b60008181106114e8577f4e487b7100000000000000000000000000000000000000000000000000000000600052603260045260246000fd5b90506020028101906114fa919061527a565b906115059190615b9e565b611580565b600067ffffffffffffffff81111561154b577f4e487b7100000000000000000000000000000000000000000000000000000000600052604160045260246000fd5b60405190808252806020026020018201604052801561157e57816020015b60608152602001906001900390816115695790505b505b90506040518061018001604052808781526020018615158152602001856000600281106115d6577f4e487b7100000000000000000000000000000000000000000000000000000000600052603260045260246000fd5b602002015181526020018f8f600081811061161a577f4e487b7100000000000000000000000000000000000000000000000000000000600052603260045260246000fd5b905060200281019061162c91906152d1565b906116379190615bb3565b8152602001838152602001828152602001600081526020016000815260200134815260200160405180604001604052808660006003815260200190815260200160002054815260200186600060048152602001908152602001600020548152508152602001600015158152602001856001600281106116df577f4e487b7100000000000000000000000000000000000000000000000000000000600052603260045260246000fd5b6020020151815250965060008e8e905014156116fa57600080fd5b505050505050979650505050505050565b6000611715611fef565b8260e0018181525050600960009054906101000a900473ffffffffffffffffffffffffffffffffffffffff1673ffffffffffffffffffffffffffffffffffffffff16636ee80899836060015160008151811061179a577f4e487b7100000000000000000000000000000000000000000000000000000000600052603260045260246000fd5b60200260200101516009815181106117db577f4e487b7100000000000000000000000000000000000000000000000000000000600052603260045260246000fd5b602002602001015184600001518560e001516040518463ffffffff1660e01b815260040161180b9392919061511a565b600060405180830381600087803b15801561182557600080fd5b505af1158015611839573d6000803e3d6000fd5b5050505061184682612139565b9050919050565b6000808261016001518360c0015181518110611892577f4e487b7100000000000000000000000000000000000000000000000000000000600052603260045260246000fd5b60200260200101519050826101000151915061022881141561194057600960009054906101000a900473ffffffffffffffffffffffffffffffffffffffff1673ffffffffffffffffffffffffffffffffffffffff16633de197b3846040518263ffffffff1660e01b81526004016119099190614ff7565b600060405180830381600087803b15801561192357600080fd5b505af1158015611937573d6000803e3d6000fd5b50505050611fdf565b60418114156119db57600c60009054906101000a900473ffffffffffffffffffffffffffffffffffffffff1673ffffffffffffffffffffffffffffffffffffffff166385f5fa16846040518263ffffffff1660e01b81526004016119a49190614ff7565b600060405180830381600087803b1580156119be57600080fd5b505af11580156119d2573d6000803e3d6000fd5b50505050611fde565b604b811415611cdb5760008360600151600081518110611a24577f4e487b7100000000000000000000000000000000000000000000000000000000600052603260045260246000fd5b6020026020010151600181518110611a65577f4e487b7100000000000000000000000000000000000000000000000000000000600052603260045260246000fd5b602002602001015190506005811415611bae57600080600073__$7b11637b326fa12a30ce8fbc20da0b2192$__636731db27886040518263ffffffff1660e01b8152600401611ab49190614fd5565b60006040518083038186803b158015611acc57600080fd5b505af4158015611ae0573d6000803e3d6000fd5b505050506040513d6000823e3d601f19601f82011682018060405250810190611b099190613970565b925092509250600a60009054906101000a900473ffffffffffffffffffffffffffffffffffffffff1673ffffffffffffffffffffffffffffffffffffffff166357c4747884896000015185856040518563ffffffff1660e01b8152600401611b749493929190614f3b565b600060405180830381600087803b158015611b8e57600080fd5b505af1158015611ba2573d6000803e3d6000fd5b50505050505050611cd5565b600073__$7b11637b326fa12a30ce8fbc20da0b2192$__6386ae6f8b866040518263ffffffff1660e01b8152600401611be79190614fd5565b60006040518083038186803b158015611bff57600080fd5b505af4158015611c13573d6000803e3d6000fd5b505050506040513d6000823e3d601f19601f82011682018060405250810190611c3c9190613748565b9050600a60009054906101000a900473ffffffffffffffffffffffffffffffffffffffff1673ffffffffffffffffffffffffffffffffffffffff16630676d171828760000151856040518463ffffffff1660e01b8152600401611ca193929190614e32565b600060405180830381600087803b158015611cbb57600080fd5b505af1158015611ccf573d6000803e3d6000fd5b50505050505b50611fdd565b6102f0811415611df1576000600b60009054906101000a900473ffffffffffffffffffffffffffffffffffffffff1673ffffffffffffffffffffffffffffffffffffffff166322de72fc856040518263ffffffff1660e01b8152600401611d429190614ff7565b602060405180830381600087803b158015611d5c57600080fd5b505af1158015611d70573d6000803e3d6000fd5b505050506040513d601f19601f82011682018060405250810190611d949190613a30565b90508060046003016000866000015181526020019081526020016000206000600181526020019081526020016000206000600481526020019081526020016000206000828254611de49190615acc565b9250508190555050611fdc565b6055811415611f42576000600d60009054906101000a900473ffffffffffffffffffffffffffffffffffffffff1673ffffffffffffffffffffffffffffffffffffffff16634d009804856040518263ffffffff1660e01b8152600401611e579190614ff7565b606060405180830381600087803b158015611e7157600080fd5b505af1158015611e85573d6000803e3d6000fd5b505050506040513d601f19601f82011682018060405250810190611ea99190613842565b905080600260038110611ee5577f4e487b7100000000000000000000000000000000000000000000000000000000600052603260045260246000fd5b60200201519250600081600060038110611f28577f4e487b7100000000000000000000000000000000000000000000000000000000600052603260045260246000fd5b602002015114611f3c57611f3b816125a4565b5b50611fdb565b610354811415611fda57600e60009054906101000a900473ffffffffffffffffffffffffffffffffffffffff1673ffffffffffffffffffffffffffffffffffffffff16639cc2ff8c846040518263ffffffff1660e01b8152600401611fa79190614ff7565b600060405180830381600087803b158015611fc157600080fd5b505af1158015611fd5573d6000803e3d6000fd5b505050505b5b5b5b5b5b50919050565b6001600381905550565b600080600081548092919061200390615c71565b9190505550600054905090565b60008061201b612acc565b60008060046001016000600a815260200190815260200160002060003373ffffffffffffffffffffffffffffffffffffffff1673ffffffffffffffffffffffffffffffffffffffff168152602001908152602001600020541461207f576000612088565b612087611fef565b5b905073__$f27e79961c3433e31ab5fa1d53780be647$__639fb94791886004848a8a6000546040518763ffffffff1660e01b81526004016120ce9695949392919061505d565b60006040518083038186803b1580156120e657600080fd5b505af41580156120fa573d6000803e3d6000fd5b505050506040513d6000823e3d601f19601f820116820180604052508101906121239190613a59565b8094508195508296505050505093509350939050565b600080826060015160008151811061217a577f4e487b7100000000000000000000000000000000000000000000000000000000600052603260045260246000fd5b60200260200101516009815181106121bb577f4e487b7100000000000000000000000000000000000000000000000000000000600052603260045260246000fd5b6020026020010151905082604001518360c0015181518110612206577f4e487b7100000000000000000000000000000000000000000000000000000000600052603260045260246000fd5b6020026020010151915073__$2c5481ac3a53d4f4da52c7594a1c0a4117$__63febfd3168285602001516040518363ffffffff1660e01b815260040161224d929190615034565b60006040518083038186803b15801561226557600080fd5b505af4158015612279573d6000803e3d6000fd5b50505050601d8114156122965761228f83612757565b915061255a565b601e8114806122a55750602081145b1561233c57600a60009054906101000a900473ffffffffffffffffffffffffffffffffffffffff1673ffffffffffffffffffffffffffffffffffffffff16633f0705fc846040518263ffffffff1660e01b81526004016123059190614ff7565b600060405180830381600087803b15801561231f57600080fd5b505af1158015612333573d6000803e3d6000fd5b50505050612559565b601f8114156123d757600d60009054906101000a900473ffffffffffffffffffffffffffffffffffffffff1673ffffffffffffffffffffffffffffffffffffffff166303c0d5d8846040518263ffffffff1660e01b81526004016123a09190614ff7565b600060405180830381600087803b1580156123ba57600080fd5b505af11580156123ce573d6000803e3d6000fd5b50505050612558565b602181141561247257600c60009054906101000a900473ffffffffffffffffffffffffffffffffffffffff1673ffffffffffffffffffffffffffffffffffffffff16630d8d5052846040518263ffffffff1660e01b815260040161243b9190614ff7565b600060405180830381600087803b15801561245557600080fd5b505af1158015612469573d6000803e3d6000fd5b50505050612557565b6024811415612556578260a001516000815181106124b9577f4e487b7100000000000000000000000000000000000000000000000000000000600052603260045260246000fd5b60200260200101516000815181106124fa577f4e487b7100000000000000000000000000000000000000000000000000000000600052603260045260246000fd5b602002602001015160405161250f9190614d69565b60405180910390208360e001517f080ee4c321025e8bcbdace3c00f963d4968f61c7a4a04e0ec965ead5d50f3c67434260405161254d9291906150b9565b60405180910390a35b5b5b5b5b8260000151818460e001517f82138c3e7c8da08373e0ee2722dc0f9641d5f8993c868f5e508ecbe227fb4da242436040516125969291906150b9565b60405180910390a450919050565b600060046000016000836001600381106125e7577f4e487b7100000000000000000000000000000000000000000000000000000000600052603260045260246000fd5b60200201518152602001908152602001600020541461260557600080fd5b8060006003811061263f577f4e487b7100000000000000000000000000000000000000000000000000000000600052603260045260246000fd5b60200201516004600001600083600160038110612685577f4e487b7100000000000000000000000000000000000000000000000000000000600052603260045260246000fd5b6020020151815260200190815260200160002081905550806001600381106126d6577f4e487b7100000000000000000000000000000000000000000000000000000000600052603260045260246000fd5b60200201517fa46482b81c1a0d65e2c94037160e7f8310b688898a11779fbebf0abbe12cbc5182600060038110612736577f4e487b7100000000000000000000000000000000000000000000000000000000600052603260045260246000fd5b6020020151424360405161274c9392919061511a565b60405180910390a250565b6000808260800151600081518110612798577f4e487b7100000000000000000000000000000000000000000000000000000000600052603260045260246000fd5b60200260200101519050600060046001016000600a8152602001908152602001600020905060008160008473ffffffffffffffffffffffffffffffffffffffff1673ffffffffffffffffffffffffffffffffffffffff16815260200190815260200160002054141561294e578360e0015160046001016000600a815260200190815260200160002060008473ffffffffffffffffffffffffffffffffffffffff1673ffffffffffffffffffffffffffffffffffffffff16815260200190815260200160002081905550600084606001516000815181106128a1577f4e487b7100000000000000000000000000000000000000000000000000000000600052603260045260246000fd5b60200260200101516003815181106128e2577f4e487b7100000000000000000000000000000000000000000000000000000000600052603260045260246000fd5b602002602001015190508460e001518373ffffffffffffffffffffffffffffffffffffffff1686600001517f407392862bf429f17180c8e1ec8d2cd5fd8aa4e1cb5e15767e3ae6a87d2de0a18442436040516129409392919061511a565b60405180910390a450612a19565b6001846060015160008151811061298e577f4e487b7100000000000000000000000000000000000000000000000000000000600052603260045260246000fd5b60200260200101516005815181106129cf577f4e487b7100000000000000000000000000000000000000000000000000000000600052603260045260246000fd5b60200260200101511415612a18576040517f08c379a0000000000000000000000000000000000000000000000000000000008152600401612a0f90614f95565b60405180910390fd5b5b8060008373ffffffffffffffffffffffffffffffffffffffff1673ffffffffffffffffffffffffffffffffffffffff1681526020019081526020016000205492505050919050565b6040518061018001604052806000815260200160001515815260200160608152602001606081526020016060815260200160608152602001600081526020016000815260200160008152602001612ab6612af3565b8152602001600015158152602001606081525090565b60405180604001604052806002905b6060815260200190600190039081612adb5790505090565b6040518060400160405280600290602082028036833780820191505090505090565b6000612b28612b23846153a4565b61537f565b90508083825260208201905082856020860282011115612b4757600080fd5b60005b85811015612b775781612b5d8882613158565b845260208401935060208301925050600181019050612b4a565b5050509392505050565b6000612b94612b8f846153d0565b61537f565b90508082856020860282011115612baa57600080fd5b60005b85811015612bf457815167ffffffffffffffff811115612bcc57600080fd5b808601612bd989826133c6565b85526020850194506020840193505050600181019050612bad565b5050509392505050565b6000612c11612c0c846153f6565b61537f565b90508083825260208201905082856020860282011115612c3057600080fd5b60005b85811015612c7a57813567ffffffffffffffff811115612c5257600080fd5b808601612c5f89826133f0565b85526020850194506020840193505050600181019050612c33565b5050509392505050565b6000612c97612c9284615422565b61537f565b90508083825260208201905082856080860282011115612cb657600080fd5b60005b85811015612ce65781612ccc888261345f565b845260208401935060808301925050600181019050612cb9565b5050509392505050565b6000612d03612cfe8461544e565b61537f565b90508082856020860282011115612d1957600080fd5b60005b85811015612d6357815167ffffffffffffffff811115612d3b57600080fd5b808601612d4889826134fa565b85526020850194506020840193505050600181019050612d1c565b5050509392505050565b6000612d80612d7b84615474565b61537f565b90508082856020860282011115612d9657600080fd5b60005b85811015612de057815167ffffffffffffffff811115612db857600080fd5b808601612dc589826134fa565b85526020850194506020840193505050600181019050612d99565b5050509392505050565b6000612dfd612df88461549a565b61537f565b90508083825260208201905082856020860282011115612e1c57600080fd5b60005b85811015612e6657813567ffffffffffffffff811115612e3e57600080fd5b808601612e4b89826134d0565b85526020850194506020840193505050600181019050612e1f565b5050509392505050565b6000612e83612e7e8461549a565b61537f565b90508083825260208201905082856020860282011115612ea257600080fd5b60005b85811015612eec57815167ffffffffffffffff811115612ec457600080fd5b808601612ed189826134fa565b85526020850194506020840193505050600181019050612ea5565b5050509392505050565b6000612f09612f04846154c6565b61537f565b90508083825260208201905082856020860282011115612f2857600080fd5b60005b85811015612f7257813567ffffffffffffffff811115612f4a57600080fd5b808601612f578982613539565b85526020850194506020840193505050600181019050612f2b565b5050509392505050565b6000612f8f612f8a846154f2565b61537f565b90508082856020860282011115612fa557600080fd5b60005b85811015612fd55781612fbb8882613578565b845260208401935060208301925050600181019050612fa8565b5050509392505050565b6000612ff2612fed84615518565b61537f565b9050808285602086028201111561300857600080fd5b60005b85811015613038578161301e8882613578565b84526020840193506020830192505060018101905061300b565b5050509392505050565b60006130556130508461553e565b61537f565b9050808382526020820190508285602086028201111561307457600080fd5b60005b858110156130a4578161308a8882613563565b845260208401935060208301925050600181019050613077565b5050509392505050565b60006130c16130bc8461553e565b61537f565b905080838252602082019050828560208602820111156130e057600080fd5b60005b8581101561311057816130f68882613578565b8452602084019350602083019250506001810190506130e3565b5050509392505050565b600061312d6131288461556a565b61537f565b90508281526020810184848401111561314557600080fd5b613150848285615bfe565b509392505050565b60008135905061316781615d7b565b92915050565b60008190508260206007028201111561318557600080fd5b92915050565b600082601f83011261319c57600080fd5b81356131ac848260208601612b15565b91505092915050565b60008083601f8401126131c757600080fd5b8235905067ffffffffffffffff8111156131e057600080fd5b6020830191508360208202830111156131f857600080fd5b9250929050565b60008083601f84011261321157600080fd5b8235905067ffffffffffffffff81111561322a57600080fd5b60208301915083602082028301111561324257600080fd5b9250929050565b60008083601f84011261325b57600080fd5b8235905067ffffffffffffffff81111561327457600080fd5b60208301915083602082028301111561328c57600080fd5b9250929050565b600082601f8301126132a457600080fd5b60026132b1848285612b81565b91505092915050565b60008083601f8401126132cc57600080fd5b8235905067ffffffffffffffff8111156132e557600080fd5b6020830191508360208202830111156132fd57600080fd5b9250929050565b600082601f83011261331557600080fd5b8151613325848260208601612c84565b91505092915050565b60008083601f84011261334057600080fd5b8235905067ffffffffffffffff81111561335957600080fd5b60208301915083602082028301111561337157600080fd5b9250929050565b600082601f83011261338957600080fd5b6002613396848285612cf0565b91505092915050565b600082601f8301126133b057600080fd5b60056133bd848285612d6d565b91505092915050565b600082601f8301126133d757600080fd5b81516133e7848260208601612e70565b91505092915050565b600082601f83011261340157600080fd5b8135613411848260208601612ef6565b91505092915050565b60008190508260206002028201111561343257600080fd5b92915050565b600082601f83011261344957600080fd5b6003613456848285612f7c565b91505092915050565b600082601f83011261347057600080fd5b600461347d848285612fdf565b91505092915050565b60008083601f84011261349857600080fd5b8235905067ffffffffffffffff8111156134b157600080fd5b6020830191508360208202830111156134c957600080fd5b9250929050565b600082601f8301126134e157600080fd5b81356134f1848260208601613042565b91505092915050565b600082601f83011261350b57600080fd5b815161351b8482602086016130ae565b91505092915050565b60008151905061353381615d92565b92915050565b600082601f83011261354a57600080fd5b813561355a84826020860161311a565b91505092915050565b60008135905061357281615da9565b92915050565b60008151905061358781615da9565b92915050565b60006020828403121561359f57600080fd5b60006135ad84828501613158565b91505092915050565b600080606083850312156135c957600080fd5b60006135d785828601613158565b92505060206135e88582860161341a565b9150509250929050565b600060e0828403121561360457600080fd5b60006136128482850161316d565b91505092915050565b60008060008060008060008060006101608a8c03121561363a57600080fd5b60006136488c828d0161316d565b99505060e08a013567ffffffffffffffff81111561366557600080fd5b6136718c828d01613249565b98509850506101008a013567ffffffffffffffff81111561369157600080fd5b61369d8c828d0161332e565b96509650506101208a013567ffffffffffffffff8111156136bd57600080fd5b6136c98c828d016132ba565b94509450506101408a013567ffffffffffffffff8111156136e957600080fd5b6136f58c828d01613486565b92509250509295985092959850929598565b60006020828403121561371957600080fd5b600082015167ffffffffffffffff81111561373357600080fd5b61373f84828501613304565b91505092915050565b60006020828403121561375a57600080fd5b600082015167ffffffffffffffff81111561377457600080fd5b6137808482850161339f565b91505092915050565b600080600080600080600060a0888a0312156137a457600080fd5b60006137b28a828b0161341a565b975050604088013567ffffffffffffffff8111156137cf57600080fd5b6137db8a828b016131b5565b9650965050606088013567ffffffffffffffff8111156137fa57600080fd5b6138068a828b01613249565b9450945050608088013567ffffffffffffffff81111561382557600080fd5b6138318a828b016131ff565b925092505092959891949750929550565b60006060828403121561385457600080fd5b600061386284828501613438565b91505092915050565b6000806020838503121561387e57600080fd5b600083013567ffffffffffffffff81111561389857600080fd5b6138a485828601613486565b92509250509250929050565b6000602082840312156138c257600080fd5b600082015167ffffffffffffffff8111156138dc57600080fd5b6138e8848285016134fa565b91505092915050565b60008060006060848603121561390657600080fd5b600084013567ffffffffffffffff81111561392057600080fd5b61392c868287016134d0565b935050602084013567ffffffffffffffff81111561394957600080fd5b6139558682870161318b565b925050604061396686828701613563565b9150509250925092565b60008060006060848603121561398557600080fd5b600084015167ffffffffffffffff81111561399f57600080fd5b6139ab868287016134fa565b935050602084015167ffffffffffffffff8111156139c857600080fd5b6139d4868287016133c6565b925050604084015167ffffffffffffffff8111156139f157600080fd5b6139fd86828701613293565b9150509250925092565b600060208284031215613a1957600080fd5b6000613a2784828501613563565b91505092915050565b600060208284031215613a4257600080fd5b6000613a5084828501613578565b91505092915050565b600080600060608486031215613a6e57600080fd5b6000613a7c86828701613578565b9350506020613a8d86828701613524565b925050604084015167ffffffffffffffff811115613aaa57600080fd5b613ab686828701613378565b9150509250925092565b6000613acc8383613c57565b60208301905092915050565b6000613ae48383613c66565b60208301905092915050565b6000613afd84848461410d565b90509392505050565b6000613b138484846141f9565b90509392505050565b6000613b2883836142e4565b905092915050565b6000613b3d848484614443565b90509392505050565b6000613b5283836144b9565b905092915050565b6000613b66838361452e565b905092915050565b6000613b7a8383614651565b60808301905092915050565b6000613b938484846146a8565b90509392505050565b6000613ba98484846147b0565b90509392505050565b6000613bbe8383614808565b905092915050565b6000613bd28383614922565b905092915050565b6000613be78484846149ad565b90509392505050565b6000613bfc83836149da565b905092915050565b6000613c108383614a13565b905092915050565b6000613c248383614d2d565b60208301905092915050565b6000613c3c8383614d5a565b60208301905092915050565b613c5181615bc8565b82525050565b613c6081615b56565b82525050565b613c6f81615b56565b82525050565b613c7e81615655565b613c88818461579c565b9250613c938261559b565b8060005b83811015613ccc57613ca98284615959565b613cb38782613ac0565b9650613cbe836156d9565b925050600181019050613c97565b505050505050565b6000613cdf82615660565b613ce981856157a7565b9350613cf4836155a5565b8060005b83811015613d25578151613d0c8882613ac0565b9750613d17836156e6565b925050600181019050613cf8565b5085935050505092915050565b6000613d3d82615660565b613d4781856157b8565b9350613d52836155a5565b8060005b83811015613d83578151613d6a8882613ad8565b9750613d75836156e6565b925050600181019050613d56565b5085935050505092915050565b6000613d9b82615660565b613da581856157c9565b9350613db0836155a5565b8060005b83811015613de1578151613dc88882613ad8565b9750613dd3836156e6565b925050600181019050613db4565b5085935050505092915050565b6000613dfa83856157e5565b935083602084028501613e0c846155b5565b8060005b87811015613e52578484038952613e278284615970565b613e32868284613af0565b9550613e3d846156f3565b935060208b019a505050600181019050613e10565b50829750879450505050509392505050565b6000613e7083856157f6565b935083602084028501613e82846155b5565b8060005b87811015613ec8578484038952613e9d8284615970565b613ea8868284613b06565b9550613eb3846156f3565b935060208b019a505050600181019050613e86565b50829750879450505050509392505050565b6000613ee58261566b565b613eef81856157da565b935083602082028501613f01856155bf565b8060005b85811015613f3d5784840389528151613f1e8582613b1c565b9450613f2983615700565b925060208a01995050600181019050613f05565b50829750879550505050505092915050565b6000613f5b8385615818565b935083602084028501613f6d846155c9565b8060005b87811015613fb3578484038952613f8882846159c7565b613f93868284613b30565b9550613f9e8461570d565b935060208b019a505050600181019050613f71565b50829750879450505050509392505050565b6000613fd082615676565b613fda8185615807565b935083602082028501613fec856155d3565b8060005b8581101561402857848403895281516140098582613b46565b94506140148361571a565b925060208a01995050600181019050613ff0565b50829750879550505050505092915050565b600061404582615676565b61404f8185615829565b935083602082028501614061856155d3565b8060005b8581101561409d578484038952815161407e8582613b5a565b94506140898361571a565b925060208a01995050600181019050614065565b50829750879550505050505092915050565b60006140ba82615681565b6140c4818561583a565b93506140cf836155e3565b8060005b838110156141005781516140e78882613b6e565b97506140f283615727565b9250506001810190506140d3565b5085935050505092915050565b60006141198385615856565b93508360208402850161412b846155f3565b8060005b878110156141715784840389526141468284615a1e565b614151868284613b86565b955061415c84615734565b935060208b019a50505060018101905061412f565b50829750879450505050509392505050565b600061418f8385615867565b9350836020840285016141a1846155f3565b8060005b878110156141e75784840389526141bc8284615a1e565b6141c7868284613b86565b95506141d284615734565b935060208b019a5050506001810190506141a5565b50829750879450505050509392505050565b60006142058385615878565b935083602084028501614217846155f3565b8060005b8781101561425d5784840389526142328284615a1e565b61423d868284613b9c565b955061424884615734565b935060208b019a50505060018101905061421b565b50829750879450505050509392505050565b600061427a8261568c565b614284818561584b565b935083602082028501614296856155fd565b8060005b858110156142d257848403895281516142b38582613bb2565b94506142be83615741565b925060208a0199505060018101905061429a565b50829750879550505050505092915050565b60006142ef82615697565b6142f98185615856565b93508360208202850161430b85615607565b8060005b8581101561434757848403895281516143288582613bb2565b94506143338361574e565b925060208a0199505060018101905061430f565b50829750879550505050505092915050565b600061436482615697565b61436e8185615867565b93508360208202850161438085615607565b8060005b858110156143bc578484038952815161439d8582613bb2565b94506143a88361574e565b925060208a01995050600181019050614384565b50829750879550505050505092915050565b60006143d982615697565b6143e38185615878565b9350836020820285016143f585615607565b8060005b8581101561443157848403895281516144128582613bc6565b945061441d8361574e565b925060208a019950506001810190506143f9565b50829750879550505050505092915050565b600061444f8385615889565b93508360208402850161446184615617565b8060005b878110156144a757848403895261447c8284615a75565b614487868284613bda565b95506144928461575b565b935060208b019a505050600181019050614465565b50829750879450505050509392505050565b60006144c4826156a2565b6144ce8185615889565b9350836020820285016144e085615621565b8060005b8581101561451c57848403895281516144fd8582613bf0565b945061450883615768565b925060208a019950506001810190506144e4565b50829750879550505050505092915050565b6000614539826156a2565b614543818561589a565b93508360208202850161455585615621565b8060005b8581101561459157848403895281516145728582613c04565b945061457d83615768565b925060208a01995050600181019050614559565b50829750879550505050505092915050565b6145ac816156ad565b6145b681846158ab565b92506145c182615631565b8060005b838110156145f25781516145d98782613c18565b96506145e483615775565b9250506001810190506145c5565b505050505050565b614603816156ad565b61460d81846158b6565b925061461882615631565b8060005b838110156146495781516146308782613c30565b965061463b83615775565b92505060018101905061461c565b505050505050565b61465a816156b8565b61466481846158c1565b925061466f8261563b565b8060005b838110156146a05781516146878782613c18565b965061469283615782565b925050600181019050614673565b505050505050565b60006146b483856158cc565b93507f07ffffffffffffffffffffffffffffffffffffffffffffffffffffffffffffff8311156146e357600080fd5b6020830292506146f4838584615bfe565b82840190509392505050565b600061470c83856158dd565b93507f07ffffffffffffffffffffffffffffffffffffffffffffffffffffffffffffff83111561473b57600080fd5b60208302925061474c838584615bfe565b82840190509392505050565b600061476483856158ee565b93507f07ffffffffffffffffffffffffffffffffffffffffffffffffffffffffffffff83111561479357600080fd5b6020830292506147a4838584615bfe565b82840190509392505050565b60006147bc83856158ff565b93507f07ffffffffffffffffffffffffffffffffffffffffffffffffffffffffffffff8311156147eb57600080fd5b6020830292506147fc838584615bfe565b82840190509392505050565b6000614813826156c3565b61481d81856158cc565b935061482883615645565b8060005b838110156148595781516148408882613c18565b975061484b8361578f565b92505060018101905061482c565b5085935050505092915050565b6000614871826156c3565b61487b81856158dd565b935061488683615645565b8060005b838110156148b757815161489e8882613c18565b97506148a98361578f565b92505060018101905061488a565b5085935050505092915050565b60006148cf826156c3565b6148d981856158ee565b93506148e483615645565b8060005b838110156149155781516148fc8882613c30565b97506149078361578f565b9250506001810190506148e8565b5085935050505092915050565b600061492d826156c3565b61493781856158ff565b935061494283615645565b8060005b8381101561497357815161495a8882613c30565b97506149658361578f565b925050600181019050614946565b5085935050505092915050565b61498981615b68565b82525050565b61499881615b68565b82525050565b6149a781615b68565b82525050565b60006149b9838561591b565b93506149c6838584615bfe565b6149cf83615d18565b840190509392505050565b60006149e5826156ce565b6149ef818561591b565b93506149ff818560208601615c0d565b614a0881615d18565b840191505092915050565b6000614a1e826156ce565b614a28818561593d565b9350614a38818560208601615c0d565b614a4181615d18565b840191505092915050565b6000614a57826156ce565b614a61818561594e565b9350614a71818560208601615c0d565b80840191505092915050565b6000614a8a603e8361592c565b9150614a9582615d29565b604082019050919050565b6000614aad600083615910565b9150614ab882615d78565b600082019050919050565b6000614ad060008361592c565b9150614adb82615d78565b600082019050919050565b8082525050565b60006101a083016000830151614b066000860182614d2d565b506020830151614b196020860182614980565b5060408301518482036040860152614b318282614808565b91505060608301518482036060860152614b4b82826142e4565b91505060808301518482036080860152614b658282613cd4565b91505060a083015184820360a0860152614b7f8282613fc5565b91505060c0830151614b9460c0860182614d2d565b5060e0830151614ba760e0860182614d2d565b50610100830151614bbc610100860182614d2d565b50610120830151614bd16101208601826145a3565b50610140830151614be6610160860182614980565b50610160830151848203610180860152614c008282614808565b9150508091505092915050565b60006101a083016000830151614c266000860182614d5a565b506020830151614c39602086018261499e565b5060408301518482036040860152614c518282614922565b91505060608301518482036060860152614c6b82826143ce565b91505060808301518482036080860152614c858282613d90565b91505060a083015184820360a0860152614c9f828261403a565b91505060c0830151614cb460c0860182614d5a565b5060e0830151614cc760e0860182614d5a565b50610100830151614cdc610100860182614d5a565b50610120830151614cf16101208601826145fa565b50610140830151614d0661016086018261499e565b50610160830151848203610180860152614d208282614922565b9150508091505092915050565b614d3681615b94565b82525050565b614d4581615b94565b82525050565b614d5481615b94565b82525050565b614d6381615b94565b82525050565b6000614d758284614a4c565b915081905092915050565b6000614d8b82614aa0565b9150819050919050565b600061016082019050614dab600083018c613c75565b81810360e0830152614dbe818a8c613dee565b9050818103610100830152614dd481888a614183565b9050818103610120830152614dea818688613f4f565b9050818103610140830152614e00818486614700565b90509a9950505050505050505050565b60006020820190508181036000830152614e2a81846140af565b905092915050565b60006060820190508181036000830152614e4c818661426f565b9050614e5b6020830185614d3c565b614e686040830184614d3c565b949350505050565b60006020820190508181036000830152614e8b818486614700565b90509392505050565b60006040820190508181036000830152614eaf818587614758565b9050614ebe6020830184614ae6565b949350505050565b60006020820190508181036000830152614ee08184614866565b905092915050565b60006080820190508181036000830152614f0281876148c4565b90508181036020830152614f168186613d32565b9050614f256040830185614d4b565b614f326060830184614ae6565b95945050505050565b60006080820190508181036000830152614f558187614866565b9050614f646020830186614d3c565b8181036040830152614f768185614359565b90508181036060830152614f8a8184613eda565b905095945050505050565b60006020820190508181036000830152614fae81614a7d565b9050919050565b60006020820190508181036000830152614fce81614ac3565b9050919050565b60006020820190508181036000830152614fef8184614c0d565b905092915050565b600060208201905081810360008301526150118184614aed565b905092915050565b600060208201905061502e6000830184614d3c565b92915050565b60006040820190506150496000830185614d4b565b615056602083018461498f565b9392505050565b600060a0820190506150726000830189614d4b565b61507f6020830188614ae6565b61508c6040830187614d4b565b818103606083015261509f818587613e64565b90506150ae6080830184614d4b565b979650505050505050565b60006040820190506150ce6000830185614d3c565b6150db6020830184614d3c565b9392505050565b6000610120820190506150f86000830186614d3c565b6151056020830185614d3c565b6151126040830184613c75565b949350505050565b600060608201905061512f6000830186614d3c565b61513c6020830185614d3c565b6151496040830184614d3c565b949350505050565b60006080820190506151666000830187614d3c565b6151736020830186614d3c565b6151806040830185614d3c565b61518d6060830184614d3c565b95945050505050565b6000610120820190506151ac600083018c614d3c565b6151b9602083018b614d3c565b6151c6604083018a614d3c565b6151d36060830189614d3c565b6151e06080830188614d3c565b6151ed60a0830187614d3c565b6151fa60c0830186614d3c565b61520760e0830185613c48565b615215610100830184614d3c565b9a9950505050505050505050565b6000808335600160200384360303811261523c57600080fd5b80840192508235915067ffffffffffffffff82111561525a57600080fd5b60208301925060208202360383131561527257600080fd5b509250929050565b6000808335600160200384360303811261529357600080fd5b80840192508235915067ffffffffffffffff8211156152b157600080fd5b6020830192506020820236038313156152c957600080fd5b509250929050565b600080833560016020038436030381126152ea57600080fd5b80840192508235915067ffffffffffffffff82111561530857600080fd5b60208301925060208202360383131561532057600080fd5b509250929050565b6000808335600160200384360303811261534157600080fd5b80840192508235915067ffffffffffffffff82111561535f57600080fd5b60208301925060208202360383131561537757600080fd5b509250929050565b600061538961539a565b90506153958282615c40565b919050565b6000604051905090565b600067ffffffffffffffff8211156153bf576153be615ce9565b5b602082029050602081019050919050565b600067ffffffffffffffff8211156153eb576153ea615ce9565b5b602082029050919050565b600067ffffffffffffffff82111561541157615410615ce9565b5b602082029050602081019050919050565b600067ffffffffffffffff82111561543d5761543c615ce9565b5b602082029050602081019050919050565b600067ffffffffffffffff82111561546957615468615ce9565b5b602082029050919050565b600067ffffffffffffffff82111561548f5761548e615ce9565b5b602082029050919050565b600067ffffffffffffffff8211156154b5576154b4615ce9565b5b602082029050602081019050919050565b600067ffffffffffffffff8211156154e1576154e0615ce9565b5b602082029050602081019050919050565b600067ffffffffffffffff82111561550d5761550c615ce9565b5b602082029050919050565b600067ffffffffffffffff82111561553357615532615ce9565b5b602082029050919050565b600067ffffffffffffffff82111561555957615558615ce9565b5b602082029050602081019050919050565b600067ffffffffffffffff82111561558557615584615ce9565b5b61558e82615d18565b9050602081019050919050565b6000819050919050565b6000819050602082019050919050565b6000819050919050565b6000819050919050565b6000819050919050565b6000819050602082019050919050565b6000819050602082019050919050565b6000819050919050565b6000819050919050565b6000819050602082019050919050565b6000819050919050565b6000819050602082019050919050565b6000819050919050565b6000819050919050565b6000819050602082019050919050565b600060079050919050565b600081519050919050565b600060029050919050565b600081519050919050565b600081519050919050565b600060059050919050565b600081519050919050565b600081519050919050565b600060029050919050565b600060049050919050565b600081519050919050565b600081519050919050565b6000602082019050919050565b6000602082019050919050565b6000602082019050919050565b6000602082019050919050565b6000602082019050919050565b6000602082019050919050565b6000602082019050919050565b6000602082019050919050565b6000602082019050919050565b6000602082019050919050565b6000602082019050919050565b6000602082019050919050565b6000602082019050919050565b6000602082019050919050565b6000602082019050919050565b600081905092915050565b600082825260208201905092915050565b600082825260208201905092915050565b600082825260208201905092915050565b600081905092915050565b600082825260208201905092915050565b600082825260208201905092915050565b600082825260208201905092915050565b600082825260208201905092915050565b600082825260208201905092915050565b600082825260208201905092915050565b600081905092915050565b600082825260208201905092915050565b600082825260208201905092915050565b600082825260208201905092915050565b600082825260208201905092915050565b600082825260208201905092915050565b600081905092915050565b600081905092915050565b600081905092915050565b600082825260208201905092915050565b600082825260208201905092915050565b600082825260208201905092915050565b600082825260208201905092915050565b600081905092915050565b600082825260208201905092915050565b600082825260208201905092915050565b600082825260208201905092915050565b600081905092915050565b60006159686020840184613158565b905092915050565b6000808335600160200384360303811261598957600080fd5b83810192508235915060208301925067ffffffffffffffff8211156159ad57600080fd5b6020820236038413156159bf57600080fd5b509250929050565b600080833560016020038436030381126159e057600080fd5b83810192508235915060208301925067ffffffffffffffff821115615a0457600080fd5b602082023603841315615a1657600080fd5b509250929050565b60008083356001602003843603038112615a3757600080fd5b83810192508235915060208301925067ffffffffffffffff821115615a5b57600080fd5b602082023603841315615a6d57600080fd5b509250929050565b60008083356001602003843603038112615a8e57600080fd5b83810192508235915060208301925067ffffffffffffffff821115615ab257600080fd5b600182023603841315615ac457600080fd5b509250929050565b6000615ad782615b94565b9150615ae283615b94565b9250827fffffffffffffffffffffffffffffffffffffffffffffffffffffffffffffffff03821115615b1757615b16615cba565b5b828201905092915050565b6000615b2d82615b94565b9150615b3883615b94565b925082821015615b4b57615b4a615cba565b5b828203905092915050565b6000615b6182615b74565b9050919050565b60008115159050919050565b600073ffffffffffffffffffffffffffffffffffffffff82169050919050565b6000819050919050565b6000615bab368484612bfe565b905092915050565b6000615bc0368484612dea565b905092915050565b6000615bd382615bda565b9050919050565b6000615be582615bec565b9050919050565b6000615bf782615b74565b9050919050565b82818337600083830152505050565b60005b83811015615c2b578082015181840152602081019050615c10565b83811115615c3a576000848401525b50505050565b615c4982615d18565b810181811067ffffffffffffffff82111715615c6857615c67615ce9565b5b80604052505050565b6000615c7c82615b94565b91507fffffffffffffffffffffffffffffffffffffffffffffffffffffffffffffffff821415615caf57615cae615cba565b5b600182019050919050565b7f4e487b7100000000000000000000000000000000000000000000000000000000600052601160045260246000fd5b7f4e487b7100000000000000000000000000000000000000000000000000000000600052604160045260246000fd5b6000601f19601f8301169050919050565b7f6163636f756e7420616c72656164792065786973747320666f7220746865207360008201527f70656369666965642061646472657373206265696e6720637265617465640000602082015250565b50565b615d8481615b56565b8114615d8f57600080fd5b50565b615d9b81615b68565b8114615da657600080fd5b50565b615db281615b94565b8114615dbd57600080fd5b5056fea26469706673582212206d14f34244bcf90946edba4e9f57125d8dd8a7d794de048cded21c7c872e960764736f6c63430008040033",
  "linkReferences": {
    "contracts/E5D/E3.sol": {
      "E3": [
        {
          "length": 20,
          "start": 6935
        },
        {
          "length": 20,
          "start": 7242
        }
      ]
    },
    "contracts/E5D/E32.sol": {
      "E32": [
        {
          "length": 20,
          "start": 8874
        }
      ]
    },
    "contracts/E5D/E33.sol": {
      "E33": [
        {
          "length": 20,
          "start": 749
        },
        {
          "length": 20,
          "start": 1900
        },
        {
          "length": 20,
          "start": 3390
        },
        {
          "length": 20,
          "start": 3511
        },
        {
          "length": 20,
          "start": 3957
        },
        {
          "length": 20,
          "start": 8484
        }
      ]
    }
  },
  "deployedLinkReferences": {
    "contracts/E5D/E3.sol": {
      "E3": [
        {
          "length": 20,
          "start": 6783
        },
        {
          "length": 20,
          "start": 7090
        }
      ]
    },
    "contracts/E5D/E32.sol": {
      "E32": [
        {
          "length": 20,
          "start": 8722
        }
      ]
    },
    "contracts/E5D/E33.sol": {
      "E33": [
        {
          "length": 20,
          "start": 597
        },
        {
          "length": 20,
          "start": 1748
        },
        {
          "length": 20,
          "start": 3238
        },
        {
          "length": 20,
          "start": 3359
        },
        {
          "length": 20,
          "start": 3805
        },
        {
          "length": 20,
          "start": 8332
        }
      ]
    }
  }
}