{
  "_format": "hh-sol-artifact-1",
  "contractName": "E5",
  "sourceName": "contracts/E5D/E5.sol",
  "abi": [
    {
      "inputs": [],
      "stateMutability": "nonpayable",
      "type": "constructor"
    },
    {
      "anonymous": false,
      "inputs": [
        {
          "indexed": true,
          "internalType": "uint256",
          "name": "p1",
          "type": "uint256"
        },
        {
          "indexed": true,
          "internalType": "uint256",
          "name": "p2",
          "type": "uint256"
        },
        {
          "indexed": true,
          "internalType": "uint256",
          "name": "p3",
          "type": "uint256"
        },
        {
          "indexed": false,
          "internalType": "uint256",
          "name": "p4",
          "type": "uint256"
        },
        {
          "indexed": false,
          "internalType": "uint256",
          "name": "p5",
          "type": "uint256"
        }
      ],
      "name": "e1",
      "type": "event"
    },
    {
      "anonymous": false,
      "inputs": [
        {
          "indexed": true,
          "internalType": "uint256",
          "name": "p1",
          "type": "uint256"
        },
        {
          "indexed": true,
          "internalType": "address",
          "name": "p2",
          "type": "address"
        },
        {
          "indexed": true,
          "internalType": "address",
          "name": "p3",
          "type": "address"
        },
        {
          "indexed": false,
          "internalType": "uint256",
          "name": "p4",
          "type": "uint256"
        },
        {
          "indexed": false,
          "internalType": "uint256",
          "name": "p5",
          "type": "uint256"
        },
        {
          "indexed": false,
          "internalType": "uint256",
          "name": "p6",
          "type": "uint256"
        },
        {
          "indexed": false,
          "internalType": "uint256",
          "name": "p7",
          "type": "uint256"
        }
      ],
      "name": "e2",
      "type": "event"
    },
    {
      "anonymous": false,
      "inputs": [
        {
          "indexed": true,
          "internalType": "uint256",
          "name": "p1",
          "type": "uint256"
        },
        {
          "indexed": false,
          "internalType": "uint256",
          "name": "p2",
          "type": "uint256"
        },
        {
          "indexed": false,
          "internalType": "uint256",
          "name": "p3",
          "type": "uint256"
        },
        {
          "indexed": false,
          "internalType": "uint256",
          "name": "p4",
          "type": "uint256"
        }
      ],
      "name": "e3",
      "type": "event"
    },
    {
      "anonymous": false,
      "inputs": [
        {
          "indexed": true,
          "internalType": "uint256",
          "name": "p1",
          "type": "uint256"
        },
        {
          "indexed": true,
          "internalType": "address",
          "name": "p2",
          "type": "address"
        },
        {
          "indexed": false,
          "internalType": "uint256",
          "name": "p3",
          "type": "uint256"
        },
        {
          "indexed": false,
          "internalType": "uint256",
          "name": "p4",
          "type": "uint256"
        },
        {
          "indexed": false,
          "internalType": "uint256",
          "name": "p5",
          "type": "uint256"
        },
        {
          "indexed": false,
          "internalType": "uint256",
          "name": "p6",
          "type": "uint256"
        },
        {
          "indexed": false,
          "internalType": "uint256",
          "name": "p7",
          "type": "uint256"
        },
        {
          "indexed": false,
          "internalType": "uint256",
          "name": "p8",
          "type": "uint256"
        },
        {
          "indexed": false,
          "internalType": "uint256",
          "name": "p9",
          "type": "uint256"
        },
        {
          "indexed": false,
          "internalType": "address",
          "name": "p10",
          "type": "address"
        },
        {
          "indexed": false,
          "internalType": "uint256",
          "name": "p11",
          "type": "uint256"
        }
      ],
      "name": "e4",
      "type": "event"
    },
    {
      "anonymous": false,
      "inputs": [
        {
          "indexed": true,
          "internalType": "uint256",
          "name": "p1",
          "type": "uint256"
        },
        {
          "indexed": true,
          "internalType": "string",
          "name": "p2",
          "type": "string"
        },
        {
          "indexed": false,
          "internalType": "uint256",
          "name": "p3",
          "type": "uint256"
        },
        {
          "indexed": false,
          "internalType": "uint256",
          "name": "p4",
          "type": "uint256"
        }
      ],
      "name": "e5",
      "type": "event"
    },
    {
      "anonymous": false,
      "inputs": [
        {
          "indexed": true,
          "internalType": "uint256",
          "name": "p1",
          "type": "uint256"
        },
        {
          "indexed": true,
          "internalType": "address",
          "name": "p2",
          "type": "address"
        },
        {
          "indexed": true,
          "internalType": "uint256",
          "name": "p3",
          "type": "uint256"
        },
        {
          "indexed": false,
          "internalType": "uint256",
          "name": "p4",
          "type": "uint256"
        },
        {
          "indexed": false,
          "internalType": "uint256",
          "name": "p5",
          "type": "uint256"
        },
        {
          "indexed": false,
          "internalType": "uint256",
          "name": "p6",
          "type": "uint256"
        }
      ],
      "name": "e6",
      "type": "event"
    },
    {
      "anonymous": false,
      "inputs": [
        {
          "indexed": true,
          "internalType": "address",
          "name": "p1",
          "type": "address"
        },
        {
          "indexed": true,
          "internalType": "address",
          "name": "p2",
          "type": "address"
        },
        {
          "indexed": false,
          "internalType": "uint256",
          "name": "p3",
          "type": "uint256"
        },
        {
          "indexed": false,
          "internalType": "uint256",
          "name": "p4",
          "type": "uint256"
        },
        {
          "indexed": false,
          "internalType": "address[7]",
          "name": "p5",
          "type": "address[7]"
        }
      ],
      "name": "e7",
      "type": "event"
    },
    {
      "inputs": [
        {
          "internalType": "uint256[2]",
          "name": "p1",
          "type": "uint256[2]"
        },
        {
          "internalType": "address[][]",
          "name": "p2",
          "type": "address[][]"
        },
        {
          "internalType": "uint256[][][]",
          "name": "p3",
          "type": "uint256[][][]"
        },
        {
          "internalType": "string[][][]",
          "name": "p4",
          "type": "string[][][]"
        }
      ],
      "name": "e",
      "outputs": [],
      "stateMutability": "payable",
      "type": "function"
    },
    {
      "inputs": [
        {
          "internalType": "address",
          "name": "p1",
          "type": "address"
        },
        {
          "internalType": "uint256[2]",
          "name": "p2",
          "type": "uint256[2]"
        }
      ],
      "name": "f145",
      "outputs": [],
      "stateMutability": "nonpayable",
      "type": "function"
    },
    {
      "inputs": [
        {
          "internalType": "uint256",
          "name": "v1",
          "type": "uint256"
        }
      ],
      "name": "f147",
      "outputs": [
        {
          "internalType": "uint256",
          "name": "",
          "type": "uint256"
        }
      ],
      "stateMutability": "view",
      "type": "function"
    },
    {
      "inputs": [
        {
          "internalType": "address[7]",
          "name": "p1",
          "type": "address[7]"
        },
        {
          "internalType": "uint256[][][]",
          "name": "p2",
          "type": "uint256[][][]"
        },
        {
          "internalType": "uint256[][]",
          "name": "p3",
          "type": "uint256[][]"
        },
        {
          "internalType": "string[][]",
          "name": "p4",
          "type": "string[][]"
        },
        {
          "internalType": "uint256[]",
          "name": "p5",
          "type": "uint256[]"
        }
      ],
      "name": "f157",
      "outputs": [],
      "stateMutability": "nonpayable",
      "type": "function"
    },
    {
      "inputs": [
        {
          "internalType": "uint256[]",
          "name": "p1",
          "type": "uint256[]"
        },
        {
          "internalType": "address[]",
          "name": "p2",
          "type": "address[]"
        },
        {
          "internalType": "uint256",
          "name": "p3",
          "type": "uint256"
        }
      ],
      "name": "f167",
      "outputs": [
        {
          "internalType": "uint256[]",
          "name": "",
          "type": "uint256[]"
        }
      ],
      "stateMutability": "view",
      "type": "function"
    },
    {
      "inputs": [
        {
          "internalType": "address[7]",
          "name": "p1",
          "type": "address[7]"
        }
      ],
      "name": "f2023",
      "outputs": [],
      "stateMutability": "nonpayable",
      "type": "function"
    },
    {
      "inputs": [
        {
          "internalType": "uint256[]",
          "name": "p1",
          "type": "uint256[]"
        }
      ],
      "name": "f206",
      "outputs": [],
      "stateMutability": "nonpayable",
      "type": "function"
    },
    {
      "inputs": [
        {
          "internalType": "uint256[]",
          "name": "p1",
          "type": "uint256[]"
        }
      ],
      "name": "f280",
      "outputs": [
        {
          "internalType": "uint256[]",
          "name": "v1",
          "type": "uint256[]"
        }
      ],
      "stateMutability": "view",
      "type": "function"
    },
    {
      "inputs": [
        {
          "internalType": "uint256[]",
          "name": "p1",
          "type": "uint256[]"
        }
      ],
      "name": "f287",
      "outputs": [
        {
          "internalType": "uint256[4][]",
          "name": "v1",
          "type": "uint256[4][]"
        },
        {
          "internalType": "address[]",
          "name": "v2",
          "type": "address[]"
        }
      ],
      "stateMutability": "view",
      "type": "function"
    },
    {
      "inputs": [
        {
          "internalType": "uint256",
          "name": "p1",
          "type": "uint256"
        }
      ],
      "name": "f289",
      "outputs": [
        {
          "internalType": "address",
          "name": "",
          "type": "address"
        }
      ],
      "stateMutability": "view",
      "type": "function"
    }
  ],
  "bytecode": "0x60a06040526103e86000556000600160006101000a81548160ff0219169083151502179055503373ffffffffffffffffffffffffffffffffffffffff1660809073ffffffffffffffffffffffffffffffffffffffff1660601b8152506001600355600160105534801561007157600080fd5b5060805160601c615fca62000098600039600081816107f40152610e940152615fca6000f3fe6080604052600436106100815760003560e01c80630a6f3c9c146100865780631b6976a3146100c45780633fc51072146100e057806341a619bc1461011d5780635aec9c211461014657806376f2111d146101835780638d8a20bc146101c0578063a2703b71146101e9578063cff3e9a814610212578063f291690a1461024f575b600080fd5b34801561009257600080fd5b506100ad60048036038101906100a8919061395b565b610278565b6040516100bb929190614f97565b60405180910390f35b6100de60048036038101906100d99190613879565b610317565b005b3480156100ec57600080fd5b506101076004803603810190610102919061395b565b610757565b6040516101149190615062565b60405180910390f35b34801561012957600080fd5b50610144600480360381019061013f91906136e0565b6107f2565b005b34801561015257600080fd5b5061016d60048036038101906101689190613af7565b610da2565b60405161017a9190614f01565b60405180910390f35b34801561018f57600080fd5b506101aa60048036038101906101a591906139e1565b610df4565b6040516101b79190615062565b60405180910390f35b3480156101cc57600080fd5b506101e760048036038101906101e291906136b7565b610e92565b005b3480156101f557600080fd5b50610210600480360381019061020b919061395b565b610f56565b005b34801561021e57600080fd5b5061023960048036038101906102349190613af7565b6110b4565b60405161024691906151ca565b60405180910390f35b34801561025b57600080fd5b506102766004803603810190610271919061367b565b611116565b005b60608073__$f27e79961c3433e31ab5fa1d53780be647$__63b9ae91dc858560046040518463ffffffff1660e01b81526004016102b793929190615030565b60006040518083038186803b1580156102cf57600080fd5b505af41580156102e3573d6000803e3d6000fd5b505050506040513d6000823e3d601f19601f8201168201806040525081019061030c91906137cc565b915091509250929050565b60005a90506000610327896112ea565b9050600061033a878787878d8d896113bf565b9050600160108190555060005b8787905081101561067b57808260c0018181525050600081146104cc5787878281811061039d577f4e487b7100000000000000000000000000000000000000000000000000000000600052603260045260246000fd5b90506020028101906103af9190615482565b906103ba9190615d75565b8260600181905250808a8a9050111561046157898982818110610406577f4e487b7100000000000000000000000000000000000000000000000000000000600052603260045260246000fd5b905060200281019061041891906153d4565b80806020026020016040519081016040528093929190818152602001838360200280828437600081840152601f19601f8201169050808301925050505050505082608001819052505b808686905011156104cb578585828181106104a5577f4e487b7100000000000000000000000000000000000000000000000000000000600052603260045260246000fd5b90506020028101906104b7919061542b565b906104c29190615d60565b8260a001819052505b5b612710888883818110610508577f4e487b7100000000000000000000000000000000000000000000000000000000600052603260045260246000fd5b905060200281019061051a9190615482565b6000818110610552577f4e487b7100000000000000000000000000000000000000000000000000000000600052603260045260246000fd5b905060200281019061056491906154d9565b600081811061059c577f4e487b7100000000000000000000000000000000000000000000000000000000600052603260045260246000fd5b90506020020135141561062a5760005a90506105b783611781565b836040015183815181106105f4577f4e487b7100000000000000000000000000000000000000000000000000000000600052603260045260246000fd5b6020026020010181815250505a8161060c9190615ce4565b6010600082825461061d9190615c8e565b9250508190555050610668565b60005a9050610638836118c3565b836101000181815250505a8161064e9190615ce4565b6010600082825461065f9190615c8e565b92505081905550505b808061067390615e45565b915050610347565b5060016004800160008360000151815260200190815260200160002060006001815260200190815260200160002060006003815260200190815260200160002060008282546106ca9190615c8e565b925050819055506106d9612060565b3373ffffffffffffffffffffffffffffffffffffffff1681600001517f51560e0be7b5fee8b1796cc3713c67a0aa68bb449b93c46f3cb90a895b66c942848a8a90505a886107279190615ce4565b343a424341600060405161074399989796959493929190615347565b60405180910390a350505050505050505050565b606073__$f27e79961c3433e31ab5fa1d53780be647$__632ac19780848460046040518463ffffffff1660e01b815260040161079593929190615030565b60006040518083038186803b1580156107ad57600080fd5b505af41580156107c1573d6000803e3d6000fd5b505050506040513d6000823e3d601f19601f820116820180604052508101906107ea91906139a0565b905092915050565b7f000000000000000000000000000000000000000000000000000000000000000073ffffffffffffffffffffffffffffffffffffffff163373ffffffffffffffffffffffffffffffffffffffff1614801561085a5750600160009054906101000a900460ff16155b61086357600080fd5b60018060006101000a81548160ff02191690831515021790555060005b600781101561093f576001600260008c84600781106108c8577f4e487b7100000000000000000000000000000000000000000000000000000000600052603260045260246000fd5b6020020160208101906108db9190613652565b73ffffffffffffffffffffffffffffffffffffffff1673ffffffffffffffffffffffffffffffffffffffff16815260200190815260200160002060006101000a81548160ff021916908315150217905550808061093790615e45565b915050610880565b508860016007811061097a577f4e487b7100000000000000000000000000000000000000000000000000000000600052603260045260246000fd5b60200201602081019061098d9190613652565b600a60006101000a81548173ffffffffffffffffffffffffffffffffffffffff021916908373ffffffffffffffffffffffffffffffffffffffff16021790555088600260078110610a07577f4e487b7100000000000000000000000000000000000000000000000000000000600052603260045260246000fd5b602002016020810190610a1a9190613652565b600d60006101000a81548173ffffffffffffffffffffffffffffffffffffffff021916908373ffffffffffffffffffffffffffffffffffffffff16021790555088600360078110610a94577f4e487b7100000000000000000000000000000000000000000000000000000000600052603260045260246000fd5b602002016020810190610aa79190613652565b600b60006101000a81548173ffffffffffffffffffffffffffffffffffffffff021916908373ffffffffffffffffffffffffffffffffffffffff16021790555088600460078110610b21577f4e487b7100000000000000000000000000000000000000000000000000000000600052603260045260246000fd5b602002016020810190610b349190613652565b600c60006101000a81548173ffffffffffffffffffffffffffffffffffffffff021916908373ffffffffffffffffffffffffffffffffffffffff16021790555088600560078110610bae577f4e487b7100000000000000000000000000000000000000000000000000000000600052603260045260246000fd5b602002016020810190610bc19190613652565b600e60006101000a81548173ffffffffffffffffffffffffffffffffffffffff021916908373ffffffffffffffffffffffffffffffffffffffff16021790555088600660078110610c3b577f4e487b7100000000000000000000000000000000000000000000000000000000600052603260045260246000fd5b602002016020810190610c4e9190613652565b600f60006101000a81548173ffffffffffffffffffffffffffffffffffffffff021916908373ffffffffffffffffffffffffffffffffffffffff160217905550600d60009054906101000a900473ffffffffffffffffffffffffffffffffffffffff1673ffffffffffffffffffffffffffffffffffffffff1663ec21a35f8a8a8a8a8a8a8a8a8a6040518a63ffffffff1660e01b8152600401610cf999989796959493929190614f1c565b600060405180830381600087803b158015610d1357600080fd5b505af1158015610d27573d6000803e3d6000fd5b5050505073__$f27e79961c3433e31ab5fa1d53780be647$__63e0f62d2a838360046040518463ffffffff1660e01b8152600401610d6793929190615030565b60006040518083038186803b158015610d7f57600080fd5b505af4158015610d93573d6000803e3d6000fd5b50505050505050505050505050565b600060046002016000600a8152602001908152602001600020600083815260200190815260200160002060009054906101000a900473ffffffffffffffffffffffffffffffffffffffff169050919050565b606073__$f27e79961c3433e31ab5fa1d53780be647$__63a4417f2185858560046040518563ffffffff1660e01b8152600401610e349493929190615084565b60006040518083038186803b158015610e4c57600080fd5b505af4158015610e60573d6000803e3d6000fd5b505050506040513d6000823e3d601f19601f82011682018060405250810190610e8991906139a0565b90509392505050565b7f000000000000000000000000000000000000000000000000000000000000000073ffffffffffffffffffffffffffffffffffffffff163373ffffffffffffffffffffffffffffffffffffffff1614610eea57600080fd5b3373ffffffffffffffffffffffffffffffffffffffff163073ffffffffffffffffffffffffffffffffffffffff167fd9432748d2aa3f7169aef587dbfa3326350a8535cbe4eed4d4ff1f58b14dbc69424385604051610f4b93929190615293565b60405180910390a350565b3360011515600260008373ffffffffffffffffffffffffffffffffffffffff1673ffffffffffffffffffffffffffffffffffffffff16815260200190815260200160002060009054906101000a900460ff16151514610fb457600080fd5b73__$f27e79961c3433e31ab5fa1d53780be647$__63e0f62d2a848460046040518463ffffffff1660e01b8152600401610ff093929190615030565b60006040518083038186803b15801561100857600080fd5b505af415801561101c573d6000803e3d6000fd5b50505050600a60009054906101000a900473ffffffffffffffffffffffffffffffffffffffff1673ffffffffffffffffffffffffffffffffffffffff1663f6cd7dc584846040518363ffffffff1660e01b815260040161107d92919061500c565b600060405180830381600087803b15801561109757600080fd5b505af11580156110ab573d6000803e3d6000fd5b50505050505050565b600060018214156110c757479050611111565b60028214156110d857429050611111565b60038214156110e957439050611111565b60048214156110fa57459050611111565b600582141561110b57449050611111565b60005490505b919050565b61fde85a111561112557600080fd5b6000611130826112ea565b9050600060046001016000600a815260200190815260200160002060003373ffffffffffffffffffffffffffffffffffffffff1673ffffffffffffffffffffffffffffffffffffffff1681526020019081526020016000205490506000600460000160008381526020019081526020016000205490506000600460000160008481526020019081526020016000208190555060008573ffffffffffffffffffffffffffffffffffffffff16826040516111e890614eec565b60006040518083038185875af1925050503d8060008114611225576040519150601f19603f3d011682016040523d82523d6000602084013e61122a565b606091505b505090508061126e576040517f08c379a000000000000000000000000000000000000000000000000000000000815260040161126590615166565b60405180910390fd5b611276612060565b8573ffffffffffffffffffffffffffffffffffffffff163373ffffffffffffffffffffffffffffffffffffffff16847f6f4f9f0d35e6404d637454b89ae29dac4517a51d4490567c3c3c8c0e6cef6c7c878642436040516112da9493929190615302565b60405180910390a4505050505050565b6000600160009054906101000a900460ff16801561130a57506001600354145b61131357600080fd5b600260038190555081600060028110611355577f4e487b7100000000000000000000000000000000000000000000000000000000600052603260045260246000fd5b602002013543111580156113a757508160016002811061139e577f4e487b7100000000000000000000000000000000000000000000000000000000600052603260045260246000fd5b60200201354211155b6113b057600080fd5b6113b861206a565b9050919050565b6113c7612a7b565b60008060006113d7858c8c61208b565b9250925092506000600480016000858152602001908152602001600020600060018152602001908152602001600020905060008089899050146114a5578888600081811061144e577f4e487b7100000000000000000000000000000000000000000000000000000000600052603260045260246000fd5b905060200281019061146091906153d4565b80806020026020016040519081016040528093929190818152602001838360200280828437600081840152601f19601f82011690508083019250505050505050611516565b600067ffffffffffffffff8111156114e6577f4e487b7100000000000000000000000000000000000000000000000000000000600052604160045260246000fd5b6040519080825280602002602001820160405280156115145781602001602082028036833780820191505090505b505b90506000808c8c905014611580578b8b600081811061155e577f4e487b7100000000000000000000000000000000000000000000000000000000600052603260045260246000fd5b9050602002810190611570919061542b565b9061157b9190615d60565b6115f6565b600067ffffffffffffffff8111156115c1577f4e487b7100000000000000000000000000000000000000000000000000000000600052604160045260246000fd5b6040519080825280602002602001820160405280156115f457816020015b60608152602001906001900390816115df5790505b505b905060405180610180016040528087815260200186151581526020018560006002811061164c577f4e487b7100000000000000000000000000000000000000000000000000000000600052603260045260246000fd5b602002015181526020018f8f6000818110611690577f4e487b7100000000000000000000000000000000000000000000000000000000600052603260045260246000fd5b90506020028101906116a29190615482565b906116ad9190615d75565b815260200183815260200182815260200160008152602001600081526020013481526020016040518060400160405280866000600381526020019081526020016000205481526020018660006004815260200190815260200160002054815250815260200160001515815260200185600160028110611755577f4e487b7100000000000000000000000000000000000000000000000000000000600052603260045260246000fd5b6020020151815250965060008e8e9050141561177057600080fd5b505050505050979650505050505050565b600061178b61206a565b8260e0018181525050600a60009054906101000a900473ffffffffffffffffffffffffffffffffffffffff1673ffffffffffffffffffffffffffffffffffffffff16636ee808998360600151600081518110611810577f4e487b7100000000000000000000000000000000000000000000000000000000600052603260045260246000fd5b6020026020010151600981518110611851577f4e487b7100000000000000000000000000000000000000000000000000000000600052603260045260246000fd5b602002602001015184600001518560e001516040518463ffffffff1660e01b8152600401611881939291906152cb565b600060405180830381600087803b15801561189b57600080fd5b505af11580156118af573d6000803e3d6000fd5b505050506118bc826121b4565b9050919050565b6000808261016001518360c0015181518110611908577f4e487b7100000000000000000000000000000000000000000000000000000000600052603260045260246000fd5b6020026020010151905082610100015191506102288114156119b657600a60009054906101000a900473ffffffffffffffffffffffffffffffffffffffff1673ffffffffffffffffffffffffffffffffffffffff16633de197b3846040518263ffffffff1660e01b815260040161197f91906151a8565b600060405180830381600087803b15801561199957600080fd5b505af11580156119ad573d6000803e3d6000fd5b5050505061205a565b6041811415611a5157600d60009054906101000a900473ffffffffffffffffffffffffffffffffffffffff1673ffffffffffffffffffffffffffffffffffffffff166385f5fa16846040518263ffffffff1660e01b8152600401611a1a91906151a8565b600060405180830381600087803b158015611a3457600080fd5b505af1158015611a48573d6000803e3d6000fd5b50505050612059565b604b811415611d575760008360600151600081518110611a9a577f4e487b7100000000000000000000000000000000000000000000000000000000600052603260045260246000fd5b6020026020010151600181518110611adb577f4e487b7100000000000000000000000000000000000000000000000000000000600052603260045260246000fd5b602002602001015190506005811415611c2a57600080600073__$7b11637b326fa12a30ce8fbc20da0b2192$__636731db27886040518263ffffffff1660e01b8152600401611b2a9190615186565b60006040518083038186803b158015611b4257600080fd5b505af4158015611b56573d6000803e3d6000fd5b505050506040513d6000823e3d601f19601f82011682018060405250810190611b7f9190613a60565b925092509250600b60009054906101000a900473ffffffffffffffffffffffffffffffffffffffff1673ffffffffffffffffffffffffffffffffffffffff16630ee632b884896000015185858c606001516040518663ffffffff1660e01b8152600401611bf09594939291906150d7565b600060405180830381600087803b158015611c0a57600080fd5b505af1158015611c1e573d6000803e3d6000fd5b50505050505050611d51565b600073__$7b11637b326fa12a30ce8fbc20da0b2192$__6386ae6f8b866040518263ffffffff1660e01b8152600401611c639190615186565b60006040518083038186803b158015611c7b57600080fd5b505af4158015611c8f573d6000803e3d6000fd5b505050506040513d6000823e3d601f19601f82011682018060405250810190611cb89190613838565b9050600b60009054906101000a900473ffffffffffffffffffffffffffffffffffffffff1673ffffffffffffffffffffffffffffffffffffffff16630676d171828760000151856040518463ffffffff1660e01b8152600401611d1d93929190614fce565b600060405180830381600087803b158015611d3757600080fd5b505af1158015611d4b573d6000803e3d6000fd5b50505050505b50612058565b6102f0811415611e6c576000600c60009054906101000a900473ffffffffffffffffffffffffffffffffffffffff1673ffffffffffffffffffffffffffffffffffffffff166322de72fc856040518263ffffffff1660e01b8152600401611dbe91906151a8565b602060405180830381600087803b158015611dd857600080fd5b505af1158015611dec573d6000803e3d6000fd5b505050506040513d601f19601f82011682018060405250810190611e109190613b20565b905080600480016000866000015181526020019081526020016000206000600181526020019081526020016000206000600481526020019081526020016000206000828254611e5f9190615c8e565b9250508190555050612057565b6055811415611fbd576000600e60009054906101000a900473ffffffffffffffffffffffffffffffffffffffff1673ffffffffffffffffffffffffffffffffffffffff16634d009804856040518263ffffffff1660e01b8152600401611ed291906151a8565b606060405180830381600087803b158015611eec57600080fd5b505af1158015611f00573d6000803e3d6000fd5b505050506040513d601f19601f82011682018060405250810190611f249190613932565b905080600260038110611f60577f4e487b7100000000000000000000000000000000000000000000000000000000600052603260045260246000fd5b60200201519250600081600060038110611fa3577f4e487b7100000000000000000000000000000000000000000000000000000000600052603260045260246000fd5b602002015114611fb757611fb68161261f565b5b50612056565b61035481141561205557600f60009054906101000a900473ffffffffffffffffffffffffffffffffffffffff1673ffffffffffffffffffffffffffffffffffffffff16639cc2ff8c846040518263ffffffff1660e01b815260040161202291906151a8565b600060405180830381600087803b15801561203c57600080fd5b505af1158015612050573d6000803e3d6000fd5b505050505b5b5b5b5b5b50919050565b6001600381905550565b600080600081548092919061207e90615e45565b9190505550600054905090565b600080612096612ae6565b60008060046001016000600a815260200190815260200160002060003373ffffffffffffffffffffffffffffffffffffffff1673ffffffffffffffffffffffffffffffffffffffff16815260200190815260200160002054146120fa576000612103565b61210261206a565b5b905073__$f27e79961c3433e31ab5fa1d53780be647$__639fb94791886004848a8a6000546040518763ffffffff1660e01b81526004016121499695949392919061520e565b60006040518083038186803b15801561216157600080fd5b505af4158015612175573d6000803e3d6000fd5b505050506040513d6000823e3d601f19601f8201168201806040525081019061219e9190613b49565b8094508195508296505050505093509350939050565b60008082606001516000815181106121f5577f4e487b7100000000000000000000000000000000000000000000000000000000600052603260045260246000fd5b6020026020010151600981518110612236577f4e487b7100000000000000000000000000000000000000000000000000000000600052603260045260246000fd5b6020026020010151905082604001518360c0015181518110612281577f4e487b7100000000000000000000000000000000000000000000000000000000600052603260045260246000fd5b6020026020010151915073__$2c5481ac3a53d4f4da52c7594a1c0a4117$__63febfd3168285602001516040518363ffffffff1660e01b81526004016122c89291906151e5565b60006040518083038186803b1580156122e057600080fd5b505af41580156122f4573d6000803e3d6000fd5b50505050601d8114156123115761230a83612771565b91506125d5565b601e8114806123205750602081145b156123b757600b60009054906101000a900473ffffffffffffffffffffffffffffffffffffffff1673ffffffffffffffffffffffffffffffffffffffff16633f0705fc846040518263ffffffff1660e01b815260040161238091906151a8565b600060405180830381600087803b15801561239a57600080fd5b505af11580156123ae573d6000803e3d6000fd5b505050506125d4565b601f81141561245257600e60009054906101000a900473ffffffffffffffffffffffffffffffffffffffff1673ffffffffffffffffffffffffffffffffffffffff166303c0d5d8846040518263ffffffff1660e01b815260040161241b91906151a8565b600060405180830381600087803b15801561243557600080fd5b505af1158015612449573d6000803e3d6000fd5b505050506125d3565b60218114156124ed57600d60009054906101000a900473ffffffffffffffffffffffffffffffffffffffff1673ffffffffffffffffffffffffffffffffffffffff16630d8d5052846040518263ffffffff1660e01b81526004016124b691906151a8565b600060405180830381600087803b1580156124d057600080fd5b505af11580156124e4573d6000803e3d6000fd5b505050506125d2565b60248114156125d1578260a00151600081518110612534577f4e487b7100000000000000000000000000000000000000000000000000000000600052603260045260246000fd5b6020026020010151600081518110612575577f4e487b7100000000000000000000000000000000000000000000000000000000600052603260045260246000fd5b602002602001015160405161258a9190614ed5565b60405180910390208360e001517f080ee4c321025e8bcbdace3c00f963d4968f61c7a4a04e0ec965ead5d50f3c6743426040516125c892919061526a565b60405180910390a35b5b5b5b5b8260000151818460e001517f82138c3e7c8da08373e0ee2722dc0f9641d5f8993c868f5e508ecbe227fb4da2424360405161261192919061526a565b60405180910390a450919050565b80600060038110612659577f4e487b7100000000000000000000000000000000000000000000000000000000600052603260045260246000fd5b6020020151600460000160008360016003811061269f577f4e487b7100000000000000000000000000000000000000000000000000000000600052603260045260246000fd5b6020020151815260200190815260200160002081905550806001600381106126f0577f4e487b7100000000000000000000000000000000000000000000000000000000600052603260045260246000fd5b60200201517fa46482b81c1a0d65e2c94037160e7f8310b688898a11779fbebf0abbe12cbc5182600060038110612750577f4e487b7100000000000000000000000000000000000000000000000000000000600052603260045260246000fd5b60200201514243604051612766939291906152cb565b60405180910390a250565b60008082608001516000815181106127b2577f4e487b7100000000000000000000000000000000000000000000000000000000600052603260045260246000fd5b60200260200101519050600060046001016000600a8152602001908152602001600020905060008160008473ffffffffffffffffffffffffffffffffffffffff1673ffffffffffffffffffffffffffffffffffffffff168152602001908152602001600020541415612968578360e0015160046001016000600a815260200190815260200160002060008473ffffffffffffffffffffffffffffffffffffffff1673ffffffffffffffffffffffffffffffffffffffff16815260200190815260200160002081905550600084606001516000815181106128bb577f4e487b7100000000000000000000000000000000000000000000000000000000600052603260045260246000fd5b60200260200101516003815181106128fc577f4e487b7100000000000000000000000000000000000000000000000000000000600052603260045260246000fd5b602002602001015190508460e001518373ffffffffffffffffffffffffffffffffffffffff1686600001517f407392862bf429f17180c8e1ec8d2cd5fd8aa4e1cb5e15767e3ae6a87d2de0a184424360405161295a939291906152cb565b60405180910390a450612a33565b600184606001516000815181106129a8577f4e487b7100000000000000000000000000000000000000000000000000000000600052603260045260246000fd5b60200260200101516005815181106129e9577f4e487b7100000000000000000000000000000000000000000000000000000000600052603260045260246000fd5b60200260200101511415612a32576040517f08c379a0000000000000000000000000000000000000000000000000000000008152600401612a2990615146565b60405180910390fd5b5b8060008373ffffffffffffffffffffffffffffffffffffffff1673ffffffffffffffffffffffffffffffffffffffff1681526020019081526020016000205492505050919050565b6040518061018001604052806000815260200160001515815260200160608152602001606081526020016060815260200160608152602001600081526020016000815260200160008152602001612ad0612b0d565b8152602001600015158152602001606081525090565b60405180604001604052806002905b6060815260200190600190039081612af55790505090565b6040518060400160405280600290602082028036833780820191505090505090565b6000612b42612b3d84615555565b615530565b90508083825260208201905082856020860282011115612b6157600080fd5b60005b85811015612b915781612b7788826131de565b845260208401935060208301925050600181019050612b64565b5050509392505050565b6000612bae612ba984615555565b615530565b90508083825260208201905082856020860282011115612bcd57600080fd5b60005b85811015612bfd5781612be388826131f3565b845260208401935060208301925050600181019050612bd0565b5050509392505050565b6000612c1a612c1584615581565b615530565b90508082856020860282011115612c3057600080fd5b60005b85811015612c7a57815167ffffffffffffffff811115612c5257600080fd5b808601612c5f898261348b565b85526020850194506020840193505050600181019050612c33565b5050509392505050565b6000612c97612c92846155a7565b615530565b90508083825260208201905082856020860282011115612cb657600080fd5b60005b85811015612d0057813567ffffffffffffffff811115612cd857600080fd5b808601612ce589826134b5565b85526020850194506020840193505050600181019050612cb9565b5050509392505050565b6000612d1d612d18846155d3565b615530565b90508083825260208201905082856080860282011115612d3c57600080fd5b60005b85811015612d6c5781612d528882613524565b845260208401935060808301925050600181019050612d3f565b5050509392505050565b6000612d89612d84846155ff565b615530565b90508082856020860282011115612d9f57600080fd5b60005b85811015612de957815167ffffffffffffffff811115612dc157600080fd5b808601612dce89826135bf565b85526020850194506020840193505050600181019050612da2565b5050509392505050565b6000612e06612e0184615625565b615530565b90508082856020860282011115612e1c57600080fd5b60005b85811015612e6657815167ffffffffffffffff811115612e3e57600080fd5b808601612e4b89826135bf565b85526020850194506020840193505050600181019050612e1f565b5050509392505050565b6000612e83612e7e8461564b565b615530565b90508083825260208201905082856020860282011115612ea257600080fd5b60005b85811015612eec57813567ffffffffffffffff811115612ec457600080fd5b808601612ed18982613595565b85526020850194506020840193505050600181019050612ea5565b5050509392505050565b6000612f09612f048461564b565b615530565b90508083825260208201905082856020860282011115612f2857600080fd5b60005b85811015612f7257815167ffffffffffffffff811115612f4a57600080fd5b808601612f5789826135bf565b85526020850194506020840193505050600181019050612f2b565b5050509392505050565b6000612f8f612f8a84615677565b615530565b90508083825260208201905082856020860282011115612fae57600080fd5b60005b85811015612ff857813567ffffffffffffffff811115612fd057600080fd5b808601612fdd89826135fe565b85526020850194506020840193505050600181019050612fb1565b5050509392505050565b6000613015613010846156a3565b615530565b9050808285602086028201111561302b57600080fd5b60005b8581101561305b5781613041888261363d565b84526020840193506020830192505060018101905061302e565b5050509392505050565b6000613078613073846156c9565b615530565b9050808285602086028201111561308e57600080fd5b60005b858110156130be57816130a4888261363d565b845260208401935060208301925050600181019050613091565b5050509392505050565b60006130db6130d6846156ef565b615530565b905080838252602082019050828560208602820111156130fa57600080fd5b60005b8581101561312a57816131108882613628565b8452602084019350602083019250506001810190506130fd565b5050509392505050565b6000613147613142846156ef565b615530565b9050808382526020820190508285602086028201111561316657600080fd5b60005b85811015613196578161317c888261363d565b845260208401935060208301925050600181019050613169565b5050509392505050565b60006131b36131ae8461571b565b615530565b9050828152602081018484840111156131cb57600080fd5b6131d6848285615dd2565b509392505050565b6000813590506131ed81615f4f565b92915050565b60008151905061320281615f4f565b92915050565b60008190508260206007028201111561322057600080fd5b92915050565b600082601f83011261323757600080fd5b8135613247848260208601612b2f565b91505092915050565b600082601f83011261326157600080fd5b8151613271848260208601612b9b565b91505092915050565b60008083601f84011261328c57600080fd5b8235905067ffffffffffffffff8111156132a557600080fd5b6020830191508360208202830111156132bd57600080fd5b9250929050565b60008083601f8401126132d657600080fd5b8235905067ffffffffffffffff8111156132ef57600080fd5b60208301915083602082028301111561330757600080fd5b9250929050565b60008083601f84011261332057600080fd5b8235905067ffffffffffffffff81111561333957600080fd5b60208301915083602082028301111561335157600080fd5b9250929050565b600082601f83011261336957600080fd5b6002613376848285612c07565b91505092915050565b60008083601f84011261339157600080fd5b8235905067ffffffffffffffff8111156133aa57600080fd5b6020830191508360208202830111156133c257600080fd5b9250929050565b600082601f8301126133da57600080fd5b81516133ea848260208601612d0a565b91505092915050565b60008083601f84011261340557600080fd5b8235905067ffffffffffffffff81111561341e57600080fd5b60208301915083602082028301111561343657600080fd5b9250929050565b600082601f83011261344e57600080fd5b600261345b848285612d76565b91505092915050565b600082601f83011261347557600080fd5b6005613482848285612df3565b91505092915050565b600082601f83011261349c57600080fd5b81516134ac848260208601612ef6565b91505092915050565b600082601f8301126134c657600080fd5b81356134d6848260208601612f7c565b91505092915050565b6000819050826020600202820111156134f757600080fd5b92915050565b600082601f83011261350e57600080fd5b600361351b848285613002565b91505092915050565b600082601f83011261353557600080fd5b6004613542848285613065565b91505092915050565b60008083601f84011261355d57600080fd5b8235905067ffffffffffffffff81111561357657600080fd5b60208301915083602082028301111561358e57600080fd5b9250929050565b600082601f8301126135a657600080fd5b81356135b68482602086016130c8565b91505092915050565b600082601f8301126135d057600080fd5b81516135e0848260208601613134565b91505092915050565b6000815190506135f881615f66565b92915050565b600082601f83011261360f57600080fd5b813561361f8482602086016131a0565b91505092915050565b60008135905061363781615f7d565b92915050565b60008151905061364c81615f7d565b92915050565b60006020828403121561366457600080fd5b6000613672848285016131de565b91505092915050565b6000806060838503121561368e57600080fd5b600061369c858286016131de565b92505060206136ad858286016134df565b9150509250929050565b600060e082840312156136c957600080fd5b60006136d784828501613208565b91505092915050565b60008060008060008060008060006101608a8c0312156136ff57600080fd5b600061370d8c828d01613208565b99505060e08a013567ffffffffffffffff81111561372a57600080fd5b6137368c828d0161330e565b98509850506101008a013567ffffffffffffffff81111561375657600080fd5b6137628c828d016133f3565b96509650506101208a013567ffffffffffffffff81111561378257600080fd5b61378e8c828d0161337f565b94509450506101408a013567ffffffffffffffff8111156137ae57600080fd5b6137ba8c828d0161354b565b92509250509295985092959850929598565b600080604083850312156137df57600080fd5b600083015167ffffffffffffffff8111156137f957600080fd5b613805858286016133c9565b925050602083015167ffffffffffffffff81111561382257600080fd5b61382e85828601613250565b9150509250929050565b60006020828403121561384a57600080fd5b600082015167ffffffffffffffff81111561386457600080fd5b61387084828501613464565b91505092915050565b600080600080600080600060a0888a03121561389457600080fd5b60006138a28a828b016134df565b975050604088013567ffffffffffffffff8111156138bf57600080fd5b6138cb8a828b0161327a565b9650965050606088013567ffffffffffffffff8111156138ea57600080fd5b6138f68a828b0161330e565b9450945050608088013567ffffffffffffffff81111561391557600080fd5b6139218a828b016132c4565b925092505092959891949750929550565b60006060828403121561394457600080fd5b6000613952848285016134fd565b91505092915050565b6000806020838503121561396e57600080fd5b600083013567ffffffffffffffff81111561398857600080fd5b6139948582860161354b565b92509250509250929050565b6000602082840312156139b257600080fd5b600082015167ffffffffffffffff8111156139cc57600080fd5b6139d8848285016135bf565b91505092915050565b6000806000606084860312156139f657600080fd5b600084013567ffffffffffffffff811115613a1057600080fd5b613a1c86828701613595565b935050602084013567ffffffffffffffff811115613a3957600080fd5b613a4586828701613226565b9250506040613a5686828701613628565b9150509250925092565b600080600060608486031215613a7557600080fd5b600084015167ffffffffffffffff811115613a8f57600080fd5b613a9b868287016135bf565b935050602084015167ffffffffffffffff811115613ab857600080fd5b613ac48682870161348b565b925050604084015167ffffffffffffffff811115613ae157600080fd5b613aed86828701613358565b9150509250925092565b600060208284031215613b0957600080fd5b6000613b1784828501613628565b91505092915050565b600060208284031215613b3257600080fd5b6000613b408482850161363d565b91505092915050565b600080600060608486031215613b5e57600080fd5b6000613b6c8682870161363d565b9350506020613b7d868287016135e9565b925050604084015167ffffffffffffffff811115613b9a57600080fd5b613ba68682870161343d565b9150509250925092565b6000613bbc8383613d47565b60208301905092915050565b6000613bd48383613d65565b60208301905092915050565b6000613bed84848461426a565b90509392505050565b6000613c03848484614356565b90509392505050565b6000613c188383614441565b905092915050565b6000613c2d8484846145a0565b90509392505050565b6000613c428383614616565b905092915050565b6000613c56838361468b565b905092915050565b6000613c6a83836147ae565b60808301905092915050565b6000613c83848484614805565b90509392505050565b6000613c9984848461490d565b90509392505050565b6000613cae8383614965565b905092915050565b6000613cc28383614a7f565b905092915050565b6000613cd7848484614b19565b90509392505050565b6000613cec8383614b46565b905092915050565b6000613d008383614b7f565b905092915050565b6000613d148383614e99565b60208301905092915050565b6000613d2c8383614ec6565b60208301905092915050565b613d4181615d8a565b82525050565b613d5081615d18565b82525050565b613d5f81615d18565b82525050565b613d6e81615d18565b82525050565b613d7d81615806565b613d87818461594d565b9250613d928261574c565b8060005b83811015613dcb57613da88284615b1b565b613db28782613bb0565b9650613dbd8361588a565b925050600181019050613d96565b505050505050565b6000613dde82615811565b613de88185615958565b9350613df383615756565b8060005b83811015613e24578151613e0b8882613bb0565b9750613e1683615897565b925050600181019050613df7565b5085935050505092915050565b6000613e3c82615811565b613e468185615969565b9350613e5183615756565b8060005b83811015613e82578151613e698882613bb0565b9750613e7483615897565b925050600181019050613e55565b5085935050505092915050565b6000613e9a82615811565b613ea4818561597a565b9350613eaf83615756565b8060005b83811015613ee0578151613ec78882613bc8565b9750613ed283615897565b925050600181019050613eb3565b5085935050505092915050565b6000613ef882615811565b613f02818561598b565b9350613f0d83615756565b8060005b83811015613f3e578151613f258882613bc8565b9750613f3083615897565b925050600181019050613f11565b5085935050505092915050565b6000613f5783856159a7565b935083602084028501613f6984615766565b8060005b87811015613faf578484038952613f848284615b32565b613f8f868284613be0565b9550613f9a846158a4565b935060208b019a505050600181019050613f6d565b50829750879450505050509392505050565b6000613fcd83856159b8565b935083602084028501613fdf84615766565b8060005b87811015614025578484038952613ffa8284615b32565b614005868284613bf6565b9550614010846158a4565b935060208b019a505050600181019050613fe3565b50829750879450505050509392505050565b60006140428261581c565b61404c818561599c565b93508360208202850161405e85615770565b8060005b8581101561409a578484038952815161407b8582613c0c565b9450614086836158b1565b925060208a01995050600181019050614062565b50829750879550505050505092915050565b60006140b883856159da565b9350836020840285016140ca8461577a565b8060005b878110156141105784840389526140e58284615b89565b6140f0868284613c20565b95506140fb846158be565b935060208b019a5050506001810190506140ce565b50829750879450505050509392505050565b600061412d82615827565b61413781856159c9565b93508360208202850161414985615784565b8060005b8581101561418557848403895281516141668582613c36565b9450614171836158cb565b925060208a0199505060018101905061414d565b50829750879550505050505092915050565b60006141a282615827565b6141ac81856159eb565b9350836020820285016141be85615784565b8060005b858110156141fa57848403895281516141db8582613c4a565b94506141e6836158cb565b925060208a019950506001810190506141c2565b50829750879550505050505092915050565b600061421782615832565b61422181856159fc565b935061422c83615794565b8060005b8381101561425d5781516142448882613c5e565b975061424f836158d8565b925050600181019050614230565b5085935050505092915050565b60006142768385615a18565b935083602084028501614288846157a4565b8060005b878110156142ce5784840389526142a38284615be0565b6142ae868284613c76565b95506142b9846158e5565b935060208b019a50505060018101905061428c565b50829750879450505050509392505050565b60006142ec8385615a29565b9350836020840285016142fe846157a4565b8060005b878110156143445784840389526143198284615be0565b614324868284613c76565b955061432f846158e5565b935060208b019a505050600181019050614302565b50829750879450505050509392505050565b60006143628385615a3a565b935083602084028501614374846157a4565b8060005b878110156143ba57848403895261438f8284615be0565b61439a868284613c8c565b95506143a5846158e5565b935060208b019a505050600181019050614378565b50829750879450505050509392505050565b60006143d78261583d565b6143e18185615a0d565b9350836020820285016143f3856157ae565b8060005b8581101561442f57848403895281516144108582613ca2565b945061441b836158f2565b925060208a019950506001810190506143f7565b50829750879550505050505092915050565b600061444c82615848565b6144568185615a18565b935083602082028501614468856157b8565b8060005b858110156144a457848403895281516144858582613ca2565b9450614490836158ff565b925060208a0199505060018101905061446c565b50829750879550505050505092915050565b60006144c182615848565b6144cb8185615a29565b9350836020820285016144dd856157b8565b8060005b8581101561451957848403895281516144fa8582613ca2565b9450614505836158ff565b925060208a019950506001810190506144e1565b50829750879550505050505092915050565b600061453682615848565b6145408185615a3a565b935083602082028501614552856157b8565b8060005b8581101561458e578484038952815161456f8582613cb6565b945061457a836158ff565b925060208a01995050600181019050614556565b50829750879550505050505092915050565b60006145ac8385615a4b565b9350836020840285016145be846157c8565b8060005b878110156146045784840389526145d98284615c37565b6145e4868284613cca565b95506145ef8461590c565b935060208b019a5050506001810190506145c2565b50829750879450505050509392505050565b600061462182615853565b61462b8185615a4b565b93508360208202850161463d856157d2565b8060005b85811015614679578484038952815161465a8582613ce0565b945061466583615919565b925060208a01995050600181019050614641565b50829750879550505050505092915050565b600061469682615853565b6146a08185615a5c565b9350836020820285016146b2856157d2565b8060005b858110156146ee57848403895281516146cf8582613cf4565b94506146da83615919565b925060208a019950506001810190506146b6565b50829750879550505050505092915050565b6147098161585e565b6147138184615a6d565b925061471e826157e2565b8060005b8381101561474f5781516147368782613d08565b965061474183615926565b925050600181019050614722565b505050505050565b6147608161585e565b61476a8184615a78565b9250614775826157e2565b8060005b838110156147a657815161478d8782613d20565b965061479883615926565b925050600181019050614779565b505050505050565b6147b781615869565b6147c18184615a83565b92506147cc826157ec565b8060005b838110156147fd5781516147e48782613d08565b96506147ef83615933565b9250506001810190506147d0565b505050505050565b60006148118385615a8e565b93507f07ffffffffffffffffffffffffffffffffffffffffffffffffffffffffffffff83111561484057600080fd5b602083029250614851838584615dd2565b82840190509392505050565b60006148698385615a9f565b93507f07ffffffffffffffffffffffffffffffffffffffffffffffffffffffffffffff83111561489857600080fd5b6020830292506148a9838584615dd2565b82840190509392505050565b60006148c18385615ab0565b93507f07ffffffffffffffffffffffffffffffffffffffffffffffffffffffffffffff8311156148f057600080fd5b602083029250614901838584615dd2565b82840190509392505050565b60006149198385615ac1565b93507f07ffffffffffffffffffffffffffffffffffffffffffffffffffffffffffffff83111561494857600080fd5b602083029250614959838584615dd2565b82840190509392505050565b600061497082615874565b61497a8185615a8e565b9350614985836157f6565b8060005b838110156149b657815161499d8882613d08565b97506149a883615940565b925050600181019050614989565b5085935050505092915050565b60006149ce82615874565b6149d88185615a9f565b93506149e3836157f6565b8060005b83811015614a145781516149fb8882613d08565b9750614a0683615940565b9250506001810190506149e7565b5085935050505092915050565b6000614a2c82615874565b614a368185615ab0565b9350614a41836157f6565b8060005b83811015614a72578151614a598882613d20565b9750614a6483615940565b925050600181019050614a45565b5085935050505092915050565b6000614a8a82615874565b614a948185615ac1565b9350614a9f836157f6565b8060005b83811015614ad0578151614ab78882613d20565b9750614ac283615940565b925050600181019050614aa3565b5085935050505092915050565b614ae681615d2a565b82525050565b614af581615d2a565b82525050565b614b0481615d2a565b82525050565b614b1381615d9c565b82525050565b6000614b258385615add565b9350614b32838584615dd2565b614b3b83615eec565b840190509392505050565b6000614b518261587f565b614b5b8185615add565b9350614b6b818560208601615de1565b614b7481615eec565b840191505092915050565b6000614b8a8261587f565b614b948185615aff565b9350614ba4818560208601615de1565b614bad81615eec565b840191505092915050565b6000614bc38261587f565b614bcd8185615b10565b9350614bdd818560208601615de1565b80840191505092915050565b6000614bf6603e83615aee565b9150614c0182615efd565b604082019050919050565b6000614c19600083615ad2565b9150614c2482615f4c565b600082019050919050565b6000614c3c600083615aee565b9150614c4782615f4c565b600082019050919050565b8082525050565b60006101a083016000830151614c726000860182614e99565b506020830151614c856020860182614add565b5060408301518482036040860152614c9d8282614965565b91505060608301518482036060860152614cb78282614441565b91505060808301518482036080860152614cd18282613dd3565b91505060a083015184820360a0860152614ceb8282614122565b91505060c0830151614d0060c0860182614e99565b5060e0830151614d1360e0860182614e99565b50610100830151614d28610100860182614e99565b50610120830151614d3d610120860182614700565b50610140830151614d52610160860182614add565b50610160830151848203610180860152614d6c8282614965565b9150508091505092915050565b60006101a083016000830151614d926000860182614ec6565b506020830151614da56020860182614afb565b5060408301518482036040860152614dbd8282614a7f565b91505060608301518482036060860152614dd7828261452b565b91505060808301518482036080860152614df18282613eed565b91505060a083015184820360a0860152614e0b8282614197565b91505060c0830151614e2060c0860182614ec6565b5060e0830151614e3360e0860182614ec6565b50610100830151614e48610100860182614ec6565b50610120830151614e5d610120860182614757565b50610140830151614e72610160860182614afb565b50610160830151848203610180860152614e8c8282614a7f565b9150508091505092915050565b614ea281615d56565b82525050565b614eb181615d56565b82525050565b614ec081615d56565b82525050565b614ecf81615d56565b82525050565b6000614ee18284614bb8565b915081905092915050565b6000614ef782614c0c565b9150819050919050565b6000602082019050614f166000830184613d56565b92915050565b600061016082019050614f32600083018c613d74565b81810360e0830152614f45818a8c613f4b565b9050818103610100830152614f5b81888a6142e0565b9050818103610120830152614f718186886140ac565b9050818103610140830152614f8781848661485d565b90509a9950505050505050505050565b60006040820190508181036000830152614fb1818561420c565b90508181036020830152614fc58184613e31565b90509392505050565b60006060820190508181036000830152614fe881866143cc565b9050614ff76020830185614ea8565b6150046040830184614ea8565b949350505050565b6000602082019050818103600083015261502781848661485d565b90509392505050565b6000604082019050818103600083015261504b8185876148b5565b905061505a6020830184614c52565b949350505050565b6000602082019050818103600083015261507c81846149c3565b905092915050565b6000608082019050818103600083015261509e8187614a21565b905081810360208301526150b28186613e8f565b90506150c16040830185614eb7565b6150ce6060830184614c52565b95945050505050565b600060a08201905081810360008301526150f181886149c3565b90506151006020830187614ea8565b818103604083015261511281866144b6565b905081810360608301526151268185614037565b9050818103608083015261513a81846144b6565b90509695505050505050565b6000602082019050818103600083015261515f81614be9565b9050919050565b6000602082019050818103600083015261517f81614c2f565b9050919050565b600060208201905081810360008301526151a08184614d79565b905092915050565b600060208201905081810360008301526151c28184614c59565b905092915050565b60006020820190506151df6000830184614ea8565b92915050565b60006040820190506151fa6000830185614eb7565b6152076020830184614aec565b9392505050565b600060a0820190506152236000830189614eb7565b6152306020830188614c52565b61523d6040830187614eb7565b8181036060830152615250818587613fc1565b905061525f6080830184614eb7565b979650505050505050565b600060408201905061527f6000830185614ea8565b61528c6020830184614ea8565b9392505050565b6000610120820190506152a96000830186614ea8565b6152b66020830185614ea8565b6152c36040830184613d74565b949350505050565b60006060820190506152e06000830186614ea8565b6152ed6020830185614ea8565b6152fa6040830184614ea8565b949350505050565b60006080820190506153176000830187614ea8565b6153246020830186614ea8565b6153316040830185614ea8565b61533e6060830184614ea8565b95945050505050565b60006101208201905061535d600083018c614ea8565b61536a602083018b614ea8565b615377604083018a614ea8565b6153846060830189614ea8565b6153916080830188614ea8565b61539e60a0830187614ea8565b6153ab60c0830186614ea8565b6153b860e0830185613d38565b6153c6610100830184614b0a565b9a9950505050505050505050565b600080833560016020038436030381126153ed57600080fd5b80840192508235915067ffffffffffffffff82111561540b57600080fd5b60208301925060208202360383131561542357600080fd5b509250929050565b6000808335600160200384360303811261544457600080fd5b80840192508235915067ffffffffffffffff82111561546257600080fd5b60208301925060208202360383131561547a57600080fd5b509250929050565b6000808335600160200384360303811261549b57600080fd5b80840192508235915067ffffffffffffffff8211156154b957600080fd5b6020830192506020820236038313156154d157600080fd5b509250929050565b600080833560016020038436030381126154f257600080fd5b80840192508235915067ffffffffffffffff82111561551057600080fd5b60208301925060208202360383131561552857600080fd5b509250929050565b600061553a61554b565b90506155468282615e14565b919050565b6000604051905090565b600067ffffffffffffffff8211156155705761556f615ebd565b5b602082029050602081019050919050565b600067ffffffffffffffff82111561559c5761559b615ebd565b5b602082029050919050565b600067ffffffffffffffff8211156155c2576155c1615ebd565b5b602082029050602081019050919050565b600067ffffffffffffffff8211156155ee576155ed615ebd565b5b602082029050602081019050919050565b600067ffffffffffffffff82111561561a57615619615ebd565b5b602082029050919050565b600067ffffffffffffffff8211156156405761563f615ebd565b5b602082029050919050565b600067ffffffffffffffff82111561566657615665615ebd565b5b602082029050602081019050919050565b600067ffffffffffffffff82111561569257615691615ebd565b5b602082029050602081019050919050565b600067ffffffffffffffff8211156156be576156bd615ebd565b5b602082029050919050565b600067ffffffffffffffff8211156156e4576156e3615ebd565b5b602082029050919050565b600067ffffffffffffffff82111561570a57615709615ebd565b5b602082029050602081019050919050565b600067ffffffffffffffff82111561573657615735615ebd565b5b61573f82615eec565b9050602081019050919050565b6000819050919050565b6000819050602082019050919050565b6000819050919050565b6000819050919050565b6000819050919050565b6000819050602082019050919050565b6000819050602082019050919050565b6000819050919050565b6000819050919050565b6000819050602082019050919050565b6000819050919050565b6000819050602082019050919050565b6000819050919050565b6000819050919050565b6000819050602082019050919050565b600060079050919050565b600081519050919050565b600060029050919050565b600081519050919050565b600081519050919050565b600060059050919050565b600081519050919050565b600081519050919050565b600060029050919050565b600060049050919050565b600081519050919050565b600081519050919050565b6000602082019050919050565b6000602082019050919050565b6000602082019050919050565b6000602082019050919050565b6000602082019050919050565b6000602082019050919050565b6000602082019050919050565b6000602082019050919050565b6000602082019050919050565b6000602082019050919050565b6000602082019050919050565b6000602082019050919050565b6000602082019050919050565b6000602082019050919050565b6000602082019050919050565b600081905092915050565b600082825260208201905092915050565b600082825260208201905092915050565b600082825260208201905092915050565b600082825260208201905092915050565b600081905092915050565b600082825260208201905092915050565b600082825260208201905092915050565b600082825260208201905092915050565b600082825260208201905092915050565b600082825260208201905092915050565b600082825260208201905092915050565b600081905092915050565b600082825260208201905092915050565b600082825260208201905092915050565b600082825260208201905092915050565b600082825260208201905092915050565b600082825260208201905092915050565b600081905092915050565b600081905092915050565b600081905092915050565b600082825260208201905092915050565b600082825260208201905092915050565b600082825260208201905092915050565b600082825260208201905092915050565b600081905092915050565b600082825260208201905092915050565b600082825260208201905092915050565b600082825260208201905092915050565b600081905092915050565b6000615b2a60208401846131de565b905092915050565b60008083356001602003843603038112615b4b57600080fd5b83810192508235915060208301925067ffffffffffffffff821115615b6f57600080fd5b602082023603841315615b8157600080fd5b509250929050565b60008083356001602003843603038112615ba257600080fd5b83810192508235915060208301925067ffffffffffffffff821115615bc657600080fd5b602082023603841315615bd857600080fd5b509250929050565b60008083356001602003843603038112615bf957600080fd5b83810192508235915060208301925067ffffffffffffffff821115615c1d57600080fd5b602082023603841315615c2f57600080fd5b509250929050565b60008083356001602003843603038112615c5057600080fd5b83810192508235915060208301925067ffffffffffffffff821115615c7457600080fd5b600182023603841315615c8657600080fd5b509250929050565b6000615c9982615d56565b9150615ca483615d56565b9250827fffffffffffffffffffffffffffffffffffffffffffffffffffffffffffffffff03821115615cd957615cd8615e8e565b5b828201905092915050565b6000615cef82615d56565b9150615cfa83615d56565b925082821015615d0d57615d0c615e8e565b5b828203905092915050565b6000615d2382615d36565b9050919050565b60008115159050919050565b600073ffffffffffffffffffffffffffffffffffffffff82169050919050565b6000819050919050565b6000615d6d368484612c84565b905092915050565b6000615d82368484612e70565b905092915050565b6000615d9582615dae565b9050919050565b6000615da782615d56565b9050919050565b6000615db982615dc0565b9050919050565b6000615dcb82615d36565b9050919050565b82818337600083830152505050565b60005b83811015615dff578082015181840152602081019050615de4565b83811115615e0e576000848401525b50505050565b615e1d82615eec565b810181811067ffffffffffffffff82111715615e3c57615e3b615ebd565b5b80604052505050565b6000615e5082615d56565b91507fffffffffffffffffffffffffffffffffffffffffffffffffffffffffffffffff821415615e8357615e82615e8e565b5b600182019050919050565b7f4e487b7100000000000000000000000000000000000000000000000000000000600052601160045260246000fd5b7f4e487b7100000000000000000000000000000000000000000000000000000000600052604160045260246000fd5b6000601f19601f8301169050919050565b7f6163636f756e7420616c72656164792065786973747320666f7220746865207360008201527f70656369666965642061646472657373206265696e6720637265617465640000602082015250565b50565b615f5881615d18565b8114615f6357600080fd5b50565b615f6f81615d2a565b8114615f7a57600080fd5b50565b615f8681615d56565b8114615f9157600080fd5b5056fea2646970667358221220f51304f0a3a8dcd3eedf352b6a314db06d2a82c047e9cd8288fb68773dad26c064736f6c63430008040033",
  "linkReferences": {
    "contracts/E5D/E3.sol": {
      "E3": [
        {
          "length": 20,
          "start": 7053
        },
        {
          "length": 20,
          "start": 7366
        }
      ]
    },
    "contracts/E5D/E32.sol": {
      "E32": [
        {
          "length": 20,
          "start": 8997
        }
      ]
    },
    "contracts/E5D/E33.sol": {
      "E33": [
        {
          "length": 20,
          "start": 789
        },
        {
          "length": 20,
          "start": 2035
        },
        {
          "length": 20,
          "start": 3525
        },
        {
          "length": 20,
          "start": 3728
        },
        {
          "length": 20,
          "start": 4174
        },
        {
          "length": 20,
          "start": 8607
        }
      ]
    }
  },
  "deployedLinkReferences": {
    "contracts/E5D/E3.sol": {
      "E3": [
        {
          "length": 20,
          "start": 6901
        },
        {
          "length": 20,
          "start": 7214
        }
      ]
    },
    "contracts/E5D/E32.sol": {
      "E32": [
        {
          "length": 20,
          "start": 8845
        }
      ]
    },
    "contracts/E5D/E33.sol": {
      "E33": [
        {
          "length": 20,
          "start": 637
        },
        {
          "length": 20,
          "start": 1883
        },
        {
          "length": 20,
          "start": 3373
        },
        {
          "length": 20,
          "start": 3576
        },
        {
          "length": 20,
          "start": 4022
        },
        {
          "length": 20,
          "start": 8455
        }
      ]
    }
  }
}