{
  "_format": "hh-sol-artifact-1",
  "contractName": "E5",
  "sourceName": "contracts/E5D/E5.sol",
  "abi": [
    {
      "inputs": [],
      "stateMutability": "nonpayable",
      "type": "constructor"
    },
    {
      "anonymous": false,
      "inputs": [
        {
          "indexed": true,
          "internalType": "uint256",
          "name": "p1",
          "type": "uint256"
        },
        {
          "indexed": true,
          "internalType": "uint256",
          "name": "p2",
          "type": "uint256"
        },
        {
          "indexed": true,
          "internalType": "uint256",
          "name": "p3",
          "type": "uint256"
        },
        {
          "indexed": false,
          "internalType": "uint256",
          "name": "p4",
          "type": "uint256"
        },
        {
          "indexed": false,
          "internalType": "uint256",
          "name": "p5",
          "type": "uint256"
        }
      ],
      "name": "e1",
      "type": "event"
    },
    {
      "anonymous": false,
      "inputs": [
        {
          "indexed": true,
          "internalType": "uint256",
          "name": "p1",
          "type": "uint256"
        },
        {
          "indexed": true,
          "internalType": "address",
          "name": "p2",
          "type": "address"
        },
        {
          "indexed": true,
          "internalType": "address",
          "name": "p3",
          "type": "address"
        },
        {
          "indexed": false,
          "internalType": "uint256",
          "name": "p4",
          "type": "uint256"
        },
        {
          "indexed": false,
          "internalType": "uint256",
          "name": "p5",
          "type": "uint256"
        },
        {
          "indexed": false,
          "internalType": "uint256",
          "name": "p6",
          "type": "uint256"
        },
        {
          "indexed": false,
          "internalType": "uint256",
          "name": "p7",
          "type": "uint256"
        }
      ],
      "name": "e2",
      "type": "event"
    },
    {
      "anonymous": false,
      "inputs": [
        {
          "indexed": true,
          "internalType": "uint256",
          "name": "p1",
          "type": "uint256"
        },
        {
          "indexed": false,
          "internalType": "uint256",
          "name": "p2",
          "type": "uint256"
        },
        {
          "indexed": false,
          "internalType": "uint256",
          "name": "p3",
          "type": "uint256"
        },
        {
          "indexed": false,
          "internalType": "uint256",
          "name": "p4",
          "type": "uint256"
        }
      ],
      "name": "e3",
      "type": "event"
    },
    {
      "anonymous": false,
      "inputs": [
        {
          "indexed": true,
          "internalType": "uint256",
          "name": "p1",
          "type": "uint256"
        },
        {
          "indexed": true,
          "internalType": "address",
          "name": "p2",
          "type": "address"
        },
        {
          "indexed": false,
          "internalType": "uint256",
          "name": "p3",
          "type": "uint256"
        },
        {
          "indexed": false,
          "internalType": "uint256",
          "name": "p4",
          "type": "uint256"
        },
        {
          "indexed": false,
          "internalType": "uint256",
          "name": "p5",
          "type": "uint256"
        },
        {
          "indexed": false,
          "internalType": "uint256",
          "name": "p6",
          "type": "uint256"
        },
        {
          "indexed": false,
          "internalType": "uint256",
          "name": "p7",
          "type": "uint256"
        },
        {
          "indexed": false,
          "internalType": "uint256",
          "name": "p8",
          "type": "uint256"
        },
        {
          "indexed": false,
          "internalType": "uint256",
          "name": "p9",
          "type": "uint256"
        },
        {
          "indexed": false,
          "internalType": "address",
          "name": "p10",
          "type": "address"
        },
        {
          "indexed": false,
          "internalType": "uint256",
          "name": "p11",
          "type": "uint256"
        }
      ],
      "name": "e4",
      "type": "event"
    },
    {
      "anonymous": false,
      "inputs": [
        {
          "indexed": true,
          "internalType": "uint256",
          "name": "p1",
          "type": "uint256"
        },
        {
          "indexed": true,
          "internalType": "string",
          "name": "p2",
          "type": "string"
        },
        {
          "indexed": false,
          "internalType": "uint256",
          "name": "p3",
          "type": "uint256"
        },
        {
          "indexed": false,
          "internalType": "uint256",
          "name": "p4",
          "type": "uint256"
        }
      ],
      "name": "e5",
      "type": "event"
    },
    {
      "anonymous": false,
      "inputs": [
        {
          "indexed": true,
          "internalType": "uint256",
          "name": "p1",
          "type": "uint256"
        },
        {
          "indexed": true,
          "internalType": "address",
          "name": "p2",
          "type": "address"
        },
        {
          "indexed": true,
          "internalType": "uint256",
          "name": "p3",
          "type": "uint256"
        },
        {
          "indexed": false,
          "internalType": "uint256",
          "name": "p4",
          "type": "uint256"
        },
        {
          "indexed": false,
          "internalType": "uint256",
          "name": "p5",
          "type": "uint256"
        },
        {
          "indexed": false,
          "internalType": "uint256",
          "name": "p6",
          "type": "uint256"
        }
      ],
      "name": "e6",
      "type": "event"
    },
    {
      "anonymous": false,
      "inputs": [
        {
          "indexed": true,
          "internalType": "address",
          "name": "p1",
          "type": "address"
        },
        {
          "indexed": true,
          "internalType": "address",
          "name": "p2",
          "type": "address"
        },
        {
          "indexed": false,
          "internalType": "uint256",
          "name": "p3",
          "type": "uint256"
        },
        {
          "indexed": false,
          "internalType": "uint256",
          "name": "p4",
          "type": "uint256"
        },
        {
          "indexed": false,
          "internalType": "address[7]",
          "name": "p5",
          "type": "address[7]"
        }
      ],
      "name": "e7",
      "type": "event"
    },
    {
      "inputs": [
        {
          "internalType": "uint256[2]",
          "name": "p1",
          "type": "uint256[2]"
        },
        {
          "internalType": "address[][]",
          "name": "p2",
          "type": "address[][]"
        },
        {
          "internalType": "uint256[][][]",
          "name": "p3",
          "type": "uint256[][][]"
        },
        {
          "internalType": "string[][][]",
          "name": "p4",
          "type": "string[][][]"
        }
      ],
      "name": "e",
      "outputs": [],
      "stateMutability": "payable",
      "type": "function"
    },
    {
      "inputs": [
        {
          "internalType": "address",
          "name": "p1",
          "type": "address"
        },
        {
          "internalType": "uint256[2]",
          "name": "p2",
          "type": "uint256[2]"
        }
      ],
      "name": "f145",
      "outputs": [],
      "stateMutability": "nonpayable",
      "type": "function"
    },
    {
      "inputs": [
        {
          "internalType": "uint256",
          "name": "v1",
          "type": "uint256"
        }
      ],
      "name": "f147",
      "outputs": [
        {
          "internalType": "uint256",
          "name": "",
          "type": "uint256"
        }
      ],
      "stateMutability": "view",
      "type": "function"
    },
    {
      "inputs": [
        {
          "internalType": "address[7]",
          "name": "p1",
          "type": "address[7]"
        },
        {
          "internalType": "uint256[][][]",
          "name": "p2",
          "type": "uint256[][][]"
        },
        {
          "internalType": "uint256[][]",
          "name": "p3",
          "type": "uint256[][]"
        },
        {
          "internalType": "string[][]",
          "name": "p4",
          "type": "string[][]"
        },
        {
          "internalType": "uint256[]",
          "name": "p5",
          "type": "uint256[]"
        }
      ],
      "name": "f157",
      "outputs": [],
      "stateMutability": "nonpayable",
      "type": "function"
    },
    {
      "inputs": [
        {
          "internalType": "uint256[]",
          "name": "p1",
          "type": "uint256[]"
        },
        {
          "internalType": "address[]",
          "name": "p2",
          "type": "address[]"
        },
        {
          "internalType": "uint256",
          "name": "p3",
          "type": "uint256"
        }
      ],
      "name": "f167",
      "outputs": [
        {
          "internalType": "uint256[]",
          "name": "",
          "type": "uint256[]"
        }
      ],
      "stateMutability": "view",
      "type": "function"
    },
    {
      "inputs": [
        {
          "internalType": "address[7]",
          "name": "p1",
          "type": "address[7]"
        }
      ],
      "name": "f2023",
      "outputs": [],
      "stateMutability": "nonpayable",
      "type": "function"
    },
    {
      "inputs": [
        {
          "internalType": "uint256[]",
          "name": "p1",
          "type": "uint256[]"
        }
      ],
      "name": "f206",
      "outputs": [],
      "stateMutability": "nonpayable",
      "type": "function"
    },
    {
      "inputs": [
        {
          "internalType": "uint256[]",
          "name": "p1",
          "type": "uint256[]"
        }
      ],
      "name": "f280",
      "outputs": [
        {
          "internalType": "uint256[]",
          "name": "v1",
          "type": "uint256[]"
        }
      ],
      "stateMutability": "view",
      "type": "function"
    },
    {
      "inputs": [
        {
          "internalType": "uint256[]",
          "name": "p1",
          "type": "uint256[]"
        }
      ],
      "name": "f287",
      "outputs": [
        {
          "internalType": "uint256[4][]",
          "name": "v1",
          "type": "uint256[4][]"
        }
      ],
      "stateMutability": "view",
      "type": "function"
    },
    {
      "inputs": [
        {
          "internalType": "uint256",
          "name": "p1",
          "type": "uint256"
        }
      ],
      "name": "f289",
      "outputs": [
        {
          "internalType": "address",
          "name": "",
          "type": "address"
        }
      ],
      "stateMutability": "view",
      "type": "function"
    },
    {
      "inputs": [],
      "name": "f5300g",
      "outputs": [
        {
          "internalType": "uint256",
          "name": "",
          "type": "uint256"
        }
      ],
      "stateMutability": "view",
      "type": "function"
    }
  ],
  "bytecode": "0x60a06040526103e86000556000600160006101000a81548160ff0219169083151502179055503373ffffffffffffffffffffffffffffffffffffffff1660809073ffffffffffffffffffffffffffffffffffffffff1660601b8152506001600355600160105534801561007157600080fd5b5060805160601c615ece62000098600039600081816108240152610ec40152615ece6000f3fe60806040526004361061008c5760003560e01c80630a6f3c9c146100915780631b6976a3146100ce5780633fc51072146100ea57806341a619bc146101275780635aec9c211461015057806376f2111d1461018d5780638d8a20bc146101ca578063a2703b71146101f3578063af6fc6991461021c578063cff3e9a814610247578063f291690a14610284575b600080fd5b34801561009d57600080fd5b506100b860048036038101906100b39190613919565b6102ad565b6040516100c59190614ee8565b60405180910390f35b6100e860048036038101906100e39190613837565b610348565b005b3480156100f657600080fd5b50610111600480360381019061010c9190613919565b610787565b60405161011e9190614f9e565b60405180910390f35b34801561013357600080fd5b5061014e600480360381019061014991906136c9565b610822565b005b34801561015c57600080fd5b5061017760048036038101906101729190613ab5565b610dd2565b6040516101849190614e52565b60405180910390f35b34801561019957600080fd5b506101b460048036038101906101af919061399f565b610e24565b6040516101c19190614f9e565b60405180910390f35b3480156101d657600080fd5b506101f160048036038101906101ec91906136a0565b610ec2565b005b3480156101ff57600080fd5b5061021a60048036038101906102159190613919565b610f86565b005b34801561022857600080fd5b506102316110e4565b60405161023e91906150f1565b60405180910390f35b34801561025357600080fd5b5061026e60048036038101906102699190613ab5565b6110ee565b60405161027b91906150f1565b60405180910390f35b34801561029057600080fd5b506102ab60048036038101906102a69190613664565b61114f565b005b606073__$f27e79961c3433e31ab5fa1d53780be647$__63b9ae91dc848460046040518463ffffffff1660e01b81526004016102eb93929190614f6c565b60006040518083038186803b15801561030357600080fd5b505af4158015610317573d6000803e3d6000fd5b505050506040513d6000823e3d601f19601f8201168201806040525081019061034091906137b5565b905092915050565b60005a9050600061035889611323565b9050600061036b878787878d8d896113f8565b9050600160108190555060005b878790508110156106ac57808260c0018181525050600081146104fd578787828181106103ce577f4e487b7100000000000000000000000000000000000000000000000000000000600052603260045260246000fd5b90506020028101906103e091906153a9565b906103eb9190615c8b565b8260600181905250808a8a9050111561049257898982818110610437577f4e487b7100000000000000000000000000000000000000000000000000000000600052603260045260246000fd5b905060200281019061044991906152fb565b80806020026020016040519081016040528093929190818152602001838360200280828437600081840152601f19601f8201169050808301925050505050505082608001819052505b808686905011156104fc578585828181106104d6577f4e487b7100000000000000000000000000000000000000000000000000000000600052603260045260246000fd5b90506020028101906104e89190615352565b906104f39190615c76565b8260a001819052505b5b612710888883818110610539577f4e487b7100000000000000000000000000000000000000000000000000000000600052603260045260246000fd5b905060200281019061054b91906153a9565b6000818110610583577f4e487b7100000000000000000000000000000000000000000000000000000000600052603260045260246000fd5b90506020028101906105959190615400565b60008181106105cd577f4e487b7100000000000000000000000000000000000000000000000000000000600052603260045260246000fd5b90506020020135141561065b5760005a90506105e8836117ba565b83604001518381518110610625577f4e487b7100000000000000000000000000000000000000000000000000000000600052603260045260246000fd5b6020026020010181815250505a8161063d9190615bfa565b6010600082825461064e9190615ba4565b9250508190555050610699565b60005a9050610669836118fc565b836101000181815250505a8161067f9190615bfa565b601060008282546106909190615ba4565b92505081905550505b80806106a490615d49565b915050610378565b5060016004800160008360000151815260200190815260200160002060006001815260200190815260200160002060006003815260200190815260200160002060008282546106fb9190615ba4565b9250508190555061070a612093565b3373ffffffffffffffffffffffffffffffffffffffff1681600001517f51560e0be7b5fee8b1796cc3713c67a0aa68bb449b93c46f3cb90a895b66c942848a8a90505a886107589190615bfa565b343a424341446040516107739998979695949392919061526e565b60405180910390a350505050505050505050565b606073__$f27e79961c3433e31ab5fa1d53780be647$__632ac19780848460046040518463ffffffff1660e01b81526004016107c593929190614f6c565b60006040518083038186803b1580156107dd57600080fd5b505af41580156107f1573d6000803e3d6000fd5b505050506040513d6000823e3d601f19601f8201168201806040525081019061081a919061395e565b905092915050565b7f000000000000000000000000000000000000000000000000000000000000000073ffffffffffffffffffffffffffffffffffffffff163373ffffffffffffffffffffffffffffffffffffffff1614801561088a5750600160009054906101000a900460ff16155b61089357600080fd5b60018060006101000a81548160ff02191690831515021790555060005b600781101561096f576001600260008c84600781106108f8577f4e487b7100000000000000000000000000000000000000000000000000000000600052603260045260246000fd5b60200201602081019061090b919061363b565b73ffffffffffffffffffffffffffffffffffffffff1673ffffffffffffffffffffffffffffffffffffffff16815260200190815260200160002060006101000a81548160ff021916908315150217905550808061096790615d49565b9150506108b0565b50886001600781106109aa577f4e487b7100000000000000000000000000000000000000000000000000000000600052603260045260246000fd5b6020020160208101906109bd919061363b565b600a60006101000a81548173ffffffffffffffffffffffffffffffffffffffff021916908373ffffffffffffffffffffffffffffffffffffffff16021790555088600260078110610a37577f4e487b7100000000000000000000000000000000000000000000000000000000600052603260045260246000fd5b602002016020810190610a4a919061363b565b600d60006101000a81548173ffffffffffffffffffffffffffffffffffffffff021916908373ffffffffffffffffffffffffffffffffffffffff16021790555088600360078110610ac4577f4e487b7100000000000000000000000000000000000000000000000000000000600052603260045260246000fd5b602002016020810190610ad7919061363b565b600b60006101000a81548173ffffffffffffffffffffffffffffffffffffffff021916908373ffffffffffffffffffffffffffffffffffffffff16021790555088600460078110610b51577f4e487b7100000000000000000000000000000000000000000000000000000000600052603260045260246000fd5b602002016020810190610b64919061363b565b600c60006101000a81548173ffffffffffffffffffffffffffffffffffffffff021916908373ffffffffffffffffffffffffffffffffffffffff16021790555088600560078110610bde577f4e487b7100000000000000000000000000000000000000000000000000000000600052603260045260246000fd5b602002016020810190610bf1919061363b565b600e60006101000a81548173ffffffffffffffffffffffffffffffffffffffff021916908373ffffffffffffffffffffffffffffffffffffffff16021790555088600660078110610c6b577f4e487b7100000000000000000000000000000000000000000000000000000000600052603260045260246000fd5b602002016020810190610c7e919061363b565b600f60006101000a81548173ffffffffffffffffffffffffffffffffffffffff021916908373ffffffffffffffffffffffffffffffffffffffff160217905550600d60009054906101000a900473ffffffffffffffffffffffffffffffffffffffff1673ffffffffffffffffffffffffffffffffffffffff1663ec21a35f8a8a8a8a8a8a8a8a8a6040518a63ffffffff1660e01b8152600401610d2999989796959493929190614e6d565b600060405180830381600087803b158015610d4357600080fd5b505af1158015610d57573d6000803e3d6000fd5b5050505073__$f27e79961c3433e31ab5fa1d53780be647$__63e0f62d2a838360046040518463ffffffff1660e01b8152600401610d9793929190614f6c565b60006040518083038186803b158015610daf57600080fd5b505af4158015610dc3573d6000803e3d6000fd5b50505050505050505050505050565b600060046002016000600a8152602001908152602001600020600083815260200190815260200160002060009054906101000a900473ffffffffffffffffffffffffffffffffffffffff169050919050565b606073__$f27e79961c3433e31ab5fa1d53780be647$__63a4417f2185858560046040518563ffffffff1660e01b8152600401610e649493929190614fc0565b60006040518083038186803b158015610e7c57600080fd5b505af4158015610e90573d6000803e3d6000fd5b505050506040513d6000823e3d601f19601f82011682018060405250810190610eb9919061395e565b90509392505050565b7f000000000000000000000000000000000000000000000000000000000000000073ffffffffffffffffffffffffffffffffffffffff163373ffffffffffffffffffffffffffffffffffffffff1614610f1a57600080fd5b3373ffffffffffffffffffffffffffffffffffffffff163073ffffffffffffffffffffffffffffffffffffffff167fd9432748d2aa3f7169aef587dbfa3326350a8535cbe4eed4d4ff1f58b14dbc69424385604051610f7b939291906151ba565b60405180910390a350565b3360011515600260008373ffffffffffffffffffffffffffffffffffffffff1673ffffffffffffffffffffffffffffffffffffffff16815260200190815260200160002060009054906101000a900460ff16151514610fe457600080fd5b73__$f27e79961c3433e31ab5fa1d53780be647$__63e0f62d2a848460046040518463ffffffff1660e01b815260040161102093929190614f6c565b60006040518083038186803b15801561103857600080fd5b505af415801561104c573d6000803e3d6000fd5b50505050600a60009054906101000a900473ffffffffffffffffffffffffffffffffffffffff1673ffffffffffffffffffffffffffffffffffffffff1663f6cd7dc584846040518363ffffffff1660e01b81526004016110ad929190614f48565b600060405180830381600087803b1580156110c757600080fd5b505af11580156110db573d6000803e3d6000fd5b50505050505050565b6000601054905090565b600060018214156111015747905061114a565b60028214156111125742905061114a565b60038214156111235743905061114a565b60048214156111345745905061114a565b60058214156111455744905061114a565b600090505b919050565b61fde85a111561115e57600080fd5b600061116982611323565b9050600060046001016000600a815260200190815260200160002060003373ffffffffffffffffffffffffffffffffffffffff1673ffffffffffffffffffffffffffffffffffffffff1681526020019081526020016000205490506000600460000160008381526020019081526020016000205490506000600460000160008481526020019081526020016000208190555060008573ffffffffffffffffffffffffffffffffffffffff168260405161122190614e3d565b60006040518083038185875af1925050503d806000811461125e576040519150601f19603f3d011682016040523d82523d6000602084013e611263565b606091505b50509050806112a7576040517f08c379a000000000000000000000000000000000000000000000000000000000815260040161129e9061508d565b60405180910390fd5b6112af612093565b8573ffffffffffffffffffffffffffffffffffffffff163373ffffffffffffffffffffffffffffffffffffffff16847f6f4f9f0d35e6404d637454b89ae29dac4517a51d4490567c3c3c8c0e6cef6c7c878642436040516113139493929190615229565b60405180910390a4505050505050565b6000600160009054906101000a900460ff16801561134357506001600354145b61134c57600080fd5b60026003819055508160006002811061138e577f4e487b7100000000000000000000000000000000000000000000000000000000600052603260045260246000fd5b602002013543111580156113e05750816001600281106113d7577f4e487b7100000000000000000000000000000000000000000000000000000000600052603260045260246000fd5b60200201354211155b6113e957600080fd5b6113f161209d565b9050919050565b611400612b0f565b6000806000611410858c8c6120be565b9250925092506000600480016000858152602001908152602001600020600060018152602001908152602001600020905060008089899050146114de5788886000818110611487577f4e487b7100000000000000000000000000000000000000000000000000000000600052603260045260246000fd5b905060200281019061149991906152fb565b80806020026020016040519081016040528093929190818152602001838360200280828437600081840152601f19601f8201169050808301925050505050505061154f565b600067ffffffffffffffff81111561151f577f4e487b7100000000000000000000000000000000000000000000000000000000600052604160045260246000fd5b60405190808252806020026020018201604052801561154d5781602001602082028036833780820191505090505b505b90506000808c8c9050146115b9578b8b6000818110611597577f4e487b7100000000000000000000000000000000000000000000000000000000600052603260045260246000fd5b90506020028101906115a99190615352565b906115b49190615c76565b61162f565b600067ffffffffffffffff8111156115fa577f4e487b7100000000000000000000000000000000000000000000000000000000600052604160045260246000fd5b60405190808252806020026020018201604052801561162d57816020015b60608152602001906001900390816116185790505b505b9050604051806101800160405280878152602001861515815260200185600060028110611685577f4e487b7100000000000000000000000000000000000000000000000000000000600052603260045260246000fd5b602002015181526020018f8f60008181106116c9577f4e487b7100000000000000000000000000000000000000000000000000000000600052603260045260246000fd5b90506020028101906116db91906153a9565b906116e69190615c8b565b81526020018381526020018281526020016000815260200160008152602001348152602001604051806040016040528086600060038152602001908152602001600020548152602001866000600481526020019081526020016000205481525081526020016000151581526020018560016002811061178e577f4e487b7100000000000000000000000000000000000000000000000000000000600052603260045260246000fd5b6020020151815250965060008e8e905014156117a957600080fd5b505050505050979650505050505050565b60006117c461209d565b8260e0018181525050600a60009054906101000a900473ffffffffffffffffffffffffffffffffffffffff1673ffffffffffffffffffffffffffffffffffffffff16636ee808998360600151600081518110611849577f4e487b7100000000000000000000000000000000000000000000000000000000600052603260045260246000fd5b602002602001015160098151811061188a577f4e487b7100000000000000000000000000000000000000000000000000000000600052603260045260246000fd5b602002602001015184600001518560e001516040518463ffffffff1660e01b81526004016118ba939291906151f2565b600060405180830381600087803b1580156118d457600080fd5b505af11580156118e8573d6000803e3d6000fd5b505050506118f5826121e7565b9050919050565b6000808261016001518360c0015181518110611941577f4e487b7100000000000000000000000000000000000000000000000000000000600052603260045260246000fd5b6020026020010151905082610100015191506102288114156119ef57600a60009054906101000a900473ffffffffffffffffffffffffffffffffffffffff1673ffffffffffffffffffffffffffffffffffffffff16633de197b3846040518263ffffffff1660e01b81526004016119b891906150cf565b600060405180830381600087803b1580156119d257600080fd5b505af11580156119e6573d6000803e3d6000fd5b5050505061208d565b6041811415611a8a57600d60009054906101000a900473ffffffffffffffffffffffffffffffffffffffff1673ffffffffffffffffffffffffffffffffffffffff166385f5fa16846040518263ffffffff1660e01b8152600401611a5391906150cf565b600060405180830381600087803b158015611a6d57600080fd5b505af1158015611a81573d6000803e3d6000fd5b5050505061208c565b604b811415611d8a5760008360600151600081518110611ad3577f4e487b7100000000000000000000000000000000000000000000000000000000600052603260045260246000fd5b6020026020010151600181518110611b14577f4e487b7100000000000000000000000000000000000000000000000000000000600052603260045260246000fd5b602002602001015190506005811415611c5d57600080600073__$7b11637b326fa12a30ce8fbc20da0b2192$__636731db27886040518263ffffffff1660e01b8152600401611b6391906150ad565b60006040518083038186803b158015611b7b57600080fd5b505af4158015611b8f573d6000803e3d6000fd5b505050506040513d6000823e3d601f19601f82011682018060405250810190611bb89190613a1e565b925092509250600b60009054906101000a900473ffffffffffffffffffffffffffffffffffffffff1673ffffffffffffffffffffffffffffffffffffffff166357c4747884896000015185856040518563ffffffff1660e01b8152600401611c239493929190615013565b600060405180830381600087803b158015611c3d57600080fd5b505af1158015611c51573d6000803e3d6000fd5b50505050505050611d84565b600073__$7b11637b326fa12a30ce8fbc20da0b2192$__6386ae6f8b866040518263ffffffff1660e01b8152600401611c9691906150ad565b60006040518083038186803b158015611cae57600080fd5b505af4158015611cc2573d6000803e3d6000fd5b505050506040513d6000823e3d601f19601f82011682018060405250810190611ceb91906137f6565b9050600b60009054906101000a900473ffffffffffffffffffffffffffffffffffffffff1673ffffffffffffffffffffffffffffffffffffffff16630676d171828760000151856040518463ffffffff1660e01b8152600401611d5093929190614f0a565b600060405180830381600087803b158015611d6a57600080fd5b505af1158015611d7e573d6000803e3d6000fd5b50505050505b5061208b565b6102f0811415611e9f576000600c60009054906101000a900473ffffffffffffffffffffffffffffffffffffffff1673ffffffffffffffffffffffffffffffffffffffff166322de72fc856040518263ffffffff1660e01b8152600401611df191906150cf565b602060405180830381600087803b158015611e0b57600080fd5b505af1158015611e1f573d6000803e3d6000fd5b505050506040513d601f19601f82011682018060405250810190611e439190613ade565b905080600480016000866000015181526020019081526020016000206000600181526020019081526020016000206000600481526020019081526020016000206000828254611e929190615ba4565b925050819055505061208a565b6055811415611ff0576000600e60009054906101000a900473ffffffffffffffffffffffffffffffffffffffff1673ffffffffffffffffffffffffffffffffffffffff16634d009804856040518263ffffffff1660e01b8152600401611f0591906150cf565b606060405180830381600087803b158015611f1f57600080fd5b505af1158015611f33573d6000803e3d6000fd5b505050506040513d601f19601f82011682018060405250810190611f5791906138f0565b905080600260038110611f93577f4e487b7100000000000000000000000000000000000000000000000000000000600052603260045260246000fd5b60200201519250600081600060038110611fd6577f4e487b7100000000000000000000000000000000000000000000000000000000600052603260045260246000fd5b602002015114611fea57611fe981612652565b5b50612089565b61035481141561208857600f60009054906101000a900473ffffffffffffffffffffffffffffffffffffffff1673ffffffffffffffffffffffffffffffffffffffff16639cc2ff8c846040518263ffffffff1660e01b815260040161205591906150cf565b600060405180830381600087803b15801561206f57600080fd5b505af1158015612083573d6000803e3d6000fd5b505050505b5b5b5b5b5b50919050565b6001600381905550565b60008060008154809291906120b190615d49565b9190505550600054905090565b6000806120c9612b7a565b60008060046001016000600a815260200190815260200160002060003373ffffffffffffffffffffffffffffffffffffffff1673ffffffffffffffffffffffffffffffffffffffff168152602001908152602001600020541461212d576000612136565b61213561209d565b5b905073__$f27e79961c3433e31ab5fa1d53780be647$__639fb94791886004848a8a6000546040518763ffffffff1660e01b815260040161217c96959493929190615135565b60006040518083038186803b15801561219457600080fd5b505af41580156121a8573d6000803e3d6000fd5b505050506040513d6000823e3d601f19601f820116820180604052508101906121d19190613b07565b8094508195508296505050505093509350939050565b6000808260600151600081518110612228577f4e487b7100000000000000000000000000000000000000000000000000000000600052603260045260246000fd5b6020026020010151600981518110612269577f4e487b7100000000000000000000000000000000000000000000000000000000600052603260045260246000fd5b6020026020010151905082604001518360c00151815181106122b4577f4e487b7100000000000000000000000000000000000000000000000000000000600052603260045260246000fd5b6020026020010151915073__$2c5481ac3a53d4f4da52c7594a1c0a4117$__63febfd3168285602001516040518363ffffffff1660e01b81526004016122fb92919061510c565b60006040518083038186803b15801561231357600080fd5b505af4158015612327573d6000803e3d6000fd5b50505050601d8114156123445761233d83612805565b9150612608565b601e8114806123535750602081145b156123ea57600b60009054906101000a900473ffffffffffffffffffffffffffffffffffffffff1673ffffffffffffffffffffffffffffffffffffffff16633f0705fc846040518263ffffffff1660e01b81526004016123b391906150cf565b600060405180830381600087803b1580156123cd57600080fd5b505af11580156123e1573d6000803e3d6000fd5b50505050612607565b601f81141561248557600e60009054906101000a900473ffffffffffffffffffffffffffffffffffffffff1673ffffffffffffffffffffffffffffffffffffffff166303c0d5d8846040518263ffffffff1660e01b815260040161244e91906150cf565b600060405180830381600087803b15801561246857600080fd5b505af115801561247c573d6000803e3d6000fd5b50505050612606565b602181141561252057600d60009054906101000a900473ffffffffffffffffffffffffffffffffffffffff1673ffffffffffffffffffffffffffffffffffffffff16630d8d5052846040518263ffffffff1660e01b81526004016124e991906150cf565b600060405180830381600087803b15801561250357600080fd5b505af1158015612517573d6000803e3d6000fd5b50505050612605565b6024811415612604578260a00151600081518110612567577f4e487b7100000000000000000000000000000000000000000000000000000000600052603260045260246000fd5b60200260200101516000815181106125a8577f4e487b7100000000000000000000000000000000000000000000000000000000600052603260045260246000fd5b60200260200101516040516125bd9190614e26565b60405180910390208360e001517f080ee4c321025e8bcbdace3c00f963d4968f61c7a4a04e0ec965ead5d50f3c6743426040516125fb929190615191565b60405180910390a35b5b5b5b5b8260000151818460e001517f82138c3e7c8da08373e0ee2722dc0f9641d5f8993c868f5e508ecbe227fb4da24243604051612644929190615191565b60405180910390a450919050565b60006004600001600083600160038110612695577f4e487b7100000000000000000000000000000000000000000000000000000000600052603260045260246000fd5b6020020151815260200190815260200160002054146126b357600080fd5b806000600381106126ed577f4e487b7100000000000000000000000000000000000000000000000000000000600052603260045260246000fd5b60200201516004600001600083600160038110612733577f4e487b7100000000000000000000000000000000000000000000000000000000600052603260045260246000fd5b602002015181526020019081526020016000208190555080600160038110612784577f4e487b7100000000000000000000000000000000000000000000000000000000600052603260045260246000fd5b60200201517fa46482b81c1a0d65e2c94037160e7f8310b688898a11779fbebf0abbe12cbc51826000600381106127e4577f4e487b7100000000000000000000000000000000000000000000000000000000600052603260045260246000fd5b602002015142436040516127fa939291906151f2565b60405180910390a250565b6000808260800151600081518110612846577f4e487b7100000000000000000000000000000000000000000000000000000000600052603260045260246000fd5b60200260200101519050600060046001016000600a8152602001908152602001600020905060008160008473ffffffffffffffffffffffffffffffffffffffff1673ffffffffffffffffffffffffffffffffffffffff1681526020019081526020016000205414156129fc578360e0015160046001016000600a815260200190815260200160002060008473ffffffffffffffffffffffffffffffffffffffff1673ffffffffffffffffffffffffffffffffffffffff168152602001908152602001600020819055506000846060015160008151811061294f577f4e487b7100000000000000000000000000000000000000000000000000000000600052603260045260246000fd5b6020026020010151600381518110612990577f4e487b7100000000000000000000000000000000000000000000000000000000600052603260045260246000fd5b602002602001015190508460e001518373ffffffffffffffffffffffffffffffffffffffff1686600001517f407392862bf429f17180c8e1ec8d2cd5fd8aa4e1cb5e15767e3ae6a87d2de0a18442436040516129ee939291906151f2565b60405180910390a450612ac7565b60018460600151600081518110612a3c577f4e487b7100000000000000000000000000000000000000000000000000000000600052603260045260246000fd5b6020026020010151600581518110612a7d577f4e487b7100000000000000000000000000000000000000000000000000000000600052603260045260246000fd5b60200260200101511415612ac6576040517f08c379a0000000000000000000000000000000000000000000000000000000008152600401612abd9061506d565b60405180910390fd5b5b8060008373ffffffffffffffffffffffffffffffffffffffff1673ffffffffffffffffffffffffffffffffffffffff1681526020019081526020016000205492505050919050565b6040518061018001604052806000815260200160001515815260200160608152602001606081526020016060815260200160608152602001600081526020016000815260200160008152602001612b64612ba1565b8152602001600015158152602001606081525090565b60405180604001604052806002905b6060815260200190600190039081612b895790505090565b6040518060400160405280600290602082028036833780820191505090505090565b6000612bd6612bd18461547c565b615457565b90508083825260208201905082856020860282011115612bf557600080fd5b60005b85811015612c255781612c0b8882613206565b845260208401935060208301925050600181019050612bf8565b5050509392505050565b6000612c42612c3d846154a8565b615457565b90508082856020860282011115612c5857600080fd5b60005b85811015612ca257815167ffffffffffffffff811115612c7a57600080fd5b808601612c878982613474565b85526020850194506020840193505050600181019050612c5b565b5050509392505050565b6000612cbf612cba846154ce565b615457565b90508083825260208201905082856020860282011115612cde57600080fd5b60005b85811015612d2857813567ffffffffffffffff811115612d0057600080fd5b808601612d0d898261349e565b85526020850194506020840193505050600181019050612ce1565b5050509392505050565b6000612d45612d40846154fa565b615457565b90508083825260208201905082856080860282011115612d6457600080fd5b60005b85811015612d945781612d7a888261350d565b845260208401935060808301925050600181019050612d67565b5050509392505050565b6000612db1612dac84615526565b615457565b90508082856020860282011115612dc757600080fd5b60005b85811015612e1157815167ffffffffffffffff811115612de957600080fd5b808601612df689826135a8565b85526020850194506020840193505050600181019050612dca565b5050509392505050565b6000612e2e612e298461554c565b615457565b90508082856020860282011115612e4457600080fd5b60005b85811015612e8e57815167ffffffffffffffff811115612e6657600080fd5b808601612e7389826135a8565b85526020850194506020840193505050600181019050612e47565b5050509392505050565b6000612eab612ea684615572565b615457565b90508083825260208201905082856020860282011115612eca57600080fd5b60005b85811015612f1457813567ffffffffffffffff811115612eec57600080fd5b808601612ef9898261357e565b85526020850194506020840193505050600181019050612ecd565b5050509392505050565b6000612f31612f2c84615572565b615457565b90508083825260208201905082856020860282011115612f5057600080fd5b60005b85811015612f9a57815167ffffffffffffffff811115612f7257600080fd5b808601612f7f89826135a8565b85526020850194506020840193505050600181019050612f53565b5050509392505050565b6000612fb7612fb28461559e565b615457565b90508083825260208201905082856020860282011115612fd657600080fd5b60005b8581101561302057813567ffffffffffffffff811115612ff857600080fd5b80860161300589826135e7565b85526020850194506020840193505050600181019050612fd9565b5050509392505050565b600061303d613038846155ca565b615457565b9050808285602086028201111561305357600080fd5b60005b8581101561308357816130698882613626565b845260208401935060208301925050600181019050613056565b5050509392505050565b60006130a061309b846155f0565b615457565b905080828560208602820111156130b657600080fd5b60005b858110156130e657816130cc8882613626565b8452602084019350602083019250506001810190506130b9565b5050509392505050565b60006131036130fe84615616565b615457565b9050808382526020820190508285602086028201111561312257600080fd5b60005b8581101561315257816131388882613611565b845260208401935060208301925050600181019050613125565b5050509392505050565b600061316f61316a84615616565b615457565b9050808382526020820190508285602086028201111561318e57600080fd5b60005b858110156131be57816131a48882613626565b845260208401935060208301925050600181019050613191565b5050509392505050565b60006131db6131d684615642565b615457565b9050828152602081018484840111156131f357600080fd5b6131fe848285615cd6565b509392505050565b60008135905061321581615e53565b92915050565b60008190508260206007028201111561323357600080fd5b92915050565b600082601f83011261324a57600080fd5b813561325a848260208601612bc3565b91505092915050565b60008083601f84011261327557600080fd5b8235905067ffffffffffffffff81111561328e57600080fd5b6020830191508360208202830111156132a657600080fd5b9250929050565b60008083601f8401126132bf57600080fd5b8235905067ffffffffffffffff8111156132d857600080fd5b6020830191508360208202830111156132f057600080fd5b9250929050565b60008083601f84011261330957600080fd5b8235905067ffffffffffffffff81111561332257600080fd5b60208301915083602082028301111561333a57600080fd5b9250929050565b600082601f83011261335257600080fd5b600261335f848285612c2f565b91505092915050565b60008083601f84011261337a57600080fd5b8235905067ffffffffffffffff81111561339357600080fd5b6020830191508360208202830111156133ab57600080fd5b9250929050565b600082601f8301126133c357600080fd5b81516133d3848260208601612d32565b91505092915050565b60008083601f8401126133ee57600080fd5b8235905067ffffffffffffffff81111561340757600080fd5b60208301915083602082028301111561341f57600080fd5b9250929050565b600082601f83011261343757600080fd5b6002613444848285612d9e565b91505092915050565b600082601f83011261345e57600080fd5b600561346b848285612e1b565b91505092915050565b600082601f83011261348557600080fd5b8151613495848260208601612f1e565b91505092915050565b600082601f8301126134af57600080fd5b81356134bf848260208601612fa4565b91505092915050565b6000819050826020600202820111156134e057600080fd5b92915050565b600082601f8301126134f757600080fd5b600361350484828561302a565b91505092915050565b600082601f83011261351e57600080fd5b600461352b84828561308d565b91505092915050565b60008083601f84011261354657600080fd5b8235905067ffffffffffffffff81111561355f57600080fd5b60208301915083602082028301111561357757600080fd5b9250929050565b600082601f83011261358f57600080fd5b813561359f8482602086016130f0565b91505092915050565b600082601f8301126135b957600080fd5b81516135c984826020860161315c565b91505092915050565b6000815190506135e181615e6a565b92915050565b600082601f8301126135f857600080fd5b81356136088482602086016131c8565b91505092915050565b60008135905061362081615e81565b92915050565b60008151905061363581615e81565b92915050565b60006020828403121561364d57600080fd5b600061365b84828501613206565b91505092915050565b6000806060838503121561367757600080fd5b600061368585828601613206565b9250506020613696858286016134c8565b9150509250929050565b600060e082840312156136b257600080fd5b60006136c08482850161321b565b91505092915050565b60008060008060008060008060006101608a8c0312156136e857600080fd5b60006136f68c828d0161321b565b99505060e08a013567ffffffffffffffff81111561371357600080fd5b61371f8c828d016132f7565b98509850506101008a013567ffffffffffffffff81111561373f57600080fd5b61374b8c828d016133dc565b96509650506101208a013567ffffffffffffffff81111561376b57600080fd5b6137778c828d01613368565b94509450506101408a013567ffffffffffffffff81111561379757600080fd5b6137a38c828d01613534565b92509250509295985092959850929598565b6000602082840312156137c757600080fd5b600082015167ffffffffffffffff8111156137e157600080fd5b6137ed848285016133b2565b91505092915050565b60006020828403121561380857600080fd5b600082015167ffffffffffffffff81111561382257600080fd5b61382e8482850161344d565b91505092915050565b600080600080600080600060a0888a03121561385257600080fd5b60006138608a828b016134c8565b975050604088013567ffffffffffffffff81111561387d57600080fd5b6138898a828b01613263565b9650965050606088013567ffffffffffffffff8111156138a857600080fd5b6138b48a828b016132f7565b9450945050608088013567ffffffffffffffff8111156138d357600080fd5b6138df8a828b016132ad565b925092505092959891949750929550565b60006060828403121561390257600080fd5b6000613910848285016134e6565b91505092915050565b6000806020838503121561392c57600080fd5b600083013567ffffffffffffffff81111561394657600080fd5b61395285828601613534565b92509250509250929050565b60006020828403121561397057600080fd5b600082015167ffffffffffffffff81111561398a57600080fd5b613996848285016135a8565b91505092915050565b6000806000606084860312156139b457600080fd5b600084013567ffffffffffffffff8111156139ce57600080fd5b6139da8682870161357e565b935050602084013567ffffffffffffffff8111156139f757600080fd5b613a0386828701613239565b9250506040613a1486828701613611565b9150509250925092565b600080600060608486031215613a3357600080fd5b600084015167ffffffffffffffff811115613a4d57600080fd5b613a59868287016135a8565b935050602084015167ffffffffffffffff811115613a7657600080fd5b613a8286828701613474565b925050604084015167ffffffffffffffff811115613a9f57600080fd5b613aab86828701613341565b9150509250925092565b600060208284031215613ac757600080fd5b6000613ad584828501613611565b91505092915050565b600060208284031215613af057600080fd5b6000613afe84828501613626565b91505092915050565b600080600060608486031215613b1c57600080fd5b6000613b2a86828701613626565b9350506020613b3b868287016135d2565b925050604084015167ffffffffffffffff811115613b5857600080fd5b613b6486828701613426565b9150509250925092565b6000613b7a8383613d05565b60208301905092915050565b6000613b928383613d23565b60208301905092915050565b6000613bab8484846141ca565b90509392505050565b6000613bc18484846142b6565b90509392505050565b6000613bd683836143a1565b905092915050565b6000613beb848484614500565b90509392505050565b6000613c008383614576565b905092915050565b6000613c1483836145eb565b905092915050565b6000613c28838361470e565b60808301905092915050565b6000613c41848484614765565b90509392505050565b6000613c5784848461486d565b90509392505050565b6000613c6c83836148c5565b905092915050565b6000613c8083836149df565b905092915050565b6000613c95848484614a6a565b90509392505050565b6000613caa8383614a97565b905092915050565b6000613cbe8383614ad0565b905092915050565b6000613cd28383614dea565b60208301905092915050565b6000613cea8383614e17565b60208301905092915050565b613cff81615ca0565b82525050565b613d0e81615c2e565b82525050565b613d1d81615c2e565b82525050565b613d2c81615c2e565b82525050565b613d3b8161572d565b613d458184615874565b9250613d5082615673565b8060005b83811015613d8957613d668284615a31565b613d708782613b6e565b9650613d7b836157b1565b925050600181019050613d54565b505050505050565b6000613d9c82615738565b613da6818561587f565b9350613db18361567d565b8060005b83811015613de2578151613dc98882613b6e565b9750613dd4836157be565b925050600181019050613db5565b5085935050505092915050565b6000613dfa82615738565b613e048185615890565b9350613e0f8361567d565b8060005b83811015613e40578151613e278882613b86565b9750613e32836157be565b925050600181019050613e13565b5085935050505092915050565b6000613e5882615738565b613e6281856158a1565b9350613e6d8361567d565b8060005b83811015613e9e578151613e858882613b86565b9750613e90836157be565b925050600181019050613e71565b5085935050505092915050565b6000613eb783856158bd565b935083602084028501613ec98461568d565b8060005b87811015613f0f578484038952613ee48284615a48565b613eef868284613b9e565b9550613efa846157cb565b935060208b019a505050600181019050613ecd565b50829750879450505050509392505050565b6000613f2d83856158ce565b935083602084028501613f3f8461568d565b8060005b87811015613f85578484038952613f5a8284615a48565b613f65868284613bb4565b9550613f70846157cb565b935060208b019a505050600181019050613f43565b50829750879450505050509392505050565b6000613fa282615743565b613fac81856158b2565b935083602082028501613fbe85615697565b8060005b85811015613ffa5784840389528151613fdb8582613bca565b9450613fe6836157d8565b925060208a01995050600181019050613fc2565b50829750879550505050505092915050565b600061401883856158f0565b93508360208402850161402a846156a1565b8060005b878110156140705784840389526140458284615a9f565b614050868284613bde565b955061405b846157e5565b935060208b019a50505060018101905061402e565b50829750879450505050509392505050565b600061408d8261574e565b61409781856158df565b9350836020820285016140a9856156ab565b8060005b858110156140e557848403895281516140c68582613bf4565b94506140d1836157f2565b925060208a019950506001810190506140ad565b50829750879550505050505092915050565b60006141028261574e565b61410c8185615901565b93508360208202850161411e856156ab565b8060005b8581101561415a578484038952815161413b8582613c08565b9450614146836157f2565b925060208a01995050600181019050614122565b50829750879550505050505092915050565b600061417782615759565b6141818185615912565b935061418c836156bb565b8060005b838110156141bd5781516141a48882613c1c565b97506141af836157ff565b925050600181019050614190565b5085935050505092915050565b60006141d6838561592e565b9350836020840285016141e8846156cb565b8060005b8781101561422e5784840389526142038284615af6565b61420e868284613c34565b95506142198461580c565b935060208b019a5050506001810190506141ec565b50829750879450505050509392505050565b600061424c838561593f565b93508360208402850161425e846156cb565b8060005b878110156142a45784840389526142798284615af6565b614284868284613c34565b955061428f8461580c565b935060208b019a505050600181019050614262565b50829750879450505050509392505050565b60006142c28385615950565b9350836020840285016142d4846156cb565b8060005b8781101561431a5784840389526142ef8284615af6565b6142fa868284613c4a565b95506143058461580c565b935060208b019a5050506001810190506142d8565b50829750879450505050509392505050565b600061433782615764565b6143418185615923565b935083602082028501614353856156d5565b8060005b8581101561438f57848403895281516143708582613c60565b945061437b83615819565b925060208a01995050600181019050614357565b50829750879550505050505092915050565b60006143ac8261576f565b6143b6818561592e565b9350836020820285016143c8856156df565b8060005b8581101561440457848403895281516143e58582613c60565b94506143f083615826565b925060208a019950506001810190506143cc565b50829750879550505050505092915050565b60006144218261576f565b61442b818561593f565b93508360208202850161443d856156df565b8060005b85811015614479578484038952815161445a8582613c60565b945061446583615826565b925060208a01995050600181019050614441565b50829750879550505050505092915050565b60006144968261576f565b6144a08185615950565b9350836020820285016144b2856156df565b8060005b858110156144ee57848403895281516144cf8582613c74565b94506144da83615826565b925060208a019950506001810190506144b6565b50829750879550505050505092915050565b600061450c8385615961565b93508360208402850161451e846156ef565b8060005b878110156145645784840389526145398284615b4d565b614544868284613c88565b955061454f84615833565b935060208b019a505050600181019050614522565b50829750879450505050509392505050565b60006145818261577a565b61458b8185615961565b93508360208202850161459d856156f9565b8060005b858110156145d957848403895281516145ba8582613c9e565b94506145c583615840565b925060208a019950506001810190506145a1565b50829750879550505050505092915050565b60006145f68261577a565b6146008185615972565b935083602082028501614612856156f9565b8060005b8581101561464e578484038952815161462f8582613cb2565b945061463a83615840565b925060208a01995050600181019050614616565b50829750879550505050505092915050565b61466981615785565b6146738184615983565b925061467e82615709565b8060005b838110156146af5781516146968782613cc6565b96506146a18361584d565b925050600181019050614682565b505050505050565b6146c081615785565b6146ca818461598e565b92506146d582615709565b8060005b838110156147065781516146ed8782613cde565b96506146f88361584d565b9250506001810190506146d9565b505050505050565b61471781615790565b6147218184615999565b925061472c82615713565b8060005b8381101561475d5781516147448782613cc6565b965061474f8361585a565b925050600181019050614730565b505050505050565b600061477183856159a4565b93507f07ffffffffffffffffffffffffffffffffffffffffffffffffffffffffffffff8311156147a057600080fd5b6020830292506147b1838584615cd6565b82840190509392505050565b60006147c983856159b5565b93507f07ffffffffffffffffffffffffffffffffffffffffffffffffffffffffffffff8311156147f857600080fd5b602083029250614809838584615cd6565b82840190509392505050565b600061482183856159c6565b93507f07ffffffffffffffffffffffffffffffffffffffffffffffffffffffffffffff83111561485057600080fd5b602083029250614861838584615cd6565b82840190509392505050565b600061487983856159d7565b93507f07ffffffffffffffffffffffffffffffffffffffffffffffffffffffffffffff8311156148a857600080fd5b6020830292506148b9838584615cd6565b82840190509392505050565b60006148d08261579b565b6148da81856159a4565b93506148e58361571d565b8060005b838110156149165781516148fd8882613cc6565b975061490883615867565b9250506001810190506148e9565b5085935050505092915050565b600061492e8261579b565b61493881856159b5565b93506149438361571d565b8060005b8381101561497457815161495b8882613cc6565b975061496683615867565b925050600181019050614947565b5085935050505092915050565b600061498c8261579b565b61499681856159c6565b93506149a18361571d565b8060005b838110156149d25781516149b98882613cde565b97506149c483615867565b9250506001810190506149a5565b5085935050505092915050565b60006149ea8261579b565b6149f481856159d7565b93506149ff8361571d565b8060005b83811015614a30578151614a178882613cde565b9750614a2283615867565b925050600181019050614a03565b5085935050505092915050565b614a4681615c40565b82525050565b614a5581615c40565b82525050565b614a6481615c40565b82525050565b6000614a7683856159f3565b9350614a83838584615cd6565b614a8c83615df0565b840190509392505050565b6000614aa2826157a6565b614aac81856159f3565b9350614abc818560208601615ce5565b614ac581615df0565b840191505092915050565b6000614adb826157a6565b614ae58185615a15565b9350614af5818560208601615ce5565b614afe81615df0565b840191505092915050565b6000614b14826157a6565b614b1e8185615a26565b9350614b2e818560208601615ce5565b80840191505092915050565b6000614b47603e83615a04565b9150614b5282615e01565b604082019050919050565b6000614b6a6000836159e8565b9150614b7582615e50565b600082019050919050565b6000614b8d600083615a04565b9150614b9882615e50565b600082019050919050565b8082525050565b60006101a083016000830151614bc36000860182614dea565b506020830151614bd66020860182614a3d565b5060408301518482036040860152614bee82826148c5565b91505060608301518482036060860152614c0882826143a1565b91505060808301518482036080860152614c228282613d91565b91505060a083015184820360a0860152614c3c8282614082565b91505060c0830151614c5160c0860182614dea565b5060e0830151614c6460e0860182614dea565b50610100830151614c79610100860182614dea565b50610120830151614c8e610120860182614660565b50610140830151614ca3610160860182614a3d565b50610160830151848203610180860152614cbd82826148c5565b9150508091505092915050565b60006101a083016000830151614ce36000860182614e17565b506020830151614cf66020860182614a5b565b5060408301518482036040860152614d0e82826149df565b91505060608301518482036060860152614d28828261448b565b91505060808301518482036080860152614d428282613e4d565b91505060a083015184820360a0860152614d5c82826140f7565b91505060c0830151614d7160c0860182614e17565b5060e0830151614d8460e0860182614e17565b50610100830151614d99610100860182614e17565b50610120830151614dae6101208601826146b7565b50610140830151614dc3610160860182614a5b565b50610160830151848203610180860152614ddd82826149df565b9150508091505092915050565b614df381615c6c565b82525050565b614e0281615c6c565b82525050565b614e1181615c6c565b82525050565b614e2081615c6c565b82525050565b6000614e328284614b09565b915081905092915050565b6000614e4882614b5d565b9150819050919050565b6000602082019050614e676000830184613d14565b92915050565b600061016082019050614e83600083018c613d32565b81810360e0830152614e96818a8c613eab565b9050818103610100830152614eac81888a614240565b9050818103610120830152614ec281868861400c565b9050818103610140830152614ed88184866147bd565b90509a9950505050505050505050565b60006020820190508181036000830152614f02818461416c565b905092915050565b60006060820190508181036000830152614f24818661432c565b9050614f336020830185614df9565b614f406040830184614df9565b949350505050565b60006020820190508181036000830152614f638184866147bd565b90509392505050565b60006040820190508181036000830152614f87818587614815565b9050614f966020830184614ba3565b949350505050565b60006020820190508181036000830152614fb88184614923565b905092915050565b60006080820190508181036000830152614fda8187614981565b90508181036020830152614fee8186613def565b9050614ffd6040830185614e08565b61500a6060830184614ba3565b95945050505050565b6000608082019050818103600083015261502d8187614923565b905061503c6020830186614df9565b818103604083015261504e8185614416565b905081810360608301526150628184613f97565b905095945050505050565b6000602082019050818103600083015261508681614b3a565b9050919050565b600060208201905081810360008301526150a681614b80565b9050919050565b600060208201905081810360008301526150c78184614cca565b905092915050565b600060208201905081810360008301526150e98184614baa565b905092915050565b60006020820190506151066000830184614df9565b92915050565b60006040820190506151216000830185614e08565b61512e6020830184614a4c565b9392505050565b600060a08201905061514a6000830189614e08565b6151576020830188614ba3565b6151646040830187614e08565b8181036060830152615177818587613f21565b90506151866080830184614e08565b979650505050505050565b60006040820190506151a66000830185614df9565b6151b36020830184614df9565b9392505050565b6000610120820190506151d06000830186614df9565b6151dd6020830185614df9565b6151ea6040830184613d32565b949350505050565b60006060820190506152076000830186614df9565b6152146020830185614df9565b6152216040830184614df9565b949350505050565b600060808201905061523e6000830187614df9565b61524b6020830186614df9565b6152586040830185614df9565b6152656060830184614df9565b95945050505050565b600061012082019050615284600083018c614df9565b615291602083018b614df9565b61529e604083018a614df9565b6152ab6060830189614df9565b6152b86080830188614df9565b6152c560a0830187614df9565b6152d260c0830186614df9565b6152df60e0830185613cf6565b6152ed610100830184614df9565b9a9950505050505050505050565b6000808335600160200384360303811261531457600080fd5b80840192508235915067ffffffffffffffff82111561533257600080fd5b60208301925060208202360383131561534a57600080fd5b509250929050565b6000808335600160200384360303811261536b57600080fd5b80840192508235915067ffffffffffffffff82111561538957600080fd5b6020830192506020820236038313156153a157600080fd5b509250929050565b600080833560016020038436030381126153c257600080fd5b80840192508235915067ffffffffffffffff8211156153e057600080fd5b6020830192506020820236038313156153f857600080fd5b509250929050565b6000808335600160200384360303811261541957600080fd5b80840192508235915067ffffffffffffffff82111561543757600080fd5b60208301925060208202360383131561544f57600080fd5b509250929050565b6000615461615472565b905061546d8282615d18565b919050565b6000604051905090565b600067ffffffffffffffff82111561549757615496615dc1565b5b602082029050602081019050919050565b600067ffffffffffffffff8211156154c3576154c2615dc1565b5b602082029050919050565b600067ffffffffffffffff8211156154e9576154e8615dc1565b5b602082029050602081019050919050565b600067ffffffffffffffff82111561551557615514615dc1565b5b602082029050602081019050919050565b600067ffffffffffffffff82111561554157615540615dc1565b5b602082029050919050565b600067ffffffffffffffff82111561556757615566615dc1565b5b602082029050919050565b600067ffffffffffffffff82111561558d5761558c615dc1565b5b602082029050602081019050919050565b600067ffffffffffffffff8211156155b9576155b8615dc1565b5b602082029050602081019050919050565b600067ffffffffffffffff8211156155e5576155e4615dc1565b5b602082029050919050565b600067ffffffffffffffff82111561560b5761560a615dc1565b5b602082029050919050565b600067ffffffffffffffff82111561563157615630615dc1565b5b602082029050602081019050919050565b600067ffffffffffffffff82111561565d5761565c615dc1565b5b61566682615df0565b9050602081019050919050565b6000819050919050565b6000819050602082019050919050565b6000819050919050565b6000819050919050565b6000819050919050565b6000819050602082019050919050565b6000819050602082019050919050565b6000819050919050565b6000819050919050565b6000819050602082019050919050565b6000819050919050565b6000819050602082019050919050565b6000819050919050565b6000819050919050565b6000819050602082019050919050565b600060079050919050565b600081519050919050565b600060029050919050565b600081519050919050565b600081519050919050565b600060059050919050565b600081519050919050565b600081519050919050565b600060029050919050565b600060049050919050565b600081519050919050565b600081519050919050565b6000602082019050919050565b6000602082019050919050565b6000602082019050919050565b6000602082019050919050565b6000602082019050919050565b6000602082019050919050565b6000602082019050919050565b6000602082019050919050565b6000602082019050919050565b6000602082019050919050565b6000602082019050919050565b6000602082019050919050565b6000602082019050919050565b6000602082019050919050565b6000602082019050919050565b600081905092915050565b600082825260208201905092915050565b600082825260208201905092915050565b600082825260208201905092915050565b600081905092915050565b600082825260208201905092915050565b600082825260208201905092915050565b600082825260208201905092915050565b600082825260208201905092915050565b600082825260208201905092915050565b600082825260208201905092915050565b600081905092915050565b600082825260208201905092915050565b600082825260208201905092915050565b600082825260208201905092915050565b600082825260208201905092915050565b600082825260208201905092915050565b600081905092915050565b600081905092915050565b600081905092915050565b600082825260208201905092915050565b600082825260208201905092915050565b600082825260208201905092915050565b600082825260208201905092915050565b600081905092915050565b600082825260208201905092915050565b600082825260208201905092915050565b600082825260208201905092915050565b600081905092915050565b6000615a406020840184613206565b905092915050565b60008083356001602003843603038112615a6157600080fd5b83810192508235915060208301925067ffffffffffffffff821115615a8557600080fd5b602082023603841315615a9757600080fd5b509250929050565b60008083356001602003843603038112615ab857600080fd5b83810192508235915060208301925067ffffffffffffffff821115615adc57600080fd5b602082023603841315615aee57600080fd5b509250929050565b60008083356001602003843603038112615b0f57600080fd5b83810192508235915060208301925067ffffffffffffffff821115615b3357600080fd5b602082023603841315615b4557600080fd5b509250929050565b60008083356001602003843603038112615b6657600080fd5b83810192508235915060208301925067ffffffffffffffff821115615b8a57600080fd5b600182023603841315615b9c57600080fd5b509250929050565b6000615baf82615c6c565b9150615bba83615c6c565b9250827fffffffffffffffffffffffffffffffffffffffffffffffffffffffffffffffff03821115615bef57615bee615d92565b5b828201905092915050565b6000615c0582615c6c565b9150615c1083615c6c565b925082821015615c2357615c22615d92565b5b828203905092915050565b6000615c3982615c4c565b9050919050565b60008115159050919050565b600073ffffffffffffffffffffffffffffffffffffffff82169050919050565b6000819050919050565b6000615c83368484612cac565b905092915050565b6000615c98368484612e98565b905092915050565b6000615cab82615cb2565b9050919050565b6000615cbd82615cc4565b9050919050565b6000615ccf82615c4c565b9050919050565b82818337600083830152505050565b60005b83811015615d03578082015181840152602081019050615ce8565b83811115615d12576000848401525b50505050565b615d2182615df0565b810181811067ffffffffffffffff82111715615d4057615d3f615dc1565b5b80604052505050565b6000615d5482615c6c565b91507fffffffffffffffffffffffffffffffffffffffffffffffffffffffffffffffff821415615d8757615d86615d92565b5b600182019050919050565b7f4e487b7100000000000000000000000000000000000000000000000000000000600052601160045260246000fd5b7f4e487b7100000000000000000000000000000000000000000000000000000000600052604160045260246000fd5b6000601f19601f8301169050919050565b7f6163636f756e7420616c72656164792065786973747320666f7220746865207360008201527f70656369666965642061646472657373206265696e6720637265617465640000602082015250565b50565b615e5c81615c2e565b8114615e6757600080fd5b50565b615e7381615c40565b8114615e7e57600080fd5b50565b615e8a81615c6c565b8114615e9557600080fd5b5056fea2646970667358221220f63853e82af1f28b736e2aed6897b2ce3d5f5d038c74d9f5a0e4b78f921dae4964736f6c63430008040033",
  "linkReferences": {
    "contracts/E5D/E3.sol": {
      "E3": [
        {
          "length": 20,
          "start": 7110
        },
        {
          "length": 20,
          "start": 7417
        }
      ]
    },
    "contracts/E5D/E32.sol": {
      "E32": [
        {
          "length": 20,
          "start": 9048
        }
      ]
    },
    "contracts/E5D/E33.sol": {
      "E33": [
        {
          "length": 20,
          "start": 841
        },
        {
          "length": 20,
          "start": 2083
        },
        {
          "length": 20,
          "start": 3573
        },
        {
          "length": 20,
          "start": 3776
        },
        {
          "length": 20,
          "start": 4222
        },
        {
          "length": 20,
          "start": 8658
        }
      ]
    }
  },
  "deployedLinkReferences": {
    "contracts/E5D/E3.sol": {
      "E3": [
        {
          "length": 20,
          "start": 6958
        },
        {
          "length": 20,
          "start": 7265
        }
      ]
    },
    "contracts/E5D/E32.sol": {
      "E32": [
        {
          "length": 20,
          "start": 8896
        }
      ]
    },
    "contracts/E5D/E33.sol": {
      "E33": [
        {
          "length": 20,
          "start": 689
        },
        {
          "length": 20,
          "start": 1931
        },
        {
          "length": 20,
          "start": 3421
        },
        {
          "length": 20,
          "start": 3624
        },
        {
          "length": 20,
          "start": 4070
        },
        {
          "length": 20,
          "start": 8506
        }
      ]
    }
  }
}