{
  "_format": "hh-sol-artifact-1",
  "contractName": "E52",
  "sourceName": "contracts/E5D/E52.sol",
  "abi": [
    {
      "inputs": [
        {
          "internalType": "address",
          "name": "p1",
          "type": "address"
        }
      ],
      "stateMutability": "nonpayable",
      "type": "constructor"
    },
    {
      "anonymous": false,
      "inputs": [
        {
          "indexed": true,
          "internalType": "uint256",
          "name": "p1",
          "type": "uint256"
        },
        {
          "indexed": true,
          "internalType": "uint256",
          "name": "p2",
          "type": "uint256"
        },
        {
          "indexed": true,
          "internalType": "uint256",
          "name": "p3",
          "type": "uint256"
        },
        {
          "indexed": false,
          "internalType": "uint256",
          "name": "p4",
          "type": "uint256"
        },
        {
          "indexed": false,
          "internalType": "uint256",
          "name": "p5",
          "type": "uint256"
        },
        {
          "indexed": false,
          "internalType": "uint256",
          "name": "p6",
          "type": "uint256"
        },
        {
          "indexed": false,
          "internalType": "uint256",
          "name": "p7",
          "type": "uint256"
        },
        {
          "indexed": false,
          "internalType": "uint256",
          "name": "p8",
          "type": "uint256"
        }
      ],
      "name": "e1",
      "type": "event"
    },
    {
      "anonymous": false,
      "inputs": [
        {
          "indexed": true,
          "internalType": "string",
          "name": "p1",
          "type": "string"
        },
        {
          "indexed": true,
          "internalType": "uint256",
          "name": "p2",
          "type": "uint256"
        },
        {
          "indexed": true,
          "internalType": "uint256",
          "name": "p3",
          "type": "uint256"
        },
        {
          "indexed": false,
          "internalType": "string",
          "name": "p4",
          "type": "string"
        },
        {
          "indexed": false,
          "internalType": "uint256",
          "name": "p5",
          "type": "uint256"
        },
        {
          "indexed": false,
          "internalType": "uint256",
          "name": "p6",
          "type": "uint256"
        },
        {
          "indexed": false,
          "internalType": "uint256",
          "name": "p7",
          "type": "uint256"
        }
      ],
      "name": "e2",
      "type": "event"
    },
    {
      "anonymous": false,
      "inputs": [
        {
          "indexed": true,
          "internalType": "uint256",
          "name": "p1",
          "type": "uint256"
        },
        {
          "indexed": true,
          "internalType": "uint256",
          "name": "p2",
          "type": "uint256"
        },
        {
          "indexed": true,
          "internalType": "string",
          "name": "p3",
          "type": "string"
        },
        {
          "indexed": false,
          "internalType": "uint256",
          "name": "p4",
          "type": "uint256"
        },
        {
          "indexed": false,
          "internalType": "uint256",
          "name": "p5",
          "type": "uint256"
        }
      ],
      "name": "e3",
      "type": "event"
    },
    {
      "anonymous": false,
      "inputs": [
        {
          "indexed": true,
          "internalType": "uint256",
          "name": "p1",
          "type": "uint256"
        },
        {
          "indexed": true,
          "internalType": "uint256",
          "name": "p2",
          "type": "uint256"
        },
        {
          "indexed": true,
          "internalType": "uint256",
          "name": "p3",
          "type": "uint256"
        },
        {
          "indexed": false,
          "internalType": "string",
          "name": "p4",
          "type": "string"
        },
        {
          "indexed": false,
          "internalType": "uint256",
          "name": "p5",
          "type": "uint256"
        },
        {
          "indexed": false,
          "internalType": "uint256",
          "name": "p6",
          "type": "uint256"
        },
        {
          "indexed": false,
          "internalType": "uint256",
          "name": "p7",
          "type": "uint256"
        }
      ],
      "name": "e4",
      "type": "event"
    },
    {
      "anonymous": false,
      "inputs": [
        {
          "indexed": true,
          "internalType": "uint256",
          "name": "p1",
          "type": "uint256"
        },
        {
          "indexed": true,
          "internalType": "uint256",
          "name": "p2",
          "type": "uint256"
        },
        {
          "indexed": true,
          "internalType": "uint256",
          "name": "p3",
          "type": "uint256"
        },
        {
          "indexed": false,
          "internalType": "string",
          "name": "p4",
          "type": "string"
        },
        {
          "indexed": false,
          "internalType": "uint256",
          "name": "p5",
          "type": "uint256"
        },
        {
          "indexed": false,
          "internalType": "uint256",
          "name": "p6",
          "type": "uint256"
        }
      ],
      "name": "e5",
      "type": "event"
    },
    {
      "inputs": [
        {
          "internalType": "uint256[]",
          "name": "p1",
          "type": "uint256[]"
        }
      ],
      "name": "f132",
      "outputs": [
        {
          "internalType": "uint256[]",
          "name": "v1",
          "type": "uint256[]"
        }
      ],
      "stateMutability": "view",
      "type": "function"
    },
    {
      "inputs": [
        {
          "internalType": "uint256",
          "name": "p1",
          "type": "uint256"
        }
      ],
      "name": "f133",
      "outputs": [
        {
          "internalType": "uint256",
          "name": "",
          "type": "uint256"
        }
      ],
      "stateMutability": "view",
      "type": "function"
    },
    {
      "inputs": [
        {
          "internalType": "uint256[]",
          "name": "p1",
          "type": "uint256[]"
        }
      ],
      "name": "f134",
      "outputs": [
        {
          "internalType": "uint256[]",
          "name": "v1",
          "type": "uint256[]"
        }
      ],
      "stateMutability": "view",
      "type": "function"
    },
    {
      "inputs": [
        {
          "internalType": "uint256",
          "name": "p1",
          "type": "uint256"
        }
      ],
      "name": "f135",
      "outputs": [
        {
          "internalType": "uint256",
          "name": "",
          "type": "uint256"
        }
      ],
      "stateMutability": "view",
      "type": "function"
    },
    {
      "inputs": [
        {
          "internalType": "uint256[]",
          "name": "p1",
          "type": "uint256[]"
        },
        {
          "internalType": "uint256",
          "name": "p2",
          "type": "uint256"
        }
      ],
      "name": "f136",
      "outputs": [],
      "stateMutability": "view",
      "type": "function"
    },
    {
      "inputs": [
        {
          "internalType": "uint256[]",
          "name": "p1",
          "type": "uint256[]"
        },
        {
          "internalType": "uint256",
          "name": "p3",
          "type": "uint256"
        }
      ],
      "name": "f137",
      "outputs": [
        {
          "internalType": "uint256[]",
          "name": "v1",
          "type": "uint256[]"
        }
      ],
      "stateMutability": "view",
      "type": "function"
    },
    {
      "inputs": [
        {
          "internalType": "uint256[]",
          "name": "p1",
          "type": "uint256[]"
        },
        {
          "internalType": "uint256[]",
          "name": "p2",
          "type": "uint256[]"
        },
        {
          "internalType": "uint256",
          "name": "p3",
          "type": "uint256"
        }
      ],
      "name": "f138",
      "outputs": [],
      "stateMutability": "view",
      "type": "function"
    },
    {
      "inputs": [
        {
          "internalType": "address[7]",
          "name": "p1",
          "type": "address[7]"
        },
        {
          "internalType": "uint256[][]",
          "name": "p2",
          "type": "uint256[][]"
        },
        {
          "internalType": "string[][]",
          "name": "p3",
          "type": "string[][]"
        },
        {
          "internalType": "uint256[]",
          "name": "p4",
          "type": "uint256[]"
        }
      ],
      "name": "f158",
      "outputs": [],
      "stateMutability": "nonpayable",
      "type": "function"
    },
    {
      "inputs": [
        {
          "internalType": "uint256",
          "name": "p1",
          "type": "uint256"
        },
        {
          "internalType": "uint256",
          "name": "p3",
          "type": "uint256"
        },
        {
          "internalType": "uint256",
          "name": "p4",
          "type": "uint256"
        }
      ],
      "name": "f171",
      "outputs": [],
      "stateMutability": "nonpayable",
      "type": "function"
    },
    {
      "inputs": [
        {
          "internalType": "uint256[]",
          "name": "p1",
          "type": "uint256[]"
        },
        {
          "internalType": "uint256[]",
          "name": "p2",
          "type": "uint256[]"
        },
        {
          "internalType": "uint256",
          "name": "p3",
          "type": "uint256"
        }
      ],
      "name": "f188",
      "outputs": [
        {
          "internalType": "uint256[]",
          "name": "",
          "type": "uint256[]"
        }
      ],
      "stateMutability": "view",
      "type": "function"
    },
    {
      "inputs": [
        {
          "internalType": "uint256",
          "name": "p1",
          "type": "uint256"
        },
        {
          "internalType": "uint256",
          "name": "p2",
          "type": "uint256"
        }
      ],
      "name": "f193",
      "outputs": [],
      "stateMutability": "view",
      "type": "function"
    },
    {
      "inputs": [
        {
          "internalType": "uint256[]",
          "name": "p1",
          "type": "uint256[]"
        },
        {
          "internalType": "uint256",
          "name": "p2",
          "type": "uint256"
        }
      ],
      "name": "f211",
      "outputs": [],
      "stateMutability": "nonpayable",
      "type": "function"
    },
    {
      "inputs": [
        {
          "components": [
            {
              "internalType": "uint256",
              "name": "sv1",
              "type": "uint256"
            },
            {
              "internalType": "bool",
              "name": "sv2",
              "type": "bool"
            },
            {
              "internalType": "uint256[]",
              "name": "sv3",
              "type": "uint256[]"
            },
            {
              "internalType": "uint256[][]",
              "name": "sv4",
              "type": "uint256[][]"
            },
            {
              "internalType": "address[]",
              "name": "sv5",
              "type": "address[]"
            },
            {
              "internalType": "string[][]",
              "name": "sv6",
              "type": "string[][]"
            },
            {
              "internalType": "uint256",
              "name": "t",
              "type": "uint256"
            },
            {
              "internalType": "uint256",
              "name": "sv7",
              "type": "uint256"
            },
            {
              "internalType": "uint256",
              "name": "sv8",
              "type": "uint256"
            },
            {
              "internalType": "uint256[2]",
              "name": "sv9",
              "type": "uint256[2]"
            },
            {
              "internalType": "bool",
              "name": "sv10",
              "type": "bool"
            },
            {
              "internalType": "uint256[]",
              "name": "sv11",
              "type": "uint256[]"
            }
          ],
          "internalType": "struct E3.TD",
          "name": "p1",
          "type": "tuple"
        }
      ],
      "name": "f217",
      "outputs": [],
      "stateMutability": "nonpayable",
      "type": "function"
    },
    {
      "inputs": [
        {
          "internalType": "uint256[]",
          "name": "p1",
          "type": "uint256[]"
        },
        {
          "internalType": "uint256",
          "name": "p2",
          "type": "uint256"
        },
        {
          "internalType": "uint256",
          "name": "p3",
          "type": "uint256"
        }
      ],
      "name": "f244",
      "outputs": [],
      "stateMutability": "view",
      "type": "function"
    },
    {
      "inputs": [
        {
          "internalType": "uint256[]",
          "name": "p1",
          "type": "uint256[]"
        },
        {
          "internalType": "uint256",
          "name": "p2",
          "type": "uint256"
        }
      ],
      "name": "f254",
      "outputs": [
        {
          "internalType": "bool[]",
          "name": "",
          "type": "bool[]"
        }
      ],
      "stateMutability": "view",
      "type": "function"
    },
    {
      "inputs": [
        {
          "internalType": "uint256[]",
          "name": "p1",
          "type": "uint256[]"
        },
        {
          "internalType": "uint256[][]",
          "name": "p2",
          "type": "uint256[][]"
        }
      ],
      "name": "f255",
      "outputs": [
        {
          "internalType": "bool[][]",
          "name": "",
          "type": "bool[][]"
        }
      ],
      "stateMutability": "view",
      "type": "function"
    },
    {
      "inputs": [
        {
          "internalType": "uint256[]",
          "name": "p1",
          "type": "uint256[]"
        },
        {
          "internalType": "uint256[][]",
          "name": "p2",
          "type": "uint256[][]"
        },
        {
          "internalType": "uint256",
          "name": "p3",
          "type": "uint256"
        },
        {
          "internalType": "uint256",
          "name": "p4",
          "type": "uint256"
        }
      ],
      "name": "f256",
      "outputs": [
        {
          "internalType": "uint256[][]",
          "name": "",
          "type": "uint256[][]"
        }
      ],
      "stateMutability": "view",
      "type": "function"
    },
    {
      "inputs": [
        {
          "internalType": "uint256[]",
          "name": "p1",
          "type": "uint256[]"
        },
        {
          "internalType": "uint256[]",
          "name": "p2",
          "type": "uint256[]"
        },
        {
          "internalType": "uint256",
          "name": "p3",
          "type": "uint256"
        }
      ],
      "name": "f257",
      "outputs": [],
      "stateMutability": "view",
      "type": "function"
    },
    {
      "inputs": [
        {
          "internalType": "uint256[][5][5]",
          "name": "p1",
          "type": "uint256[][5][5]"
        },
        {
          "internalType": "uint256[21]",
          "name": "p2",
          "type": "uint256[21]"
        }
      ],
      "name": "f275",
      "outputs": [],
      "stateMutability": "nonpayable",
      "type": "function"
    },
    {
      "inputs": [
        {
          "internalType": "uint256[]",
          "name": "p1",
          "type": "uint256[]"
        },
        {
          "internalType": "uint256",
          "name": "p2",
          "type": "uint256"
        },
        {
          "internalType": "uint256[]",
          "name": "p3",
          "type": "uint256[]"
        }
      ],
      "name": "f283",
      "outputs": [],
      "stateMutability": "view",
      "type": "function"
    },
    {
      "inputs": [
        {
          "internalType": "uint256[]",
          "name": "p1",
          "type": "uint256[]"
        },
        {
          "internalType": "uint256",
          "name": "p2",
          "type": "uint256"
        }
      ],
      "name": "f69",
      "outputs": [],
      "stateMutability": "view",
      "type": "function"
    },
    {
      "inputs": [
        {
          "internalType": "uint256[]",
          "name": "p1",
          "type": "uint256[]"
        }
      ],
      "name": "f94",
      "outputs": [],
      "stateMutability": "nonpayable",
      "type": "function"
    }
  ],
  "bytecode": "0x60a060405260008060006101000a81548160ff0219169083151502179055503480156200002b57600080fd5b5060405162005f4238038062005f428339818101604052810190620000519190620000a6565b8073ffffffffffffffffffffffffffffffffffffffff1660808173ffffffffffffffffffffffffffffffffffffffff1660601b815250505062000120565b600081519050620000a08162000106565b92915050565b600060208284031215620000b957600080fd5b6000620000c9848285016200008f565b91505092915050565b6000620000df82620000e6565b9050919050565b600073ffffffffffffffffffffffffffffffffffffffff82169050919050565b6200011181620000d2565b81146200011d57600080fd5b50565b60805160601c615e036200013f60003960006112c90152615e036000f3fe608060405234801561001057600080fd5b50600436106101125760003560e01c80632044051014610117578063221ec36814610147578063229df571146101635780632508c1ba146101935780632bb1ee15146101c35780632e807c9d146101df57806330b0565a146101fb578063378b914b1461022b5780633de197b3146102475780633efbe29614610263578063512ed4b71461027f578063581101fc1461029b5780636ee80899146102cb5780638a8b09fc146102e7578063aeb1cf2b14610303578063bb1b255c14610333578063e559a33d14610363578063f4dee6f61461037f578063f6cd7dc51461039b578063f7b79c1c146103b7578063f8d3a4b2146103e7578063fe94bb0a14610403575b600080fd5b610131600480360381019061012c9190613f5c565b610433565b60405161013e9190614f2b565b60405180910390f35b610161600480360381019061015c9190613dc2565b61055a565b005b61017d60048036038101906101789190613f5c565b610893565b60405161018a9190614f2b565b60405180910390f35b6101ad60048036038101906101a8919061409c565b6109ba565b6040516101ba9190614f2b565b60405180910390f35b6101dd60048036038101906101d8919061411b565b6109d9565b005b6101f960048036038101906101f491906142e8565b610ab1565b005b61021560048036038101906102109190614009565b610afc565b6040516102229190614eb7565b60405180910390f35b6102456004803603810190610240919061409c565b610b9d565b005b610261600480360381019061025c919061427e565b610c8a565b005b61027d6004803603810190610278919061411b565b610f6d565b005b610299600480360381019061029491906141ee565b610fdd565b005b6102b560048036038101906102b09190613f9d565b611068565b6040516102c29190614db1565b60405180910390f35b6102e560048036038101906102e09190614324565b611103565b005b61030160048036038101906102fc919061409c565b611228565b005b61031d600480360381019061031891906142bf565b611243565b60405161032a9190615271565b60405180910390f35b61034d600480360381019061034891906142bf565b611285565b60405161035a9190615271565b60405180910390f35b61037d60048036038101906103789190613d14565b6112c7565b005b6103996004803603810190610394919061411b565b611919565b005b6103b560048036038101906103b09190613f5c565b611991565b005b6103d160048036038101906103cc919061411b565b611a5d565b6040516103de9190614f2b565b60405180910390f35b61040160048036038101906103fc919061416f565b611b97565b005b61041d6004803603810190610418919061411b565b611c0a565b60405161042a9190614f09565b60405180910390f35b6060815167ffffffffffffffff811115610476577f4e487b7100000000000000000000000000000000000000000000000000000000600052604160045260246000fd5b6040519080825280602002602001820160405280156104a45781602001602082028036833780820191505090505b50905060005b8251811015610554576104fc8382815181106104ef577f4e487b7100000000000000000000000000000000000000000000000000000000600052603260045260246000fd5b6020026020010151611243565b828281518110610535577f4e487b7100000000000000000000000000000000000000000000000000000000600052603260045260246000fd5b602002602001018181525050808061054c90615cd0565b9150506104aa565b50919050565b3360011515600160008373ffffffffffffffffffffffffffffffffffffffff1673ffffffffffffffffffffffffffffffffffffffff16815260200190815260200160002060009054906101000a900460ff161515146105b857600080fd5b6000826010601581106105f4577f4e487b7100000000000000000000000000000000000000000000000000000000600052603260045260246000fd5b602002015114610648576106478360006005811061063b577f4e487b7100000000000000000000000000000000000000000000000000000000600052603260045260246000fd5b60200201516000611ca5565b5b600082601160158110610684577f4e487b7100000000000000000000000000000000000000000000000000000000600052603260045260246000fd5b6020020151146106da576106d9836001600581106106cb577f4e487b7100000000000000000000000000000000000000000000000000000000600052603260045260246000fd5b60200201516000600561213a565b5b600082601260158110610716577f4e487b7100000000000000000000000000000000000000000000000000000000600052603260045260246000fd5b60200201511461076c5761076b8360026005811061075d577f4e487b7100000000000000000000000000000000000000000000000000000000600052603260045260246000fd5b60200201516000600161213a565b5b6000826013601581106107a8577f4e487b7100000000000000000000000000000000000000000000000000000000600052603260045260246000fd5b6020020151146107fc576107fb836003600581106107ef577f4e487b7100000000000000000000000000000000000000000000000000000000600052603260045260246000fd5b6020020151600061253e565b5b600082601460158110610838577f4e487b7100000000000000000000000000000000000000000000000000000000600052603260045260246000fd5b60200201511461088e5761088d8360046005811061087f577f4e487b7100000000000000000000000000000000000000000000000000000000600052603260045260246000fd5b60200201516000601161213a565b5b505050565b6060815167ffffffffffffffff8111156108d6577f4e487b7100000000000000000000000000000000000000000000000000000000600052604160045260246000fd5b6040519080825280602002602001820160405280156109045781602001602082028036833780820191505090505b50905060005b82518110156109b45761095c83828151811061094f577f4e487b7100000000000000000000000000000000000000000000000000000000600052603260045260246000fd5b6020026020010151611285565b828281518110610995577f4e487b7100000000000000000000000000000000000000000000000000000000600052603260045260246000fd5b60200260200101818152505080806109ac90615cd0565b91505061090a565b50919050565b60606109c7848484610b9d565b6109d084610433565b90509392505050565b3360011515600160008373ffffffffffffffffffffffffffffffffffffffff1673ffffffffffffffffffffffffffffffffffffffff16815260200190815260200160002060009054906101000a900460ff16151514610a3757600080fd5b610a418383611a5d565b5073__$322b8033ec09b31b83f44ce15d1fa7a4cb$__639cacd7458460026040518363ffffffff1660e01b8152600401610a7c929190614ff3565b60006040518083038186803b158015610a9457600080fd5b505af4158015610aa8573d6000803e3d6000fd5b50505050505050565b6000610abc83611285565b9050601f811480610acd5750601e81145b80610ad85750602181145b610ae157600080fd5b601e811415610af757828214610af657600080fd5b5b505050565b606073__$322b8033ec09b31b83f44ce15d1fa7a4cb$__63591ad58d8686866002876040518663ffffffff1660e01b8152600401610b3e959493929190614f92565b60006040518083038186803b158015610b5657600080fd5b505af4158015610b6a573d6000803e3d6000fd5b505050506040513d6000823e3d601f19601f82011682018060405250810190610b939190613eda565b9050949350505050565b600082511415610c185773__$322b8033ec09b31b83f44ce15d1fa7a4cb$__6320f24bf9846002846040518463ffffffff1660e01b8152600401610be393929190615068565b60006040518083038186803b158015610bfb57600080fd5b505af4158015610c0f573d6000803e3d6000fd5b50505050610c85565b73__$322b8033ec09b31b83f44ce15d1fa7a4cb$__63d99b5f30846002856040518463ffffffff1660e01b8152600401610c5493929190615023565b60006040518083038186803b158015610c6c57600080fd5b505af4158015610c80573d6000803e3d6000fd5b505050505b505050565b3360011515600160008373ffffffffffffffffffffffffffffffffffffffff1673ffffffffffffffffffffffffffffffffffffffff16815260200190815260200160002060009054906101000a900460ff16151514610ce857600080fd5b600073__$7b11637b326fa12a30ce8fbc20da0b2192$__6386ae6f8b846040518263ffffffff1660e01b8152600401610d21919061524f565b60006040518083038186803b158015610d3957600080fd5b505af4158015610d4d573d6000803e3d6000fd5b505050506040513d6000823e3d601f19601f82011682018060405250810190610d769190613e99565b90506000838060600190610d8a91906153b2565b6000818110610dc2577f4e487b7100000000000000000000000000000000000000000000000000000000600052603260045260246000fd5b9050602002810190610dd49190615460565b6001818110610e0c577f4e487b7100000000000000000000000000000000000000000000000000000000600052603260045260246000fd5b9050602002013590506001811415610e2d57610e288285612775565b610f67565b6002811480610e3c5750600581145b80610e475750601181145b15610e6057610e5b8285600001358361213a565b610f66565b6004811415610e7c57610e77828560000135611ca5565b610f65565b600a811480610e8b5750600d81145b15610ef757600a811415610ee757610ee582600060058110610ed6577f4e487b7100000000000000000000000000000000000000000000000000000000600052603260045260246000fd5b60200201518560000135611a5d565b505b610ef2828583612aa6565b610f64565b600c811415610f4a57836020016020810190610f139190614255565b610f1c57600080fd5b610f4582858060a00190610f30919061535b565b90610f3b9190615c36565b8660000135612f75565b610f63565b6010811415610f6257610f6182856000013561253e565b5b5b5b5b5b5b50505050565b73__$322b8033ec09b31b83f44ce15d1fa7a4cb$__6320f24bf9836002846040518463ffffffff1660e01b8152600401610fa993929190615068565b60006040518083038186803b158015610fc157600080fd5b505af4158015610fd5573d6000803e3d6000fd5b505050505050565b600f8114156110575773__$322b8033ec09b31b83f44ce15d1fa7a4cb$__633967f76c848460026040518463ffffffff1660e01b8152600401611022939291906150f9565b60006040518083038186803b15801561103a57600080fd5b505af415801561104e573d6000803e3d6000fd5b50505050611063565b6110618383611a5d565b505b505050565b606073__$322b8033ec09b31b83f44ce15d1fa7a4cb$__63fb1a6878848460026040518463ffffffff1660e01b81526004016110a693929190614f4d565b60006040518083038186803b1580156110be57600080fd5b505af41580156110d2573d6000803e3d6000fd5b505050506040513d6000823e3d601f19601f820116820180604052508101906110fb9190613e17565b905092915050565b3360011515600160008373ffffffffffffffffffffffffffffffffffffffff1673ffffffffffffffffffffffffffffffffffffffff16815260200190815260200160002060009054906101000a900460ff1615151461116157600080fd5b600f841180156111715750602584105b61117a57600080fd5b601d84146111c057836002600001600084815260200190815260200160002060008081526020019081526020016000206000808152602001908152602001600020819055505b601d84141580156111d2575060188414155b80156111df575060238414155b1561122257826002600101600084815260200190815260200160002060008081526020019081526020016000206000808152602001908152602001600020819055505b50505050565b6112328382611a5d565b5061123d8282611a5d565b50505050565b60006002600101600083815260200190815260200160002060008081526020019081526020016000206000808152602001908152602001600020549050919050565b60006002600001600083815260200190815260200160002060008081526020019081526020016000206000808152602001908152602001600020549050919050565b7f000000000000000000000000000000000000000000000000000000000000000073ffffffffffffffffffffffffffffffffffffffff163373ffffffffffffffffffffffffffffffffffffffff1614801561132d575060008054906101000a900460ff16155b61133657600080fd5b60016000806101000a81548160ff02191690831515021790555060005b600781101561140357600180600087846007811061139a577f4e487b7100000000000000000000000000000000000000000000000000000000600052603260045260246000fd5b602002015173ffffffffffffffffffffffffffffffffffffffff1673ffffffffffffffffffffffffffffffffffffffff16815260200190815260200160002060006101000a81548160ff02191690831515021790555080806113fb90615cd0565b915050611353565b508360026007811061143e577f4e487b7100000000000000000000000000000000000000000000000000000000600052603260045260246000fd5b6020020151600760006101000a81548173ffffffffffffffffffffffffffffffffffffffff021916908373ffffffffffffffffffffffffffffffffffffffff160217905550836003600781106114bd577f4e487b7100000000000000000000000000000000000000000000000000000000600052603260045260246000fd5b6020020151600560006101000a81548173ffffffffffffffffffffffffffffffffffffffff021916908373ffffffffffffffffffffffffffffffffffffffff1602179055508360046007811061153c577f4e487b7100000000000000000000000000000000000000000000000000000000600052603260045260246000fd5b6020020151600660006101000a81548173ffffffffffffffffffffffffffffffffffffffff021916908373ffffffffffffffffffffffffffffffffffffffff160217905550836005600781106115bb577f4e487b7100000000000000000000000000000000000000000000000000000000600052603260045260246000fd5b6020020151600860006101000a81548173ffffffffffffffffffffffffffffffffffffffff021916908373ffffffffffffffffffffffffffffffffffffffff1602179055508360066007811061163a577f4e487b7100000000000000000000000000000000000000000000000000000000600052603260045260246000fd5b6020020151600960006101000a81548173ffffffffffffffffffffffffffffffffffffffff021916908373ffffffffffffffffffffffffffffffffffffffff16021790555073__$322b8033ec09b31b83f44ce15d1fa7a4cb$__63dd44e52c8460026040518363ffffffff1660e01b81526004016116b9929190614ed9565b60006040518083038186803b1580156116d157600080fd5b505af41580156116e5573d6000803e3d6000fd5b5050505060005b83518110156118a85760005b838281518110611731577f4e487b7100000000000000000000000000000000000000000000000000000000600052603260045260246000fd5b6020026020010151518110156118945760008086848151811061177d577f4e487b7100000000000000000000000000000000000000000000000000000000600052603260045260246000fd5b60200260200101516000815181106117be577f4e487b7100000000000000000000000000000000000000000000000000000000600052603260045260246000fd5b60200260200101517f9f6484525810de192c94f0708d9870e2731979592d608d36f7f745056cb53dbd878681518110611820577f4e487b7100000000000000000000000000000000000000000000000000000000600052603260045260246000fd5b60200260200101518581518110611860577f4e487b7100000000000000000000000000000000000000000000000000000000600052603260045260246000fd5b60200260200101514243604051611879939291906151c5565b60405180910390a4808061188c90615cd0565b9150506116f8565b5080806118a090615cd0565b9150506116ec565b5073__$322b8033ec09b31b83f44ce15d1fa7a4cb$__638dddb5e48260026040518363ffffffff1660e01b81526004016118e3929190614ff3565b60006040518083038186803b1580156118fb57600080fd5b505af415801561190f573d6000803e3d6000fd5b5050505050505050565b60005b825181101561198c578161196f848381518110611962577f4e487b7100000000000000000000000000000000000000000000000000000000600052603260045260246000fd5b6020026020010151611285565b1461197957600080fd5b808061198490615cd0565b91505061191c565b505050565b3360011515600160008373ffffffffffffffffffffffffffffffffffffffff1673ffffffffffffffffffffffffffffffffffffffff16815260200190815260200160002060009054906101000a900460ff161515146119ef57600080fd5b73__$322b8033ec09b31b83f44ce15d1fa7a4cb$__638dddb5e48360026040518363ffffffff1660e01b8152600401611a29929190614ff3565b60006040518083038186803b158015611a4157600080fd5b505af4158015611a55573d6000803e3d6000fd5b505050505050565b6060825167ffffffffffffffff811115611aa0577f4e487b7100000000000000000000000000000000000000000000000000000000600052604160045260246000fd5b604051908082528060200260200182016040528015611ace5781602001602082028036833780820191505090505b50905060005b8351811015611b90576000611b28858381518110611b1b577f4e487b7100000000000000000000000000000000000000000000000000000000600052603260045260246000fd5b6020026020010151611243565b9050838114611b3657600080fd5b80838381518110611b70577f4e487b7100000000000000000000000000000000000000000000000000000000600052603260045260246000fd5b602002602001018181525050508080611b8890615cd0565b915050611ad4565b5092915050565b73__$322b8033ec09b31b83f44ce15d1fa7a4cb$__63e292f51184848460026040518563ffffffff1660e01b8152600401611bd594939291906150a6565b60006040518083038186803b158015611bed57600080fd5b505af4158015611c01573d6000803e3d6000fd5b50505050505050565b606073__$322b8033ec09b31b83f44ce15d1fa7a4cb$__63bc52e99f846002856040518463ffffffff1660e01b8152600401611c4893929190615068565b60006040518083038186803b158015611c6057600080fd5b505af4158015611c74573d6000803e3d6000fd5b505050506040513d6000823e3d601f19601f82011682018060405250810190611c9d9190613f1b565b905092915050565b73__$322b8033ec09b31b83f44ce15d1fa7a4cb$__63b492d779836002846040518463ffffffff1660e01b8152600401611ce193929190614e2d565b60006040518083038186803b158015611cf957600080fd5b505af4158015611d0d573d6000803e3d6000fd5b5050505060005b82600060058110611d4e577f4e487b7100000000000000000000000000000000000000000000000000000000600052603260045260246000fd5b6020020151518110156121355760006002600001600085600060058110611d9e577f4e487b7100000000000000000000000000000000000000000000000000000000600052603260045260246000fd5b60200201518481518110611ddb577f4e487b7100000000000000000000000000000000000000000000000000000000600052603260045260246000fd5b602002602001015181526020019081526020016000206000808152602001908152602001600020600080815260200190815260200160002054905060006002600001600086600060058110611e59577f4e487b7100000000000000000000000000000000000000000000000000000000600052603260045260246000fd5b60200201518581518110611e96577f4e487b7100000000000000000000000000000000000000000000000000000000600052603260045260246000fd5b60200260200101518152602001908152602001600020600060018152602001908152602001600020600086600160058110611efa577f4e487b7100000000000000000000000000000000000000000000000000000000600052603260045260246000fd5b60200201518581518110611f37577f4e487b7100000000000000000000000000000000000000000000000000000000600052603260045260246000fd5b6020026020010151815260200190815260200160002054905060008490506000811415611fe05785600260058110611f98577f4e487b7100000000000000000000000000000000000000000000000000000000600052603260045260246000fd5b60200201518481518110611fd5577f4e487b7100000000000000000000000000000000000000000000000000000000600052603260045260246000fd5b602002602001015190505b8560016005811061201a577f4e487b7100000000000000000000000000000000000000000000000000000000600052603260045260246000fd5b60200201518481518110612057577f4e487b7100000000000000000000000000000000000000000000000000000000600052603260045260246000fd5b602002602001015160048760006005811061209b577f4e487b7100000000000000000000000000000000000000000000000000000000600052603260045260246000fd5b602002015186815181106120d8577f4e487b7100000000000000000000000000000000000000000000000000000000600052603260045260246000fd5b60200260200101517f150d4e40b563a53efd1a9713835d4a0c91c4c1febed8e3a3d1b0565560a771458487874243604051612117959493929190615308565b60405180910390a4505050808061212d90615cd0565b915050611d14565b505050565b600073__$322b8033ec09b31b83f44ce15d1fa7a4cb$__63407225ee85600286866040518563ffffffff1660e01b815260040161217a9493929190614e6b565b60006040518083038186803b15801561219257600080fd5b505af41580156121a6573d6000803e3d6000fd5b505050506040513d6000823e3d601f19601f820116820180604052508101906121cf9190613e58565b905060005b8460006005811061220e577f4e487b7100000000000000000000000000000000000000000000000000000000600052603260045260246000fd5b602002015151811015612537576000600260000160008760006005811061225e577f4e487b7100000000000000000000000000000000000000000000000000000000600052603260045260246000fd5b6020020151848151811061229b577f4e487b7100000000000000000000000000000000000000000000000000000000600052603260045260246000fd5b602002602001015181526020019081526020016000206000808152602001908152602001600020600080815260200190815260200160002054905060008590506000811415612366578660036005811061231e577f4e487b7100000000000000000000000000000000000000000000000000000000600052603260045260246000fd5b6020020151838151811061235b577f4e487b7100000000000000000000000000000000000000000000000000000000600052603260045260246000fd5b602002602001015190505b83838151811061239f577f4e487b7100000000000000000000000000000000000000000000000000000000600052603260045260246000fd5b60200260200101516000600281106123e0577f4e487b7100000000000000000000000000000000000000000000000000000000600052603260045260246000fd5b60200201518588600060058110612420577f4e487b7100000000000000000000000000000000000000000000000000000000600052603260045260246000fd5b6020020151858151811061245d577f4e487b7100000000000000000000000000000000000000000000000000000000600052603260045260246000fd5b60200260200101517f150d4e40b563a53efd1a9713835d4a0c91c4c1febed8e3a3d1b0565560a7714584868989815181106124c1577f4e487b7100000000000000000000000000000000000000000000000000000000600052603260045260246000fd5b6020026020010151600160028110612502577f4e487b7100000000000000000000000000000000000000000000000000000000600052603260045260246000fd5b6020020151424360405161251a959493929190615308565b60405180910390a45050808061252f90615cd0565b9150506121d4565b5050505050565b73__$322b8033ec09b31b83f44ce15d1fa7a4cb$__63186ab4df836002846040518463ffffffff1660e01b815260040161257a93929190614e2d565b60006040518083038186803b15801561259257600080fd5b505af41580156125a6573d6000803e3d6000fd5b5050505060005b826000600581106125e7577f4e487b7100000000000000000000000000000000000000000000000000000000600052603260045260246000fd5b6020020151518110156127705760008290506000811415612684578360026005811061263c577f4e487b7100000000000000000000000000000000000000000000000000000000600052603260045260246000fd5b60200201518281518110612679577f4e487b7100000000000000000000000000000000000000000000000000000000600052603260045260246000fd5b602002602001015190505b6000846000600581106126c0577f4e487b7100000000000000000000000000000000000000000000000000000000600052603260045260246000fd5b602002015183815181106126fd577f4e487b7100000000000000000000000000000000000000000000000000000000600052603260045260246000fd5b6020026020010151905061271081611243565b6010827f150d4e40b563a53efd1a9713835d4a0c91c4c1febed8e3a3d1b0565560a771458561273e86611285565b600142436040516127539594939291906152b5565b60405180910390a45050808061276890615cd0565b9150506125ad565b505050565b73__$322b8033ec09b31b83f44ce15d1fa7a4cb$__63e292f511836000600581106127c9577f4e487b7100000000000000000000000000000000000000000000000000000000600052603260045260246000fd5b602002015183600001358560046005811061280d577f4e487b7100000000000000000000000000000000000000000000000000000000600052603260045260246000fd5b602002015160026040518563ffffffff1660e01b815260040161283394939291906150a6565b60006040518083038186803b15801561284b57600080fd5b505af415801561285f573d6000803e3d6000fd5b5050505060005b826000600581106128a0577f4e487b7100000000000000000000000000000000000000000000000000000000600052603260045260246000fd5b602002015151811015612aa157826001600581106128e7577f4e487b7100000000000000000000000000000000000000000000000000000000600052603260045260246000fd5b60200201518181518110612924577f4e487b7100000000000000000000000000000000000000000000000000000000600052603260045260246000fd5b602002602001015182600001358460006005811061296b577f4e487b7100000000000000000000000000000000000000000000000000000000600052603260045260246000fd5b602002015183815181106129a8577f4e487b7100000000000000000000000000000000000000000000000000000000600052603260045260246000fd5b60200260200101517f9f6484525810de192c94f0708d9870e2731979592d608d36f7f745056cb53dbd858060a001906129e1919061535b565b6000818110612a19577f4e487b7100000000000000000000000000000000000000000000000000000000600052603260045260246000fd5b9050602002810190612a2b9190615409565b86818110612a62577f4e487b7100000000000000000000000000000000000000000000000000000000600052603260045260246000fd5b9050602002810190612a7491906154b7565b4243604051612a869493929190615137565b60405180910390a48080612a9990615cd0565b915050612866565b505050565b73__$322b8033ec09b31b83f44ce15d1fa7a4cb$__63ac0e589884846020016020810190612ad49190614255565b60028587600001356040518663ffffffff1660e01b8152600401612afc959493929190614dd3565b60006040518083038186803b158015612b1457600080fd5b505af4158015612b28573d6000803e3d6000fd5b5050505060005b83600060058110612b69577f4e487b7100000000000000000000000000000000000000000000000000000000600052603260045260246000fd5b602002015151811015612f6f57600a821415612cfa57828060a00190612b8f919061535b565b6000818110612bc7577f4e487b7100000000000000000000000000000000000000000000000000000000600052603260045260246000fd5b9050602002810190612bd99190615409565b82818110612c10577f4e487b7100000000000000000000000000000000000000000000000000000000600052603260045260246000fd5b9050602002810190612c2291906154b7565b604051612c30929190614d81565b6040518091039020836000013585600060058110612c77577f4e487b7100000000000000000000000000000000000000000000000000000000600052603260045260246000fd5b60200201518381518110612cb4577f4e487b7100000000000000000000000000000000000000000000000000000000600052603260045260246000fd5b60200260200101517f82d427f85edf1909fd633877992833fc57e25cd8761e4bb6088535c84d764a074243604051612ced92919061528c565b60405180910390a4612f5c565b83600160058110612d34577f4e487b7100000000000000000000000000000000000000000000000000000000600052603260045260246000fd5b60200201518181518110612d71577f4e487b7100000000000000000000000000000000000000000000000000000000600052603260045260246000fd5b6020026020010151836000013585600060058110612db8577f4e487b7100000000000000000000000000000000000000000000000000000000600052603260045260246000fd5b60200201518381518110612df5577f4e487b7100000000000000000000000000000000000000000000000000000000600052603260045260246000fd5b60200260200101517f26fa624f72b5f878231822dbfce92ab18bb4b8fa195c9643addd7a5af27b7f72868060a00190612e2e919061535b565b6000818110612e66577f4e487b7100000000000000000000000000000000000000000000000000000000600052603260045260246000fd5b9050602002810190612e789190615409565b86818110612eaf577f4e487b7100000000000000000000000000000000000000000000000000000000600052603260045260246000fd5b9050602002810190612ec191906154b7565b89600260058110612efb577f4e487b7100000000000000000000000000000000000000000000000000000000600052603260045260246000fd5b60200201518781518110612f38577f4e487b7100000000000000000000000000000000000000000000000000000000600052603260045260246000fd5b60200260200101514243604051612f53959493929190615177565b60405180910390a45b8080612f6790615cd0565b915050612b2f565b50505050565b73__$322b8033ec09b31b83f44ce15d1fa7a4cb$__63d2f79533846002846040518463ffffffff1660e01b8152600401612fb193929190614e2d565b60006040518083038186803b158015612fc957600080fd5b505af4158015612fdd573d6000803e3d6000fd5b5050505060005b8360006005811061301e577f4e487b7100000000000000000000000000000000000000000000000000000000600052603260045260246000fd5b6020020151518110156132cf576000600260000160008660006005811061306e577f4e487b7100000000000000000000000000000000000000000000000000000000600052603260045260246000fd5b602002015184815181106130ab577f4e487b7100000000000000000000000000000000000000000000000000000000600052603260045260246000fd5b60200260200101518152602001908152602001600020600080815260200190815260200160002060008081526020019081526020016000205490508085600060058110613121577f4e487b7100000000000000000000000000000000000000000000000000000000600052603260045260246000fd5b6020020151838151811061315e577f4e487b7100000000000000000000000000000000000000000000000000000000600052603260045260246000fd5b6020026020010151856000815181106131a0577f4e487b7100000000000000000000000000000000000000000000000000000000600052603260045260246000fd5b602002602001015184815181106131e0577f4e487b7100000000000000000000000000000000000000000000000000000000600052603260045260246000fd5b60200260200101516040516131f59190614d9a565b60405180910390207f7f4957e840a0b1c2ef719fc6f91986e5dc654ca0cef0619f953bcf33b73960f487600181518110613258577f4e487b7100000000000000000000000000000000000000000000000000000000600052603260045260246000fd5b60200260200101518681518110613298577f4e487b7100000000000000000000000000000000000000000000000000000000600052603260045260246000fd5b60200260200101518742436040516132b39493929190615203565b60405180910390a45080806132c790615cd0565b915050612fe4565b50505050565b60006132e86132e384615533565b61550e565b905080828560208602820111156132fe57600080fd5b60005b8581101561332e57816133148882613a01565b845260208401935060208301925050600181019050613301565b5050509392505050565b600061334b61334684615559565b61550e565b9050808285602086028201111561336157600080fd5b60005b858110156133ab57813567ffffffffffffffff81111561338357600080fd5b8086016133908982613ae2565b85526020850194506020840193505050600181019050613364565b5050509392505050565b60006133c86133c38461557f565b61550e565b905080838252602082019050828560208602820111156133e757600080fd5b60005b8581101561343157815167ffffffffffffffff81111561340957600080fd5b8086016134168982613b84565b855260208501945060208401935050506001810190506133ea565b5050509392505050565b600061344e613449846155ab565b61550e565b9050808382526020820190508285602086028201111561346d57600080fd5b60005b858110156134b757813567ffffffffffffffff81111561348f57600080fd5b80860161349c8982613bae565b85526020850194506020840193505050600181019050613470565b5050509392505050565b60006134d46134cf846155d7565b61550e565b905080838252602082019050828560408602820111156134f357600080fd5b60005b8581101561352357816135098882613bff565b8452602084019350604083019250506001810190506134f6565b5050509392505050565b600061354061353b84615603565b61550e565b9050808285602086028201111561355657600080fd5b60005b858110156135a057813567ffffffffffffffff81111561357857600080fd5b8086016135858982613c26565b85526020850194506020840193505050600181019050613559565b5050509392505050565b60006135bd6135b884615603565b61550e565b905080828560208602820111156135d357600080fd5b60005b8581101561361d57815167ffffffffffffffff8111156135f557600080fd5b8086016136028982613c50565b855260208501945060208401935050506001810190506135d6565b5050509392505050565b600061363a61363584615629565b61550e565b9050808382526020820190508285602086028201111561365957600080fd5b60005b858110156136a357813567ffffffffffffffff81111561367b57600080fd5b8086016136888982613c26565b8552602085019450602084019350505060018101905061365c565b5050509392505050565b60006136c06136bb84615629565b61550e565b905080838252602082019050828560208602820111156136df57600080fd5b60005b8581101561372957815167ffffffffffffffff81111561370157600080fd5b80860161370e8982613c50565b855260208501945060208401935050506001810190506136e2565b5050509392505050565b600061374661374184615655565b61550e565b9050808382526020820190508285602086028201111561376557600080fd5b60005b85811015613795578161377b8882613c8f565b845260208401935060208301925050600181019050613768565b5050509392505050565b60006137b26137ad84615681565b61550e565b905080838252602082019050828560208602820111156137d157600080fd5b60005b8581101561381b57813567ffffffffffffffff8111156137f357600080fd5b8086016138008982613ca4565b855260208501945060208401935050506001810190506137d4565b5050509392505050565b6000613838613833846156ad565b61550e565b9050808285602086028201111561384e57600080fd5b60005b8581101561387e57816138648882613cea565b845260208401935060208301925050600181019050613851565b5050509392505050565b600061389b613896846156d3565b61550e565b905080828560208602820111156138b157600080fd5b60005b858110156138e157816138c78882613cff565b8452602084019350602083019250506001810190506138b4565b5050509392505050565b60006138fe6138f9846156f9565b61550e565b9050808382526020820190508285602086028201111561391d57600080fd5b60005b8581101561394d57816139338882613cea565b845260208401935060208301925050600181019050613920565b5050509392505050565b600061396a613965846156f9565b61550e565b9050808382526020820190508285602086028201111561398957600080fd5b60005b858110156139b9578161399f8882613cff565b84526020840193506020830192505060018101905061398c565b5050509392505050565b60006139d66139d184615725565b61550e565b9050828152602081018484840111156139ee57600080fd5b6139f9848285615c5d565b509392505050565b600081359050613a1081615d88565b92915050565b600082601f830112613a2757600080fd5b6007613a348482856132d5565b91505092915050565b600082601f830112613a4e57600080fd5b6005613a5b848285613338565b91505092915050565b600082601f830112613a7557600080fd5b8151613a858482602086016133b5565b91505092915050565b600082601f830112613a9f57600080fd5b8135613aaf84826020860161343b565b91505092915050565b600082601f830112613ac957600080fd5b8151613ad98482602086016134c1565b91505092915050565b600082601f830112613af357600080fd5b6005613b0084828561352d565b91505092915050565b600082601f830112613b1a57600080fd5b6005613b278482856135aa565b91505092915050565b600082601f830112613b4157600080fd5b8135613b51848260208601613627565b91505092915050565b600082601f830112613b6b57600080fd5b8151613b7b8482602086016136ad565b91505092915050565b600082601f830112613b9557600080fd5b8151613ba5848260208601613733565b91505092915050565b600082601f830112613bbf57600080fd5b8135613bcf84826020860161379f565b91505092915050565b600082601f830112613be957600080fd5b6015613bf6848285613825565b91505092915050565b600082601f830112613c1057600080fd5b6002613c1d848285613888565b91505092915050565b600082601f830112613c3757600080fd5b8135613c478482602086016138eb565b91505092915050565b600082601f830112613c6157600080fd5b8151613c71848260208601613957565b91505092915050565b600081359050613c8981615d9f565b92915050565b600081519050613c9e81615d9f565b92915050565b600082601f830112613cb557600080fd5b8135613cc58482602086016139c3565b91505092915050565b60006101a08284031215613ce157600080fd5b81905092915050565b600081359050613cf981615db6565b92915050565b600081519050613d0e81615db6565b92915050565b6000806000806101408587031215613d2b57600080fd5b6000613d3987828801613a16565b94505060e085013567ffffffffffffffff811115613d5657600080fd5b613d6287828801613b30565b93505061010085013567ffffffffffffffff811115613d8057600080fd5b613d8c87828801613a8e565b92505061012085013567ffffffffffffffff811115613daa57600080fd5b613db687828801613c26565b91505092959194509250565b6000806102c08385031215613dd657600080fd5b600083013567ffffffffffffffff811115613df057600080fd5b613dfc85828601613a3d565b9250506020613e0d85828601613bd8565b9150509250929050565b600060208284031215613e2957600080fd5b600082015167ffffffffffffffff811115613e4357600080fd5b613e4f84828501613a64565b91505092915050565b600060208284031215613e6a57600080fd5b600082015167ffffffffffffffff811115613e8457600080fd5b613e9084828501613ab8565b91505092915050565b600060208284031215613eab57600080fd5b600082015167ffffffffffffffff811115613ec557600080fd5b613ed184828501613b09565b91505092915050565b600060208284031215613eec57600080fd5b600082015167ffffffffffffffff811115613f0657600080fd5b613f1284828501613b5a565b91505092915050565b600060208284031215613f2d57600080fd5b600082015167ffffffffffffffff811115613f4757600080fd5b613f5384828501613b84565b91505092915050565b600060208284031215613f6e57600080fd5b600082013567ffffffffffffffff811115613f8857600080fd5b613f9484828501613c26565b91505092915050565b60008060408385031215613fb057600080fd5b600083013567ffffffffffffffff811115613fca57600080fd5b613fd685828601613c26565b925050602083013567ffffffffffffffff811115613ff357600080fd5b613fff85828601613b30565b9150509250929050565b6000806000806080858703121561401f57600080fd5b600085013567ffffffffffffffff81111561403957600080fd5b61404587828801613c26565b945050602085013567ffffffffffffffff81111561406257600080fd5b61406e87828801613b30565b935050604061407f87828801613cea565b925050606061409087828801613cea565b91505092959194509250565b6000806000606084860312156140b157600080fd5b600084013567ffffffffffffffff8111156140cb57600080fd5b6140d786828701613c26565b935050602084013567ffffffffffffffff8111156140f457600080fd5b61410086828701613c26565b925050604061411186828701613cea565b9150509250925092565b6000806040838503121561412e57600080fd5b600083013567ffffffffffffffff81111561414857600080fd5b61415485828601613c26565b925050602061416585828601613cea565b9150509250929050565b60008060006060848603121561418457600080fd5b600084013567ffffffffffffffff81111561419e57600080fd5b6141aa86828701613c26565b93505060206141bb86828701613cea565b925050604084013567ffffffffffffffff8111156141d857600080fd5b6141e486828701613c26565b9150509250925092565b60008060006060848603121561420357600080fd5b600084013567ffffffffffffffff81111561421d57600080fd5b61422986828701613c26565b935050602061423a86828701613cea565b925050604061424b86828701613cea565b9150509250925092565b60006020828403121561426757600080fd5b600061427584828501613c7a565b91505092915050565b60006020828403121561429057600080fd5b600082013567ffffffffffffffff8111156142aa57600080fd5b6142b684828501613cce565b91505092915050565b6000602082840312156142d157600080fd5b60006142df84828501613cea565b91505092915050565b600080604083850312156142fb57600080fd5b600061430985828601613cea565b925050602061431a85828601613cea565b9150509250929050565b60008060006060848603121561433957600080fd5b600061434786828701613cea565b935050602061435886828701613cea565b925050604061436986828701613cea565b9150509250925092565b600061437f8383614451565b60208301905092915050565b6000614397838361477d565b905092915050565b60006143ac848484614839565b90509392505050565b60006143c28484846148bf565b90509392505050565b60006143d78383614917565b905092915050565b60006143eb8383614a31565b905092915050565b60006143ff8383614a8f565b60208301905092915050565b6000614418848484614af8565b90509392505050565b600061442d8383614d45565b60208301905092915050565b60006144458383614d72565b60208301905092915050565b61445a81615bee565b82525050565b600061446c838561587f565b935061447782615756565b8060005b858110156144b05761448d8284615994565b6144978882614373565b97506144a28361580a565b92505060018101905061447b565b5085925050509392505050565b60006144c8826157c8565b6144d28185615890565b9350836020820285016144e485615760565b8060005b858110156145205784840389528151614501858261438b565b945061450c83615817565b925060208a019950506001810190506144e8565b50829750879550505050505092915050565b600061453e83856158a1565b93508360208402850161455084615770565b8060005b8781101561459657848403895261456b8284615ab0565b61457686828461439f565b955061458184615824565b935060208b019a505050600181019050614554565b50829750879450505050509392505050565b60006145b483856158df565b9350836020840285016145c68461577a565b8060005b8781101561460c5784840389526145e18284615b12565b6145ec8682846143b5565b95506145f784615831565b935060208b019a5050506001810190506145ca565b50829750879450505050509392505050565b6000614629826157d3565b61463381856158b2565b93508360208202850161464585615784565b8060005b85811015614681578484038952815161466285826143df565b945061466d8361583e565b925060208a01995050600181019050614649565b50829750879550505050505092915050565b600061469e826157de565b6146a881856158bd565b9350836020820285016146ba8561578e565b8060005b858110156146f657848403895281516146d785826143cb565b94506146e28361584b565b925060208a019950506001810190506146be565b50829750879550505050505092915050565b6000614713826157de565b61471d81856158ce565b93508360208202850161472f8561578e565b8060005b8581101561476b578484038952815161474c85826143df565b94506147578361584b565b925060208a01995050600181019050614733565b50829750879550505050505092915050565b6000614788826157e9565b61479281856158f0565b935061479d8361579e565b8060005b838110156147ce5781516147b588826143f3565b97506147c083615858565b9250506001810190506147a1565b5085935050505092915050565b60006147e6826157e9565b6147f08185615901565b93506147fb8361579e565b8060005b8381101561482c57815161481388826143f3565b975061481e83615858565b9250506001810190506147ff565b5085935050505092915050565b60006148458385615912565b935083602084028501614857846157ae565b8060005b8781101561489d5784840389526148728284615b80565b61487d86828461440b565b955061488884615865565b935060208b019a50505060018101905061485b565b50829750879450505050509392505050565b6148bb60408383615c5d565b5050565b60006148cb8385615956565b93507f07ffffffffffffffffffffffffffffffffffffffffffffffffffffffffffffff8311156148fa57600080fd5b60208302925061490b838584615c5d565b82840190509392505050565b6000614922826157f4565b61492c8185615923565b9350614937836157b8565b8060005b8381101561496857815161494f8882614421565b975061495a83615872565b92505060018101905061493b565b5085935050505092915050565b6000614980826157f4565b61498a8185615934565b9350614995836157b8565b8060005b838110156149c65781516149ad8882614421565b97506149b883615872565b925050600181019050614999565b5085935050505092915050565b60006149de826157f4565b6149e88185615945565b93506149f3836157b8565b8060005b83811015614a24578151614a0b8882614439565b9750614a1683615872565b9250506001810190506149f7565b5085935050505092915050565b6000614a3c826157f4565b614a468185615956565b9350614a51836157b8565b8060005b83811015614a82578151614a698882614439565b9750614a7483615872565b925050600181019050614a55565b5085935050505092915050565b614a9881615c00565b82525050565b614aa781615c00565b82525050565b614ab681615c00565b82525050565b614ac581615c4b565b82525050565b6000614ad78385615967565b9350614ae4838584615c5d565b614aed83615d77565b840190509392505050565b6000614b048385615978565b9350614b11838584615c5d565b614b1a83615d77565b840190509392505050565b6000614b318385615989565b9350614b3e838584615c5d565b82840190509392505050565b6000614b55826157ff565b614b5f8185615967565b9350614b6f818560208601615c6c565b614b7881615d77565b840191505092915050565b6000614b8e826157ff565b614b988185615989565b9350614ba8818560208601615c6c565b80840191505092915050565b8082525050565b60006101a08301614bcf6000840184615bd7565b614bdc6000860182614d72565b50614bea6020840184615b69565b614bf76020860182614aad565b50614c056040840184615b12565b8583036040870152614c188382846148bf565b92505050614c296060840184615a59565b8583036060870152614c3c8382846145a8565b92505050614c4d60808401846159ab565b8583036080870152614c60838284614460565b92505050614c7160a0840184615a02565b85830360a0870152614c84838284614532565b92505050614c9560c0840184615bd7565b614ca260c0860182614d72565b50614cb060e0840184615bd7565b614cbd60e0860182614d72565b50614ccc610100840184615bd7565b614cda610100860182614d72565b50614ce9610120840184615b07565b614cf76101208601826148af565b50614d06610160840184615b69565b614d14610160860182614aad565b50614d23610180840184615b12565b858303610180870152614d378382846148bf565b925050508091505092915050565b614d4e81615c2c565b82525050565b614d5d81615c2c565b82525050565b614d6c81615c2c565b82525050565b614d7b81615c2c565b82525050565b6000614d8e828486614b25565b91508190509392505050565b6000614da68284614b83565b915081905092915050565b60006020820190508181036000830152614dcb81846144bd565b905092915050565b600060a0820190508181036000830152614ded818861461e565b9050614dfc6020830187614a9e565b614e096040830186614bb4565b614e166060830185614d63565b614e236080830184614d63565b9695505050505050565b60006060820190508181036000830152614e47818661461e565b9050614e566020830185614bb4565b614e636040830184614d63565b949350505050565b60006080820190508181036000830152614e85818761461e565b9050614e946020830186614bb4565b614ea16040830185614d63565b614eae6060830184614d63565b95945050505050565b60006020820190508181036000830152614ed18184614693565b905092915050565b60006040820190508181036000830152614ef38185614708565b9050614f026020830184614bb4565b9392505050565b60006020820190508181036000830152614f2381846147db565b905092915050565b60006020820190508181036000830152614f458184614975565b905092915050565b60006060820190508181036000830152614f6781866149d3565b90508181036020830152614f7b8185614708565b9050614f8a6040830184614bb4565b949350505050565b600060a0820190508181036000830152614fac81886149d3565b90508181036020830152614fc08187614708565b9050614fcf6040830186614d63565b614fdc6060830185614bb4565b614fe96080830184614d63565b9695505050505050565b6000604082019050818103600083015261500d81856149d3565b905061501c6020830184614bb4565b9392505050565b6000606082019050818103600083015261503d81866149d3565b905061504c6020830185614bb4565b818103604083015261505e81846149d3565b9050949350505050565b6000606082019050818103600083015261508281866149d3565b90506150916020830185614bb4565b61509e6040830184614d63565b949350505050565b600060808201905081810360008301526150c081876149d3565b90506150cf6020830186614d63565b81810360408301526150e181856149d3565b90506150f06060830184614bb4565b95945050505050565b6000606082019050818103600083015261511381866149d3565b90506151226020830185614d63565b61512f6040830184614bb4565b949350505050565b60006060820190508181036000830152615152818688614acb565b90506151616020830185614d54565b61516e6040830184614d54565b95945050505050565b60006080820190508181036000830152615192818789614acb565b90506151a16020830186614d54565b6151ae6040830185614d54565b6151bb6060830184614d54565b9695505050505050565b600060608201905081810360008301526151df8186614b4a565b90506151ee6020830185614d54565b6151fb6040830184614d54565b949350505050565b6000608082019050818103600083015261521d8187614b4a565b905061522c6020830186614d54565b6152396040830185614d54565b6152466060830184614d54565b95945050505050565b600060208201905081810360008301526152698184614bbb565b905092915050565b60006020820190506152866000830184614d54565b92915050565b60006040820190506152a16000830185614d54565b6152ae6020830184614d54565b9392505050565b600060a0820190506152ca6000830188614d54565b6152d76020830187614d54565b6152e46040830186614abc565b6152f16060830185614d54565b6152fe6080830184614d54565b9695505050505050565b600060a08201905061531d6000830188614d54565b61532a6020830187614d54565b6153376040830186614d54565b6153446060830185614d54565b6153516080830184614d54565b9695505050505050565b6000808335600160200384360303811261537457600080fd5b80840192508235915067ffffffffffffffff82111561539257600080fd5b6020830192506020820236038313156153aa57600080fd5b509250929050565b600080833560016020038436030381126153cb57600080fd5b80840192508235915067ffffffffffffffff8211156153e957600080fd5b60208301925060208202360383131561540157600080fd5b509250929050565b6000808335600160200384360303811261542257600080fd5b80840192508235915067ffffffffffffffff82111561544057600080fd5b60208301925060208202360383131561545857600080fd5b509250929050565b6000808335600160200384360303811261547957600080fd5b80840192508235915067ffffffffffffffff82111561549757600080fd5b6020830192506020820236038313156154af57600080fd5b509250929050565b600080833560016020038436030381126154d057600080fd5b80840192508235915067ffffffffffffffff8211156154ee57600080fd5b60208301925060018202360383131561550657600080fd5b509250929050565b6000615518615529565b90506155248282615c9f565b919050565b6000604051905090565b600067ffffffffffffffff82111561554e5761554d615d48565b5b602082029050919050565b600067ffffffffffffffff82111561557457615573615d48565b5b602082029050919050565b600067ffffffffffffffff82111561559a57615599615d48565b5b602082029050602081019050919050565b600067ffffffffffffffff8211156155c6576155c5615d48565b5b602082029050602081019050919050565b600067ffffffffffffffff8211156155f2576155f1615d48565b5b602082029050602081019050919050565b600067ffffffffffffffff82111561561e5761561d615d48565b5b602082029050919050565b600067ffffffffffffffff82111561564457615643615d48565b5b602082029050602081019050919050565b600067ffffffffffffffff8211156156705761566f615d48565b5b602082029050602081019050919050565b600067ffffffffffffffff82111561569c5761569b615d48565b5b602082029050602081019050919050565b600067ffffffffffffffff8211156156c8576156c7615d48565b5b602082029050919050565b600067ffffffffffffffff8211156156ee576156ed615d48565b5b602082029050919050565b600067ffffffffffffffff82111561571457615713615d48565b5b602082029050602081019050919050565b600067ffffffffffffffff8211156157405761573f615d48565b5b61574982615d77565b9050602081019050919050565b6000819050919050565b6000819050602082019050919050565b6000819050919050565b6000819050919050565b6000819050919050565b6000819050602082019050919050565b6000819050602082019050919050565b6000819050919050565b6000819050602082019050919050565b600081519050919050565b600060059050919050565b600081519050919050565b600081519050919050565b600081519050919050565b600081519050919050565b6000602082019050919050565b6000602082019050919050565b6000602082019050919050565b6000602082019050919050565b6000602082019050919050565b6000602082019050919050565b6000602082019050919050565b6000602082019050919050565b6000602082019050919050565b600082825260208201905092915050565b600082825260208201905092915050565b600082825260208201905092915050565b600081905092915050565b600082825260208201905092915050565b600082825260208201905092915050565b600082825260208201905092915050565b600082825260208201905092915050565b600082825260208201905092915050565b600082825260208201905092915050565b600082825260208201905092915050565b600082825260208201905092915050565b600082825260208201905092915050565b600082825260208201905092915050565b600082825260208201905092915050565b600082825260208201905092915050565b600081905092915050565b60006159a36020840184613a01565b905092915050565b600080833560016020038436030381126159c457600080fd5b83810192508235915060208301925067ffffffffffffffff8211156159e857600080fd5b6020820236038413156159fa57600080fd5b509250929050565b60008083356001602003843603038112615a1b57600080fd5b83810192508235915060208301925067ffffffffffffffff821115615a3f57600080fd5b602082023603841315615a5157600080fd5b509250929050565b60008083356001602003843603038112615a7257600080fd5b83810192508235915060208301925067ffffffffffffffff821115615a9657600080fd5b602082023603841315615aa857600080fd5b509250929050565b60008083356001602003843603038112615ac957600080fd5b83810192508235915060208301925067ffffffffffffffff821115615aed57600080fd5b602082023603841315615aff57600080fd5b509250929050565b600082905092915050565b60008083356001602003843603038112615b2b57600080fd5b83810192508235915060208301925067ffffffffffffffff821115615b4f57600080fd5b602082023603841315615b6157600080fd5b509250929050565b6000615b786020840184613c7a565b905092915050565b60008083356001602003843603038112615b9957600080fd5b83810192508235915060208301925067ffffffffffffffff821115615bbd57600080fd5b600182023603841315615bcf57600080fd5b509250929050565b6000615be66020840184613cea565b905092915050565b6000615bf982615c0c565b9050919050565b60008115159050919050565b600073ffffffffffffffffffffffffffffffffffffffff82169050919050565b6000819050919050565b6000615c4336848461343b565b905092915050565b6000615c5682615c2c565b9050919050565b82818337600083830152505050565b60005b83811015615c8a578082015181840152602081019050615c6f565b83811115615c99576000848401525b50505050565b615ca882615d77565b810181811067ffffffffffffffff82111715615cc757615cc6615d48565b5b80604052505050565b6000615cdb82615c2c565b91507fffffffffffffffffffffffffffffffffffffffffffffffffffffffffffffffff821415615d0e57615d0d615d19565b5b600182019050919050565b7f4e487b7100000000000000000000000000000000000000000000000000000000600052601160045260246000fd5b7f4e487b7100000000000000000000000000000000000000000000000000000000600052604160045260246000fd5b6000601f19601f8301169050919050565b615d9181615bee565b8114615d9c57600080fd5b50565b615da881615c00565b8114615db357600080fd5b50565b615dbf81615c2c565b8114615dca57600080fd5b5056fea2646970667358221220ceaf8448dfc76010dbc5355c43efc27f262b3fb62ad8eb3a50df5ff10161f0f864736f6c63430008040033",
  "linkReferences": {
    "contracts/E5D/E3.sol": {
      "E3": [
        {
          "length": 20,
          "start": 3627
        }
      ]
    },
    "contracts/E5D/E34.sol": {
      "E34": [
        {
          "length": 20,
          "start": 2947
        },
        {
          "length": 20,
          "start": 3135
        },
        {
          "length": 20,
          "start": 3304
        },
        {
          "length": 20,
          "start": 3417
        },
        {
          "length": 20,
          "start": 4270
        },
        {
          "length": 20,
          "start": 4391
        },
        {
          "length": 20,
          "start": 4523
        },
        {
          "length": 20,
          "start": 6080
        },
        {
          "length": 20,
          "start": 6634
        },
        {
          "length": 20,
          "start": 6960
        },
        {
          "length": 20,
          "start": 7384
        },
        {
          "length": 20,
          "start": 7501
        },
        {
          "length": 20,
          "start": 7654
        },
        {
          "length": 20,
          "start": 8829
        },
        {
          "length": 20,
          "start": 9855
        },
        {
          "length": 20,
          "start": 10422
        },
        {
          "length": 20,
          "start": 11239
        },
        {
          "length": 20,
          "start": 12470
        }
      ]
    }
  },
  "deployedLinkReferences": {
    "contracts/E5D/E3.sol": {
      "E3": [
        {
          "length": 20,
          "start": 3308
        }
      ]
    },
    "contracts/E5D/E34.sol": {
      "E34": [
        {
          "length": 20,
          "start": 2628
        },
        {
          "length": 20,
          "start": 2816
        },
        {
          "length": 20,
          "start": 2985
        },
        {
          "length": 20,
          "start": 3098
        },
        {
          "length": 20,
          "start": 3951
        },
        {
          "length": 20,
          "start": 4072
        },
        {
          "length": 20,
          "start": 4204
        },
        {
          "length": 20,
          "start": 5761
        },
        {
          "length": 20,
          "start": 6315
        },
        {
          "length": 20,
          "start": 6641
        },
        {
          "length": 20,
          "start": 7065
        },
        {
          "length": 20,
          "start": 7182
        },
        {
          "length": 20,
          "start": 7335
        },
        {
          "length": 20,
          "start": 8510
        },
        {
          "length": 20,
          "start": 9536
        },
        {
          "length": 20,
          "start": 10103
        },
        {
          "length": 20,
          "start": 10920
        },
        {
          "length": 20,
          "start": 12151
        }
      ]
    }
  }
}