{
  "_format": "hh-sol-artifact-1",
  "contractName": "F5",
  "sourceName": "contracts/F5D/F5.sol",
  "abi": [
    {
      "inputs": [
        {
          "internalType": "address",
          "name": "p1",
          "type": "address"
        }
      ],
      "stateMutability": "nonpayable",
      "type": "constructor"
    },
    {
      "anonymous": false,
      "inputs": [
        {
          "indexed": true,
          "internalType": "uint256",
          "name": "p1",
          "type": "uint256"
        },
        {
          "indexed": true,
          "internalType": "uint256",
          "name": "p2",
          "type": "uint256"
        },
        {
          "indexed": false,
          "internalType": "uint256",
          "name": "p3",
          "type": "uint256"
        },
        {
          "indexed": false,
          "internalType": "uint256",
          "name": "p4",
          "type": "uint256"
        },
        {
          "indexed": false,
          "internalType": "uint256",
          "name": "p5",
          "type": "uint256"
        }
      ],
      "name": "e1",
      "type": "event"
    },
    {
      "anonymous": false,
      "inputs": [
        {
          "indexed": true,
          "internalType": "uint256",
          "name": "p1",
          "type": "uint256"
        },
        {
          "indexed": true,
          "internalType": "uint256",
          "name": "p2",
          "type": "uint256"
        },
        {
          "indexed": false,
          "internalType": "uint256",
          "name": "p3",
          "type": "uint256"
        },
        {
          "indexed": false,
          "internalType": "uint256",
          "name": "p4",
          "type": "uint256"
        },
        {
          "indexed": false,
          "internalType": "uint256",
          "name": "p5",
          "type": "uint256"
        }
      ],
      "name": "e2",
      "type": "event"
    },
    {
      "anonymous": false,
      "inputs": [
        {
          "indexed": true,
          "internalType": "uint256",
          "name": "p1",
          "type": "uint256"
        },
        {
          "indexed": false,
          "internalType": "uint256",
          "name": "p2",
          "type": "uint256"
        },
        {
          "indexed": false,
          "internalType": "uint256",
          "name": "p3",
          "type": "uint256"
        },
        {
          "indexed": false,
          "internalType": "uint256",
          "name": "p4",
          "type": "uint256"
        },
        {
          "indexed": false,
          "internalType": "uint256",
          "name": "p5",
          "type": "uint256"
        },
        {
          "indexed": false,
          "internalType": "uint256",
          "name": "p6",
          "type": "uint256"
        }
      ],
      "name": "e3",
      "type": "event"
    },
    {
      "anonymous": false,
      "inputs": [
        {
          "indexed": true,
          "internalType": "uint256",
          "name": "p1",
          "type": "uint256"
        },
        {
          "indexed": true,
          "internalType": "uint256",
          "name": "p2",
          "type": "uint256"
        },
        {
          "indexed": false,
          "internalType": "uint256",
          "name": "p3",
          "type": "uint256"
        },
        {
          "indexed": false,
          "internalType": "uint256",
          "name": "p4",
          "type": "uint256"
        },
        {
          "indexed": false,
          "internalType": "uint256",
          "name": "p5",
          "type": "uint256"
        }
      ],
      "name": "e4",
      "type": "event"
    },
    {
      "inputs": [
        {
          "internalType": "address[7]",
          "name": "p1",
          "type": "address[7]"
        },
        {
          "internalType": "uint256[][][]",
          "name": "p2",
          "type": "uint256[][][]"
        },
        {
          "internalType": "uint256[][]",
          "name": "p3",
          "type": "uint256[][]"
        },
        {
          "internalType": "string[][]",
          "name": "p4",
          "type": "string[][]"
        },
        {
          "internalType": "uint256[]",
          "name": "p5",
          "type": "uint256[]"
        }
      ],
      "name": "f159",
      "outputs": [],
      "stateMutability": "nonpayable",
      "type": "function"
    },
    {
      "inputs": [
        {
          "internalType": "uint256[][]",
          "name": "p1",
          "type": "uint256[][]"
        }
      ],
      "name": "f168",
      "outputs": [
        {
          "internalType": "uint256[]",
          "name": "",
          "type": "uint256[]"
        }
      ],
      "stateMutability": "view",
      "type": "function"
    },
    {
      "inputs": [
        {
          "components": [
            {
              "internalType": "uint256",
              "name": "sv1",
              "type": "uint256"
            },
            {
              "internalType": "bool",
              "name": "sv2",
              "type": "bool"
            },
            {
              "internalType": "uint256[]",
              "name": "sv3",
              "type": "uint256[]"
            },
            {
              "internalType": "uint256[][]",
              "name": "sv4",
              "type": "uint256[][]"
            },
            {
              "internalType": "address[]",
              "name": "sv5",
              "type": "address[]"
            },
            {
              "internalType": "string[][]",
              "name": "sv6",
              "type": "string[][]"
            },
            {
              "internalType": "uint256",
              "name": "t",
              "type": "uint256"
            },
            {
              "internalType": "uint256",
              "name": "sv7",
              "type": "uint256"
            },
            {
              "internalType": "uint256",
              "name": "sv8",
              "type": "uint256"
            },
            {
              "internalType": "uint256[2]",
              "name": "sv9",
              "type": "uint256[2]"
            },
            {
              "internalType": "bool",
              "name": "sv10",
              "type": "bool"
            },
            {
              "internalType": "uint256[]",
              "name": "sv11",
              "type": "uint256[]"
            }
          ],
          "internalType": "struct E3.TD",
          "name": "p1",
          "type": "tuple"
        }
      ],
      "name": "f172",
      "outputs": [],
      "stateMutability": "nonpayable",
      "type": "function"
    },
    {
      "inputs": [
        {
          "internalType": "uint256[][5]",
          "name": "p1",
          "type": "uint256[][5]"
        },
        {
          "internalType": "uint256",
          "name": "p2",
          "type": "uint256"
        }
      ],
      "name": "f196",
      "outputs": [],
      "stateMutability": "nonpayable",
      "type": "function"
    },
    {
      "inputs": [
        {
          "components": [
            {
              "internalType": "uint256",
              "name": "sv1",
              "type": "uint256"
            },
            {
              "internalType": "bool",
              "name": "sv2",
              "type": "bool"
            },
            {
              "internalType": "uint256[]",
              "name": "sv3",
              "type": "uint256[]"
            },
            {
              "internalType": "uint256[][]",
              "name": "sv4",
              "type": "uint256[][]"
            },
            {
              "internalType": "address[]",
              "name": "sv5",
              "type": "address[]"
            },
            {
              "internalType": "string[][]",
              "name": "sv6",
              "type": "string[][]"
            },
            {
              "internalType": "uint256",
              "name": "t",
              "type": "uint256"
            },
            {
              "internalType": "uint256",
              "name": "sv7",
              "type": "uint256"
            },
            {
              "internalType": "uint256",
              "name": "sv8",
              "type": "uint256"
            },
            {
              "internalType": "uint256[2]",
              "name": "sv9",
              "type": "uint256[2]"
            },
            {
              "internalType": "bool",
              "name": "sv10",
              "type": "bool"
            },
            {
              "internalType": "uint256[]",
              "name": "sv11",
              "type": "uint256[]"
            }
          ],
          "internalType": "struct E3.TD",
          "name": "p1",
          "type": "tuple"
        }
      ],
      "name": "f197",
      "outputs": [],
      "stateMutability": "nonpayable",
      "type": "function"
    },
    {
      "inputs": [
        {
          "internalType": "uint256[]",
          "name": "p1",
          "type": "uint256[]"
        },
        {
          "internalType": "uint256[][]",
          "name": "p2",
          "type": "uint256[][]"
        }
      ],
      "name": "f229",
      "outputs": [
        {
          "internalType": "uint256[][]",
          "name": "v1",
          "type": "uint256[][]"
        }
      ],
      "stateMutability": "view",
      "type": "function"
    },
    {
      "inputs": [
        {
          "internalType": "uint256[]",
          "name": "p1",
          "type": "uint256[]"
        },
        {
          "internalType": "uint256[][]",
          "name": "p2",
          "type": "uint256[][]"
        }
      ],
      "name": "f235",
      "outputs": [
        {
          "internalType": "uint256[][]",
          "name": "v1",
          "type": "uint256[][]"
        }
      ],
      "stateMutability": "view",
      "type": "function"
    },
    {
      "inputs": [
        {
          "internalType": "uint256[][][]",
          "name": "v1",
          "type": "uint256[][][]"
        },
        {
          "internalType": "uint256[21]",
          "name": "p2",
          "type": "uint256[21]"
        },
        {
          "internalType": "uint256[][]",
          "name": "p3",
          "type": "uint256[][]"
        }
      ],
      "name": "f263",
      "outputs": [],
      "stateMutability": "nonpayable",
      "type": "function"
    },
    {
      "inputs": [
        {
          "internalType": "uint256",
          "name": "id",
          "type": "uint256"
        }
      ],
      "name": "f73",
      "outputs": [
        {
          "internalType": "uint256[][]",
          "name": "",
          "type": "uint256[][]"
        }
      ],
      "stateMutability": "view",
      "type": "function"
    },
    {
      "inputs": [
        {
          "internalType": "uint256[]",
          "name": "p1",
          "type": "uint256[]"
        }
      ],
      "name": "f74",
      "outputs": [
        {
          "internalType": "uint256[][][]",
          "name": "",
          "type": "uint256[][][]"
        }
      ],
      "stateMutability": "view",
      "type": "function"
    }
  ],
  "bytecode": "0x60a060405260008060006101000a81548160ff0219169083151502179055503480156200002b57600080fd5b506040516200506b3803806200506b8339818101604052810190620000519190620000a6565b8073ffffffffffffffffffffffffffffffffffffffff1660808173ffffffffffffffffffffffffffffffffffffffff1660601b815250505062000120565b600081519050620000a08162000106565b92915050565b600060208284031215620000b957600080fd5b6000620000c9848285016200008f565b91505092915050565b6000620000df82620000e6565b9050919050565b600073ffffffffffffffffffffffffffffffffffffffff82169050919050565b6200011181620000d2565b81146200011d57600080fd5b50565b60805160601c614f2c6200013f600039600061160c0152614f2c6000f3fe608060405234801561001057600080fd5b506004361061008e5760003560e01c806304ef7f60146100935780630d8d5052146100c35780631b533712146100df5780634df34bb31461010f57806385f5fa161461012b578063b3318bc114610147578063d53b2c0e14610177578063da3f9bf8146101a7578063db410c02146101c3578063ec21a35f146101f3575b600080fd5b6100ad60048036038101906100a89190612fb1565b61020f565b6040516100ba91906143f8565b60405180910390f35b6100dd60048036038101906100d8919061312a565b6102a7565b005b6100f960048036038101906100f49190613033565b610443565b60405161010691906142d8565b60405180910390f35b61012960048036038101906101249190612f5d565b6104e3565b005b6101456004803603810190610140919061312a565b61089c565b005b610161600480360381019061015c91906130a8565b610e63565b60405161016e91906141c9565b60405180910390f35b610191600480360381019061018c919061316b565b610efb565b60405161019e91906142d8565b60405180910390f35b6101c160048036038101906101bc9190612e2f565b610f93565b005b6101dd60048036038101906101d89190613033565b611569565b6040516101ea91906142d8565b60405180910390f35b61020d60048036038101906102089190612cc1565b61160a565b005b606073__$c0df607595f0ff971730314cc21dbfc3d1$__635554f7c88360026040518363ffffffff1660e01b815260040161024b9291906142fa565b60006040518083038186803b15801561026357600080fd5b505af4158015610277573d6000803e3d6000fd5b505050506040513d6000823e3d601f19601f820116820180604052508101906102a091906130e9565b9050919050565b3360011515600160008373ffffffffffffffffffffffffffffffffffffffff1673ffffffffffffffffffffffffffffffffffffffff16815260200190815260200160002060009054906101000a900460ff1615151461030557600080fd5b600082806040019061031791906146d7565b8460c00135818110610352577f4e487b7100000000000000000000000000000000000000000000000000000000600052603260045260246000fd5b9050602002013590506103d48184806060019061036f9190614680565b9061037a9190614d5c565b856000013586806040019061038f91906146d7565b80806020026020016040519081016040528093929190818152602001838360200280828437600081840152601f19601f82011690508083019250505050505050611cfe565b73__$c0df607595f0ff971730314cc21dbfc3d1$__633e10d94a8260026040518363ffffffff1660e01b815260040161040e9291906145cd565b60006040518083038186803b15801561042657600080fd5b505af415801561043a573d6000803e3d6000fd5b50505050505050565b606073__$c0df607595f0ff971730314cc21dbfc3d1$__62fd6bf38686600287876040518663ffffffff1660e01b81526004016104849594939291906143af565b60006040518083038186803b15801561049c57600080fd5b505af41580156104b0573d6000803e3d6000fd5b505050506040513d6000823e3d601f19601f820116820180604052508101906104d99190612ff2565b9050949350505050565b3360011515600160008373ffffffffffffffffffffffffffffffffffffffff1673ffffffffffffffffffffffffffffffffffffffff16815260200190815260200160002060009054906101000a900460ff1615151461054157600080fd5b73__$c0df607595f0ff971730314cc21dbfc3d1$__63a28bde7f848460026040518463ffffffff1660e01b815260040161057d9392919061429a565b60006040518083038186803b15801561059557600080fd5b505af41580156105a9573d6000803e3d6000fd5b5050505060005b836000600581106105ea577f4e487b7100000000000000000000000000000000000000000000000000000000600052603260045260246000fd5b6020020151518110156108965760008085600460058110610634577f4e487b7100000000000000000000000000000000000000000000000000000000600052603260045260246000fd5b602002015151141561064657836106c6565b84600460058110610680577f4e487b7100000000000000000000000000000000000000000000000000000000600052603260045260246000fd5b602002015182815181106106bd577f4e487b7100000000000000000000000000000000000000000000000000000000600052603260045260246000fd5b60200260200101515b905084600060058110610702577f4e487b7100000000000000000000000000000000000000000000000000000000600052603260045260246000fd5b6020020151828151811061073f577f4e487b7100000000000000000000000000000000000000000000000000000000600052603260045260246000fd5b60200260200101517fbccb4431c22f2d393275a6e83e2d92cef24363286cfc0de2ca4687c3406f0e83866001600581106107a2577f4e487b7100000000000000000000000000000000000000000000000000000000600052603260045260246000fd5b602002015184815181106107df577f4e487b7100000000000000000000000000000000000000000000000000000000600052603260045260246000fd5b602002602001015187600260058110610821577f4e487b7100000000000000000000000000000000000000000000000000000000600052603260045260246000fd5b6020020151858151811061085e577f4e487b7100000000000000000000000000000000000000000000000000000000600052603260045260246000fd5b602002602001015142438660405161087a95949392919061462d565b60405180910390a250808061088e90614df9565b9150506105b0565b50505050565b3360011515600160008373ffffffffffffffffffffffffffffffffffffffff1673ffffffffffffffffffffffffffffffffffffffff16815260200190815260200160002060009054906101000a900460ff161515146108fa57600080fd5b600082806060019061090c9190614680565b6000818110610944577f4e487b7100000000000000000000000000000000000000000000000000000000600052603260045260246000fd5b905060200281019061095691906146d7565b600181811061098e577f4e487b7100000000000000000000000000000000000000000000000000000000600052603260045260246000fd5b90506020020135905060008380606001906109a99190614680565b60008181106109e1577f4e487b7100000000000000000000000000000000000000000000000000000000600052603260045260246000fd5b90506020028101906109f391906146d7565b6000818110610a2b577f4e487b7100000000000000000000000000000000000000000000000000000000600052603260045260246000fd5b905060200201359050614e20811415610aec57600b821415610ae757600073__$7b11637b326fa12a30ce8fbc20da0b2192$__6386ae6f8b866040518263ffffffff1660e01b8152600401610a80919061456d565b60006040518083038186803b158015610a9857600080fd5b505af4158015610aac573d6000803e3d6000fd5b505050506040513d6000823e3d601f19601f82011682018060405250810190610ad59190612eb0565b9050610ae58186600001356104e3565b505b610e5d565b617530811415610e5c57600073__$7b11637b326fa12a30ce8fbc20da0b2192$__63779712f1866040518263ffffffff1660e01b8152600401610b2f919061456d565b60006040518083038186803b158015610b4757600080fd5b505af4158015610b5b573d6000803e3d6000fd5b505050506040513d6000823e3d601f19601f82011682018060405250810190610b849190612eb0565b90506002831480610b955750600c83145b15610cdf57600060028414610bab576001610bae565b60005b60ff169050610cd982600060058110610bf0577f4e487b7100000000000000000000000000000000000000000000000000000000600052603260045260246000fd5b6020020151878060600190610c059190614680565b6003818110610c3d577f4e487b7100000000000000000000000000000000000000000000000000000000600052603260045260246000fd5b9050602002810190610c4f91906146d7565b80806020026020016040519081016040528093929190818152602001838360200280828437600081840152601f19601f8201169050808301925050505050505088600001358486600160058110610ccf577f4e487b7100000000000000000000000000000000000000000000000000000000600052603260045260246000fd5b6020020151611e08565b50610e5a565b600d831415610e5957600073__$2c5481ac3a53d4f4da52c7594a1c0a4117$__63e6459c3e878060600190610d149190614680565b85600060058110610d4e577f4e487b7100000000000000000000000000000000000000000000000000000000600052603260045260246000fd5b602002015160036040518563ffffffff1660e01b8152600401610d7494939291906141eb565b60006040518083038186803b158015610d8c57600080fd5b505af4158015610da0573d6000803e3d6000fd5b505050506040513d6000823e3d601f19601f82011682018060405250810190610dc99190612ff2565b9050610e5782600060058110610e08577f4e487b7100000000000000000000000000000000000000000000000000000000600052603260045260246000fd5b602002015182886000013585600160058110610e4d577f4e487b7100000000000000000000000000000000000000000000000000000000600052603260045260246000fd5b60200201516121da565b505b5b505b5b50505050565b606073__$c0df607595f0ff971730314cc21dbfc3d1$__632073b67b8360026040518363ffffffff1660e01b8152600401610e9f92919061453d565b60006040518083038186803b158015610eb757600080fd5b505af4158015610ecb573d6000803e3d6000fd5b505050506040513d6000823e3d601f19601f82011682018060405250810190610ef49190612dee565b9050919050565b606073__$c0df607595f0ff971730314cc21dbfc3d1$__63bd5523958360026040518363ffffffff1660e01b8152600401610f379291906145cd565b60006040518083038186803b158015610f4f57600080fd5b505af4158015610f63573d6000803e3d6000fd5b505050506040513d6000823e3d601f19601f82011682018060405250810190610f8c9190612ff2565b9050919050565b3360011515600160008373ffffffffffffffffffffffffffffffffffffffff1673ffffffffffffffffffffffffffffffffffffffff16815260200190815260200160002060009054906101000a900460ff16151514610ff157600080fd5b600073__$7838764baeda9797ed1c4143c794f29b4f$__6346e764b785876040518363ffffffff1660e01b815260040161102c92919061437d565b60006040518083038186803b15801561104457600080fd5b505af4158015611058573d6000803e3d6000fd5b505050506040513d6000823e3d601f19601f820116820180604052508101906110819190612dad565b90506000846008601581106110bf577f4e487b7100000000000000000000000000000000000000000000000000000000600052603260045260246000fd5b6020020135146111cf576111ce81600060038110611106577f4e487b7100000000000000000000000000000000000000000000000000000000600052603260045260246000fd5b6020020151600060038110611144577f4e487b7100000000000000000000000000000000000000000000000000000000600052603260045260246000fd5b602002015184600084600060038110611186577f4e487b7100000000000000000000000000000000000000000000000000000000600052603260045260246000fd5b60200201516001600381106111c4577f4e487b7100000000000000000000000000000000000000000000000000000000600052603260045260246000fd5b60200201516121da565b5b60008460096015811061120b577f4e487b7100000000000000000000000000000000000000000000000000000000600052603260045260246000fd5b6020020135146113985761139781600160038110611252577f4e487b7100000000000000000000000000000000000000000000000000000000600052603260045260246000fd5b6020020151600060038110611290577f4e487b7100000000000000000000000000000000000000000000000000000000600052603260045260246000fd5b6020020151826001600381106112cf577f4e487b7100000000000000000000000000000000000000000000000000000000600052603260045260246000fd5b602002015160026003811061130d577f4e487b7100000000000000000000000000000000000000000000000000000000600052603260045260246000fd5b60200201516000808560016003811061134f577f4e487b7100000000000000000000000000000000000000000000000000000000600052603260045260246000fd5b602002015160016003811061138d577f4e487b7100000000000000000000000000000000000000000000000000000000600052603260045260246000fd5b6020020151611e08565b5b600084600a601581106113d4577f4e487b7100000000000000000000000000000000000000000000000000000000600052603260045260246000fd5b602002013514611562576115618160026003811061141b577f4e487b7100000000000000000000000000000000000000000000000000000000600052603260045260246000fd5b6020020151600060038110611459577f4e487b7100000000000000000000000000000000000000000000000000000000600052603260045260246000fd5b602002015182600260038110611498577f4e487b7100000000000000000000000000000000000000000000000000000000600052603260045260246000fd5b60200201516002600381106114d6577f4e487b7100000000000000000000000000000000000000000000000000000000600052603260045260246000fd5b60200201516000600185600260038110611519577f4e487b7100000000000000000000000000000000000000000000000000000000600052603260045260246000fd5b6020020151600160038110611557577f4e487b7100000000000000000000000000000000000000000000000000000000600052603260045260246000fd5b6020020151611e08565b5b5050505050565b606073__$c0df607595f0ff971730314cc21dbfc3d1$__63d9e944d98686600287876040518663ffffffff1660e01b81526004016115ab9594939291906143af565b60006040518083038186803b1580156115c357600080fd5b505af41580156115d7573d6000803e3d6000fd5b505050506040513d6000823e3d601f19601f820116820180604052508101906116009190612ff2565b9050949350505050565b7f000000000000000000000000000000000000000000000000000000000000000073ffffffffffffffffffffffffffffffffffffffff163373ffffffffffffffffffffffffffffffffffffffff16148015611670575060008054906101000a900460ff16155b61167957600080fd5b60016000806101000a81548160ff02191690831515021790555060005b60078110156117545760018060008c84600781106116dd577f4e487b7100000000000000000000000000000000000000000000000000000000600052603260045260246000fd5b6020020160208101906116f09190612c98565b73ffffffffffffffffffffffffffffffffffffffff1673ffffffffffffffffffffffffffffffffffffffff16815260200190815260200160002060006101000a81548160ff021916908315150217905550808061174c90614df9565b915050611696565b508860016007811061178f577f4e487b7100000000000000000000000000000000000000000000000000000000600052603260045260246000fd5b6020020160208101906117a29190612c98565b600560006101000a81548173ffffffffffffffffffffffffffffffffffffffff021916908373ffffffffffffffffffffffffffffffffffffffff1602179055508860036007811061181c577f4e487b7100000000000000000000000000000000000000000000000000000000600052603260045260246000fd5b60200201602081019061182f9190612c98565b600660006101000a81548173ffffffffffffffffffffffffffffffffffffffff021916908373ffffffffffffffffffffffffffffffffffffffff160217905550886004600781106118a9577f4e487b7100000000000000000000000000000000000000000000000000000000600052603260045260246000fd5b6020020160208101906118bc9190612c98565b600760006101000a81548173ffffffffffffffffffffffffffffffffffffffff021916908373ffffffffffffffffffffffffffffffffffffffff16021790555088600560078110611936577f4e487b7100000000000000000000000000000000000000000000000000000000600052603260045260246000fd5b6020020160208101906119499190612c98565b600860006101000a81548173ffffffffffffffffffffffffffffffffffffffff021916908373ffffffffffffffffffffffffffffffffffffffff160217905550886006600781106119c3577f4e487b7100000000000000000000000000000000000000000000000000000000600052603260045260246000fd5b6020020160208101906119d69190612c98565b600960006101000a81548173ffffffffffffffffffffffffffffffffffffffff021916908373ffffffffffffffffffffffffffffffffffffffff160217905550600660009054906101000a900473ffffffffffffffffffffffffffffffffffffffff1673ffffffffffffffffffffffffffffffffffffffff1663f45f2c678a8a8a8a8a6040518663ffffffff1660e01b8152600401611a7995949392919061411b565b600060405180830381600087803b158015611a9357600080fd5b505af1158015611aa7573d6000803e3d6000fd5b50505050600760009054906101000a900473ffffffffffffffffffffffffffffffffffffffff1673ffffffffffffffffffffffffffffffffffffffff16632db07d318a6040518263ffffffff1660e01b8152600401611b069190614100565b600060405180830381600087803b158015611b2057600080fd5b505af1158015611b34573d6000803e3d6000fd5b50505050600860009054906101000a900473ffffffffffffffffffffffffffffffffffffffff1673ffffffffffffffffffffffffffffffffffffffff166334ee2caa8a8a8a8a8a6040518663ffffffff1660e01b8152600401611b9b95949392919061411b565b600060405180830381600087803b158015611bb557600080fd5b505af1158015611bc9573d6000803e3d6000fd5b50505050600960009054906101000a900473ffffffffffffffffffffffffffffffffffffffff1673ffffffffffffffffffffffffffffffffffffffff166374146c948a6040518263ffffffff1660e01b8152600401611c289190614100565b600060405180830381600087803b158015611c4257600080fd5b505af1158015611c56573d6000803e3d6000fd5b50505050600560009054906101000a900473ffffffffffffffffffffffffffffffffffffffff1673ffffffffffffffffffffffffffffffffffffffff1663e559a33d8a8888888888886040518863ffffffff1660e01b8152600401611cc19796959493929190614166565b600060405180830381600087803b158015611cdb57600080fd5b505af1158015611cef573d6000803e3d6000fd5b50505050505050505050505050565b600073__$2c5481ac3a53d4f4da52c7594a1c0a4117$__632391c553858585600a6040518563ffffffff1660e01b8152600401611d3e949392919061432a565b60006040518083038186803b158015611d5657600080fd5b505af4158015611d6a573d6000803e3d6000fd5b505050506040513d6000823e3d601f19601f82011682018060405250810190611d939190612ff2565b905073__$c0df607595f0ff971730314cc21dbfc3d1$__631b2545bc868360026040518463ffffffff1660e01b8152600401611dd19392919061458f565b60006040518083038186803b158015611de957600080fd5b505af4158015611dfd573d6000803e3d6000fd5b505050505050505050565b6000821415611ea157600560009054906101000a900473ffffffffffffffffffffffffffffffffffffffff1673ffffffffffffffffffffffffffffffffffffffff1663378b914b8683866040518463ffffffff1660e01b8152600401611e7093929190614482565b60006040518083038186803b158015611e8857600080fd5b505afa158015611e9c573d6000803e3d6000fd5b505050505b600073__$c0df607595f0ff971730314cc21dbfc3d1$__63b0ba394a878787876002886040518763ffffffff1660e01b8152600401611ee5969594939291906144c7565b60006040518083038186803b158015611efd57600080fd5b505af4158015611f11573d6000803e3d6000fd5b505050506040513d6000823e3d601f19601f82011682018060405250810190611f3a9190612eb0565b905060005b86518110156121375760008590506000811415611f9a57838281518110611f8f577f4e487b7100000000000000000000000000000000000000000000000000000000600052603260045260246000fd5b602002602001015190505b60008514156120655780888381518110611fdd577f4e487b7100000000000000000000000000000000000000000000000000000000600052603260045260246000fd5b60200260200101517f82138c3e7c8da08373e0ee2722dc0f9641d5f8993c868f5e508ecbe227fb4da289858151811061203f577f4e487b7100000000000000000000000000000000000000000000000000000000600052603260045260246000fd5b60200260200101514342604051612058939291906145f6565b60405180910390a3612123565b8088838151811061209f577f4e487b7100000000000000000000000000000000000000000000000000000000600052603260045260246000fd5b60200260200101517f4a1356798b6d4fa1178ba78023f16cc3fddb1a87eeca14cfc73dc0aa37db2695898581518110612101577f4e487b7100000000000000000000000000000000000000000000000000000000600052603260045260246000fd5b6020026020010151434260405161211a939291906145f6565b60405180910390a35b50808061212f90614df9565b915050611f3f565b50600960009054906101000a900473ffffffffffffffffffffffffffffffffffffffff1673ffffffffffffffffffffffffffffffffffffffff16636228251b8260008060008060016040518763ffffffff1660e01b81526004016121a096959493929190614232565b600060405180830381600087803b1580156121ba57600080fd5b505af11580156121ce573d6000803e3d6000fd5b50505050505050505050565b60008073__$c0df607595f0ff971730314cc21dbfc3d1$__63b472f54f8787876002886040518663ffffffff1660e01b815260040161221d95949392919061441a565b60006040518083038186803b15801561223557600080fd5b505af4158015612249573d6000803e3d6000fd5b505050506040513d6000823e3d601f19601f820116820180604052508101906122729190612ef1565b9150915060005b86518110156123a557600085905060008114156122d4578482815181106122c9577f4e487b7100000000000000000000000000000000000000000000000000000000600052603260045260246000fd5b602002602001015190505b8088838151811061230e577f4e487b7100000000000000000000000000000000000000000000000000000000600052603260045260246000fd5b60200260200101517ff545471c7a84cbc8a7af0c97cfca9f19ba30eef9fa8b835cb359894a0311af6c858581518110612370577f4e487b7100000000000000000000000000000000000000000000000000000000600052603260045260246000fd5b60200260200101514342604051612389939291906145f6565b60405180910390a350808061239d90614df9565b915050612279565b50600960009054906101000a900473ffffffffffffffffffffffffffffffffffffffff1673ffffffffffffffffffffffffffffffffffffffff16636228251b8360008060008060016040518763ffffffff1660e01b815260040161240e96959493929190614232565b600060405180830381600087803b15801561242857600080fd5b505af115801561243c573d6000803e3d6000fd5b50505050505050505050565b600061245b61245684614753565b61472e565b9050808285602086028201111561247157600080fd5b60005b858110156124bb57815167ffffffffffffffff81111561249357600080fd5b8086016124a08982612ab8565b85526020850194506020840193505050600181019050612474565b5050509392505050565b60006124d86124d384614779565b61472e565b905080838252602082019050828560208602820111156124f757600080fd5b60005b8581101561254157813567ffffffffffffffff81111561251957600080fd5b8086016125268982612b2d565b855260208501945060208401935050506001810190506124fa565b5050509392505050565b600061255e61255984614779565b61472e565b9050808382526020820190508285602086028201111561257d57600080fd5b60005b858110156125c757815167ffffffffffffffff81111561259f57600080fd5b8086016125ac8982612b57565b85526020850194506020840193505050600181019050612580565b5050509392505050565b60006125e46125df846147a5565b61472e565b905080828560208602820111156125fa57600080fd5b60005b8581101561264457815167ffffffffffffffff81111561261c57600080fd5b8086016126298982612c13565b855260208501945060208401935050506001810190506125fd565b5050509392505050565b600061266161265c846147cb565b61472e565b9050808285602086028201111561267757600080fd5b60005b858110156126c157813567ffffffffffffffff81111561269957600080fd5b8086016126a68982612be9565b8552602085019450602084019350505060018101905061267a565b5050509392505050565b60006126de6126d9846147cb565b61472e565b905080828560208602820111156126f457600080fd5b60005b8581101561273e57815167ffffffffffffffff81111561271657600080fd5b8086016127238982612c13565b855260208501945060208401935050506001810190506126f7565b5050509392505050565b600061275b612756846147f1565b61472e565b9050808382526020820190508285602086028201111561277a57600080fd5b60005b858110156127c457813567ffffffffffffffff81111561279c57600080fd5b8086016127a98982612be9565b8552602085019450602084019350505060018101905061277d565b5050509392505050565b60006127e16127dc846147f1565b61472e565b9050808382526020820190508285602086028201111561280057600080fd5b60005b8581101561284a57815167ffffffffffffffff81111561282257600080fd5b80860161282f8982612c13565b85526020850194506020840193505050600181019050612803565b5050509392505050565b60006128676128628461481d565b61472e565b9050808382526020820190508285602086028201111561288657600080fd5b60005b858110156128b6578161289c8882612c6e565b845260208401935060208301925050600181019050612889565b5050509392505050565b60006128d36128ce8461481d565b61472e565b905080838252602082019050828560208602820111156128f257600080fd5b60005b8581101561292257816129088882612c83565b8452602084019350602083019250506001810190506128f5565b5050509392505050565b60008135905061293b81614eb1565b92915050565b60008190508260206007028201111561295957600080fd5b92915050565b60008083601f84011261297157600080fd5b8235905067ffffffffffffffff81111561298a57600080fd5b6020830191508360208202830111156129a257600080fd5b9250929050565b600082601f8301126129ba57600080fd5b60036129c7848285612448565b91505092915050565b600082601f8301126129e157600080fd5b81356129f18482602086016124c5565b91505092915050565b600082601f830112612a0b57600080fd5b8151612a1b84826020860161254b565b91505092915050565b60008083601f840112612a3657600080fd5b8235905067ffffffffffffffff811115612a4f57600080fd5b602083019150836020820283011115612a6757600080fd5b9250929050565b60008083601f840112612a8057600080fd5b8235905067ffffffffffffffff811115612a9957600080fd5b602083019150836020820283011115612ab157600080fd5b9250929050565b600082601f830112612ac957600080fd5b6003612ad68482856125d1565b91505092915050565b600082601f830112612af057600080fd5b6005612afd84828561264e565b91505092915050565b600082601f830112612b1757600080fd5b6005612b248482856126cb565b91505092915050565b600082601f830112612b3e57600080fd5b8135612b4e848260208601612748565b91505092915050565b600082601f830112612b6857600080fd5b8151612b788482602086016127ce565b91505092915050565b600081905082602060150282011115612b9957600080fd5b92915050565b60008083601f840112612bb157600080fd5b8235905067ffffffffffffffff811115612bca57600080fd5b602083019150836020820283011115612be257600080fd5b9250929050565b600082601f830112612bfa57600080fd5b8135612c0a848260208601612854565b91505092915050565b600082601f830112612c2457600080fd5b8151612c348482602086016128c0565b91505092915050565b600081359050612c4c81614ec8565b92915050565b60006101a08284031215612c6557600080fd5b81905092915050565b600081359050612c7d81614edf565b92915050565b600081519050612c9281614edf565b92915050565b600060208284031215612caa57600080fd5b6000612cb88482850161292c565b91505092915050565b60008060008060008060008060006101608a8c031215612ce057600080fd5b6000612cee8c828d01612941565b99505060e08a013567ffffffffffffffff811115612d0b57600080fd5b612d178c828d0161295f565b98509850506101008a013567ffffffffffffffff811115612d3757600080fd5b612d438c828d01612a6e565b96509650506101208a013567ffffffffffffffff811115612d6357600080fd5b612d6f8c828d01612a24565b94509450506101408a013567ffffffffffffffff811115612d8f57600080fd5b612d9b8c828d01612b9f565b92509250509295985092959850929598565b600060208284031215612dbf57600080fd5b600082015167ffffffffffffffff811115612dd957600080fd5b612de5848285016129a9565b91505092915050565b600060208284031215612e0057600080fd5b600082015167ffffffffffffffff811115612e1a57600080fd5b612e26848285016129fa565b91505092915050565b60008060006102e08486031215612e4557600080fd5b600084013567ffffffffffffffff811115612e5f57600080fd5b612e6b868287016129d0565b9350506020612e7c86828701612b81565b9250506102c084013567ffffffffffffffff811115612e9a57600080fd5b612ea686828701612b2d565b9150509250925092565b600060208284031215612ec257600080fd5b600082015167ffffffffffffffff811115612edc57600080fd5b612ee884828501612b06565b91505092915050565b60008060408385031215612f0457600080fd5b600083015167ffffffffffffffff811115612f1e57600080fd5b612f2a85828601612b06565b925050602083015167ffffffffffffffff811115612f4757600080fd5b612f5385828601612c13565b9150509250929050565b60008060408385031215612f7057600080fd5b600083013567ffffffffffffffff811115612f8a57600080fd5b612f9685828601612adf565b9250506020612fa785828601612c6e565b9150509250929050565b600060208284031215612fc357600080fd5b600082013567ffffffffffffffff811115612fdd57600080fd5b612fe984828501612b2d565b91505092915050565b60006020828403121561300457600080fd5b600082015167ffffffffffffffff81111561301e57600080fd5b61302a84828501612b57565b91505092915050565b6000806000806040858703121561304957600080fd5b600085013567ffffffffffffffff81111561306357600080fd5b61306f87828801612b9f565b9450945050602085013567ffffffffffffffff81111561308e57600080fd5b61309a87828801612a6e565b925092505092959194509250565b6000602082840312156130ba57600080fd5b600082013567ffffffffffffffff8111156130d457600080fd5b6130e084828501612be9565b91505092915050565b6000602082840312156130fb57600080fd5b600082015167ffffffffffffffff81111561311557600080fd5b61312184828501612c13565b91505092915050565b60006020828403121561313c57600080fd5b600082013567ffffffffffffffff81111561315657600080fd5b61316284828501612c52565b91505092915050565b60006020828403121561317d57600080fd5b600061318b84828501612c6e565b91505092915050565b60006131a083836132de565b60208301905092915050565b60006131b883836132ed565b60208301905092915050565b60006131d1848484613604565b90509392505050565b60006131e683836138c6565b905092915050565b60006131fa8383613a25565b905092915050565b600061320f848484613a9a565b90509392505050565b6000613225848484613b10565b90509392505050565b600061323b848484613ba7565b90509392505050565b6000613251848484613caf565b90509392505050565b60006132668383613d07565b905092915050565b600061327a8383613e21565b905092915050565b600061328f848484613ed9565b90509392505050565b60006132a5848484613f06565b90509392505050565b60006132ba83836140c4565b60208301905092915050565b60006132d283836140f1565b60208301905092915050565b6132e781614d14565b82525050565b6132f681614d14565b82525050565b613305816148bf565b61330f8184614978565b925061331a82614849565b8060005b83811015613353576133308284614aba565b61333a8782613194565b9650613345836148f6565b92505060018101905061331e565b505050505050565b60006133678385614983565b935061337282614853565b8060005b858110156133ab576133888284614aba565b61339288826131ac565b975061339d83614903565b925050600181019050613376565b5085925050509392505050565b60006133c48385614994565b9350836020840285016133d68461485d565b8060005b8781101561341c5784840389526133f18284614b7f565b6133fc8682846131c4565b955061340784614910565b935060208b019a5050506001810190506133da565b50829750879450505050509392505050565b6000613439826148ca565b6134438185614994565b93508360208202850161345585614867565b8060005b85811015613491578484038952815161347285826131da565b945061347d8361491d565b925060208a01995050600181019050613459565b50829750879550505050505092915050565b60006134ae826148ca565b6134b881856149a5565b9350836020820285016134ca85614867565b8060005b8581101561350657848403895281516134e785826131ee565b94506134f28361491d565b925060208a019950506001810190506134ce565b50829750879550505050505092915050565b600061352483856149b6565b93508360208402850161353684614877565b8060005b8781101561357c5784840389526135518284614bd6565b61355c868284613202565b95506135678461492a565b935060208b019a50505060018101905061353a565b50829750879450505050509392505050565b600061359a83856149c7565b9350836020840285016135ac84614877565b8060005b878110156135f25784840389526135c78284614bd6565b6135d2868284613218565b95506135dd8461492a565b935060208b019a5050506001810190506135b0565b50829750879450505050509392505050565b600061361083856149ee565b93508360208402850161362284614881565b8060005b8781101561366857848403895261363d8284614c38565b61364886828461322e565b955061365384614937565b935060208b019a505050600181019050613626565b50829750879450505050509392505050565b600061368683856149ff565b93508360208402850161369884614881565b8060005b878110156136de5784840389526136b38284614c38565b6136be86828461322e565b95506136c984614937565b935060208b019a50505060018101905061369c565b50829750879450505050509392505050565b60006136fc8385614a10565b93508360208402850161370e84614881565b8060005b878110156137545784840389526137298284614c38565b613734868284613244565b955061373f84614937565b935060208b019a505050600181019050613712565b50829750879450505050509392505050565b60006137728385614a21565b93508360208402850161378484614881565b8060005b878110156137ca57848403895261379f8284614c38565b6137aa868284613244565b95506137b584614937565b935060208b019a505050600181019050613788565b50829750879450505050509392505050565b60006137e7826148d5565b6137f181856149d8565b9350836020820285016138038561488b565b8060005b8581101561383f5784840389528151613820858261325a565b945061382b83614944565b925060208a01995050600181019050613807565b50829750879550505050505092915050565b600061385c826148d5565b61386681856149e3565b9350836020820285016138788561488b565b8060005b858110156138b45784840389528151613895858261326e565b94506138a083614944565b925060208a0199505060018101905061387c565b50829750879550505050505092915050565b60006138d1826148e0565b6138db81856149ee565b9350836020820285016138ed85614895565b8060005b85811015613929578484038952815161390a858261325a565b945061391583614951565b925060208a019950506001810190506138f1565b50829750879550505050505092915050565b6000613946826148e0565b61395081856149ff565b93508360208202850161396285614895565b8060005b8581101561399e578484038952815161397f858261325a565b945061398a83614951565b925060208a01995050600181019050613966565b50829750879550505050505092915050565b60006139bb826148e0565b6139c58185614a10565b9350836020820285016139d785614895565b8060005b85811015613a1357848403895281516139f4858261326e565b94506139ff83614951565b925060208a019950506001810190506139db565b50829750879550505050505092915050565b6000613a30826148e0565b613a3a8185614a21565b935083602082028501613a4c85614895565b8060005b85811015613a885784840389528151613a69858261326e565b9450613a7483614951565b925060208a01995050600181019050613a50565b50829750879550505050505092915050565b6000613aa68385614a32565b935083602084028501613ab8846148a5565b8060005b87811015613afe578484038952613ad38284614ca6565b613ade868284613282565b9550613ae98461495e565b935060208b019a505050600181019050613abc565b50829750879450505050509392505050565b6000613b1c8385614a43565b935083602084028501613b2e846148a5565b8060005b87811015613b74578484038952613b498284614ca6565b613b54868284613298565b9550613b5f8461495e565b935060208b019a505050600181019050613b32565b50829750879450505050509392505050565b613b936102a08383614db9565b5050565b613ba360408383614db9565b5050565b6000613bb38385614a54565b93507f07ffffffffffffffffffffffffffffffffffffffffffffffffffffffffffffff831115613be257600080fd5b602083029250613bf3838584614db9565b82840190509392505050565b6000613c0b8385614a65565b93507f07ffffffffffffffffffffffffffffffffffffffffffffffffffffffffffffff831115613c3a57600080fd5b602083029250613c4b838584614db9565b82840190509392505050565b6000613c638385614a76565b93507f07ffffffffffffffffffffffffffffffffffffffffffffffffffffffffffffff831115613c9257600080fd5b602083029250613ca3838584614db9565b82840190509392505050565b6000613cbb8385614a87565b93507f07ffffffffffffffffffffffffffffffffffffffffffffffffffffffffffffff831115613cea57600080fd5b602083029250613cfb838584614db9565b82840190509392505050565b6000613d12826148eb565b613d1c8185614a54565b9350613d27836148af565b8060005b83811015613d58578151613d3f88826132ae565b9750613d4a8361496b565b925050600181019050613d2b565b5085935050505092915050565b6000613d70826148eb565b613d7a8185614a65565b9350613d85836148af565b8060005b83811015613db6578151613d9d88826132ae565b9750613da88361496b565b925050600181019050613d89565b5085935050505092915050565b6000613dce826148eb565b613dd88185614a76565b9350613de3836148af565b8060005b83811015613e14578151613dfb88826132c6565b9750613e068361496b565b925050600181019050613de7565b5085935050505092915050565b6000613e2c826148eb565b613e368185614a87565b9350613e41836148af565b8060005b83811015613e72578151613e5988826132c6565b9750613e648361496b565b925050600181019050613e45565b5085935050505092915050565b613e8881614d26565b82525050565b613e9781614d26565b82525050565b613ea681614d71565b82525050565b613eb581614d83565b82525050565b613ec481614d95565b82525050565b613ed381614da7565b82525050565b6000613ee58385614a98565b9350613ef2838584614db9565b613efb83614ea0565b840190509392505050565b6000613f128385614aa9565b9350613f1f838584614db9565b613f2883614ea0565b840190509392505050565b8082525050565b60006101a08301613f4e6000840184614cfd565b613f5b60008601826140f1565b50613f696020840184614c8f565b613f766020860182613e8e565b50613f846040840184614c38565b8583036040870152613f97838284613caf565b92505050613fa86060840184614b7f565b8583036060870152613fbb838284613766565b92505050613fcc6080840184614ad1565b8583036080870152613fdf83828461335b565b92505050613ff060a0840184614b28565b85830360a087015261400383828461358e565b9250505061401460c0840184614cfd565b61402160c08601826140f1565b5061402f60e0840184614cfd565b61403c60e08601826140f1565b5061404b610100840184614cfd565b6140596101008601826140f1565b50614068610120840184614c2d565b614076610120860182613b97565b50614085610160840184614c8f565b614093610160860182613e8e565b506140a2610180840184614c38565b8583036101808701526140b6838284613caf565b925050508091505092915050565b6140cd81614d52565b82525050565b6140dc81614d52565b82525050565b6140eb81614d52565b82525050565b6140fa81614d52565b82525050565b600060e08201905061411560008301846132fc565b92915050565b60006101208201905061413160008301886132fc565b81810360e08301526141448186886133b8565b905081810361010083015261415a81848661367a565b90509695505050505050565b60006101408201905061417c600083018a6132fc565b81810360e083015261418f81888a61367a565b90508181036101008301526141a5818688613518565b90508181036101208301526141bb818486613bff565b905098975050505050505050565b600060208201905081810360008301526141e3818461342e565b905092915050565b600060608201905081810360008301526142068186886136f0565b9050818103602083015261421a8185613dc3565b90506142296040830184613eca565b95945050505050565b600060c082019050818103600083015261424c81896137dc565b905061425b6020830188613e9d565b6142686040830187613e9d565b6142756060830186613e7f565b6142826080830185613e7f565b61428f60a0830184613ebb565b979650505050505050565b600060608201905081810360008301526142b48186613851565b90506142c360208301856140e2565b6142d06040830184613f33565b949350505050565b600060208201905081810360008301526142f2818461393b565b905092915050565b6000604082019050818103600083015261431481856139b0565b90506143236020830184613f33565b9392505050565b6000608082019050818103600083015261434481876139b0565b905061435360208301866140e2565b81810360408301526143658185613dc3565b90506143746060830184613eac565b95945050505050565b60006102c0820190506143936000830185613b86565b8181036102a08301526143a681846134a3565b90509392505050565b600060608201905081810360008301526143ca818789613c57565b90506143d96020830186613f33565b81810360408301526143ec8184866136f0565b90509695505050505050565b600060208201905081810360008301526144128184613d65565b905092915050565b600060a08201905081810360008301526144348188613dc3565b9050818103602083015261444881876139b0565b905061445760408301866140e2565b6144646060830185613f33565b81810360808301526144768184613dc3565b90509695505050505050565b6000606082019050818103600083015261449c8186613d65565b905081810360208301526144b08185613d65565b90506144bf60408301846140d3565b949350505050565b600060c08201905081810360008301526144e18189613dc3565b905081810360208301526144f58188613dc3565b905061450460408301876140e2565b61451160608301866140e2565b61451e6080830185613f33565b81810360a08301526145308184613dc3565b9050979650505050505050565b600060408201905081810360008301526145578185613dc3565b90506145666020830184613f33565b9392505050565b600060208201905081810360008301526145878184613f3a565b905092915050565b60006060820190506145a460008301866140e2565b81810360208301526145b681856139b0565b90506145c56040830184613f33565b949350505050565b60006040820190506145e260008301856140e2565b6145ef6020830184613f33565b9392505050565b600060608201905061460b60008301866140d3565b61461860208301856140d3565b61462560408301846140d3565b949350505050565b600060a08201905061464260008301886140d3565b61464f60208301876140d3565b61465c60408301866140d3565b61466960608301856140d3565b61467660808301846140d3565b9695505050505050565b6000808335600160200384360303811261469957600080fd5b80840192508235915067ffffffffffffffff8211156146b757600080fd5b6020830192506020820236038313156146cf57600080fd5b509250929050565b600080833560016020038436030381126146f057600080fd5b80840192508235915067ffffffffffffffff82111561470e57600080fd5b60208301925060208202360383131561472657600080fd5b509250929050565b6000614738614749565b90506147448282614dc8565b919050565b6000604051905090565b600067ffffffffffffffff82111561476e5761476d614e71565b5b602082029050919050565b600067ffffffffffffffff82111561479457614793614e71565b5b602082029050602081019050919050565b600067ffffffffffffffff8211156147c0576147bf614e71565b5b602082029050919050565b600067ffffffffffffffff8211156147e6576147e5614e71565b5b602082029050919050565b600067ffffffffffffffff82111561480c5761480b614e71565b5b602082029050602081019050919050565b600067ffffffffffffffff82111561483857614837614e71565b5b602082029050602081019050919050565b6000819050919050565b6000819050919050565b6000819050919050565b6000819050602082019050919050565b6000819050919050565b6000819050919050565b6000819050919050565b6000819050602082019050919050565b6000819050919050565b6000819050602082019050919050565b600060079050919050565b600081519050919050565b600060059050919050565b600081519050919050565b600081519050919050565b6000602082019050919050565b6000602082019050919050565b6000602082019050919050565b6000602082019050919050565b6000602082019050919050565b6000602082019050919050565b6000602082019050919050565b6000602082019050919050565b6000602082019050919050565b6000602082019050919050565b600081905092915050565b600082825260208201905092915050565b600082825260208201905092915050565b600082825260208201905092915050565b600082825260208201905092915050565b600082825260208201905092915050565b600081905092915050565b600081905092915050565b600082825260208201905092915050565b600082825260208201905092915050565b600082825260208201905092915050565b600082825260208201905092915050565b600082825260208201905092915050565b600082825260208201905092915050565b600082825260208201905092915050565b600082825260208201905092915050565b600082825260208201905092915050565b600082825260208201905092915050565b600082825260208201905092915050565b600082825260208201905092915050565b6000614ac9602084018461292c565b905092915050565b60008083356001602003843603038112614aea57600080fd5b83810192508235915060208301925067ffffffffffffffff821115614b0e57600080fd5b602082023603841315614b2057600080fd5b509250929050565b60008083356001602003843603038112614b4157600080fd5b83810192508235915060208301925067ffffffffffffffff821115614b6557600080fd5b602082023603841315614b7757600080fd5b509250929050565b60008083356001602003843603038112614b9857600080fd5b83810192508235915060208301925067ffffffffffffffff821115614bbc57600080fd5b602082023603841315614bce57600080fd5b509250929050565b60008083356001602003843603038112614bef57600080fd5b83810192508235915060208301925067ffffffffffffffff821115614c1357600080fd5b602082023603841315614c2557600080fd5b509250929050565b600082905092915050565b60008083356001602003843603038112614c5157600080fd5b83810192508235915060208301925067ffffffffffffffff821115614c7557600080fd5b602082023603841315614c8757600080fd5b509250929050565b6000614c9e6020840184612c3d565b905092915050565b60008083356001602003843603038112614cbf57600080fd5b83810192508235915060208301925067ffffffffffffffff821115614ce357600080fd5b600182023603841315614cf557600080fd5b509250929050565b6000614d0c6020840184612c6e565b905092915050565b6000614d1f82614d32565b9050919050565b60008115159050919050565b600073ffffffffffffffffffffffffffffffffffffffff82169050919050565b6000819050919050565b6000614d69368484612748565b905092915050565b6000614d7c82614d52565b9050919050565b6000614d8e82614d52565b9050919050565b6000614da082614d52565b9050919050565b6000614db282614d52565b9050919050565b82818337600083830152505050565b614dd182614ea0565b810181811067ffffffffffffffff82111715614df057614def614e71565b5b80604052505050565b6000614e0482614d52565b91507fffffffffffffffffffffffffffffffffffffffffffffffffffffffffffffffff821415614e3757614e36614e42565b5b600182019050919050565b7f4e487b7100000000000000000000000000000000000000000000000000000000600052601160045260246000fd5b7f4e487b7100000000000000000000000000000000000000000000000000000000600052604160045260246000fd5b6000601f19601f8301169050919050565b614eba81614d14565b8114614ec557600080fd5b50565b614ed181614d26565b8114614edc57600080fd5b50565b614ee881614d52565b8114614ef357600080fd5b5056fea264697066735822122051863e166a9fb9f5283aa4fe66628d3a35f4c1bea148b08c3571ed3b360b999864736f6c63430008040033",
  "linkReferences": {
    "contracts/E5D/E3.sol": {
      "E3": [
        {
          "length": 20,
          "start": 2954
        },
        {
          "length": 20,
          "start": 3129
        }
      ]
    },
    "contracts/E5D/E32.sol": {
      "E32": [
        {
          "length": 20,
          "start": 3627
        },
        {
          "length": 20,
          "start": 7745
        }
      ]
    },
    "contracts/F5D/F3.sol": {
      "F3": [
        {
          "length": 20,
          "start": 850
        },
        {
          "length": 20,
          "start": 1301
        },
        {
          "length": 20,
          "start": 1414
        },
        {
          "length": 20,
          "start": 1666
        },
        {
          "length": 20,
          "start": 4006
        },
        {
          "length": 20,
          "start": 4158
        },
        {
          "length": 20,
          "start": 5804
        },
        {
          "length": 20,
          "start": 7894
        },
        {
          "length": 20,
          "start": 8164
        },
        {
          "length": 20,
          "start": 8990
        }
      ]
    },
    "contracts/F5D/F33.sol": {
      "F33": [
        {
          "length": 20,
          "start": 4404
        }
      ]
    }
  },
  "deployedLinkReferences": {
    "contracts/E5D/E3.sol": {
      "E3": [
        {
          "length": 20,
          "start": 2635
        },
        {
          "length": 20,
          "start": 2810
        }
      ]
    },
    "contracts/E5D/E32.sol": {
      "E32": [
        {
          "length": 20,
          "start": 3308
        },
        {
          "length": 20,
          "start": 7426
        }
      ]
    },
    "contracts/F5D/F3.sol": {
      "F3": [
        {
          "length": 20,
          "start": 531
        },
        {
          "length": 20,
          "start": 982
        },
        {
          "length": 20,
          "start": 1095
        },
        {
          "length": 20,
          "start": 1347
        },
        {
          "length": 20,
          "start": 3687
        },
        {
          "length": 20,
          "start": 3839
        },
        {
          "length": 20,
          "start": 5485
        },
        {
          "length": 20,
          "start": 7575
        },
        {
          "length": 20,
          "start": 7845
        },
        {
          "length": 20,
          "start": 8671
        }
      ]
    },
    "contracts/F5D/F33.sol": {
      "F33": [
        {
          "length": 20,
          "start": 4085
        }
      ]
    }
  }
}