{
  "_format": "hh-sol-artifact-1",
  "contractName": "G5",
  "sourceName": "contracts/G5D/G5.sol",
  "abi": [
    {
      "inputs": [
        {
          "internalType": "address",
          "name": "p1",
          "type": "address"
        }
      ],
      "stateMutability": "nonpayable",
      "type": "constructor"
    },
    {
      "anonymous": false,
      "inputs": [
        {
          "indexed": true,
          "internalType": "uint256",
          "name": "p1",
          "type": "uint256"
        },
        {
          "indexed": true,
          "internalType": "uint256",
          "name": "p2",
          "type": "uint256"
        },
        {
          "indexed": true,
          "internalType": "uint256",
          "name": "p3",
          "type": "uint256"
        },
        {
          "indexed": false,
          "internalType": "uint256",
          "name": "p4",
          "type": "uint256"
        },
        {
          "indexed": false,
          "internalType": "uint256",
          "name": "p5",
          "type": "uint256"
        },
        {
          "indexed": false,
          "internalType": "uint256",
          "name": "p6",
          "type": "uint256"
        }
      ],
      "name": "e1",
      "type": "event"
    },
    {
      "anonymous": false,
      "inputs": [
        {
          "indexed": true,
          "internalType": "uint256",
          "name": "p1",
          "type": "uint256"
        },
        {
          "indexed": false,
          "internalType": "uint256",
          "name": "p2",
          "type": "uint256"
        },
        {
          "indexed": false,
          "internalType": "uint256",
          "name": "p3",
          "type": "uint256"
        },
        {
          "indexed": false,
          "internalType": "uint256",
          "name": "p4",
          "type": "uint256"
        },
        {
          "indexed": false,
          "internalType": "uint256",
          "name": "p5",
          "type": "uint256"
        },
        {
          "indexed": false,
          "internalType": "uint256",
          "name": "p6",
          "type": "uint256"
        },
        {
          "indexed": false,
          "internalType": "uint256",
          "name": "p7",
          "type": "uint256"
        }
      ],
      "name": "e2",
      "type": "event"
    },
    {
      "inputs": [
        {
          "internalType": "uint256[]",
          "name": "p1",
          "type": "uint256[]"
        }
      ],
      "name": "f111",
      "outputs": [
        {
          "internalType": "uint256[][][]",
          "name": "",
          "type": "uint256[][][]"
        }
      ],
      "stateMutability": "nonpayable",
      "type": "function"
    },
    {
      "inputs": [
        {
          "internalType": "address[7]",
          "name": "p1",
          "type": "address[7]"
        },
        {
          "internalType": "uint256[][][]",
          "name": "p2",
          "type": "uint256[][][]"
        },
        {
          "internalType": "uint256[][]",
          "name": "p3",
          "type": "uint256[][]"
        }
      ],
      "name": "f160",
      "outputs": [],
      "stateMutability": "nonpayable",
      "type": "function"
    },
    {
      "inputs": [
        {
          "components": [
            {
              "internalType": "uint256",
              "name": "sv1",
              "type": "uint256"
            },
            {
              "internalType": "bool",
              "name": "sv2",
              "type": "bool"
            },
            {
              "internalType": "uint256[]",
              "name": "sv3",
              "type": "uint256[]"
            },
            {
              "internalType": "uint256[][]",
              "name": "sv4",
              "type": "uint256[][]"
            },
            {
              "internalType": "address[]",
              "name": "sv5",
              "type": "address[]"
            },
            {
              "internalType": "string[][]",
              "name": "sv6",
              "type": "string[][]"
            },
            {
              "internalType": "uint256",
              "name": "t",
              "type": "uint256"
            },
            {
              "internalType": "uint256",
              "name": "sv7",
              "type": "uint256"
            },
            {
              "internalType": "uint256",
              "name": "sv8",
              "type": "uint256"
            },
            {
              "internalType": "uint256[2]",
              "name": "sv9",
              "type": "uint256[2]"
            },
            {
              "internalType": "bool",
              "name": "sv10",
              "type": "bool"
            },
            {
              "internalType": "uint256[]",
              "name": "sv11",
              "type": "uint256[]"
            }
          ],
          "internalType": "struct E3.TD",
          "name": "p1",
          "type": "tuple"
        }
      ],
      "name": "f174",
      "outputs": [],
      "stateMutability": "nonpayable",
      "type": "function"
    },
    {
      "inputs": [
        {
          "internalType": "uint256[]",
          "name": "p1",
          "type": "uint256[]"
        },
        {
          "internalType": "uint256",
          "name": "p2",
          "type": "uint256"
        },
        {
          "internalType": "uint256[][]",
          "name": "p3",
          "type": "uint256[][]"
        },
        {
          "internalType": "uint256[][][2]",
          "name": "p4",
          "type": "uint256[][][2]"
        }
      ],
      "name": "f200",
      "outputs": [],
      "stateMutability": "nonpayable",
      "type": "function"
    },
    {
      "inputs": [
        {
          "internalType": "uint256[][5]",
          "name": "p1",
          "type": "uint256[][5]"
        },
        {
          "internalType": "uint256",
          "name": "p2",
          "type": "uint256"
        },
        {
          "internalType": "uint256",
          "name": "p3",
          "type": "uint256"
        }
      ],
      "name": "f238",
      "outputs": [],
      "stateMutability": "nonpayable",
      "type": "function"
    },
    {
      "inputs": [
        {
          "internalType": "uint256",
          "name": "p1",
          "type": "uint256"
        },
        {
          "internalType": "bool",
          "name": "p2",
          "type": "bool"
        }
      ],
      "name": "f77",
      "outputs": [
        {
          "internalType": "uint256[][]",
          "name": "",
          "type": "uint256[][]"
        }
      ],
      "stateMutability": "view",
      "type": "function"
    },
    {
      "inputs": [
        {
          "internalType": "uint256[]",
          "name": "p1",
          "type": "uint256[]"
        },
        {
          "internalType": "bool",
          "name": "p2",
          "type": "bool"
        }
      ],
      "name": "f78",
      "outputs": [
        {
          "internalType": "uint256[][][]",
          "name": "",
          "type": "uint256[][][]"
        }
      ],
      "stateMutability": "view",
      "type": "function"
    },
    {
      "inputs": [
        {
          "internalType": "uint256[]",
          "name": "targets",
          "type": "uint256[]"
        },
        {
          "internalType": "uint256[]",
          "name": "p3",
          "type": "uint256[]"
        },
        {
          "internalType": "uint256",
          "name": "p4",
          "type": "uint256"
        }
      ],
      "name": "f79",
      "outputs": [
        {
          "internalType": "uint256[][][]",
          "name": "",
          "type": "uint256[][][]"
        },
        {
          "internalType": "uint256[][4]",
          "name": "",
          "type": "uint256[][4]"
        }
      ],
      "stateMutability": "view",
      "type": "function"
    }
  ],
  "bytecode": "0x60a060405260008060006101000a81548160ff0219169083151502179055503480156200002b57600080fd5b5060405162005fc638038062005fc68339818101604052810190620000519190620000a6565b8073ffffffffffffffffffffffffffffffffffffffff1660808173ffffffffffffffffffffffffffffffffffffffff1660601b815250505062000120565b600081519050620000a08162000106565b92915050565b600060208284031215620000b957600080fd5b6000620000c9848285016200008f565b91505092915050565b6000620000df82620000e6565b9050919050565b600073ffffffffffffffffffffffffffffffffffffffff82169050919050565b6200011181620000d2565b81146200011d57600080fd5b50565b60805160601c615e876200013f600039600061231e0152615e876000f3fe608060405234801561001057600080fd5b50600436106100785760003560e01c80630676d1711461007d5780631986d425146100995780633f0705fc146100c957806357c47478146100e557806366ab4428146101015780637063d5c2146101325780639403f45614610162578063f45f2c6714610192575b600080fd5b61009760048036038101906100929190613dab565b6101ae565b005b6100b360048036038101906100ae9190613ffc565b610782565b6040516100c09190614d62565b60405180910390f35b6100e360048036038101906100de919061414d565b61081d565b005b6100ff60048036038101906100fa9190614050565b610c68565b005b61011b60048036038101906101169190613f7d565b6120e1565b604051610129929190614d84565b60405180910390f35b61014c60048036038101906101479190613efb565b61218a565b6040516101599190614d62565b60405180910390f35b61017c600480360381019061017791906141b7565b612281565b6040516101899190615039565b60405180910390f35b6101ac60048036038101906101a79190613b0d565b61231c565b005b3360011515600160008373ffffffffffffffffffffffffffffffffffffffff1673ffffffffffffffffffffffffffffffffffffffff16815260200190815260200160002060009054906101000a900460ff1615151461020c57600080fd5b609882146102e257600a60009054906101000a900473ffffffffffffffffffffffffffffffffffffffff1673ffffffffffffffffffffffffffffffffffffffff1663512ed4b78560006005811061028c577f4e487b7100000000000000000000000000000000000000000000000000000000600052603260045260246000fd5b602002015185856040518463ffffffff1660e01b81526004016102b193929190615488565b60006040518083038186803b1580156102c957600080fd5b505afa1580156102dd573d6000803e3d6000fd5b505050505b600073__$ccab4b824cb48649c7bbfeac646fb6cb19$__63b4fed3b3866002866040518463ffffffff1660e01b815260040161032093929190614f63565b60206040518083038186803b15801561033857600080fd5b505af415801561034c573d6000803e3d6000fd5b505050506040513d601f19601f820116820180604052508101906103709190614124565b905060005b856000600581106103af577f4e487b7100000000000000000000000000000000000000000000000000000000600052603260045260246000fd5b60200201515181101561069a576000859050600081141561044c5786600460058110610404577f4e487b7100000000000000000000000000000000000000000000000000000000600052603260045260246000fd5b60200201518281518110610441577f4e487b7100000000000000000000000000000000000000000000000000000000600052603260045260246000fd5b602002602001015190505b86600060058110610486577f4e487b7100000000000000000000000000000000000000000000000000000000600052603260045260246000fd5b602002015182815181106104c3577f4e487b7100000000000000000000000000000000000000000000000000000000600052603260045260246000fd5b60200260200101517fa095494d0526498663961c7fcf6d0f864cd7b2df5aa2520c38c9272097de3c6688600160058110610526577f4e487b7100000000000000000000000000000000000000000000000000000000600052603260045260246000fd5b60200201518481518110610563577f4e487b7100000000000000000000000000000000000000000000000000000000600052603260045260246000fd5b6020026020010151896002600581106105a5577f4e487b7100000000000000000000000000000000000000000000000000000000600052603260045260246000fd5b602002015185815181106105e2577f4e487b7100000000000000000000000000000000000000000000000000000000600052603260045260246000fd5b60200260200101518a600360058110610624577f4e487b7100000000000000000000000000000000000000000000000000000000600052603260045260246000fd5b60200201518681518110610661577f4e487b7100000000000000000000000000000000000000000000000000000000600052603260045260246000fd5b602002602001015142438760405161067e96959493929190615641565b60405180910390a250808061069290615d54565b915050610375565b50801561077b57600960009054906101000a900473ffffffffffffffffffffffffffffffffffffffff1673ffffffffffffffffffffffffffffffffffffffff1663a2703b716106eb60026000612281565b600181518110610724577f4e487b7100000000000000000000000000000000000000000000000000000000600052603260045260246000fd5b60200260200101516040518263ffffffff1660e01b8152600401610748919061512a565b600060405180830381600087803b15801561076257600080fd5b505af1158015610776573d6000803e3d6000fd5b505050505b5050505050565b606073__$ccab4b824cb48649c7bbfeac646fb6cb19$__639ba0ac00846002856040518463ffffffff1660e01b81526004016107c0939291906153c7565b60006040518083038186803b1580156107d857600080fd5b505af41580156107ec573d6000803e3d6000fd5b505050506040513d6000823e3d601f19601f820116820180604052508101906108159190613c51565b905092915050565b3360011515600160008373ffffffffffffffffffffffffffffffffffffffff1673ffffffffffffffffffffffffffffffffffffffff16815260200190815260200160002060009054906101000a900460ff1615151461087b57600080fd5b600082806060019061088d91906156a2565b60008181106108c5577f4e487b7100000000000000000000000000000000000000000000000000000000600052603260045260246000fd5b90506020028101906108d791906156f9565b600981811061090f577f4e487b7100000000000000000000000000000000000000000000000000000000600052603260045260246000fd5b90506020020135905060008360e001359050600061099d85806060019061093691906156a2565b906109419190615cc6565b8385886000013589806040019061095891906156f9565b80806020026020016040519081016040528093929190818152602001838360200280828437600081840152601f19601f820116905080830192505050505050506127c4565b9050601e831415610c3e576000600660009054906101000a900473ffffffffffffffffffffffffffffffffffffffff1673ffffffffffffffffffffffffffffffffffffffff1663c59983b86040518163ffffffff1660e01b815260040160206040518083038186803b158015610a1257600080fd5b505afa158015610a26573d6000803e3d6000fd5b505050506040513d601f19601f82011682018060405250810190610a4a919061418e565b905060006002600001600060028152602001908152602001600020600060018152602001908152602001600020905073__$f27e79961c3433e31ab5fa1d53780be647$__63b46e164084600281518110610acd577f4e487b7100000000000000000000000000000000000000000000000000000000600052603260045260246000fd5b60200260200101518460405180606001604052808660006003815260200190815260200160002054815260200186600060098152602001908152602001600020548152602001866000601781526020019081526020016000205481525087600381518110610b64577f4e487b7100000000000000000000000000000000000000000000000000000000600052603260045260246000fd5b60200260200101516040518563ffffffff1660e01b8152600401610b8b9493929190615435565b60006040518083038186803b158015610ba357600080fd5b505af4158015610bb7573d6000803e3d6000fd5b5050505073__$ccab4b824cb48649c7bbfeac646fb6cb19$__63a95e827884836000601e8152602001908152602001600020546040518363ffffffff1660e01b8152600401610c079291906150a7565b60006040518083038186803b158015610c1f57600080fd5b505af4158015610c33573d6000803e3d6000fd5b505050505050610c61565b610c6085600001358383886020016020810190610c5b91906140fb565b6128eb565b5b5050505050565b3360011515600160008373ffffffffffffffffffffffffffffffffffffffff1673ffffffffffffffffffffffffffffffffffffffff16815260200190815260200160002060009054906101000a900460ff16151514610cc657600080fd5b6000600a60009054906101000a900473ffffffffffffffffffffffffffffffffffffffff1673ffffffffffffffffffffffffffffffffffffffff1663f7b79c1c87876040518363ffffffff1660e01b8152600401610d25929190615405565b60006040518083038186803b158015610d3d57600080fd5b505afa158015610d51573d6000803e3d6000fd5b505050506040513d6000823e3d601f19601f82011682018060405250810190610d7a9190613f3c565b90506000610d89876000610782565b9050600080600860009054906101000a900473ffffffffffffffffffffffffffffffffffffffff1673ffffffffffffffffffffffffffffffffffffffff16633d49ba568a85896040518463ffffffff1660e01b8152600401610ded9392919061514c565b61030060405180830381600087803b158015610e0857600080fd5b505af1158015610e1c573d6000803e3d6000fd5b505050506040513d601f19601f82011682018060405250810190610e409190613e94565b91509150600082600060158110610e80577f4e487b7100000000000000000000000000000000000000000000000000000000600052603260045260246000fd5b6020020151141580610ed15750600082600260158110610ec9577f4e487b7100000000000000000000000000000000000000000000000000000000600052603260045260246000fd5b602002015114155b156110bf576000600660009054906101000a900473ffffffffffffffffffffffffffffffffffffffff1673ffffffffffffffffffffffffffffffffffffffff16631711b18d856040518263ffffffff1660e01b8152600401610f339190614d62565b60006040518083038186803b158015610f4b57600080fd5b505afa158015610f5f573d6000803e3d6000fd5b505050506040513d6000823e3d601f19601f82011682018060405250810190610f889190613c10565b9050600073__$8b1a9a3b6813947be4374081ea9c64093b$__63041435a08c878986896040518663ffffffff1660e01b8152600401610fcb9594939291906152d4565b60006040518083038186803b158015610fe357600080fd5b505af4158015610ff7573d6000803e3d6000fd5b505050506040513d6000823e3d601f19601f820116820180604052508101906110209190613cfe565b9050600760009054906101000a900473ffffffffffffffffffffffffffffffffffffffff1673ffffffffffffffffffffffffffffffffffffffff16636228251b8260008060008060016040518763ffffffff1660e01b815260040161108a96959493929190614efb565b600060405180830381600087803b1580156110a457600080fd5b505af11580156110b8573d6000803e3d6000fd5b5050505050505b6000826001601581106110fb577f4e487b7100000000000000000000000000000000000000000000000000000000600052603260045260246000fd5b60200201511461165a57600073__$7b11637b326fa12a30ce8fbc20da0b2192$__63d15c89cf856040518263ffffffff1660e01b815260040161113e9190614d40565b60006040518083038186803b15801561115657600080fd5b505af415801561116a573d6000803e3d6000fd5b505050506040513d6000823e3d601f19601f820116820180604052508101906111939190613f3c565b90506000600a60009054906101000a900473ffffffffffffffffffffffffffffffffffffffff1673ffffffffffffffffffffffffffffffffffffffff1663229df571836040518263ffffffff1660e01b81526004016111f2919061512a565b60006040518083038186803b15801561120a57600080fd5b505afa15801561121e573d6000803e3d6000fd5b505050506040513d6000823e3d601f19601f820116820180604052508101906112479190613f3c565b9050600073__$8b1a9a3b6813947be4374081ea9c64093b$__63cdbb74668d88856040518463ffffffff1660e01b815260040161128693929190615288565b60006040518083038186803b15801561129e57600080fd5b505af41580156112b2573d6000803e3d6000fd5b505050506040513d6000823e3d601f19601f820116820180604052508101906112db9190613b8e565b9050600081600060038110611319577f4e487b7100000000000000000000000000000000000000000000000000000000600052603260045260246000fd5b6020020151600060058110611357577f4e487b7100000000000000000000000000000000000000000000000000000000600052603260045260246000fd5b602002015151146113ae576113ad8160006003811061139f577f4e487b7100000000000000000000000000000000000000000000000000000000600052603260045260246000fd5b6020020151600060986101ae565b5b6000816001600381106113ea577f4e487b7100000000000000000000000000000000000000000000000000000000600052603260045260246000fd5b6020020151600060058110611428577f4e487b7100000000000000000000000000000000000000000000000000000000600052603260045260246000fd5b6020020151511461150257600660009054906101000a900473ffffffffffffffffffffffffffffffffffffffff1673ffffffffffffffffffffffffffffffffffffffff16631a4655c1826001600381106114ab577f4e487b7100000000000000000000000000000000000000000000000000000000600052603260045260246000fd5b602002015160006040518363ffffffff1660e01b81526004016114cf929190614ecb565b600060405180830381600087803b1580156114e957600080fd5b505af11580156114fd573d6000803e3d6000fd5b505050505b60008160026003811061153e577f4e487b7100000000000000000000000000000000000000000000000000000000600052603260045260246000fd5b602002015160006005811061157c577f4e487b7100000000000000000000000000000000000000000000000000000000600052603260045260246000fd5b6020020151511461165657600560009054906101000a900473ffffffffffffffffffffffffffffffffffffffff1673ffffffffffffffffffffffffffffffffffffffff16634df34bb3826002600381106115ff577f4e487b7100000000000000000000000000000000000000000000000000000000600052603260045260246000fd5b602002015160006040518363ffffffff1660e01b8152600401611623929190614ecb565b600060405180830381600087803b15801561163d57600080fd5b505af1158015611651573d6000803e3d6000fd5b505050505b5050505b600082600360158110611696577f4e487b7100000000000000000000000000000000000000000000000000000000600052603260045260246000fd5b60200201511461189b5760008067ffffffffffffffff8111156116e2577f4e487b7100000000000000000000000000000000000000000000000000000000600052604160045260246000fd5b6040519080825280602002602001820160405280156117105781602001602082028036833780820191505090505b509050600073__$8b1a9a3b6813947be4374081ea9c64093b$__635d01c9988c878760036040518563ffffffff1660e01b815260040161175394939291906151de565b60006040518083038186803b15801561176b57600080fd5b505af415801561177f573d6000803e3d6000fd5b505050506040513d6000823e3d601f19601f820116820180604052508101906117a89190613d3f565b509050600660009054906101000a900473ffffffffffffffffffffffffffffffffffffffff1673ffffffffffffffffffffffffffffffffffffffff16635dd9077e826040518060800160405280600081526020016000815260200160008152602001600081525060016040518060400160405280888152602001888152506040518563ffffffff1660e01b81526004016118459493929190614e78565b606060405180830381600087803b15801561185f57600080fd5b505af1158015611873573d6000803e3d6000fd5b505050506040513d601f19601f820116820180604052508101906118979190613ed2565b5050505b6000826004601581106118d7577f4e487b7100000000000000000000000000000000000000000000000000000000600052603260045260246000fd5b602002015114611a0557600073__$8b1a9a3b6813947be4374081ea9c64093b$__63da8065ec85856040518363ffffffff1660e01b815260040161191c929190614e00565b60006040518083038186803b15801561193457600080fd5b505af4158015611948573d6000803e3d6000fd5b505050506040513d6000823e3d601f19601f820116820180604052508101906119719190613e12565b9050600760009054906101000a900473ffffffffffffffffffffffffffffffffffffffff1673ffffffffffffffffffffffffffffffffffffffff16634d729ec78260006040518363ffffffff1660e01b81526004016119d1929190615009565b600060405180830381600087803b1580156119eb57600080fd5b505af11580156119ff573d6000803e3d6000fd5b50505050505b600082600560158110611a41577f4e487b7100000000000000000000000000000000000000000000000000000000600052603260045260246000fd5b602002015114611bc15760008073__$8b1a9a3b6813947be4374081ea9c64093b$__635d01c9988c878760056040518563ffffffff1660e01b8152600401611a8c9493929190615233565b60006040518083038186803b158015611aa457600080fd5b505af4158015611ab8573d6000803e3d6000fd5b505050506040513d6000823e3d601f19601f82011682018060405250810190611ae19190613d3f565b91509150600660009054906101000a900473ffffffffffffffffffffffffffffffffffffffff1673ffffffffffffffffffffffffffffffffffffffff16635dd9077e83604051806080016040528060008152602001600081526020016000815260200160008152506000856040518563ffffffff1660e01b8152600401611b6b9493929190614e78565b606060405180830381600087803b158015611b8557600080fd5b505af1158015611b99573d6000803e3d6000fd5b505050506040513d601f19601f82011682018060405250810190611bbd9190613ed2565b5050505b600082600660158110611bfd577f4e487b7100000000000000000000000000000000000000000000000000000000600052603260045260246000fd5b602002015114611d2d57600073__$bc0fdd3d50fca8e2388bb8b2c736c8b69a$__630fdee46b8b86866040518463ffffffff1660e01b8152600401611c4493929190615198565b60006040518083038186803b158015611c5c57600080fd5b505af4158015611c70573d6000803e3d6000fd5b505050506040513d6000823e3d601f19601f82011682018060405250810190611c999190613e12565b9050600660009054906101000a900473ffffffffffffffffffffffffffffffffffffffff1673ffffffffffffffffffffffffffffffffffffffff166342210e708260006040518363ffffffff1660e01b8152600401611cf9929190615009565b600060405180830381600087803b158015611d1357600080fd5b505af1158015611d27573d6000803e3d6000fd5b50505050505b600082600760158110611d69577f4e487b7100000000000000000000000000000000000000000000000000000000600052603260045260246000fd5b602002015114611e9957600073__$bc0fdd3d50fca8e2388bb8b2c736c8b69a$__63b675d6d98b86866040518463ffffffff1660e01b8152600401611db093929190615198565b60006040518083038186803b158015611dc857600080fd5b505af4158015611ddc573d6000803e3d6000fd5b505050506040513d6000823e3d601f19601f82011682018060405250810190611e059190613e12565b9050600760009054906101000a900473ffffffffffffffffffffffffffffffffffffffff1673ffffffffffffffffffffffffffffffffffffffff1663f572c0368260006040518363ffffffff1660e01b8152600401611e65929190615009565b600060405180830381600087803b158015611e7f57600080fd5b505af1158015611e93573d6000803e3d6000fd5b50505050505b80600060038110611ed3577f4e487b7100000000000000000000000000000000000000000000000000000000600052603260045260246000fd5b602002015115611f6f57600560009054906101000a900473ffffffffffffffffffffffffffffffffffffffff1673ffffffffffffffffffffffffffffffffffffffff1663da3f9bf884848a6040518463ffffffff1660e01b8152600401611f3c93929190614e31565b600060405180830381600087803b158015611f5657600080fd5b505af1158015611f6a573d6000803e3d6000fd5b505050505b80600260038110611fa9577f4e487b7100000000000000000000000000000000000000000000000000000000600052603260045260246000fd5b6020020151156120d657600073__$bc0fdd3d50fca8e2388bb8b2c736c8b69a$__63ce5bd7f585856040518363ffffffff1660e01b8152600401611fee929190614e00565b60006040518083038186803b15801561200657600080fd5b505af415801561201a573d6000803e3d6000fd5b505050506040513d6000823e3d601f19601f820116820180604052508101906120439190613bcf565b9050600a60009054906101000a900473ffffffffffffffffffffffffffffffffffffffff1673ffffffffffffffffffffffffffffffffffffffff1663221ec36882856040518363ffffffff1660e01b81526004016120a2929190614d0f565b600060405180830381600087803b1580156120bc57600080fd5b505af11580156120d0573d6000803e3d6000fd5b50505050505b505050505050505050565b60606120eb612e89565b73__$ccab4b824cb48649c7bbfeac646fb6cb19$__63f460f8e886600287876040518563ffffffff1660e01b81526004016121299493929190615374565b60006040518083038186803b15801561214157600080fd5b505af4158015612155573d6000803e3d6000fd5b505050506040513d6000823e3d601f19601f8201168201806040525081019061217e9190613c92565b91509150935093915050565b60603360011515600160008373ffffffffffffffffffffffffffffffffffffffff1673ffffffffffffffffffffffffffffffffffffffff16815260200190815260200160002060009054906101000a900460ff161515146121ea57600080fd5b73__$ccab4b824cb48649c7bbfeac646fb6cb19$__63f7edbe648460026040518363ffffffff1660e01b8152600401612224929190615344565b60006040518083038186803b15801561223c57600080fd5b505af4158015612250573d6000803e3d6000fd5b505050506040513d6000823e3d601f19601f820116820180604052508101906122799190613c51565b915050919050565b606073__$ccab4b824cb48649c7bbfeac646fb6cb19$__63ee3ffd5f846002856040518463ffffffff1660e01b81526004016122bf939291906154fd565b60006040518083038186803b1580156122d757600080fd5b505af41580156122eb573d6000803e3d6000fd5b505050506040513d6000823e3d601f19601f820116820180604052508101906123149190613e53565b905092915050565b7f000000000000000000000000000000000000000000000000000000000000000073ffffffffffffffffffffffffffffffffffffffff163373ffffffffffffffffffffffffffffffffffffffff16148015612382575060008054906101000a900460ff16155b61238b57600080fd5b60016000806101000a81548160ff02191690831515021790555060005b60078110156124585760018060008684600781106123ef577f4e487b7100000000000000000000000000000000000000000000000000000000600052603260045260246000fd5b602002015173ffffffffffffffffffffffffffffffffffffffff1673ffffffffffffffffffffffffffffffffffffffff16815260200190815260200160002060006101000a81548160ff021916908315150217905550808061245090615d54565b9150506123a8565b5082600160078110612493577f4e487b7100000000000000000000000000000000000000000000000000000000600052603260045260246000fd5b6020020151600a60006101000a81548173ffffffffffffffffffffffffffffffffffffffff021916908373ffffffffffffffffffffffffffffffffffffffff16021790555082600060078110612512577f4e487b7100000000000000000000000000000000000000000000000000000000600052603260045260246000fd5b6020020151600960006101000a81548173ffffffffffffffffffffffffffffffffffffffff021916908373ffffffffffffffffffffffffffffffffffffffff16021790555082600260078110612591577f4e487b7100000000000000000000000000000000000000000000000000000000600052603260045260246000fd5b6020020151600560006101000a81548173ffffffffffffffffffffffffffffffffffffffff021916908373ffffffffffffffffffffffffffffffffffffffff16021790555082600460078110612610577f4e487b7100000000000000000000000000000000000000000000000000000000600052603260045260246000fd5b6020020151600860006101000a81548173ffffffffffffffffffffffffffffffffffffffff021916908373ffffffffffffffffffffffffffffffffffffffff1602179055508260056007811061268f577f4e487b7100000000000000000000000000000000000000000000000000000000600052603260045260246000fd5b6020020151600660006101000a81548173ffffffffffffffffffffffffffffffffffffffff021916908373ffffffffffffffffffffffffffffffffffffffff1602179055508260066007811061270e577f4e487b7100000000000000000000000000000000000000000000000000000000600052603260045260246000fd5b6020020151600760006101000a81548173ffffffffffffffffffffffffffffffffffffffff021916908373ffffffffffffffffffffffffffffffffffffffff16021790555073__$ccab4b824cb48649c7bbfeac646fb6cb19$__634b640ce6838360026040518463ffffffff1660e01b815260040161278f93929190614dbb565b60006040518083038186803b1580156127a757600080fd5b505af41580156127bb573d6000803e3d6000fd5b50505050505050565b60606000601e85146127d75760166127da565b60145b60ff16905073__$2c5481ac3a53d4f4da52c7594a1c0a4117$__632391c553888686856040518563ffffffff1660e01b815260040161281c94939291906150d7565b60006040518083038186803b15801561283457600080fd5b505af4158015612848573d6000803e3d6000fd5b505050506040513d6000823e3d601f19601f820116820180604052508101906128719190613e53565b915073__$ccab4b824cb48649c7bbfeac646fb6cb19$__63d9ad21ce83600289896040518563ffffffff1660e01b81526004016128b1949392919061505b565b60006040518083038186803b1580156128c957600080fd5b505af41580156128dd573d6000803e3d6000fd5b505050505095945050505050565b600060026000016000858152602001908152602001600020600060018152602001908152602001600020905060008073__$ccab4b824cb48649c7bbfeac646fb6cb19$__6364399b0d600288876040518463ffffffff1660e01b8152600401612956939291906154c6565b604080518083038186803b15801561296d57600080fd5b505af4158015612981573d6000803e3d6000fd5b505050506040513d601f19601f820116820180604052508101906129a591906141f3565b915091506000600284600080815260200190815260200160002054149050600860009054906101000a900473ffffffffffffffffffffffffffffffffffffffff1673ffffffffffffffffffffffffffffffffffffffff166381cd1b4b85600060058152602001908152602001600020548a848b88886040518763ffffffff1660e01b8152600401612a3b969594939291906155a9565b600060405180830381600087803b158015612a5557600080fd5b505af1158015612a69573d6000803e3d6000fd5b5050505060006002600001600086600060058152602001908152602001600020548152602001908152602001600020600060018152602001908152602001600020905060008160006004815260200190815260200160002054141580612ae357506000816000600a81526020019081526020016000205414155b15612d4c576000600660009054906101000a900473ffffffffffffffffffffffffffffffffffffffff1673ffffffffffffffffffffffffffffffffffffffff1663c59983b86040518163ffffffff1660e01b815260040160206040518083038186803b158015612b5257600080fd5b505afa158015612b66573d6000803e3d6000fd5b505050506040513d601f19601f82011682018060405250810190612b8a919061418e565b9050600073__$f27e79961c3433e31ab5fa1d53780be647$__6365fe24ab60026000016000600281526020019081526020016000206000600181526020019081526020016000206000601781526020019081526020016000205484604051806060016040528088600060048152602001908152602001600020548152602001886000600a815260200190815260200160002054815260200188600060258152602001908152602001600020548152508d6040518563ffffffff1660e01b8152600401612c59949392919061555d565b60006040518083038186803b158015612c7157600080fd5b505af4158015612c85573d6000803e3d6000fd5b505050506040513d6000823e3d601f19601f82011682018060405250810190612cae9190613cfe565b9050600760009054906101000a900473ffffffffffffffffffffffffffffffffffffffff1673ffffffffffffffffffffffffffffffffffffffff16636228251b828d8d60018060016040518763ffffffff1660e01b8152600401612d1796959493929190614fa1565b600060405180830381600087803b158015612d3157600080fd5b505af1158015612d45573d6000803e3d6000fd5b5050505050505b6001856000808152602001908152602001600020541415612e1b57600a60009054906101000a900473ffffffffffffffffffffffffffffffffffffffff1673ffffffffffffffffffffffffffffffffffffffff16632e807c9d866000600981526020019081526020016000205487600060058152602001908152602001600020546040518363ffffffff1660e01b8152600401612dea929190615534565b60006040518083038186803b158015612e0257600080fd5b505afa158015612e16573d6000803e3d6000fd5b505050505b846000808152602001908152602001600020548886600060058152602001908152602001600020547fd13b7e2eabd02f4dbc1780c7d1f308a13aa0847100c5ea782274bfd5c7821ad98c4243604051612e769392919061560a565b60405180910390a4505050505050505050565b60405180608001604052806004905b6060815260200190600190039081612e985790505090565b6000612ec3612ebe84615775565b615750565b90508082856020860282011115612ed957600080fd5b60005b85811015612f095781612eef8882613791565b845260208401935060208301925050600181019050612edc565b5050509392505050565b6000612f26612f218461579b565b615750565b90508082856020860282011115612f3c57600080fd5b60005b85811015612f8657815167ffffffffffffffff811115612f5e57600080fd5b808601612f6b8982613932565b85526020850194506020840193505050600181019050612f3f565b5050509392505050565b6000612fa3612f9e846157c1565b615750565b90508082856020860282011115612fb957600080fd5b60005b8581101561300357815167ffffffffffffffff811115612fdb57600080fd5b808601612fe88982613932565b85526020850194506020840193505050600181019050612fbc565b5050509392505050565b600061302061301b846157e7565b615750565b9050808285602086028201111561303657600080fd5b60005b8581101561308057813567ffffffffffffffff81111561305857600080fd5b8086016130658982613980565b85526020850194506020840193505050600181019050613039565b5050509392505050565b600061309d613098846157e7565b615750565b905080828560208602820111156130b357600080fd5b60005b858110156130fd57815167ffffffffffffffff8111156130d557600080fd5b8086016130e289826139aa565b855260208501945060208401935050506001810190506130b6565b5050509392505050565b600061311a6131158461580d565b615750565b9050808382526020820190508285602086028201111561313957600080fd5b60005b8581101561318357813567ffffffffffffffff81111561315b57600080fd5b8086016131688982613980565b8552602085019450602084019350505060018101905061313c565b5050509392505050565b60006131a061319b8461580d565b615750565b905080838252602082019050828560208602820111156131bf57600080fd5b60005b8581101561320957815167ffffffffffffffff8111156131e157600080fd5b8086016131ee89826139aa565b855260208501945060208401935050506001810190506131c2565b5050509392505050565b600061322661322184615839565b615750565b9050808285602086028201111561323c57600080fd5b60005b8581101561328657815167ffffffffffffffff81111561325e57600080fd5b80860161326b8982613a73565b8552602085019450602084019350505060018101905061323f565b5050509392505050565b60006132a361329e8461585f565b615750565b905080828560208602820111156132b957600080fd5b60005b8581101561330357815167ffffffffffffffff8111156132db57600080fd5b8086016132e88982613a73565b855260208501945060208401935050506001810190506132bc565b5050509392505050565b600061332061331b84615885565b615750565b9050808285602086028201111561333657600080fd5b60005b8581101561338057813567ffffffffffffffff81111561335857600080fd5b8086016133658982613a49565b85526020850194506020840193505050600181019050613339565b5050509392505050565b600061339d61339884615885565b615750565b905080828560208602820111156133b357600080fd5b60005b858110156133fd57815167ffffffffffffffff8111156133d557600080fd5b8086016133e28982613a73565b855260208501945060208401935050506001810190506133b6565b5050509392505050565b600061341a613415846158ab565b615750565b9050808285602086028201111561343057600080fd5b60005b8581101561347a57815167ffffffffffffffff81111561345257600080fd5b80860161345f8982613a73565b85526020850194506020840193505050600181019050613433565b5050509392505050565b6000613497613492846158d1565b615750565b905080838252602082019050828560208602820111156134b657600080fd5b60005b8581101561350057813567ffffffffffffffff8111156134d857600080fd5b8086016134e58982613a49565b855260208501945060208401935050506001810190506134b9565b5050509392505050565b600061351d613518846158d1565b615750565b9050808382526020820190508285602086028201111561353c57600080fd5b60005b8581101561358657815167ffffffffffffffff81111561355e57600080fd5b80860161356b8982613a73565b8552602085019450602084019350505060018101905061353f565b5050509392505050565b60006135a361359e846158fd565b615750565b905080828560208602820111156135b957600080fd5b60005b858110156135e957816135cf8882613ab2565b8452602084019350602083019250506001810190506135bc565b5050509392505050565b600061360661360184615923565b615750565b9050808285602086028201111561361c57600080fd5b60005b8581101561364c57816136328882613af8565b84526020840193506020830192505060018101905061361f565b5050509392505050565b600061366961366484615949565b615750565b9050808285602086028201111561367f57600080fd5b60005b858110156136af57816136958882613af8565b845260208401935060208301925050600181019050613682565b5050509392505050565b60006136cc6136c78461596f565b615750565b905080838252602082019050828560208602820111156136eb57600080fd5b60005b8581101561371b57816137018882613ae3565b8452602084019350602083019250506001810190506136ee565b5050509392505050565b60006137386137338461596f565b615750565b9050808382526020820190508285602086028201111561375757600080fd5b60005b85811015613787578161376d8882613af8565b84526020840193506020830192505060018101905061375a565b5050509392505050565b6000813590506137a081615e0c565b92915050565b600082601f8301126137b757600080fd5b60076137c4848285612eb0565b91505092915050565b600082601f8301126137de57600080fd5b60036137eb848285612f13565b91505092915050565b600082601f83011261380557600080fd5b6005613812848285612f90565b91505092915050565b600082601f83011261382c57600080fd5b600261383984828561300d565b91505092915050565b600082601f83011261385357600080fd5b600261386084828561308a565b91505092915050565b600082601f83011261387a57600080fd5b813561388a848260208601613107565b91505092915050565b600082601f8301126138a457600080fd5b81516138b484826020860161318d565b91505092915050565b600082601f8301126138ce57600080fd5b60026138db848285613213565b91505092915050565b600082601f8301126138f557600080fd5b6004613902848285613290565b91505092915050565b600082601f83011261391c57600080fd5b600561392984828561330d565b91505092915050565b600082601f83011261394357600080fd5b600561395084828561338a565b91505092915050565b600082601f83011261396a57600080fd5b6006613977848285613407565b91505092915050565b600082601f83011261399157600080fd5b81356139a1848260208601613484565b91505092915050565b600082601f8301126139bb57600080fd5b81516139cb84826020860161350a565b91505092915050565b600082601f8301126139e557600080fd5b60036139f2848285613590565b91505092915050565b600082601f830112613a0c57600080fd5b6015613a198482856135f3565b91505092915050565b600082601f830112613a3357600080fd5b6003613a40848285613656565b91505092915050565b600082601f830112613a5a57600080fd5b8135613a6a8482602086016136b9565b91505092915050565b600082601f830112613a8457600080fd5b8151613a94848260208601613725565b91505092915050565b600081359050613aac81615e23565b92915050565b600081519050613ac181615e23565b92915050565b60006101a08284031215613ada57600080fd5b81905092915050565b600081359050613af281615e3a565b92915050565b600081519050613b0781615e3a565b92915050565b60008060006101208486031215613b2357600080fd5b6000613b31868287016137a6565b93505060e084013567ffffffffffffffff811115613b4e57600080fd5b613b5a86828701613869565b92505061010084013567ffffffffffffffff811115613b7857600080fd5b613b8486828701613980565b9150509250925092565b600060208284031215613ba057600080fd5b600082015167ffffffffffffffff811115613bba57600080fd5b613bc6848285016137cd565b91505092915050565b600060208284031215613be157600080fd5b600082015167ffffffffffffffff811115613bfb57600080fd5b613c07848285016137f4565b91505092915050565b600060208284031215613c2257600080fd5b600082015167ffffffffffffffff811115613c3c57600080fd5b613c4884828501613842565b91505092915050565b600060208284031215613c6357600080fd5b600082015167ffffffffffffffff811115613c7d57600080fd5b613c8984828501613893565b91505092915050565b60008060408385031215613ca557600080fd5b600083015167ffffffffffffffff811115613cbf57600080fd5b613ccb85828601613893565b925050602083015167ffffffffffffffff811115613ce857600080fd5b613cf4858286016138e4565b9150509250929050565b600060208284031215613d1057600080fd5b600082015167ffffffffffffffff811115613d2a57600080fd5b613d3684828501613932565b91505092915050565b60008060408385031215613d5257600080fd5b600083015167ffffffffffffffff811115613d6c57600080fd5b613d7885828601613932565b925050602083015167ffffffffffffffff811115613d9557600080fd5b613da1858286016138bd565b9150509250929050565b600080600060608486031215613dc057600080fd5b600084013567ffffffffffffffff811115613dda57600080fd5b613de68682870161390b565b9350506020613df786828701613ae3565b9250506040613e0886828701613ae3565b9150509250925092565b600060208284031215613e2457600080fd5b600082015167ffffffffffffffff811115613e3e57600080fd5b613e4a84828501613959565b91505092915050565b600060208284031215613e6557600080fd5b600082015167ffffffffffffffff811115613e7f57600080fd5b613e8b848285016139aa565b91505092915050565b6000806103008385031215613ea857600080fd5b6000613eb6858286016139fb565b9250506102a0613ec8858286016139d4565b9150509250929050565b600060608284031215613ee457600080fd5b6000613ef284828501613a22565b91505092915050565b600060208284031215613f0d57600080fd5b600082013567ffffffffffffffff811115613f2757600080fd5b613f3384828501613a49565b91505092915050565b600060208284031215613f4e57600080fd5b600082015167ffffffffffffffff811115613f6857600080fd5b613f7484828501613a73565b91505092915050565b600080600060608486031215613f9257600080fd5b600084013567ffffffffffffffff811115613fac57600080fd5b613fb886828701613a49565b935050602084013567ffffffffffffffff811115613fd557600080fd5b613fe186828701613a49565b9250506040613ff286828701613ae3565b9150509250925092565b6000806040838503121561400f57600080fd5b600083013567ffffffffffffffff81111561402957600080fd5b61403585828601613a49565b925050602061404685828601613a9d565b9150509250929050565b6000806000806080858703121561406657600080fd5b600085013567ffffffffffffffff81111561408057600080fd5b61408c87828801613a49565b945050602061409d87828801613ae3565b935050604085013567ffffffffffffffff8111156140ba57600080fd5b6140c687828801613980565b925050606085013567ffffffffffffffff8111156140e357600080fd5b6140ef8782880161381b565b91505092959194509250565b60006020828403121561410d57600080fd5b600061411b84828501613a9d565b91505092915050565b60006020828403121561413657600080fd5b600061414484828501613ab2565b91505092915050565b60006020828403121561415f57600080fd5b600082013567ffffffffffffffff81111561417957600080fd5b61418584828501613ac7565b91505092915050565b6000602082840312156141a057600080fd5b60006141ae84828501613af8565b91505092915050565b600080604083850312156141ca57600080fd5b60006141d885828601613ae3565b92505060206141e985828601613a9d565b9150509250929050565b6000806040838503121561420657600080fd5b600061421485828601613af8565b925050602061422585828601613af8565b9150509250929050565b600061423b83836145f6565b905092915050565b600061424f83836147ca565b905092915050565b60006142638383614929565b905092915050565b60006142778383614afa565b905092915050565b600061428b8383614c14565b905092915050565b600061429f8383614cd3565b60208301905092915050565b60006142b78383614d00565b60208301905092915050565b60006142ce82615a25565b6142d88185615b45565b9350836020820285016142ea8561599b565b8060005b858110156143265784840389528151614307858261422f565b945061431283615aa9565b925060208a019950506001810190506142ee565b50829750879550505050505092915050565b600061434382615a30565b61434d8185615b50565b93508360208202850161435f856159a5565b8060005b8581101561439b578484038952815161437c8582614243565b945061438783615ab6565b925060208a01995050600181019050614363565b50829750879550505050505092915050565b60006143b882615a30565b6143c28185615b5b565b9350836020820285016143d4856159a5565b8060005b8581101561441057848403895281516143f18582614257565b94506143fc83615ab6565b925060208a019950506001810190506143d8565b50829750879550505050505092915050565b600061442d82615a3b565b6144378185615b66565b935083602082028501614449856159af565b8060005b8581101561448557848403895281516144668582614243565b945061447183615ac3565b925060208a0199505060018101905061444d565b50829750879550505050505092915050565b60006144a282615a3b565b6144ac8185615b77565b9350836020820285016144be856159af565b8060005b858110156144fa57848403895281516144db8582614257565b94506144e683615ac3565b925060208a019950506001810190506144c2565b50829750879550505050505092915050565b600061451782615a46565b6145218185615b88565b935083602082028501614533856159bf565b8060005b8581101561456f5784840389528151614550858261426b565b945061455b83615ad0565b925060208a01995050600181019050614537565b50829750879550505050505092915050565b600061458c82615a51565b6145968185615b93565b9350836020820285016145a8856159c9565b8060005b858110156145e457848403895281516145c5858261426b565b94506145d083615add565b925060208a019950506001810190506145ac565b50829750879550505050505092915050565b600061460182615a5c565b61460b8185615b9e565b93508360208202850161461d856159d3565b8060005b85811015614659578484038952815161463a858261426b565b945061464583615aea565b925060208a01995050600181019050614621565b50829750879550505050505092915050565b600061467682615a5c565b6146808185615ba9565b935083602082028501614692856159d3565b8060005b858110156146ce57848403895281516146af858261426b565b94506146ba83615aea565b925060208a01995050600181019050614696565b50829750879550505050505092915050565b60006146eb82615a5c565b6146f58185615bb4565b935083602082028501614707856159d3565b8060005b858110156147435784840389528151614724858261427f565b945061472f83615aea565b925060208a0199505060018101905061470b565b50829750879550505050505092915050565b600061476082615a67565b61476a8185615bbf565b93508360208202850161477c856159dd565b8060005b858110156147b85784840389528151614799858261426b565b94506147a483615af7565b925060208a01995050600181019050614780565b50829750879550505050505092915050565b60006147d582615a72565b6147df8185615bca565b9350836020820285016147f1856159e7565b8060005b8581101561482d578484038952815161480e858261426b565b945061481983615b04565b925060208a019950506001810190506147f5565b50829750879550505050505092915050565b600061484a82615a72565b6148548185615bdb565b935083602082028501614866856159e7565b8060005b858110156148a25784840389528151614883858261426b565b945061488e83615b04565b925060208a0199505060018101905061486a565b50829750879550505050505092915050565b60006148bf82615a72565b6148c98185615bec565b9350836020820285016148db856159e7565b8060005b8581101561491757848403895281516148f8858261427f565b945061490383615b04565b925060208a019950506001810190506148df565b50829750879550505050505092915050565b600061493482615a72565b61493e8185615bfd565b935083602082028501614950856159e7565b8060005b8581101561498c578484038952815161496d858261427f565b945061497883615b04565b925060208a01995050600181019050614954565b50829750879550505050505092915050565b6149a781615a7d565b6149b18184615c0e565b92506149bc826159f7565b8060005b838110156149ed5781516149d48782614293565b96506149df83615b11565b9250506001810190506149c0565b505050505050565b6149fe81615a7d565b614a088184615c19565b9250614a13826159f7565b8060005b83811015614a44578151614a2b87826142ab565b9650614a3683615b11565b925050600181019050614a17565b505050505050565b614a5581615a88565b614a5f8184615c24565b9250614a6a82615a01565b8060005b83811015614a9b578151614a8287826142ab565b9650614a8d83615b1e565b925050600181019050614a6e565b505050505050565b614aac81615a93565b614ab68184615c2f565b9250614ac182615a0b565b8060005b83811015614af2578151614ad98782614293565b9650614ae483615b2b565b925050600181019050614ac5565b505050505050565b6000614b0582615a9e565b614b0f8185615c3a565b9350614b1a83615a15565b8060005b83811015614b4b578151614b328882614293565b9750614b3d83615b38565b925050600181019050614b1e565b5085935050505092915050565b6000614b6382615a9e565b614b6d8185615c4b565b9350614b7883615a15565b8060005b83811015614ba9578151614b908882614293565b9750614b9b83615b38565b925050600181019050614b7c565b5085935050505092915050565b6000614bc182615a9e565b614bcb8185615c5c565b9350614bd683615a15565b8060005b83811015614c07578151614bee88826142ab565b9750614bf983615b38565b925050600181019050614bda565b5085935050505092915050565b6000614c1f82615a9e565b614c298185615c6d565b9350614c3483615a15565b8060005b83811015614c65578151614c4c88826142ab565b9750614c5783615b38565b925050600181019050614c38565b5085935050505092915050565b614c7b81615c90565b82525050565b614c8a81615c90565b82525050565b614c9981615cdb565b82525050565b614ca881615ced565b82525050565b614cb781615cff565b82525050565b614cc681615d11565b82525050565b8082525050565b614cdc81615cbc565b82525050565b614ceb81615cbc565b82525050565b614cfa81615cbc565b82525050565b614d0981615cbc565b82525050565b60006102c0820190508181036000830152614d2a81856142c3565b9050614d39602083018461499e565b9392505050565b60006020820190508181036000830152614d5a8184614497565b905092915050565b60006020820190508181036000830152614d7c8184614422565b905092915050565b60006040820190508181036000830152614d9e8185614422565b90508181036020830152614db28184614581565b90509392505050565b60006060820190508181036000830152614dd58186614497565b90508181036020830152614de981856148b4565b9050614df86040830184614ccc565b949350505050565b60006102c0820190508181036000830152614e1b8185614497565b9050614e2a60208301846149f5565b9392505050565b60006102e0820190508181036000830152614e4c8186614422565b9050614e5b602083018561499e565b8181036102c0830152614e6e818461483f565b9050949350505050565b600060e0820190508181036000830152614e92818761466b565b9050614ea16020830186614aa3565b614eae60a0830185614c72565b81810360c0830152614ec0818461450c565b905095945050505050565b60006040820190508181036000830152614ee5818561466b565b9050614ef46020830184614c90565b9392505050565b600060c0820190508181036000830152614f15818961466b565b9050614f246020830188614c90565b614f316040830187614c90565b614f3e6060830186614c72565b614f4b6080830185614c72565b614f5860a0830184614c9f565b979650505050505050565b60006060820190508181036000830152614f7d81866146e0565b9050614f8c6020830185614ccc565b614f996040830184614cf1565b949350505050565b600060c0820190508181036000830152614fbb818961466b565b9050614fca6020830188614ce2565b614fd76040830187614ce2565b614fe46060830186614c72565b614ff16080830185614c72565b614ffe60a0830184614c9f565b979650505050505050565b600060408201905081810360008301526150238185614755565b90506150326020830184614c90565b9392505050565b60006020820190508181036000830152615053818461483f565b905092915050565b6000608082019050818103600083015261507581876148b4565b90506150846020830186614ccc565b6150916040830185614cf1565b61509e6060830184614cf1565b95945050505050565b600060408201905081810360008301526150c181856148b4565b90506150d06020830184614cf1565b9392505050565b600060808201905081810360008301526150f181876148b4565b90506151006020830186614cf1565b81810360408301526151128185614bb6565b90506151216060830184614cf1565b95945050505050565b600060208201905081810360008301526151448184614b58565b905092915050565b600060608201905081810360008301526151668186614b58565b9050818103602083015261517a8185614422565b9050818103604083015261518e8184614338565b9050949350505050565b60006102e08201905081810360008301526151b38186614bb6565b905081810360208301526151c78185614497565b90506151d660408301846149f5565b949350505050565b60006103008201905081810360008301526151f98187614bb6565b9050818103602083015261520d8186614497565b905061521c60408301856149f5565b61522a6102e0830184614cae565b95945050505050565b600061030082019050818103600083015261524e8187614bb6565b905081810360208301526152628186614497565b905061527160408301856149f5565b61527f6102e0830184614cbd565b95945050505050565b600060608201905081810360008301526152a28186614bb6565b905081810360208301526152b68185614497565b905081810360408301526152ca8184614bb6565b9050949350505050565b60006103208201905081810360008301526152ef8188614bb6565b905081810360208301526153038187614497565b905081810360408301526153178186614bb6565b9050818103606083015261532b81856143ad565b905061533a60808301846149f5565b9695505050505050565b6000604082019050818103600083015261535e8185614bb6565b905061536d6020830184614ccc565b9392505050565b6000608082019050818103600083015261538e8187614bb6565b905061539d6020830186614ccc565b81810360408301526153af8185614bb6565b90506153be6060830184614cf1565b95945050505050565b600060608201905081810360008301526153e18186614bb6565b90506153f06020830185614ccc565b6153fd6040830184614c81565b949350505050565b6000604082019050818103600083015261541f8185614b58565b905061542e6020830184614ce2565b9392505050565b600060c082019050818103600083015261544f8187614bb6565b905061545e6020830186614cf1565b61546b6040830185614a4c565b81810360a083015261547d8184614bb6565b905095945050505050565b600060608201905081810360008301526154a28186614b58565b90506154b16020830185614ce2565b6154be6040830184614ce2565b949350505050565b60006060820190506154db6000830186614ccc565b6154e86020830185614cf1565b6154f56040830184614c81565b949350505050565b60006060820190506155126000830186614cf1565b61551f6020830185614ccc565b61552c6040830184614c81565b949350505050565b60006040820190506155496000830185614ce2565b6155566020830184614ce2565b9392505050565b600060c0820190506155726000830187614cf1565b61557f6020830186614cf1565b61558c6040830185614a4c565b81810360a083015261559e81846148b4565b905095945050505050565b600060c0820190506155be6000830189614ce2565b6155cb6020830188614ce2565b6155d86040830187614c72565b6155e56060830186614ce2565b6155f26080830185614ce2565b6155ff60a0830184614ce2565b979650505050505050565b600060608201905061561f6000830186614ce2565b61562c6020830185614ce2565b6156396040830184614ce2565b949350505050565b600060c0820190506156566000830189614ce2565b6156636020830188614ce2565b6156706040830187614ce2565b61567d6060830186614ce2565b61568a6080830185614ce2565b61569760a0830184614ce2565b979650505050505050565b600080833560016020038436030381126156bb57600080fd5b80840192508235915067ffffffffffffffff8211156156d957600080fd5b6020830192506020820236038313156156f157600080fd5b509250929050565b6000808335600160200384360303811261571257600080fd5b80840192508235915067ffffffffffffffff82111561573057600080fd5b60208301925060208202360383131561574857600080fd5b509250929050565b600061575a61576b565b90506157668282615d23565b919050565b6000604051905090565b600067ffffffffffffffff8211156157905761578f615dcc565b5b602082029050919050565b600067ffffffffffffffff8211156157b6576157b5615dcc565b5b602082029050919050565b600067ffffffffffffffff8211156157dc576157db615dcc565b5b602082029050919050565b600067ffffffffffffffff82111561580257615801615dcc565b5b602082029050919050565b600067ffffffffffffffff82111561582857615827615dcc565b5b602082029050602081019050919050565b600067ffffffffffffffff82111561585457615853615dcc565b5b602082029050919050565b600067ffffffffffffffff82111561587a57615879615dcc565b5b602082029050919050565b600067ffffffffffffffff8211156158a05761589f615dcc565b5b602082029050919050565b600067ffffffffffffffff8211156158c6576158c5615dcc565b5b602082029050919050565b600067ffffffffffffffff8211156158ec576158eb615dcc565b5b602082029050602081019050919050565b600067ffffffffffffffff82111561591857615917615dcc565b5b602082029050919050565b600067ffffffffffffffff82111561593e5761593d615dcc565b5b602082029050919050565b600067ffffffffffffffff82111561596457615963615dcc565b5b602082029050919050565b600067ffffffffffffffff82111561598a57615989615dcc565b5b602082029050602081019050919050565b6000819050919050565b6000819050919050565b6000819050602082019050919050565b6000819050919050565b6000819050919050565b6000819050919050565b6000819050919050565b6000819050602082019050919050565b6000819050919050565b6000819050919050565b6000819050919050565b6000819050602082019050919050565b600060059050919050565b600060029050919050565b600081519050919050565b600060029050919050565b600060049050919050565b600060059050919050565b600060069050919050565b600081519050919050565b600060159050919050565b600060039050919050565b600060049050919050565b600081519050919050565b6000602082019050919050565b6000602082019050919050565b6000602082019050919050565b6000602082019050919050565b6000602082019050919050565b6000602082019050919050565b6000602082019050919050565b6000602082019050919050565b6000602082019050919050565b6000602082019050919050565b6000602082019050919050565b6000602082019050919050565b600081905092915050565b600081905092915050565b600081905092915050565b600082825260208201905092915050565b600082825260208201905092915050565b600081905092915050565b600081905092915050565b600081905092915050565b600081905092915050565b600081905092915050565b600081905092915050565b600082825260208201905092915050565b600082825260208201905092915050565b600082825260208201905092915050565b600082825260208201905092915050565b600081905092915050565b600081905092915050565b600081905092915050565b600081905092915050565b600082825260208201905092915050565b600082825260208201905092915050565b600082825260208201905092915050565b600082825260208201905092915050565b6000615c8982615c9c565b9050919050565b60008115159050919050565b600073ffffffffffffffffffffffffffffffffffffffff82169050919050565b6000819050919050565b6000615cd3368484613484565b905092915050565b6000615ce682615cbc565b9050919050565b6000615cf882615cbc565b9050919050565b6000615d0a82615cbc565b9050919050565b6000615d1c82615cbc565b9050919050565b615d2c82615dfb565b810181811067ffffffffffffffff82111715615d4b57615d4a615dcc565b5b80604052505050565b6000615d5f82615cbc565b91507fffffffffffffffffffffffffffffffffffffffffffffffffffffffffffffffff821415615d9257615d91615d9d565b5b600182019050919050565b7f4e487b7100000000000000000000000000000000000000000000000000000000600052601160045260246000fd5b7f4e487b7100000000000000000000000000000000000000000000000000000000600052604160045260246000fd5b6000601f19601f8301169050919050565b615e1581615c7e565b8114615e2057600080fd5b50565b615e2c81615c90565b8114615e3757600080fd5b50565b615e4381615cbc565b8114615e4e57600080fd5b5056fea26469706673582212207392660e488102e70c1a2de885ea2d6869d63b7c91f33a8c5d813c649172babc64736f6c63430008040033",
  "linkReferences": {
    "contracts/E5D/E3.sol": {
      "E3": [
        {
          "length": 20,
          "start": 4680
        }
      ]
    },
    "contracts/E5D/E32.sol": {
      "E32": [
        {
          "length": 20,
          "start": 10528
        }
      ]
    },
    "contracts/E5D/E33.sol": {
      "E33": [
        {
          "length": 20,
          "start": 3002
        },
        {
          "length": 20,
          "start": 11471
        }
      ]
    },
    "contracts/F5D/F32.sol": {
      "F32": [
        {
          "length": 20,
          "start": 7498
        },
        {
          "length": 20,
          "start": 7862
        },
        {
          "length": 20,
          "start": 8438
        }
      ]
    },
    "contracts/G5D/G3.sol": {
      "G3": [
        {
          "length": 20,
          "start": 1061
        },
        {
          "length": 20,
          "start": 2245
        },
        {
          "length": 20,
          "start": 3324
        },
        {
          "length": 20,
          "start": 8748
        },
        {
          "length": 20,
          "start": 9003
        },
        {
          "length": 20,
          "start": 9156
        },
        {
          "length": 20,
          "start": 10388
        },
        {
          "length": 20,
          "start": 10676
        },
        {
          "length": 20,
          "start": 10843
        }
      ]
    },
    "contracts/G5D/G33.sol": {
      "G33": [
        {
          "length": 20,
          "start": 4301
        },
        {
          "length": 20,
          "start": 5004
        },
        {
          "length": 20,
          "start": 6230
        },
        {
          "length": 20,
          "start": 6692
        },
        {
          "length": 20,
          "start": 7055
        }
      ]
    }
  },
  "deployedLinkReferences": {
    "contracts/E5D/E3.sol": {
      "E3": [
        {
          "length": 20,
          "start": 4361
        }
      ]
    },
    "contracts/E5D/E32.sol": {
      "E32": [
        {
          "length": 20,
          "start": 10209
        }
      ]
    },
    "contracts/E5D/E33.sol": {
      "E33": [
        {
          "length": 20,
          "start": 2683
        },
        {
          "length": 20,
          "start": 11152
        }
      ]
    },
    "contracts/F5D/F32.sol": {
      "F32": [
        {
          "length": 20,
          "start": 7179
        },
        {
          "length": 20,
          "start": 7543
        },
        {
          "length": 20,
          "start": 8119
        }
      ]
    },
    "contracts/G5D/G3.sol": {
      "G3": [
        {
          "length": 20,
          "start": 742
        },
        {
          "length": 20,
          "start": 1926
        },
        {
          "length": 20,
          "start": 3005
        },
        {
          "length": 20,
          "start": 8429
        },
        {
          "length": 20,
          "start": 8684
        },
        {
          "length": 20,
          "start": 8837
        },
        {
          "length": 20,
          "start": 10069
        },
        {
          "length": 20,
          "start": 10357
        },
        {
          "length": 20,
          "start": 10524
        }
      ]
    },
    "contracts/G5D/G33.sol": {
      "G33": [
        {
          "length": 20,
          "start": 3982
        },
        {
          "length": 20,
          "start": 4685
        },
        {
          "length": 20,
          "start": 5911
        },
        {
          "length": 20,
          "start": 6373
        },
        {
          "length": 20,
          "start": 6736
        }
      ]
    }
  }
}