{
  "_format": "hh-sol-artifact-1",
  "contractName": "G52",
  "sourceName": "contracts/G5D/G52.sol",
  "abi": [
    {
      "inputs": [
        {
          "internalType": "address",
          "name": "p1",
          "type": "address"
        }
      ],
      "stateMutability": "nonpayable",
      "type": "constructor"
    },
    {
      "anonymous": false,
      "inputs": [
        {
          "indexed": true,
          "internalType": "uint256",
          "name": "p1",
          "type": "uint256"
        },
        {
          "indexed": true,
          "internalType": "uint256",
          "name": "p2",
          "type": "uint256"
        },
        {
          "indexed": true,
          "internalType": "uint256",
          "name": "p3",
          "type": "uint256"
        },
        {
          "indexed": false,
          "internalType": "uint256",
          "name": "p4",
          "type": "uint256"
        },
        {
          "indexed": false,
          "internalType": "uint256",
          "name": "p5",
          "type": "uint256"
        },
        {
          "indexed": false,
          "internalType": "uint256",
          "name": "p6",
          "type": "uint256"
        }
      ],
      "name": "e1",
      "type": "event"
    },
    {
      "anonymous": false,
      "inputs": [
        {
          "indexed": true,
          "internalType": "uint256",
          "name": "p1",
          "type": "uint256"
        },
        {
          "indexed": true,
          "internalType": "uint256",
          "name": "p2",
          "type": "uint256"
        },
        {
          "indexed": true,
          "internalType": "uint256",
          "name": "p3",
          "type": "uint256"
        },
        {
          "indexed": false,
          "internalType": "uint256",
          "name": "p4",
          "type": "uint256"
        },
        {
          "indexed": false,
          "internalType": "uint256",
          "name": "p5",
          "type": "uint256"
        },
        {
          "indexed": false,
          "internalType": "uint256",
          "name": "p6",
          "type": "uint256"
        },
        {
          "indexed": false,
          "internalType": "uint256",
          "name": "p7",
          "type": "uint256"
        }
      ],
      "name": "e2",
      "type": "event"
    },
    {
      "anonymous": false,
      "inputs": [
        {
          "indexed": true,
          "internalType": "uint256",
          "name": "p1",
          "type": "uint256"
        },
        {
          "indexed": true,
          "internalType": "uint256",
          "name": "p2",
          "type": "uint256"
        },
        {
          "indexed": false,
          "internalType": "uint256",
          "name": "p3",
          "type": "uint256"
        },
        {
          "indexed": false,
          "internalType": "uint256",
          "name": "p4",
          "type": "uint256"
        }
      ],
      "name": "e3",
      "type": "event"
    },
    {
      "anonymous": false,
      "inputs": [
        {
          "indexed": true,
          "internalType": "uint256",
          "name": "p1",
          "type": "uint256"
        },
        {
          "indexed": true,
          "internalType": "uint256",
          "name": "p2",
          "type": "uint256"
        },
        {
          "indexed": false,
          "internalType": "uint256",
          "name": "p3",
          "type": "uint256"
        },
        {
          "indexed": false,
          "internalType": "uint256",
          "name": "p4",
          "type": "uint256"
        }
      ],
      "name": "e6",
      "type": "event"
    },
    {
      "inputs": [
        {
          "internalType": "address[7]",
          "name": "p1",
          "type": "address[7]"
        }
      ],
      "name": "f161",
      "outputs": [],
      "stateMutability": "nonpayable",
      "type": "function"
    },
    {
      "inputs": [
        {
          "components": [
            {
              "internalType": "uint256",
              "name": "sv1",
              "type": "uint256"
            },
            {
              "internalType": "bool",
              "name": "sv2",
              "type": "bool"
            },
            {
              "internalType": "uint256[]",
              "name": "sv3",
              "type": "uint256[]"
            },
            {
              "internalType": "uint256[][]",
              "name": "sv4",
              "type": "uint256[][]"
            },
            {
              "internalType": "address[]",
              "name": "sv5",
              "type": "address[]"
            },
            {
              "internalType": "string[][]",
              "name": "sv6",
              "type": "string[][]"
            },
            {
              "internalType": "uint256",
              "name": "t",
              "type": "uint256"
            },
            {
              "internalType": "uint256",
              "name": "sv7",
              "type": "uint256"
            },
            {
              "internalType": "uint256",
              "name": "sv8",
              "type": "uint256"
            },
            {
              "internalType": "uint256[2]",
              "name": "sv9",
              "type": "uint256[2]"
            },
            {
              "internalType": "bool",
              "name": "sv10",
              "type": "bool"
            },
            {
              "internalType": "uint256[]",
              "name": "sv11",
              "type": "uint256[]"
            }
          ],
          "internalType": "struct E3.TD",
          "name": "p1",
          "type": "tuple"
        }
      ],
      "name": "f189",
      "outputs": [
        {
          "internalType": "uint256",
          "name": "v3",
          "type": "uint256"
        }
      ],
      "stateMutability": "nonpayable",
      "type": "function"
    },
    {
      "inputs": [
        {
          "internalType": "uint256",
          "name": "p1",
          "type": "uint256"
        },
        {
          "internalType": "uint256",
          "name": "p2",
          "type": "uint256"
        },
        {
          "internalType": "bool",
          "name": "p3",
          "type": "bool"
        },
        {
          "internalType": "uint256",
          "name": "p4",
          "type": "uint256"
        },
        {
          "internalType": "uint256",
          "name": "p5",
          "type": "uint256"
        },
        {
          "internalType": "uint256",
          "name": "p6",
          "type": "uint256"
        }
      ],
      "name": "f194",
      "outputs": [],
      "stateMutability": "nonpayable",
      "type": "function"
    },
    {
      "inputs": [
        {
          "internalType": "uint256[]",
          "name": "p1",
          "type": "uint256[]"
        },
        {
          "internalType": "uint256[][][]",
          "name": "p2",
          "type": "uint256[][][]"
        },
        {
          "internalType": "uint256[][][2]",
          "name": "p3",
          "type": "uint256[][][2]"
        }
      ],
      "name": "f201",
      "outputs": [
        {
          "internalType": "uint256[21]",
          "name": "v2",
          "type": "uint256[21]"
        },
        {
          "internalType": "bool[3]",
          "name": "v3",
          "type": "bool[3]"
        }
      ],
      "stateMutability": "nonpayable",
      "type": "function"
    },
    {
      "inputs": [
        {
          "internalType": "uint256[]",
          "name": "p1",
          "type": "uint256[]"
        },
        {
          "internalType": "uint256[][]",
          "name": "p2",
          "type": "uint256[][]"
        }
      ],
      "name": "f237",
      "outputs": [
        {
          "internalType": "uint256[][]",
          "name": "v1",
          "type": "uint256[][]"
        }
      ],
      "stateMutability": "view",
      "type": "function"
    },
    {
      "inputs": [
        {
          "internalType": "uint256[]",
          "name": "p1",
          "type": "uint256[]"
        },
        {
          "internalType": "uint256[][]",
          "name": "p2",
          "type": "uint256[][]"
        },
        {
          "internalType": "uint256",
          "name": "p3",
          "type": "uint256"
        }
      ],
      "name": "f266",
      "outputs": [
        {
          "internalType": "uint256[][]",
          "name": "v1",
          "type": "uint256[][]"
        }
      ],
      "stateMutability": "view",
      "type": "function"
    }
  ],
  "bytecode": "0x60a060405260008060006101000a81548160ff0219169083151502179055503480156200002b57600080fd5b5060405162005e8b38038062005e8b8339818101604052810190620000519190620000a6565b8073ffffffffffffffffffffffffffffffffffffffff1660808173ffffffffffffffffffffffffffffffffffffffff1660601b815250505062000120565b600081519050620000a08162000106565b92915050565b600060208284031215620000b957600080fd5b6000620000c9848285016200008f565b91505092915050565b6000620000df82620000e6565b9050919050565b600073ffffffffffffffffffffffffffffffffffffffff82169050919050565b6200011181620000d2565b81146200011d57600080fd5b50565b60805160601c615d4c6200013f60003960006107c30152615d4c6000f3fe608060405234801561001057600080fd5b50600436106100625760003560e01c806322de72fc146100675780632db07d31146100975780633d49ba56146100b357806381cd1b4b146100e45780638aeb92dc14610100578063cf228dc914610130575b600080fd5b610081600480360381019061007c9190613e32565b610160565b60405161008e91906152a2565b60405180910390f35b6100b160048036038101906100ac919061396c565b6107c1565b005b6100cd60048036038101906100c89190613c5a565b610c5d565b6040516100db929190614e5d565b60405180910390f35b6100fe60048036038101906100f99190613e73565b610fa9565b005b61011a60048036038101906101159190613cf1565b611084565b6040516101279190614e3b565b60405180910390f35b61014a60048036038101906101459190613d61565b6113e6565b6040516101579190614e3b565b60405180910390f35b60003360011515600160008373ffffffffffffffffffffffffffffffffffffffff1673ffffffffffffffffffffffffffffffffffffffff16815260200190815260200160002060009054906101000a900460ff161515146101c057600080fd5b60008380606001906101d291906153d1565b600081811061020a577f4e487b7100000000000000000000000000000000000000000000000000000000600052603260045260246000fd5b905060200281019061021c9190615428565b6001818110610254577f4e487b7100000000000000000000000000000000000000000000000000000000600052603260045260246000fd5b905060200201359050600084806060019061026f91906153d1565b60008181106102a7577f4e487b7100000000000000000000000000000000000000000000000000000000600052603260045260246000fd5b90506020028101906102b99190615428565b60008181106102f1577f4e487b7100000000000000000000000000000000000000000000000000000000600052603260045260246000fd5b9050602002013590506175308114156107b957600073__$7b11637b326fa12a30ce8fbc20da0b2192$__63779712f1876040518263ffffffff1660e01b815260040161033d9190615280565b60006040518083038186803b15801561035557600080fd5b505af4158015610369573d6000803e3d6000fd5b505050506040513d6000823e3d601f19601f820116820180604052508101906103929190613b05565b905060038314156103f3576103ac818760000135856115ba565b806000600581106103e6577f4e487b7100000000000000000000000000000000000000000000000000000000600052603260045260246000fd5b60200201515194506107b7565b600483141561063657600073__$2c5481ac3a53d4f4da52c7594a1c0a4117$__63f967c32b88806060019061042891906153d1565b85600060058110610462577f4e487b7100000000000000000000000000000000000000000000000000000000600052603260045260246000fd5b602002015160048c80604001906104799190615428565b8e600001356040518863ffffffff1660e01b81526004016104a09796959493929190614bc8565b60006040518083038186803b1580156104b857600080fd5b505af41580156104cc573d6000803e3d6000fd5b505050506040513d6000823e3d601f19601f820116820180604052508101906104f591906139d6565b905061063082600060058110610534577f4e487b7100000000000000000000000000000000000000000000000000000000600052603260045260246000fd5b6020020151886000013589806060019061054e91906153d1565b6003818110610586577f4e487b7100000000000000000000000000000000000000000000000000000000600052603260045260246000fd5b90506020028101906105989190615428565b80806020026020016040519081016040528093929190818152602001838360200280828437600081840152601f19601f820116905080830192505050505050508a60200160208101906105eb9190613de0565b8587600260058110610626577f4e487b7100000000000000000000000000000000000000000000000000000000600052603260045260246000fd5b6020020151612032565b506107b6565b600b8314806106455750601283145b1561065e57610659818760000135856115ba565b6107b5565b600e83141561067b57610676818760000135856115ba565b6107b4565b600f8314156107b357600073__$2c5481ac3a53d4f4da52c7594a1c0a4117$__63d426cb6b8880606001906106b091906153d1565b856000600581106106ea577f4e487b7100000000000000000000000000000000000000000000000000000000600052603260045260246000fd5b60200201516040518463ffffffff1660e01b815260040161070d93929190614b8f565b60006040518083038186803b15801561072557600080fd5b505af4158015610739573d6000803e3d6000fd5b505050506040513d6000823e3d601f19601f820116820180604052508101906107629190613a17565b90506107b1826000600581106107a1577f4e487b7100000000000000000000000000000000000000000000000000000000600052603260045260246000fd5b60200201518289600001356126fc565b505b5b5b5b5b505b505050919050565b7f000000000000000000000000000000000000000000000000000000000000000073ffffffffffffffffffffffffffffffffffffffff163373ffffffffffffffffffffffffffffffffffffffff16148015610827575060008054906101000a900460ff16155b61083057600080fd5b60016000806101000a81548160ff02191690831515021790555060005b600781101561090b576001806000848460078110610894577f4e487b7100000000000000000000000000000000000000000000000000000000600052603260045260246000fd5b6020020160208101906108a79190613943565b73ffffffffffffffffffffffffffffffffffffffff1673ffffffffffffffffffffffffffffffffffffffff16815260200190815260200160002060006101000a81548160ff021916908315150217905550808061090390615c19565b91505061084d565b5080600160078110610946577f4e487b7100000000000000000000000000000000000000000000000000000000600052603260045260246000fd5b6020020160208101906109599190613943565b600a60006101000a81548173ffffffffffffffffffffffffffffffffffffffff021916908373ffffffffffffffffffffffffffffffffffffffff160217905550806000600781106109d3577f4e487b7100000000000000000000000000000000000000000000000000000000600052603260045260246000fd5b6020020160208101906109e69190613943565b600960006101000a81548173ffffffffffffffffffffffffffffffffffffffff021916908373ffffffffffffffffffffffffffffffffffffffff16021790555080600260078110610a60577f4e487b7100000000000000000000000000000000000000000000000000000000600052603260045260246000fd5b602002016020810190610a739190613943565b600660006101000a81548173ffffffffffffffffffffffffffffffffffffffff021916908373ffffffffffffffffffffffffffffffffffffffff16021790555080600360078110610aed577f4e487b7100000000000000000000000000000000000000000000000000000000600052603260045260246000fd5b602002016020810190610b009190613943565b600560006101000a81548173ffffffffffffffffffffffffffffffffffffffff021916908373ffffffffffffffffffffffffffffffffffffffff16021790555080600560078110610b7a577f4e487b7100000000000000000000000000000000000000000000000000000000600052603260045260246000fd5b602002016020810190610b8d9190613943565b600760006101000a81548173ffffffffffffffffffffffffffffffffffffffff021916908373ffffffffffffffffffffffffffffffffffffffff16021790555080600660078110610c07577f4e487b7100000000000000000000000000000000000000000000000000000000600052603260045260246000fd5b602002016020810190610c1a9190613943565b600860006101000a81548173ffffffffffffffffffffffffffffffffffffffff021916908373ffffffffffffffffffffffffffffffffffffffff16021790555050565b610c65612ea3565b610c6d612ec6565b3360011515600160008373ffffffffffffffffffffffffffffffffffffffff1673ffffffffffffffffffffffffffffffffffffffff16815260200190815260200160002060009054906101000a900460ff16151514610ccb57600080fd5b73__$575cfbbfd6486060ea1497d0fbc931c5ab$__63bb96f207878760026040518463ffffffff1660e01b8152600401610d0793929190614eaa565b6103006040518083038186803b158015610d2057600080fd5b505af4158015610d34573d6000803e3d6000fd5b505050506040513d601f19601f82011682018060405250810190610d589190613bdb565b809350819450505081600160038110610d9a577f4e487b7100000000000000000000000000000000000000000000000000000000600052603260045260246000fd5b602002015115610e4357600073__$bc0fdd3d50fca8e2388bb8b2c736c8b69a$__638c0da41087866040518363ffffffff1660e01b8152600401610ddf929190614b5e565b60006040518083038186803b158015610df757600080fd5b505af4158015610e0b573d6000803e3d6000fd5b505050506040513d6000823e3d601f19601f82011682018060405250810190610e349190613995565b9050610e41848287612a8b565b505b60005b8651811015610f9f57858181518110610e88577f4e487b7100000000000000000000000000000000000000000000000000000000600052603260045260246000fd5b6020026020010151600181518110610ec9577f4e487b7100000000000000000000000000000000000000000000000000000000600052603260045260246000fd5b6020026020010151600581518110610f0a577f4e487b7100000000000000000000000000000000000000000000000000000000600052603260045260246000fd5b6020026020010151878281518110610f4b577f4e487b7100000000000000000000000000000000000000000000000000000000600052603260045260246000fd5b60200260200101517fa46482b81c1a0d65e2c94037160e7f8310b688898a11779fbebf0abbe12cbc514243604051610f849291906152bd565b60405180910390a38080610f9790615c19565b915050610e46565b5050935093915050565b3360011515600160008373ffffffffffffffffffffffffffffffffffffffff1673ffffffffffffffffffffffffffffffffffffffff16815260200190815260200160002060009054906101000a900460ff1615151461100757600080fd5b73__$575cfbbfd6486060ea1497d0fbc931c5ab$__631b62ce2988888888886002896040518863ffffffff1660e01b815260040161104b97969594939291906152e6565b60006040518083038186803b15801561106357600080fd5b505af4158015611077573d6000803e3d6000fd5b5050505050505050505050565b6060835167ffffffffffffffff8111156110c7577f4e487b7100000000000000000000000000000000000000000000000000000000600052604160045260246000fd5b6040519080825280602002602001820160405280156110fa57816020015b60608152602001906001900390816110e55790505b50905060005b84518110156113de576000848483818110611144577f4e487b7100000000000000000000000000000000000000000000000000000000600052603260045260246000fd5b90506020028101906111569190615428565b9050905060008167ffffffffffffffff81111561119c577f4e487b7100000000000000000000000000000000000000000000000000000000600052604160045260246000fd5b6040519080825280602002602001820160405280156111ca5781602001602082028036833780820191505090505b50905060005b868685818110611209577f4e487b7100000000000000000000000000000000000000000000000000000000600052603260045260246000fd5b905060200281019061121b9190615428565b90508110156113835760006002800160008a8781518110611265577f4e487b7100000000000000000000000000000000000000000000000000000000600052603260045260246000fd5b6020026020010151815260200190815260200160002060006003815260200190815260200160002090508060008989888181106112cb577f4e487b7100000000000000000000000000000000000000000000000000000000600052603260045260246000fd5b90506020028101906112dd9190615428565b85818110611314577f4e487b7100000000000000000000000000000000000000000000000000000000600052603260045260246000fd5b90506020020135815260200190815260200160002054838381518110611363577f4e487b7100000000000000000000000000000000000000000000000000000000600052603260045260246000fd5b60200260200101818152505050808061137b90615c19565b9150506111d0565b50808484815181106113be577f4e487b7100000000000000000000000000000000000000000000000000000000600052603260045260246000fd5b6020026020010181905250505080806113d690615c19565b915050611100565b509392505050565b6060600582141561151d57600073__$575cfbbfd6486060ea1497d0fbc931c5ab$__63ffecd2718686600060026040518563ffffffff1660e01b81526004016114329493929190614fa3565b60006040518083038186803b15801561144a57600080fd5b505af415801561145e573d6000803e3d6000fd5b505050506040513d6000823e3d601f19601f820116820180604052508101906114879190613b46565b905073__$bc0fdd3d50fca8e2388bb8b2c736c8b69a$__638db56e96826040518263ffffffff1660e01b81526004016114c09190614e19565b60006040518083038186803b1580156114d857600080fd5b505af41580156114ec573d6000803e3d6000fd5b505050506040513d6000823e3d601f19601f820116820180604052508101906115159190613b46565b9150506115b3565b73__$575cfbbfd6486060ea1497d0fbc931c5ab$__63ffecd27185858560026040518563ffffffff1660e01b815260040161155b9493929190614ff6565b60006040518083038186803b15801561157357600080fd5b505af4158015611587573d6000803e3d6000fd5b505050506040513d6000823e3d601f19601f820116820180604052508101906115b09190613b46565b90505b9392505050565b6000600560009054906101000a900473ffffffffffffffffffffffffffffffffffffffff1673ffffffffffffffffffffffffffffffffffffffff16631986d42585600060058110611634577f4e487b7100000000000000000000000000000000000000000000000000000000600052603260045260246000fd5b602002015160006040518363ffffffff1660e01b8152600401611658929190615181565b60006040518083038186803b15801561167057600080fd5b505afa158015611684573d6000803e3d6000fd5b505050506040513d6000823e3d601f19601f820116820180604052508101906116ad9190613a58565b90506003821415611a4a57600a60009054906101000a900473ffffffffffffffffffffffffffffffffffffffff1673ffffffffffffffffffffffffffffffffffffffff16632508c1ba85600060058110611730577f4e487b7100000000000000000000000000000000000000000000000000000000600052603260045260246000fd5b60200201518660026005811061176f577f4e487b7100000000000000000000000000000000000000000000000000000000600052603260045260246000fd5b6020020151866040518463ffffffff1660e01b81526004016117939392919061513c565b60006040518083038186803b1580156117ab57600080fd5b505afa1580156117bf573d6000803e3d6000fd5b505050506040513d6000823e3d601f19601f820116820180604052508101906117e89190613c19565b84600460058110611822577f4e487b7100000000000000000000000000000000000000000000000000000000600052603260045260246000fd5b602002018190525073__$575cfbbfd6486060ea1497d0fbc931c5ab$__63a0f8b4cd85856002856040518563ffffffff1660e01b81526004016118689493929190614d65565b60006040518083038186803b15801561188057600080fd5b505af4158015611894573d6000803e3d6000fd5b50505050600073__$8b1a9a3b6813947be4374081ea9c64093b$__636d2afbd3866000600581106118ee577f4e487b7100000000000000000000000000000000000000000000000000000000600052603260045260246000fd5b602002015184878960026005811061192f577f4e487b7100000000000000000000000000000000000000000000000000000000600052603260045260246000fd5b60200201516040518563ffffffff1660e01b81526004016119539493929190614f49565b60006040518083038186803b15801561196b57600080fd5b505af415801561197f573d6000803e3d6000fd5b505050506040513d6000823e3d601f19601f820116820180604052508101906119a89190613b05565b9050600860009054906101000a900473ffffffffffffffffffffffffffffffffffffffff1673ffffffffffffffffffffffffffffffffffffffff16636228251b8260008060008060016040518763ffffffff1660e01b8152600401611a1296959493929190614c34565b600060405180830381600087803b158015611a2c57600080fd5b505af1158015611a40573d6000803e3d6000fd5b5050505050611d58565b600e821415611bd157600a60009054906101000a900473ffffffffffffffffffffffffffffffffffffffff1673ffffffffffffffffffffffffffffffffffffffff1663378b914b85600060058110611acb577f4e487b7100000000000000000000000000000000000000000000000000000000600052603260045260246000fd5b602002015186600260058110611b0a577f4e487b7100000000000000000000000000000000000000000000000000000000600052603260045260246000fd5b6020020151866040518463ffffffff1660e01b8152600401611b2e9392919061513c565b60006040518083038186803b158015611b4657600080fd5b505afa158015611b5a573d6000803e3d6000fd5b5050505073__$575cfbbfd6486060ea1497d0fbc931c5ab$__63fb4f658e85858460026040518563ffffffff1660e01b8152600401611b9c9493929190614c9c565b60006040518083038186803b158015611bb457600080fd5b505af4158015611bc8573d6000803e3d6000fd5b50505050611d57565b6012821415611ce657600a60009054906101000a900473ffffffffffffffffffffffffffffffffffffffff1673ffffffffffffffffffffffffffffffffffffffff1663f8d3a4b285600060058110611c52577f4e487b7100000000000000000000000000000000000000000000000000000000600052603260045260246000fd5b60200201518587600260058110611c92577f4e487b7100000000000000000000000000000000000000000000000000000000600052603260045260246000fd5b60200201516040518463ffffffff1660e01b8152600401611cb59392919061523b565b60006040518083038186803b158015611ccd57600080fd5b505afa158015611ce1573d6000803e3d6000fd5b505050505b73__$575cfbbfd6486060ea1497d0fbc931c5ab$__63b2c89c5c8585600285876040518663ffffffff1660e01b8152600401611d26959493929190614db8565b60006040518083038186803b158015611d3e57600080fd5b505af4158015611d52573d6000803e3d6000fd5b505050505b5b60005b84600060058110611d95577f4e487b7100000000000000000000000000000000000000000000000000000000600052603260045260246000fd5b60200201515181101561202b5760008490506000811415611e325785600260058110611dea577f4e487b7100000000000000000000000000000000000000000000000000000000600052603260045260246000fd5b60200201518281518110611e27577f4e487b7100000000000000000000000000000000000000000000000000000000600052603260045260246000fd5b602002602001015190505b60006003851480611e435750600e85145b15611eca5786600160058110611e82577f4e487b7100000000000000000000000000000000000000000000000000000000600052603260045260246000fd5b60200201518381518110611ebf577f4e487b7100000000000000000000000000000000000000000000000000000000600052603260045260246000fd5b602002602001015190505b60006012861415611f575787600360058110611f0f577f4e487b7100000000000000000000000000000000000000000000000000000000600052603260045260246000fd5b60200201518481518110611f4c577f4e487b7100000000000000000000000000000000000000000000000000000000600052603260045260246000fd5b602002602001015190505b858389600060058110611f93577f4e487b7100000000000000000000000000000000000000000000000000000000600052603260045260246000fd5b60200201518681518110611fd0577f4e487b7100000000000000000000000000000000000000000000000000000000600052603260045260246000fd5b60200260200101517fa095494d0526498663961c7fcf6d0f864cd7b2df5aa2520c38c9272097de3c668585434260405161200d949392919061538c565b60405180910390a4505050808061202390615c19565b915050611d5b565b5050505050565b600080600560009054906101000a900473ffffffffffffffffffffffffffffffffffffffff1673ffffffffffffffffffffffffffffffffffffffff166366ab442889858a6040518463ffffffff1660e01b81526004016120949392919061513c565b60006040518083038186803b1580156120ac57600080fd5b505afa1580156120c0573d6000803e3d6000fd5b505050506040513d6000823e3d601f19601f820116820180604052508101906120e99190613a99565b915091506000600860009054906101000a900473ffffffffffffffffffffffffffffffffffffffff1673ffffffffffffffffffffffffffffffffffffffff16635af72c5b83600160048110612167577f4e487b7100000000000000000000000000000000000000000000000000000000600052603260045260246000fd5b6020020151846003600481106121a6577f4e487b7100000000000000000000000000000000000000000000000000000000600052603260045260246000fd5b6020020151856002600481106121e5577f4e487b7100000000000000000000000000000000000000000000000000000000600052603260045260246000fd5b602002015160016040518563ffffffff1660e01b815260040161220b94939291906150e2565b60006040518083038186803b15801561222357600080fd5b505afa158015612237573d6000803e3d6000fd5b505050506040513d6000823e3d601f19601f820116820180604052508101906122609190613c19565b905060008073__$575cfbbfd6486060ea1497d0fbc931c5ab$__634d15921d6040518060a001604052808e81526020018c8152602001898152602001876001600481106122d6577f4e487b7100000000000000000000000000000000000000000000000000000000600052603260045260246000fd5b60200201518152602001868152508c8b8960028d600060028110612323577f4e487b7100000000000000000000000000000000000000000000000000000000600052603260045260246000fd5b60200201516040518763ffffffff1660e01b815260040161234996959493929190614cef565b60006040518083038186803b15801561236157600080fd5b505af4158015612375573d6000803e3d6000fd5b505050506040513d6000823e3d601f19601f8201168201806040525081019061239e9190613b87565b9150915060005b8b518110156125945760008b90506000811415612400578782815181106123f5577f4e487b7100000000000000000000000000000000000000000000000000000000600052603260045260246000fd5b602002602001015190505b808d838151811061243a577f4e487b7100000000000000000000000000000000000000000000000000000000600052603260045260246000fd5b602002602001015188848151811061247b577f4e487b7100000000000000000000000000000000000000000000000000000000600052603260045260246000fd5b60200260200101516001815181106124bc577f4e487b7100000000000000000000000000000000000000000000000000000000600052603260045260246000fd5b60200260200101516005815181106124fd577f4e487b7100000000000000000000000000000000000000000000000000000000600052603260045260246000fd5b60200260200101517fd13b7e2eabd02f4dbc1780c7d1f308a13aa0847100c5ea782274bfd5c7821ad98e868151811061255f577f4e487b7100000000000000000000000000000000000000000000000000000000600052603260045260246000fd5b6020026020010151424360405161257893929190615355565b60405180910390a450808061258c90615c19565b9150506123a5565b5080156126ef57600860009054906101000a900473ffffffffffffffffffffffffffffffffffffffff1673ffffffffffffffffffffffffffffffffffffffff16635d7810b58c8487600060048110612615577f4e487b7100000000000000000000000000000000000000000000000000000000600052603260045260246000fd5b60200201518e8c600060028110612655577f4e487b7100000000000000000000000000000000000000000000000000000000600052603260045260246000fd5b60200201518d600160028110612694577f4e487b7100000000000000000000000000000000000000000000000000000000600052603260045260246000fd5b60200201518d6040518863ffffffff1660e01b81526004016126bc9796959493929190615049565b600060405180830381600087803b1580156126d657600080fd5b505af11580156126ea573d6000803e3d6000fd5b505050505b5050505050505050505050565b600a60009054906101000a900473ffffffffffffffffffffffffffffffffffffffff1673ffffffffffffffffffffffffffffffffffffffff16632bb1ee1584836040518363ffffffff1660e01b81526004016127599291906151b1565b600060405180830381600087803b15801561277357600080fd5b505af1158015612787573d6000803e3d6000fd5b505050506000600560009054906101000a900473ffffffffffffffffffffffffffffffffffffffff1673ffffffffffffffffffffffffffffffffffffffff16637063d5c2856040518263ffffffff1660e01b81526004016127e89190614e88565b600060405180830381600087803b15801561280257600080fd5b505af1158015612816573d6000803e3d6000fd5b505050506040513d6000823e3d601f19601f8201168201806040525081019061283f9190613a58565b9050600073__$575cfbbfd6486060ea1497d0fbc931c5ab$__63ad8ff50686846002886040518563ffffffff1660e01b81526004016128819493929190614eef565b60206040518083038186803b15801561289957600080fd5b505af41580156128ad573d6000803e3d6000fd5b505050506040513d601f19601f820116820180604052508101906128d19190613e09565b905060005b855181101561296d5783868281518110612919577f4e487b7100000000000000000000000000000000000000000000000000000000600052603260045260246000fd5b60200260200101517f6139ad1cd33b827d61e9663a7f9e540bd860f04af3599ed5406709fd8eabe0b342436040516129529291906152bd565b60405180910390a3808061296590615c19565b9150506128d6565b508015612a8457600860009054906101000a900473ffffffffffffffffffffffffffffffffffffffff1673ffffffffffffffffffffffffffffffffffffffff1663f47ac2a88685876001600381106129ee577f4e487b7100000000000000000000000000000000000000000000000000000000600052603260045260246000fd5b602002015188600260038110612a2d577f4e487b7100000000000000000000000000000000000000000000000000000000600052603260045260246000fd5b60200201516040518563ffffffff1660e01b8152600401612a5194939291906151e1565b600060405180830381600087803b158015612a6b57600080fd5b505af1158015612a7f573d6000803e3d6000fd5b505050505b5050505050565b600083600b60158110612ac7577f4e487b7100000000000000000000000000000000000000000000000000000000600052603260045260246000fd5b602002015114612b1d57612b1c82600060058110612b0e577f4e487b7100000000000000000000000000000000000000000000000000000000600052603260045260246000fd5b6020020151600060036115ba565b5b600083600c60158110612b59577f4e487b7100000000000000000000000000000000000000000000000000000000600052603260045260246000fd5b602002015114612baf57612bae82600160058110612ba0577f4e487b7100000000000000000000000000000000000000000000000000000000600052603260045260246000fd5b60200201516000600e6115ba565b5b600083600d60158110612beb577f4e487b7100000000000000000000000000000000000000000000000000000000600052603260045260246000fd5b602002015114612d7a57612d7982600260058110612c32577f4e487b7100000000000000000000000000000000000000000000000000000000600052603260045260246000fd5b6020020151600060058110612c70577f4e487b7100000000000000000000000000000000000000000000000000000000600052603260045260246000fd5b6020020151600084600260058110612cb1577f4e487b7100000000000000000000000000000000000000000000000000000000600052603260045260246000fd5b6020020151600260058110612cef577f4e487b7100000000000000000000000000000000000000000000000000000000600052603260045260246000fd5b602002015160008587600260058110612d31577f4e487b7100000000000000000000000000000000000000000000000000000000600052603260045260246000fd5b6020020151600160058110612d6f577f4e487b7100000000000000000000000000000000000000000000000000000000600052603260045260246000fd5b6020020151612032565b5b600083600e60158110612db6577f4e487b7100000000000000000000000000000000000000000000000000000000600052603260045260246000fd5b602002015114612e0c57612e0b82600360058110612dfd577f4e487b7100000000000000000000000000000000000000000000000000000000600052603260045260246000fd5b60200201516000600b6115ba565b5b600083600f60158110612e48577f4e487b7100000000000000000000000000000000000000000000000000000000600052603260045260246000fd5b602002015114612e9e57612e9d82600460058110612e8f577f4e487b7100000000000000000000000000000000000000000000000000000000600052603260045260246000fd5b6020020151600060126115ba565b5b505050565b604051806102a00160405280601590602082028036833780820191505090505090565b6040518060600160405280600390602082028036833780820191505090505090565b6000612efb612ef6846154a4565b61547f565b90508082856020860282011115612f1157600080fd5b60005b85811015612f5b57815167ffffffffffffffff811115612f3357600080fd5b808601612f40898261378c565b85526020850194506020840193505050600181019050612f14565b5050509392505050565b6000612f78612f73846154ca565b61547f565b90508082856020860282011115612f8e57600080fd5b60005b85811015612fd857813567ffffffffffffffff811115612fb057600080fd5b808601612fbd89826137b3565b85526020850194506020840193505050600181019050612f91565b5050509392505050565b6000612ff5612ff0846154ca565b61547f565b9050808285602086028201111561300b57600080fd5b60005b8581101561305557815167ffffffffffffffff81111561302d57600080fd5b80860161303a89826137dd565b8552602085019450602084019350505060018101905061300e565b5050509392505050565b600061307261306d846154f0565b61547f565b9050808285602086028201111561308857600080fd5b60005b858110156130d257815167ffffffffffffffff8111156130aa57600080fd5b8086016130b789826137dd565b8552602085019450602084019350505060018101905061308b565b5050509392505050565b60006130ef6130ea84615516565b61547f565b9050808382526020820190508285602086028201111561310e57600080fd5b60005b8581101561315857813567ffffffffffffffff81111561313057600080fd5b80860161313d89826137b3565b85526020850194506020840193505050600181019050613111565b5050509392505050565b600061317561317084615516565b61547f565b9050808382526020820190508285602086028201111561319457600080fd5b60005b858110156131de57815167ffffffffffffffff8111156131b657600080fd5b8086016131c389826137dd565b85526020850194506020840193505050600181019050613197565b5050509392505050565b60006131fb6131f684615542565b61547f565b9050808285602086028201111561321157600080fd5b60005b8581101561325b57815167ffffffffffffffff81111561323357600080fd5b80860161324089826138a9565b85526020850194506020840193505050600181019050613214565b5050509392505050565b600061327861327384615568565b61547f565b9050808285602086028201111561328e57600080fd5b60005b858110156132d857815167ffffffffffffffff8111156132b057600080fd5b8086016132bd89826138a9565b85526020850194506020840193505050600181019050613291565b5050509392505050565b60006132f56132f08461558e565b61547f565b9050808382526020820190508285602086028201111561331457600080fd5b60005b8581101561335e57813567ffffffffffffffff81111561333657600080fd5b808601613343898261387f565b85526020850194506020840193505050600181019050613317565b5050509392505050565b600061337b6133768461558e565b61547f565b9050808382526020820190508285602086028201111561339a57600080fd5b60005b858110156133e457815167ffffffffffffffff8111156133bc57600080fd5b8086016133c989826138a9565b8552602085019450602084019350505060018101905061339d565b5050509392505050565b60006134016133fc846155ba565b61547f565b9050808285602086028201111561341757600080fd5b60005b85811015613447578161342d88826138e8565b84526020840193506020830192505060018101905061341a565b5050509392505050565b600061346461345f846155e0565b61547f565b9050808382526020820190508285602086028201111561348357600080fd5b60005b858110156134b3578161349988826138e8565b845260208401935060208301925050600181019050613486565b5050509392505050565b60006134d06134cb8461560c565b61547f565b905080828560208602820111156134e657600080fd5b60005b8581101561351657816134fc888261392e565b8452602084019350602083019250506001810190506134e9565b5050509392505050565b600061353361352e84615632565b61547f565b9050808382526020820190508285602086028201111561355257600080fd5b60005b8581101561358257816135688882613919565b845260208401935060208301925050600181019050613555565b5050509392505050565b600061359f61359a84615632565b61547f565b905080838252602082019050828560208602820111156135be57600080fd5b60005b858110156135ee57816135d4888261392e565b8452602084019350602083019250506001810190506135c1565b5050509392505050565b60008135905061360781615cd1565b92915050565b60008190508260206007028201111561362557600080fd5b92915050565b600082601f83011261363c57600080fd5b6005613649848285612ee8565b91505092915050565b600082601f83011261366357600080fd5b6002613670848285612f65565b91505092915050565b600082601f83011261368a57600080fd5b6002613697848285612fe2565b91505092915050565b600082601f8301126136b157600080fd5b60036136be84828561305f565b91505092915050565b600082601f8301126136d857600080fd5b81356136e88482602086016130dc565b91505092915050565b600082601f83011261370257600080fd5b8151613712848260208601613162565b91505092915050565b60008083601f84011261372d57600080fd5b8235905067ffffffffffffffff81111561374657600080fd5b60208301915083602082028301111561375e57600080fd5b9250929050565b600082601f83011261377657600080fd5b60046137838482856131e8565b91505092915050565b600082601f83011261379d57600080fd5b60056137aa848285613265565b91505092915050565b600082601f8301126137c457600080fd5b81356137d48482602086016132e2565b91505092915050565b600082601f8301126137ee57600080fd5b81516137fe848260208601613368565b91505092915050565b600082601f83011261381857600080fd5b60036138258482856133ee565b91505092915050565b600082601f83011261383f57600080fd5b815161384f848260208601613451565b91505092915050565b600082601f83011261386957600080fd5b60156138768482856134bd565b91505092915050565b600082601f83011261389057600080fd5b81356138a0848260208601613520565b91505092915050565b600082601f8301126138ba57600080fd5b81516138ca84826020860161358c565b91505092915050565b6000813590506138e281615ce8565b92915050565b6000815190506138f781615ce8565b92915050565b60006101a0828403121561391057600080fd5b81905092915050565b60008135905061392881615cff565b92915050565b60008151905061393d81615cff565b92915050565b60006020828403121561395557600080fd5b6000613963848285016135f8565b91505092915050565b600060e0828403121561397e57600080fd5b600061398c8482850161360d565b91505092915050565b6000602082840312156139a757600080fd5b600082015167ffffffffffffffff8111156139c157600080fd5b6139cd8482850161362b565b91505092915050565b6000602082840312156139e857600080fd5b600082015167ffffffffffffffff811115613a0257600080fd5b613a0e84828501613679565b91505092915050565b600060208284031215613a2957600080fd5b600082015167ffffffffffffffff811115613a4357600080fd5b613a4f848285016136a0565b91505092915050565b600060208284031215613a6a57600080fd5b600082015167ffffffffffffffff811115613a8457600080fd5b613a90848285016136f1565b91505092915050565b60008060408385031215613aac57600080fd5b600083015167ffffffffffffffff811115613ac657600080fd5b613ad2858286016136f1565b925050602083015167ffffffffffffffff811115613aef57600080fd5b613afb85828601613765565b9150509250929050565b600060208284031215613b1757600080fd5b600082015167ffffffffffffffff811115613b3157600080fd5b613b3d8482850161378c565b91505092915050565b600060208284031215613b5857600080fd5b600082015167ffffffffffffffff811115613b7257600080fd5b613b7e848285016137dd565b91505092915050565b60008060408385031215613b9a57600080fd5b600083015167ffffffffffffffff811115613bb457600080fd5b613bc08582860161382e565b9250506020613bd1858286016138e8565b9150509250929050565b6000806103008385031215613bef57600080fd5b6000613bfd85828601613858565b9250506102a0613c0f85828601613807565b9150509250929050565b600060208284031215613c2b57600080fd5b600082015167ffffffffffffffff811115613c4557600080fd5b613c51848285016138a9565b91505092915050565b600080600060608486031215613c6f57600080fd5b600084013567ffffffffffffffff811115613c8957600080fd5b613c958682870161387f565b935050602084013567ffffffffffffffff811115613cb257600080fd5b613cbe868287016136c7565b925050604084013567ffffffffffffffff811115613cdb57600080fd5b613ce786828701613652565b9150509250925092565b600080600060408486031215613d0657600080fd5b600084013567ffffffffffffffff811115613d2057600080fd5b613d2c8682870161387f565b935050602084013567ffffffffffffffff811115613d4957600080fd5b613d558682870161371b565b92509250509250925092565b600080600060608486031215613d7657600080fd5b600084013567ffffffffffffffff811115613d9057600080fd5b613d9c8682870161387f565b935050602084013567ffffffffffffffff811115613db957600080fd5b613dc5868287016137b3565b9250506040613dd686828701613919565b9150509250925092565b600060208284031215613df257600080fd5b6000613e00848285016138d3565b91505092915050565b600060208284031215613e1b57600080fd5b6000613e29848285016138e8565b91505092915050565b600060208284031215613e4457600080fd5b600082013567ffffffffffffffff811115613e5e57600080fd5b613e6a848285016138fd565b91505092915050565b60008060008060008060c08789031215613e8c57600080fd5b6000613e9a89828a01613919565b9650506020613eab89828a01613919565b9550506040613ebc89828a016138d3565b9450506060613ecd89828a01613919565b9350506080613ede89828a01613919565b92505060a0613eef89828a01613919565b9150509295509295509295565b6000613f088383613fda565b60208301905092915050565b6000613f208383614466565b905092915050565b6000613f35848484614590565b90509392505050565b6000613f4b84848461471c565b90509392505050565b6000613f608383614774565b905092915050565b6000613f74838361488e565b905092915050565b6000613f8883836148ec565b60208301905092915050565b6000613fa1848484614964565b90509392505050565b6000613fb68383614b22565b60208301905092915050565b6000613fce8383614b4f565b60208301905092915050565b613fe381615b5b565b82525050565b6000613ff583856157e2565b93506140008261565e565b8060005b85811015614039576140168284615901565b6140208882613efc565b975061402b83615746565b925050600181019050614004565b5085925050509392505050565b6000614051826156ee565b61405b81856157f3565b93508360208202850161406d85615668565b8060005b858110156140a9578484038952815161408a8582613f14565b945061409583615753565b925060208a01995050600181019050614071565b50829750879550505050505092915050565b60006140c6826156f9565b6140d081856157fe565b9350836020820285016140e285615672565b8060005b8581101561411e57848403895281516140ff8582613f14565b945061410a83615760565b925060208a019950506001810190506140e6565b50829750879550505050505092915050565b600061413c838561580f565b93508360208402850161414e84615682565b8060005b878110156141945784840389526141698284615a1d565b614174868284613f28565b955061417f8461576d565b935060208b019a505050600181019050614152565b50829750879450505050509392505050565b60006141b28385615847565b9350836020840285016141c48461568c565b8060005b8781101561420a5784840389526141df8284615a7f565b6141ea868284613f3e565b95506141f58461577a565b935060208b019a5050506001810190506141c8565b50829750879450505050509392505050565b60006142288385615858565b93508360208402850161423a8461568c565b8060005b878110156142805784840389526142558284615a7f565b614260868284613f3e565b955061426b8461577a565b935060208b019a50505060018101905061423e565b50829750879450505050509392505050565b600061429d82615704565b6142a78185615820565b9350836020820285016142b985615696565b8060005b858110156142f557848403895281516142d68582613f54565b94506142e183615787565b925060208a019950506001810190506142bd565b50829750879550505050505092915050565b600061431282615704565b61431c818561582b565b93508360208202850161432e85615696565b8060005b8581101561436a578484038952815161434b8582613f68565b945061435683615787565b925060208a01995050600181019050614332565b50829750879550505050505092915050565b60006143878261570f565b6143918185615836565b9350836020820285016143a3856156a0565b8060005b858110156143df57848403895281516143c08582613f54565b94506143cb83615794565b925060208a019950506001810190506143a7565b50829750879550505050505092915050565b60006143fc8261570f565b6144068185615847565b935083602082028501614418856156a0565b8060005b8581101561445457848403895281516144358582613f68565b945061444083615794565b925060208a0199505060018101905061441c565b50829750879550505050505092915050565b60006144718261570f565b61447b8185615858565b93508360208202850161448d856156a0565b8060005b858110156144c957848403895281516144aa8582613f68565b94506144b583615794565b925060208a01995050600181019050614491565b50829750879550505050505092915050565b6144e48161571a565b6144ee8184615869565b92506144f9826156b0565b8060005b8381101561452a5781516145118782613f7c565b965061451c836157a1565b9250506001810190506144fd565b505050505050565b600061453d82615725565b6145478185615874565b9350614552836156ba565b8060005b8381101561458357815161456a8882613f7c565b9750614575836157ae565b925050600181019050614556565b5085935050505092915050565b600061459c8385615885565b9350836020840285016145ae846156ca565b8060005b878110156145f45784840389526145c98284615aed565b6145d4868284613f94565b95506145df846157bb565b935060208b019a5050506001810190506145b2565b50829750879450505050509392505050565b61460f81615730565b6146198184615896565b9250614624826156d4565b8060005b8381101561465557815161463c8782613faa565b9650614647836157c8565b925050600181019050614628565b505050505050565b61466681615730565b61467081846158a1565b925061467b826156d4565b8060005b838110156146ac5781516146938782613fc2565b965061469e836157c8565b92505060018101905061467f565b505050505050565b6146c060408383615bd9565b5050565b60006146d083856158ce565b93507f07ffffffffffffffffffffffffffffffffffffffffffffffffffffffffffffff8311156146ff57600080fd5b602083029250614710838584615bd9565b82840190509392505050565b600061472883856158df565b93507f07ffffffffffffffffffffffffffffffffffffffffffffffffffffffffffffff83111561475757600080fd5b602083029250614768838584615bd9565b82840190509392505050565b600061477f8261573b565b61478981856158ac565b9350614794836156de565b8060005b838110156147c55781516147ac8882613faa565b97506147b7836157d5565b925050600181019050614798565b5085935050505092915050565b60006147dd8261573b565b6147e781856158bd565b93506147f2836156de565b8060005b8381101561482357815161480a8882613faa565b9750614815836157d5565b9250506001810190506147f6565b5085935050505092915050565b600061483b8261573b565b61484581856158ce565b9350614850836156de565b8060005b838110156148815781516148688882613fc2565b9750614873836157d5565b925050600181019050614854565b5085935050505092915050565b60006148998261573b565b6148a381856158df565b93506148ae836156de565b8060005b838110156148df5781516148c68882613fc2565b97506148d1836157d5565b9250506001810190506148b2565b5085935050505092915050565b6148f581615b6d565b82525050565b61490481615b6d565b82525050565b61491381615b6d565b82525050565b61492281615b6d565b82525050565b61493181615ba3565b82525050565b61494081615ba3565b82525050565b61494f81615bb5565b82525050565b61495e81615bc7565b82525050565b600061497083856158f0565b935061497d838584615bd9565b61498683615cc0565b840190509392505050565b8082525050565b60006101a083016149ac6000840184615b44565b6149b96000860182614b4f565b506149c76020840184615ad6565b6149d46020860182614919565b506149e26040840184615a7f565b85830360408701526149f583828461471c565b92505050614a0660608401846159c6565b8583036060870152614a1983828461421c565b92505050614a2a6080840184615918565b8583036080870152614a3d838284613fe9565b92505050614a4e60a084018461596f565b85830360a0870152614a61838284614130565b92505050614a7260c0840184615b44565b614a7f60c0860182614b4f565b50614a8d60e0840184615b44565b614a9a60e0860182614b4f565b50614aa9610100840184615b44565b614ab7610100860182614b4f565b50614ac6610120840184615a74565b614ad46101208601826146b4565b50614ae3610160840184615ad6565b614af1610160860182614919565b50614b00610180840184615a7f565b858303610180870152614b1483828461471c565b925050508091505092915050565b614b2b81615b99565b82525050565b614b3a81615b99565b82525050565b614b4981615b99565b82525050565b614b5881615b99565b82525050565b60006102c0820190508181036000830152614b7981856140bb565b9050614b88602083018461465d565b9392505050565b60006040820190508181036000830152614baa8185876141a6565b90508181036020830152614bbe8184614830565b9050949350505050565b600060a0820190508181036000830152614be381898b6141a6565b90508181036020830152614bf78188614830565b9050614c066040830187614955565b8181036060830152614c198185876146c4565b9050614c286080830184614b40565b98975050505050505050565b600060c0820190508181036000830152614c4e8189614292565b9050614c5d6020830188614928565b614c6a6040830187614928565b614c7760608301866148fb565b614c8460808301856148fb565b614c9160a0830184614946565b979650505050505050565b60006080820190508181036000830152614cb68187614307565b9050614cc56020830186614b40565b8181036040830152614cd781856140bb565b9050614ce66060830184614991565b95945050505050565b600060c0820190508181036000830152614d098189614307565b9050614d186020830188614b40565b614d25604083018761490a565b8181036060830152614d3781866140bb565b9050614d466080830185614991565b81810360a0830152614d5881846143f1565b9050979650505050505050565b60006080820190508181036000830152614d7f8187614307565b9050614d8e6020830186614b40565b614d9b6040830185614991565b8181036060830152614dad81846140bb565b905095945050505050565b600060a0820190508181036000830152614dd28188614307565b9050614de16020830187614b40565b614dee6040830186614991565b8181036060830152614e0081856140bb565b9050614e0f6080830184614b40565b9695505050505050565b60006020820190508181036000830152614e3381846143f1565b905092915050565b60006020820190508181036000830152614e55818461437c565b905092915050565b600061030082019050614e736000830185614606565b614e816102a08301846144db565b9392505050565b60006020820190508181036000830152614ea281846147d2565b905092915050565b60006060820190508181036000830152614ec48186614830565b90508181036020830152614ed881856140bb565b9050614ee76040830184614991565b949350505050565b60006080820190508181036000830152614f098187614830565b90508181036020830152614f1d81866140bb565b9050614f2c6040830185614991565b8181036060830152614f3e8184614046565b905095945050505050565b60006080820190508181036000830152614f638187614830565b90508181036020830152614f7781866140bb565b9050614f866040830185614b40565b8181036060830152614f988184614830565b905095945050505050565b60006080820190508181036000830152614fbd8187614830565b90508181036020830152614fd181866143f1565b9050614fe06040830185614937565b614fed6060830184614991565b95945050505050565b600060808201905081810360008301526150108187614830565b9050818103602083015261502481866143f1565b90506150336040830185614b40565b6150406060830184614991565b95945050505050565b600060e0820190508181036000830152615063818a6147d2565b905081810360208301526150778189614532565b9050818103604083015261508b81886147d2565b905061509a6060830187614b31565b81810360808301526150ac818661437c565b905081810360a08301526150c0818561437c565b905081810360c08301526150d481846147d2565b905098975050505050505050565b600060808201905081810360008301526150fc81876147d2565b9050818103602083015261511081866147d2565b9050818103604083015261512481856147d2565b90506151336060830184614946565b95945050505050565b6000606082019050818103600083015261515681866147d2565b9050818103602083015261516a81856147d2565b90506151796040830184614b31565b949350505050565b6000604082019050818103600083015261519b81856147d2565b90506151aa60208301846148fb565b9392505050565b600060408201905081810360008301526151cb81856147d2565b90506151da6020830184614b31565b9392505050565b600060808201905081810360008301526151fb81876147d2565b905061520a6020830186614b31565b818103604083015261521c818561437c565b90508181036060830152615230818461437c565b905095945050505050565b6000606082019050818103600083015261525581866147d2565b90506152646020830185614b31565b818103604083015261527681846147d2565b9050949350505050565b6000602082019050818103600083015261529a8184614998565b905092915050565b60006020820190506152b76000830184614b31565b92915050565b60006040820190506152d26000830185614b31565b6152df6020830184614b31565b9392505050565b600060e0820190506152fb600083018a614b40565b6153086020830189614b40565b615315604083018861490a565b6153226060830187614b40565b61532f6080830186614b40565b61533c60a0830185614991565b61534960c0830184614b40565b98975050505050505050565b600060608201905061536a6000830186614b31565b6153776020830185614b31565b6153846040830184614b31565b949350505050565b60006080820190506153a16000830187614b31565b6153ae6020830186614b31565b6153bb6040830185614b31565b6153c86060830184614b31565b95945050505050565b600080833560016020038436030381126153ea57600080fd5b80840192508235915067ffffffffffffffff82111561540857600080fd5b60208301925060208202360383131561542057600080fd5b509250929050565b6000808335600160200384360303811261544157600080fd5b80840192508235915067ffffffffffffffff82111561545f57600080fd5b60208301925060208202360383131561547757600080fd5b509250929050565b600061548961549a565b90506154958282615be8565b919050565b6000604051905090565b600067ffffffffffffffff8211156154bf576154be615c91565b5b602082029050919050565b600067ffffffffffffffff8211156154e5576154e4615c91565b5b602082029050919050565b600067ffffffffffffffff82111561550b5761550a615c91565b5b602082029050919050565b600067ffffffffffffffff82111561553157615530615c91565b5b602082029050602081019050919050565b600067ffffffffffffffff82111561555d5761555c615c91565b5b602082029050919050565b600067ffffffffffffffff82111561558357615582615c91565b5b602082029050919050565b600067ffffffffffffffff8211156155a9576155a8615c91565b5b602082029050602081019050919050565b600067ffffffffffffffff8211156155d5576155d4615c91565b5b602082029050919050565b600067ffffffffffffffff8211156155fb576155fa615c91565b5b602082029050602081019050919050565b600067ffffffffffffffff82111561562757615626615c91565b5b602082029050919050565b600067ffffffffffffffff82111561564d5761564c615c91565b5b602082029050602081019050919050565b6000819050919050565b6000819050919050565b6000819050602082019050919050565b6000819050919050565b6000819050919050565b6000819050919050565b6000819050602082019050919050565b6000819050919050565b6000819050602082019050919050565b6000819050919050565b6000819050919050565b6000819050602082019050919050565b600060039050919050565b600081519050919050565b600060059050919050565b600081519050919050565b600060039050919050565b600081519050919050565b600060159050919050565b600081519050919050565b6000602082019050919050565b6000602082019050919050565b6000602082019050919050565b6000602082019050919050565b6000602082019050919050565b6000602082019050919050565b6000602082019050919050565b6000602082019050919050565b6000602082019050919050565b6000602082019050919050565b6000602082019050919050565b6000602082019050919050565b600082825260208201905092915050565b600081905092915050565b600082825260208201905092915050565b600082825260208201905092915050565b600081905092915050565b600081905092915050565b600082825260208201905092915050565b600082825260208201905092915050565b600082825260208201905092915050565b600081905092915050565b600082825260208201905092915050565b600082825260208201905092915050565b600081905092915050565b600081905092915050565b600082825260208201905092915050565b600082825260208201905092915050565b600082825260208201905092915050565b600082825260208201905092915050565b600082825260208201905092915050565b600061591060208401846135f8565b905092915050565b6000808335600160200384360303811261593157600080fd5b83810192508235915060208301925067ffffffffffffffff82111561595557600080fd5b60208202360384131561596757600080fd5b509250929050565b6000808335600160200384360303811261598857600080fd5b83810192508235915060208301925067ffffffffffffffff8211156159ac57600080fd5b6020820236038413156159be57600080fd5b509250929050565b600080833560016020038436030381126159df57600080fd5b83810192508235915060208301925067ffffffffffffffff821115615a0357600080fd5b602082023603841315615a1557600080fd5b509250929050565b60008083356001602003843603038112615a3657600080fd5b83810192508235915060208301925067ffffffffffffffff821115615a5a57600080fd5b602082023603841315615a6c57600080fd5b509250929050565b600082905092915050565b60008083356001602003843603038112615a9857600080fd5b83810192508235915060208301925067ffffffffffffffff821115615abc57600080fd5b602082023603841315615ace57600080fd5b509250929050565b6000615ae560208401846138d3565b905092915050565b60008083356001602003843603038112615b0657600080fd5b83810192508235915060208301925067ffffffffffffffff821115615b2a57600080fd5b600182023603841315615b3c57600080fd5b509250929050565b6000615b536020840184613919565b905092915050565b6000615b6682615b79565b9050919050565b60008115159050919050565b600073ffffffffffffffffffffffffffffffffffffffff82169050919050565b6000819050919050565b6000615bae82615b99565b9050919050565b6000615bc082615b99565b9050919050565b6000615bd282615b99565b9050919050565b82818337600083830152505050565b615bf182615cc0565b810181811067ffffffffffffffff82111715615c1057615c0f615c91565b5b80604052505050565b6000615c2482615b99565b91507fffffffffffffffffffffffffffffffffffffffffffffffffffffffffffffffff821415615c5757615c56615c62565b5b600182019050919050565b7f4e487b7100000000000000000000000000000000000000000000000000000000600052601160045260246000fd5b7f4e487b7100000000000000000000000000000000000000000000000000000000600052604160045260246000fd5b6000601f19601f8301169050919050565b615cda81615b5b565b8114615ce557600080fd5b50565b615cf181615b6d565b8114615cfc57600080fd5b50565b615d0881615b99565b8114615d1357600080fd5b5056fea26469706673582212203b7941f632314c787d4d150006b76afd0c83db37c98f9f4504a2a564cee6063064736f6c63430008040033",
  "linkReferences": {
    "contracts/E5D/E3.sol": {
      "E3": [
        {
          "length": 20,
          "start": 1095
        }
      ]
    },
    "contracts/E5D/E32.sol": {
      "E32": [
        {
          "length": 20,
          "start": 1343
        },
        {
          "length": 20,
          "start": 1991
        }
      ]
    },
    "contracts/F5D/F32.sol": {
      "F32": [
        {
          "length": 20,
          "start": 3815
        },
        {
          "length": 20,
          "start": 5578
        }
      ]
    },
    "contracts/G5D/G32.sol": {
      "G32": [
        {
          "length": 20,
          "start": 3596
        },
        {
          "length": 20,
          "start": 4424
        },
        {
          "length": 20,
          "start": 5428
        },
        {
          "length": 20,
          "start": 5726
        },
        {
          "length": 20,
          "start": 6507
        },
        {
          "length": 20,
          "start": 7327
        },
        {
          "length": 20,
          "start": 7719
        },
        {
          "length": 20,
          "start": 9126
        },
        {
          "length": 20,
          "start": 10628
        }
      ]
    },
    "contracts/G5D/G33.sol": {
      "G33": [
        {
          "length": 20,
          "start": 6619
        }
      ]
    }
  },
  "deployedLinkReferences": {
    "contracts/E5D/E3.sol": {
      "E3": [
        {
          "length": 20,
          "start": 776
        }
      ]
    },
    "contracts/E5D/E32.sol": {
      "E32": [
        {
          "length": 20,
          "start": 1024
        },
        {
          "length": 20,
          "start": 1672
        }
      ]
    },
    "contracts/F5D/F32.sol": {
      "F32": [
        {
          "length": 20,
          "start": 3496
        },
        {
          "length": 20,
          "start": 5259
        }
      ]
    },
    "contracts/G5D/G32.sol": {
      "G32": [
        {
          "length": 20,
          "start": 3277
        },
        {
          "length": 20,
          "start": 4105
        },
        {
          "length": 20,
          "start": 5109
        },
        {
          "length": 20,
          "start": 5407
        },
        {
          "length": 20,
          "start": 6188
        },
        {
          "length": 20,
          "start": 7008
        },
        {
          "length": 20,
          "start": 7400
        },
        {
          "length": 20,
          "start": 8807
        },
        {
          "length": 20,
          "start": 10309
        }
      ]
    },
    "contracts/G5D/G33.sol": {
      "G33": [
        {
          "length": 20,
          "start": 6300
        }
      ]
    }
  }
}