{
  "_format": "hh-sol-artifact-1",
  "contractName": "H5",
  "sourceName": "contracts/H5D/H5.sol",
  "abi": [
    {
      "inputs": [
        {
          "internalType": "address",
          "name": "p1",
          "type": "address"
        }
      ],
      "stateMutability": "nonpayable",
      "type": "constructor"
    },
    {
      "anonymous": false,
      "inputs": [
        {
          "indexed": true,
          "internalType": "uint256",
          "name": "p1",
          "type": "uint256"
        },
        {
          "indexed": true,
          "internalType": "uint256",
          "name": "p2",
          "type": "uint256"
        },
        {
          "indexed": true,
          "internalType": "uint256",
          "name": "p3",
          "type": "uint256"
        },
        {
          "indexed": false,
          "internalType": "uint256",
          "name": "p4",
          "type": "uint256"
        },
        {
          "indexed": false,
          "internalType": "uint256",
          "name": "p5",
          "type": "uint256"
        },
        {
          "indexed": false,
          "internalType": "uint256",
          "name": "p6",
          "type": "uint256"
        },
        {
          "indexed": false,
          "internalType": "uint256",
          "name": "p7",
          "type": "uint256"
        },
        {
          "indexed": false,
          "internalType": "uint256",
          "name": "p8",
          "type": "uint256"
        }
      ],
      "name": "e1",
      "type": "event"
    },
    {
      "anonymous": false,
      "inputs": [
        {
          "indexed": true,
          "internalType": "uint256",
          "name": "p1",
          "type": "uint256"
        },
        {
          "indexed": false,
          "internalType": "uint256",
          "name": "p2",
          "type": "uint256"
        },
        {
          "indexed": false,
          "internalType": "uint256",
          "name": "p3",
          "type": "uint256"
        },
        {
          "indexed": false,
          "internalType": "uint256",
          "name": "p4",
          "type": "uint256"
        },
        {
          "indexed": false,
          "internalType": "uint256",
          "name": "p5",
          "type": "uint256"
        }
      ],
      "name": "e2",
      "type": "event"
    },
    {
      "anonymous": false,
      "inputs": [
        {
          "indexed": true,
          "internalType": "uint256",
          "name": "p1",
          "type": "uint256"
        },
        {
          "indexed": false,
          "internalType": "uint256",
          "name": "p2",
          "type": "uint256"
        },
        {
          "indexed": false,
          "internalType": "uint256",
          "name": "p3",
          "type": "uint256"
        },
        {
          "indexed": false,
          "internalType": "uint256",
          "name": "p4",
          "type": "uint256"
        },
        {
          "indexed": false,
          "internalType": "uint256",
          "name": "p5",
          "type": "uint256"
        },
        {
          "indexed": false,
          "internalType": "uint256",
          "name": "p6",
          "type": "uint256"
        }
      ],
      "name": "e3",
      "type": "event"
    },
    {
      "inputs": [
        {
          "internalType": "address[7]",
          "name": "p1",
          "type": "address[7]"
        },
        {
          "internalType": "uint256[][][]",
          "name": "p2",
          "type": "uint256[][][]"
        },
        {
          "internalType": "uint256[][]",
          "name": "p3",
          "type": "uint256[][]"
        }
      ],
      "name": "f162",
      "outputs": [],
      "stateMutability": "nonpayable",
      "type": "function"
    },
    {
      "inputs": [
        {
          "components": [
            {
              "internalType": "uint256",
              "name": "sv1",
              "type": "uint256"
            },
            {
              "internalType": "bool",
              "name": "sv2",
              "type": "bool"
            },
            {
              "internalType": "uint256[]",
              "name": "sv3",
              "type": "uint256[]"
            },
            {
              "internalType": "uint256[][]",
              "name": "sv4",
              "type": "uint256[][]"
            },
            {
              "internalType": "address[]",
              "name": "sv5",
              "type": "address[]"
            },
            {
              "internalType": "string[][]",
              "name": "sv6",
              "type": "string[][]"
            },
            {
              "internalType": "uint256",
              "name": "t",
              "type": "uint256"
            },
            {
              "internalType": "uint256",
              "name": "sv7",
              "type": "uint256"
            },
            {
              "internalType": "uint256",
              "name": "sv8",
              "type": "uint256"
            },
            {
              "internalType": "uint256[2]",
              "name": "sv9",
              "type": "uint256[2]"
            },
            {
              "internalType": "bool",
              "name": "sv10",
              "type": "bool"
            },
            {
              "internalType": "uint256[]",
              "name": "sv11",
              "type": "uint256[]"
            }
          ],
          "internalType": "struct E3.TD",
          "name": "p1",
          "type": "tuple"
        }
      ],
      "name": "f176",
      "outputs": [],
      "stateMutability": "nonpayable",
      "type": "function"
    },
    {
      "inputs": [
        {
          "components": [
            {
              "internalType": "uint256",
              "name": "sv1",
              "type": "uint256"
            },
            {
              "internalType": "bool",
              "name": "sv2",
              "type": "bool"
            },
            {
              "internalType": "uint256[]",
              "name": "sv3",
              "type": "uint256[]"
            },
            {
              "internalType": "uint256[][]",
              "name": "sv4",
              "type": "uint256[][]"
            },
            {
              "internalType": "address[]",
              "name": "sv5",
              "type": "address[]"
            },
            {
              "internalType": "string[][]",
              "name": "sv6",
              "type": "string[][]"
            },
            {
              "internalType": "uint256",
              "name": "t",
              "type": "uint256"
            },
            {
              "internalType": "uint256",
              "name": "sv7",
              "type": "uint256"
            },
            {
              "internalType": "uint256",
              "name": "sv8",
              "type": "uint256"
            },
            {
              "internalType": "uint256[2]",
              "name": "sv9",
              "type": "uint256[2]"
            },
            {
              "internalType": "bool",
              "name": "sv10",
              "type": "bool"
            },
            {
              "internalType": "uint256[]",
              "name": "sv11",
              "type": "uint256[]"
            }
          ],
          "internalType": "struct E3.TD",
          "name": "p1",
          "type": "tuple"
        }
      ],
      "name": "f179",
      "outputs": [
        {
          "internalType": "uint256[3]",
          "name": "v1",
          "type": "uint256[3]"
        }
      ],
      "stateMutability": "nonpayable",
      "type": "function"
    },
    {
      "inputs": [
        {
          "internalType": "uint256[][5]",
          "name": "p1",
          "type": "uint256[][5]"
        },
        {
          "internalType": "uint256[4]",
          "name": "p2",
          "type": "uint256[4]"
        },
        {
          "internalType": "bool",
          "name": "p3",
          "type": "bool"
        },
        {
          "internalType": "uint256[][2]",
          "name": "p4",
          "type": "uint256[][2]"
        }
      ],
      "name": "f180",
      "outputs": [
        {
          "internalType": "uint256[3]",
          "name": "v1",
          "type": "uint256[3]"
        }
      ],
      "stateMutability": "nonpayable",
      "type": "function"
    },
    {
      "inputs": [
        {
          "internalType": "uint256[][5]",
          "name": "p1",
          "type": "uint256[][5]"
        },
        {
          "internalType": "uint256",
          "name": "p2",
          "type": "uint256"
        }
      ],
      "name": "f198",
      "outputs": [],
      "stateMutability": "nonpayable",
      "type": "function"
    },
    {
      "inputs": [
        {
          "internalType": "uint256[][6]",
          "name": "p1",
          "type": "uint256[][6]"
        },
        {
          "internalType": "uint256",
          "name": "p2",
          "type": "uint256"
        }
      ],
      "name": "f230",
      "outputs": [],
      "stateMutability": "nonpayable",
      "type": "function"
    },
    {
      "inputs": [
        {
          "internalType": "uint256[]",
          "name": "p1",
          "type": "uint256[]"
        },
        {
          "internalType": "uint256[]",
          "name": "p2",
          "type": "uint256[]"
        }
      ],
      "name": "f241",
      "outputs": [
        {
          "internalType": "uint256[3][]",
          "name": "",
          "type": "uint256[3][]"
        }
      ],
      "stateMutability": "view",
      "type": "function"
    },
    {
      "inputs": [
        {
          "internalType": "uint256[]",
          "name": "p1",
          "type": "uint256[]"
        },
        {
          "internalType": "uint256[][]",
          "name": "p2",
          "type": "uint256[][]"
        },
        {
          "internalType": "uint256[]",
          "name": "p3",
          "type": "uint256[]"
        }
      ],
      "name": "f245",
      "outputs": [
        {
          "internalType": "uint256[][]",
          "name": "v1",
          "type": "uint256[][]"
        }
      ],
      "stateMutability": "view",
      "type": "function"
    },
    {
      "inputs": [
        {
          "internalType": "uint256[]",
          "name": "p1",
          "type": "uint256[]"
        }
      ],
      "name": "f247",
      "outputs": [
        {
          "internalType": "uint256[]",
          "name": "v1",
          "type": "uint256[]"
        }
      ],
      "stateMutability": "view",
      "type": "function"
    },
    {
      "inputs": [],
      "name": "f258",
      "outputs": [
        {
          "internalType": "uint256",
          "name": "",
          "type": "uint256"
        }
      ],
      "stateMutability": "view",
      "type": "function"
    },
    {
      "inputs": [
        {
          "internalType": "uint256",
          "name": "p1",
          "type": "uint256"
        },
        {
          "internalType": "uint256",
          "name": "p2",
          "type": "uint256"
        },
        {
          "internalType": "uint256",
          "name": "p3",
          "type": "uint256"
        },
        {
          "internalType": "uint256",
          "name": "p4",
          "type": "uint256"
        },
        {
          "internalType": "uint256",
          "name": "p5",
          "type": "uint256"
        }
      ],
      "name": "f286",
      "outputs": [
        {
          "internalType": "uint256",
          "name": "",
          "type": "uint256"
        }
      ],
      "stateMutability": "view",
      "type": "function"
    },
    {
      "inputs": [
        {
          "internalType": "uint256",
          "name": "p1",
          "type": "uint256"
        }
      ],
      "name": "f85",
      "outputs": [
        {
          "internalType": "uint256[][]",
          "name": "",
          "type": "uint256[][]"
        }
      ],
      "stateMutability": "view",
      "type": "function"
    },
    {
      "inputs": [
        {
          "internalType": "uint256[]",
          "name": "p1",
          "type": "uint256[]"
        }
      ],
      "name": "f86",
      "outputs": [
        {
          "internalType": "uint256[][][]",
          "name": "",
          "type": "uint256[][][]"
        }
      ],
      "stateMutability": "view",
      "type": "function"
    },
    {
      "inputs": [
        {
          "internalType": "uint256[][][]",
          "name": "p1",
          "type": "uint256[][][]"
        }
      ],
      "name": "f88",
      "outputs": [
        {
          "internalType": "uint256[][][2]",
          "name": "",
          "type": "uint256[][][2]"
        }
      ],
      "stateMutability": "view",
      "type": "function"
    }
  ],
  "bytecode": "0x60a060405260008060006101000a81548160ff0219169083151502179055503480156200002b57600080fd5b5060405162005eb438038062005eb48339818101604052810190620000519190620000a6565b8073ffffffffffffffffffffffffffffffffffffffff1660808173ffffffffffffffffffffffffffffffffffffffff1660601b815250505062000120565b600081519050620000a08162000106565b92915050565b600060208284031215620000b957600080fd5b6000620000c9848285016200008f565b91505092915050565b6000620000df82620000e6565b9050919050565b600073ffffffffffffffffffffffffffffffffffffffff82169050919050565b6200011181620000d2565b81146200011d57600080fd5b50565b60805160601c615d756200013f6000396000610aea0152615d756000f3fe608060405234801561001057600080fd5b50600436106100ba5760003560e01c806303c0d5d8146100bf5780630ef46749146100db5780631711b18d1461010b5780631a4655c11461013b578063217745431461015757806334ee2caa1461018757806342210e70146101a35780634d009804146101bf578063559c0130146101ef5780635dd9077e1461021f5780636f6830211461024f578063b544588c1461027f578063c59983b8146102af578063c900e7ce146102cd575b600080fd5b6100d960048036038101906100d49190613b71565b6102fd565b005b6100f560048036038101906100f09190613a07565b61049e565b6040516101029190614f44565b60405180910390f35b61012560048036038101906101209190613600565b610549565b6040516101329190614aee565b60405180910390f35b6101556004803603810190610150919061385b565b6105ea565b005b610171600480360381019061016c9190613985565b610a50565b60405161017e9190614b32565b60405180910390f35b6101a1600480360381019061019c919061357f565b610ae8565b005b6101bd60048036038101906101b891906138f0565b610dbe565b005b6101d960048036038101906101d49190613b71565b610f51565b6040516101e69190614fb9565b60405180910390f35b61020960048036038101906102049190613985565b611352565b6040516102169190614fef565b60405180910390f35b610239600480360381019061023491906137c8565b6115ef565b6040516102469190614fb9565b60405180910390f35b61026960048036038101906102649190613c04565b611d48565b60405161027691906151b5565b60405180910390f35b61029960048036038101906102949190613b05565b611e2f565b6040516102a69190614bde565b60405180910390f35b6102b7611eca565b6040516102c491906151b5565b60405180910390f35b6102e760048036038101906102e29190613bb2565b611f0d565b6040516102f49190614f44565b60405180910390f35b3360011515600160008373ffffffffffffffffffffffffffffffffffffffff1673ffffffffffffffffffffffffffffffffffffffff16815260200190815260200160002060009054906101000a900460ff1615151461035b57600080fd5b600082806040019061036d9190615326565b8460c001358181106103a8577f4e487b7100000000000000000000000000000000000000000000000000000000600052603260045260246000fd5b90506020020135905061042a818480606001906103c591906152cf565b906103d09190615bb7565b85600001358680604001906103e59190615326565b80806020026020016040519081016040528093929190818152602001838360200280828437600081840152601f19601f82011690508083019250505050505050611fa5565b73__$f27e79961c3433e31ab5fa1d53780be647$__6303f9881e61044d83611f0d565b6040518263ffffffff1660e01b81526004016104699190614f22565b60006040518083038186803b15801561048157600080fd5b505af4158015610495573d6000803e3d6000fd5b50505050505050565b606060006104ab85610a50565b905073__$322b8033ec09b31b83f44ce15d1fa7a4cb$__63f6e0be24868686856040518563ffffffff1660e01b81526004016104ea9493929190615048565b60006040518083038186803b15801561050257600080fd5b505af4158015610516573d6000803e3d6000fd5b505050506040513d6000823e3d601f19601f8201168201806040525081019061053f9190613944565b9150509392505050565b61055161290f565b73__$a8d73648a227029b1a94ace56064e1f587$__6330874d1e848460026040518463ffffffff1660e01b815260040161058d93929190614abc565b60006040518083038186803b1580156105a557600080fd5b505af41580156105b9573d6000803e3d6000fd5b505050506040513d6000823e3d601f19601f820116820180604052508101906105e29190613645565b905092915050565b3360011515600160008373ffffffffffffffffffffffffffffffffffffffff1673ffffffffffffffffffffffffffffffffffffffff16815260200190815260200160002060009054906101000a900460ff1615151461064857600080fd5b73__$a8d73648a227029b1a94ace56064e1f587$__63fc4c2079846002856040518463ffffffff1660e01b815260040161068493929190614ea6565b60006040518083038186803b15801561069c57600080fd5b505af41580156106b0573d6000803e3d6000fd5b5050505060005b836000600581106106f1577f4e487b7100000000000000000000000000000000000000000000000000000000600052603260045260246000fd5b60200201515181101561099d576000808560046005811061073b577f4e487b7100000000000000000000000000000000000000000000000000000000600052603260045260246000fd5b602002015151141561074d57836107cd565b84600460058110610787577f4e487b7100000000000000000000000000000000000000000000000000000000600052603260045260246000fd5b602002015182815181106107c4577f4e487b7100000000000000000000000000000000000000000000000000000000600052603260045260246000fd5b60200260200101515b905084600060058110610809577f4e487b7100000000000000000000000000000000000000000000000000000000600052603260045260246000fd5b60200201518281518110610846577f4e487b7100000000000000000000000000000000000000000000000000000000600052603260045260246000fd5b60200260200101517fbccb4431c22f2d393275a6e83e2d92cef24363286cfc0de2ca4687c3406f0e83866002600581106108a9577f4e487b7100000000000000000000000000000000000000000000000000000000600052603260045260246000fd5b602002015184815181106108e6577f4e487b7100000000000000000000000000000000000000000000000000000000600052603260045260246000fd5b602002602001015187600360058110610928577f4e487b7100000000000000000000000000000000000000000000000000000000600052603260045260246000fd5b60200201518581518110610965577f4e487b7100000000000000000000000000000000000000000000000000000000600052603260045260246000fd5b602002602001015142438660405161098195949392919061527c565b60405180910390a250808061099590615c42565b9150506106b7565b5073__$f27e79961c3433e31ab5fa1d53780be647$__63e800c6ab6109ff856000600581106109f5577f4e487b7100000000000000000000000000000000000000000000000000000000600052603260045260246000fd5b6020020151610a50565b6040518263ffffffff1660e01b8152600401610a1b9190614b10565b60006040518083038186803b158015610a3357600080fd5b505af4158015610a47573d6000803e3d6000fd5b50505050505050565b606073__$a8d73648a227029b1a94ace56064e1f587$__63e38b745d8360026040518363ffffffff1660e01b8152600401610a8c9291906150ee565b60006040518083038186803b158015610aa457600080fd5b505af4158015610ab8573d6000803e3d6000fd5b505050506040513d6000823e3d601f19601f82011682018060405250810190610ae19190613686565b9050919050565b7f000000000000000000000000000000000000000000000000000000000000000073ffffffffffffffffffffffffffffffffffffffff163373ffffffffffffffffffffffffffffffffffffffff16148015610b4e575060008054906101000a900460ff16155b610b5757600080fd5b60016000806101000a81548160ff02191690831515021790555060005b6007811015610c32576001806000868460078110610bbb577f4e487b7100000000000000000000000000000000000000000000000000000000600052603260045260246000fd5b602002016020810190610bce9190613556565b73ffffffffffffffffffffffffffffffffffffffff1673ffffffffffffffffffffffffffffffffffffffff16815260200190815260200160002060006101000a81548160ff0219169083151502179055508080610c2a90615c42565b915050610b74565b5082600160078110610c6d577f4e487b7100000000000000000000000000000000000000000000000000000000600052603260045260246000fd5b602002016020810190610c809190613556565b600660006101000a81548173ffffffffffffffffffffffffffffffffffffffff021916908373ffffffffffffffffffffffffffffffffffffffff16021790555082600660078110610cfa577f4e487b7100000000000000000000000000000000000000000000000000000000600052603260045260246000fd5b602002016020810190610d0d9190613556565b600560006101000a81548173ffffffffffffffffffffffffffffffffffffffff021916908373ffffffffffffffffffffffffffffffffffffffff16021790555073__$a8d73648a227029b1a94ace56064e1f587$__639146a9f7838360026040518463ffffffff1660e01b8152600401610d8993929190614b54565b60006040518083038186803b158015610da157600080fd5b505af4158015610db5573d6000803e3d6000fd5b50505050505050565b3360011515600160008373ffffffffffffffffffffffffffffffffffffffff1673ffffffffffffffffffffffffffffffffffffffff16815260200190815260200160002060009054906101000a900460ff16151514610e1c57600080fd5b600073__$a8d73648a227029b1a94ace56064e1f587$__6359cbc7ab858560026040518463ffffffff1660e01b8152600401610e5a93929190614ee4565b60006040518083038186803b158015610e7257600080fd5b505af4158015610e86573d6000803e3d6000fd5b505050506040513d6000823e3d601f19601f82011682018060405250810190610eaf9190613708565b9050600560009054906101000a900473ffffffffffffffffffffffffffffffffffffffff1673ffffffffffffffffffffffffffffffffffffffff16636228251b8260008060008060016040518763ffffffff1660e01b8152600401610f1996959493929190614e3e565b600060405180830381600087803b158015610f3357600080fd5b505af1158015610f47573d6000803e3d6000fd5b5050505050505050565b610f59612936565b3360011515600160008373ffffffffffffffffffffffffffffffffffffffff1673ffffffffffffffffffffffffffffffffffffffff16815260200190815260200160002060009054906101000a900460ff16151514610fb757600080fd5b6000838060600190610fc991906152cf565b6000818110611001577f4e487b7100000000000000000000000000000000000000000000000000000000600052603260045260246000fd5b90506020028101906110139190615326565b600181811061104b577f4e487b7100000000000000000000000000000000000000000000000000000000600052603260045260246000fd5b905060200201359050600084806060019061106691906152cf565b600081811061109e577f4e487b7100000000000000000000000000000000000000000000000000000000600052603260045260246000fd5b90506020028101906110b09190615326565b60008181106110e8577f4e487b7100000000000000000000000000000000000000000000000000000000600052603260045260246000fd5b905060200201359050614e208114156111a95760038214156111a457600073__$7b11637b326fa12a30ce8fbc20da0b2192$__6386ae6f8b876040518263ffffffff1660e01b815260040161113d9190615163565b60006040518083038186803b15801561115557600080fd5b505af4158015611169573d6000803e3d6000fd5b505050506040513d6000823e3d601f19601f820116820180604052508101906111929190613708565b90506111a28187600001356105ea565b505b61134a565b6175308114156113495760098214806111c25750600882145b1561129e57600080600073__$7b11637b326fa12a30ce8fbc20da0b2192$__630d1b6edb89876040518363ffffffff1660e01b8152600401611205929190615185565b60006040518083038186803b15801561121d57600080fd5b505af4158015611231573d6000803e3d6000fd5b505050506040513d6000823e3d601f19601f8201168201806040525081019061125a9190613749565b925092509250600985141561127c5761127683836001846115ef565b50611296565b60088514156112955761129283836000846115ef565b96505b5b505050611348565b601182141561134757600073__$7b11637b326fa12a30ce8fbc20da0b2192$__632ff1eac8876040518263ffffffff1660e01b81526004016112e09190615163565b60006040518083038186803b1580156112f857600080fd5b505af415801561130c573d6000803e3d6000fd5b505050506040513d6000823e3d601f19601f8201168201806040525081019061133591906138af565b9050611345818760000135610dbe565b505b5b5b5b505050919050565b6060600061135f83610a50565b9050600073__$c1efb2dccb00bdcdb4d2f4fb75b83e81b5$__632ebecaf285846040518363ffffffff1660e01b815260040161139c929190615011565b60006040518083038186803b1580156113b457600080fd5b505af41580156113c8573d6000803e3d6000fd5b505050506040513d6000823e3d601f19601f820116820180604052508101906113f19190613708565b9050600073__$f27e79961c3433e31ab5fa1d53780be647$__63596e3198848460006005811061144a577f4e487b7100000000000000000000000000000000000000000000000000000000600052603260045260246000fd5b6020020151436040518463ffffffff1660e01b815260040161146e93929190614b99565b60006040518083038186803b15801561148657600080fd5b505af415801561149a573d6000803e3d6000fd5b505050506040513d6000823e3d601f19601f820116820180604052508101906114c391906139c6565b905073__$2c5481ac3a53d4f4da52c7594a1c0a4117$__6339eac4b68385846040518463ffffffff1660e01b815260040161150093929190614c37565b60006040518083038186803b15801561151857600080fd5b505af415801561152c573d6000803e3d6000fd5b505050506040513d6000823e3d601f19601f820116820180604052508101906115559190613686565b925073__$2c5481ac3a53d4f4da52c7594a1c0a4117$__630a24a1f683856040518363ffffffff1660e01b8152600401611590929190614c00565b60006040518083038186803b1580156115a857600080fd5b505af41580156115bc573d6000803e3d6000fd5b505050506040513d6000823e3d601f19601f820116820180604052508101906115e591906139c6565b9350505050919050565b6115f7612936565b3360011515600160008373ffffffffffffffffffffffffffffffffffffffff1673ffffffffffffffffffffffffffffffffffffffff16815260200190815260200160002060009054906101000a900460ff1615151461165557600080fd5b600660009054906101000a900473ffffffffffffffffffffffffffffffffffffffff1673ffffffffffffffffffffffffffffffffffffffff1663378b914b876001600581106116cd577f4e487b7100000000000000000000000000000000000000000000000000000000600052603260045260246000fd5b60200201518860046005811061170c577f4e487b7100000000000000000000000000000000000000000000000000000000600052603260045260246000fd5b60200201518860006004811061174b577f4e487b7100000000000000000000000000000000000000000000000000000000600052603260045260246000fd5b60200201516040518463ffffffff1660e01b815260040161176e939291906150a9565b60006040518083038186803b15801561178657600080fd5b505afa15801561179a573d6000803e3d6000fd5b50505050600073__$a8d73648a227029b1a94ace56064e1f587$__63c03199cb88888860026040518563ffffffff1660e01b81526004016117de9493929190614d45565b60006040518083038186803b1580156117f657600080fd5b505af415801561180a573d6000803e3d6000fd5b505050506040513d6000823e3d601f19601f820116820180604052508101906118339190613686565b9050846119a357600073__$f27e79961c3433e31ab5fa1d53780be647$__63596e3198838a600060058110611891577f4e487b7100000000000000000000000000000000000000000000000000000000600052603260045260246000fd5b6020020151436040518463ffffffff1660e01b81526004016118b593929190614b99565b60006040518083038186803b1580156118cd57600080fd5b505af41580156118e1573d6000803e3d6000fd5b505050506040513d6000823e3d601f19601f8201168201806040525081019061190a91906139c6565b905073__$a8d73648a227029b1a94ace56064e1f587$__63faf8175a89846002856040518563ffffffff1660e01b815260040161194a9493929190614c83565b60006040518083038186803b15801561196257600080fd5b505af4158015611976573d6000803e3d6000fd5b505050506040513d6000823e3d601f19601f8201168201806040525081019061199f9190613686565b9150505b600080600073__$2c5481ac3a53d4f4da52c7594a1c0a4117$__63039fff838b868c6001600481106119fe577f4e487b7100000000000000000000000000000000000000000000000000000000600052603260045260246000fd5b60200201518c8c6040518663ffffffff1660e01b8152600401611a25959493929190614cdd565b60006040518083038186803b158015611a3d57600080fd5b505af4158015611a51573d6000803e3d6000fd5b505050506040513d6000823e3d601f19601f82011682018060405250810190611a7a9190613a9e565b925092509250611ac98a848b600060048110611abf577f4e487b7100000000000000000000000000000000000000000000000000000000600052603260045260246000fd5b60200201516120af565b87611ad957611ad88a846124b0565b5b600560009054906101000a900473ffffffffffffffffffffffffffffffffffffffff1673ffffffffffffffffffffffffffffffffffffffff1663702be2478b858c600060048110611b53577f4e487b7100000000000000000000000000000000000000000000000000000000600052603260045260246000fd5b6020020151888d6040518663ffffffff1660e01b8152600401611b7a959493929190614dd6565b600060405180830381600087803b158015611b9457600080fd5b505af1158015611ba8573d6000803e3d6000fd5b50505050600082600060028110611be8577f4e487b7100000000000000000000000000000000000000000000000000000000600052603260045260246000fd5b602002015114611cf75781600060028110611c2c577f4e487b7100000000000000000000000000000000000000000000000000000000600052603260045260246000fd5b602002015186600060038110611c6b577f4e487b7100000000000000000000000000000000000000000000000000000000600052603260045260246000fd5b60200201818152505081600160028110611cae577f4e487b7100000000000000000000000000000000000000000000000000000000600052603260045260246000fd5b602002015186600160038110611ced577f4e487b7100000000000000000000000000000000000000000000000000000000600052603260045260246000fd5b6020020181815250505b8086600260038110611d32577f4e487b7100000000000000000000000000000000000000000000000000000000600052603260045260246000fd5b6020020181815250505050505050949350505050565b600080611d53611eca565b90506000600190506003851415611d6957600290505b73__$f27e79961c3433e31ab5fa1d53780be647$__630e9c92db6040518060e001604052808481526020018b81526020018781526020018981526020018a8152602001858152602001888152506040518263ffffffff1660e01b8152600401611dd29190614fd4565b60206040518083038186803b158015611dea57600080fd5b505af4158015611dfe573d6000803e3d6000fd5b505050506040513d601f19601f82011682018060405250810190611e229190613bdb565b9250505095945050505050565b606073__$a8d73648a227029b1a94ace56064e1f587$__631235c2a7846002856040518463ffffffff1660e01b8152600401611e6d9392919061511e565b60006040518083038186803b158015611e8557600080fd5b505af4158015611e99573d6000803e3d6000fd5b505050506040513d6000823e3d601f19601f82011682018060405250810190611ec291906136c7565b905092915050565b6000600260000160006005815260200190815260200160002060006002815260200190815260200160002060006006815260200190815260200160002054905090565b606073__$a8d73648a227029b1a94ace56064e1f587$__638b0f11d28360026040518363ffffffff1660e01b8152600401611f4992919061520e565b60006040518083038186803b158015611f6157600080fd5b505af4158015611f75573d6000803e3d6000fd5b505050506040513d6000823e3d601f19601f82011682018060405250810190611f9e9190613944565b9050919050565b600073__$2c5481ac3a53d4f4da52c7594a1c0a4117$__632391c553858585600c6040518563ffffffff1660e01b8152600401611fe59493929190614f66565b60006040518083038186803b158015611ffd57600080fd5b505af4158015612011573d6000803e3d6000fd5b505050506040513d6000823e3d601f19601f8201168201806040525081019061203a9190613944565b905073__$a8d73648a227029b1a94ace56064e1f587$__63df983c32868360026040518463ffffffff1660e01b8152600401612078939291906151d0565b60006040518083038186803b15801561209057600080fd5b505af41580156120a4573d6000803e3d6000fd5b505050505050505050565b73__$a8d73648a227029b1a94ace56064e1f587$__636a234f16848460026040518463ffffffff1660e01b81526004016120eb93929190614d91565b60006040518083038186803b15801561210357600080fd5b505af4158015612117573d6000803e3d6000fd5b5050505060005b83600160058110612158577f4e487b7100000000000000000000000000000000000000000000000000000000600052603260045260246000fd5b6020020151518110156124aa57600060026000016000866001600581106121a8577f4e487b7100000000000000000000000000000000000000000000000000000000600052603260045260246000fd5b602002015184815181106121e5577f4e487b7100000000000000000000000000000000000000000000000000000000600052603260045260246000fd5b6020026020010151815260200190815260200160002090506000808660046005811061223a577f4e487b7100000000000000000000000000000000000000000000000000000000600052603260045260246000fd5b6020020151511161224b57836122cb565b85600460058110612285577f4e487b7100000000000000000000000000000000000000000000000000000000600052603260045260246000fd5b602002015183815181106122c2577f4e487b7100000000000000000000000000000000000000000000000000000000600052603260045260246000fd5b60200260200101515b90508086600060058110612308577f4e487b7100000000000000000000000000000000000000000000000000000000600052603260045260246000fd5b60200201518481518110612345577f4e487b7100000000000000000000000000000000000000000000000000000000600052603260045260246000fd5b602002602001015187600160058110612387577f4e487b7100000000000000000000000000000000000000000000000000000000600052603260045260246000fd5b602002015185815181106123c4577f4e487b7100000000000000000000000000000000000000000000000000000000600052603260045260246000fd5b60200260200101517f150d4e40b563a53efd1a9713835d4a0c91c4c1febed8e3a3d1b0565560a77145856000600281526020019081526020016000206000600281526020019081526020016000205486600060028152602001908152602001600020600060038152602001908152602001600020548a8981518110612472577f4e487b7100000000000000000000000000000000000000000000000000000000600052603260045260246000fd5b6020026020010151424360405161248d95949392919061527c565b60405180910390a4505080806124a290615c42565b91505061211e565b50505050565b60005b826001600581106124ed577f4e487b7100000000000000000000000000000000000000000000000000000000600052603260045260246000fd5b60200201515181101561290a57600083600060058110612536577f4e487b7100000000000000000000000000000000000000000000000000000000600052603260045260246000fd5b60200201518281518110612573577f4e487b7100000000000000000000000000000000000000000000000000000000600052603260045260246000fd5b602002602001015114156128f757600060026000016000856001600581106125c4577f4e487b7100000000000000000000000000000000000000000000000000000000600052603260045260246000fd5b60200201518481518110612601577f4e487b7100000000000000000000000000000000000000000000000000000000600052603260045260246000fd5b6020026020010151815260200190815260200160002060006001815260200190815260200160002060006001815260200190815260200160002054146128f65760006002600001600085600160058110612684577f4e487b7100000000000000000000000000000000000000000000000000000000600052603260045260246000fd5b602002015184815181106126c1577f4e487b7100000000000000000000000000000000000000000000000000000000600052603260045260246000fd5b6020026020010151815260200190815260200160002060006002815260200190815260200160002090504381600060058152602001908152602001600020541461277a5782828151811061273e577f4e487b7100000000000000000000000000000000000000000000000000000000600052603260045260246000fd5b602002602001015181600060048152602001908152602001600020819055504381600060058152602001908152602001600020819055506127e5565b8282815181106127b3577f4e487b7100000000000000000000000000000000000000000000000000000000600052603260045260246000fd5b60200260200101518160006004815260200190815260200160002060008282546127dd9190615b19565b925050819055505b8360016005811061281f577f4e487b7100000000000000000000000000000000000000000000000000000000600052603260045260246000fd5b6020020151828151811061285c577f4e487b7100000000000000000000000000000000000000000000000000000000600052603260045260246000fd5b60200260200101517f4a1356798b6d4fa1178ba78023f16cc3fddb1a87eeca14cfc73dc0aa37db269582600060068152602001908152602001600020548585815181106128d2577f4e487b7100000000000000000000000000000000000000000000000000000000600052603260045260246000fd5b602002602001015143426040516128ec9493929190615237565b60405180910390a2505b5b808061290290615c42565b9150506124b3565b505050565b60405180604001604052806002905b606081526020019060019003908161291e5790505090565b6040518060600160405280600390602082028036833780820191505090505090565b600061296b612966846153a2565b61537d565b9050808285602086028201111561298157600080fd5b60005b858110156129cb57815167ffffffffffffffff8111156129a357600080fd5b8086016129b089826133e1565b85526020850194506020840193505050600181019050612984565b5050509392505050565b60006129e86129e3846153c8565b61537d565b90508083825260208201905082856020860282011115612a0757600080fd5b60005b85811015612a5157813567ffffffffffffffff811115612a2957600080fd5b808601612a3689826133b7565b85526020850194506020840193505050600181019050612a0a565b5050509392505050565b6000612a6e612a69846153c8565b61537d565b90508083825260208201905082856020860282011115612a8d57600080fd5b60005b85811015612ad757815167ffffffffffffffff811115612aaf57600080fd5b808601612abc89826133e1565b85526020850194506020840193505050600181019050612a90565b5050509392505050565b6000612af4612aef846153f4565b61537d565b90508083825260208201905082856060860282011115612b1357600080fd5b60005b85811015612b435781612b298882613432565b845260208401935060608301925050600181019050612b16565b5050509392505050565b6000612b60612b5b84615420565b61537d565b90508082856020860282011115612b7657600080fd5b60005b85811015612bc057813567ffffffffffffffff811115612b9857600080fd5b808601612ba589826134a7565b85526020850194506020840193505050600181019050612b79565b5050509392505050565b6000612bdd612bd884615420565b61537d565b90508082856020860282011115612bf357600080fd5b60005b85811015612c3d57815167ffffffffffffffff811115612c1557600080fd5b808601612c2289826134d1565b85526020850194506020840193505050600181019050612bf6565b5050509392505050565b6000612c5a612c5584615446565b61537d565b90508082856020860282011115612c7057600080fd5b60005b85811015612cba57813567ffffffffffffffff811115612c9257600080fd5b808601612c9f89826134a7565b85526020850194506020840193505050600181019050612c73565b5050509392505050565b6000612cd7612cd284615446565b61537d565b90508082856020860282011115612ced57600080fd5b60005b85811015612d3757815167ffffffffffffffff811115612d0f57600080fd5b808601612d1c89826134d1565b85526020850194506020840193505050600181019050612cf0565b5050509392505050565b6000612d54612d4f8461546c565b61537d565b90508082856020860282011115612d6a57600080fd5b60005b85811015612db457813567ffffffffffffffff811115612d8c57600080fd5b808601612d9989826134a7565b85526020850194506020840193505050600181019050612d6d565b5050509392505050565b6000612dd1612dcc8461546c565b61537d565b90508082856020860282011115612de757600080fd5b60005b85811015612e3157815167ffffffffffffffff811115612e0957600080fd5b808601612e1689826134d1565b85526020850194506020840193505050600181019050612dea565b5050509392505050565b6000612e4e612e4984615492565b61537d565b90508083825260208201905082856020860282011115612e6d57600080fd5b60005b85811015612eb757813567ffffffffffffffff811115612e8f57600080fd5b808601612e9c89826134a7565b85526020850194506020840193505050600181019050612e70565b5050509392505050565b6000612ed4612ecf84615492565b61537d565b90508083825260208201905082856020860282011115612ef357600080fd5b60005b85811015612f3d57815167ffffffffffffffff811115612f1557600080fd5b808601612f2289826134d1565b85526020850194506020840193505050600181019050612ef6565b5050509392505050565b6000612f5a612f55846154be565b61537d565b90508082856020860282011115612f7057600080fd5b60005b85811015612fa05781612f868882613541565b845260208401935060208301925050600181019050612f73565b5050509392505050565b6000612fbd612fb8846154e4565b61537d565b90508082856020860282011115612fd357600080fd5b60005b858110156130035781612fe98882613541565b845260208401935060208301925050600181019050612fd6565b5050509392505050565b600061302061301b8461550a565b61537d565b9050808285602086028201111561303657600080fd5b60005b85811015613066578161304c888261352c565b845260208401935060208301925050600181019050613039565b5050509392505050565b600061308361307e8461550a565b61537d565b9050808285602086028201111561309957600080fd5b60005b858110156130c957816130af8882613541565b84526020840193506020830192505060018101905061309c565b5050509392505050565b60006130e66130e184615530565b61537d565b9050808382526020820190508285602086028201111561310557600080fd5b60005b85811015613135578161311b888261352c565b845260208401935060208301925050600181019050613108565b5050509392505050565b600061315261314d84615530565b61537d565b9050808382526020820190508285602086028201111561317157600080fd5b60005b858110156131a157816131878882613541565b845260208401935060208301925050600181019050613174565b5050509392505050565b6000813590506131ba81615cfa565b92915050565b6000819050826020600702820111156131d857600080fd5b92915050565b60008083601f8401126131f057600080fd5b8235905067ffffffffffffffff81111561320957600080fd5b60208301915083602082028301111561322157600080fd5b9250929050565b600082601f83011261323957600080fd5b6002613246848285612958565b91505092915050565b600082601f83011261326057600080fd5b81356132708482602086016129d5565b91505092915050565b600082601f83011261328a57600080fd5b815161329a848260208601612a5b565b91505092915050565b600082601f8301126132b457600080fd5b81516132c4848260208601612ae1565b91505092915050565b600082601f8301126132de57600080fd5b60026132eb848285612b4d565b91505092915050565b600082601f83011261330557600080fd5b6002613312848285612bca565b91505092915050565b600082601f83011261332c57600080fd5b6005613339848285612c47565b91505092915050565b600082601f83011261335357600080fd5b6005613360848285612cc4565b91505092915050565b600082601f83011261337a57600080fd5b6006613387848285612d41565b91505092915050565b600082601f8301126133a157600080fd5b60066133ae848285612dbe565b91505092915050565b600082601f8301126133c857600080fd5b81356133d8848260208601612e3b565b91505092915050565b600082601f8301126133f257600080fd5b8151613402848260208601612ec1565b91505092915050565b600082601f83011261341c57600080fd5b6002613429848285612f47565b91505092915050565b600082601f83011261344357600080fd5b6003613450848285612faa565b91505092915050565b600082601f83011261346a57600080fd5b600461347784828561300d565b91505092915050565b600082601f83011261349157600080fd5b600461349e848285613070565b91505092915050565b600082601f8301126134b857600080fd5b81356134c88482602086016130d3565b91505092915050565b600082601f8301126134e257600080fd5b81516134f284826020860161313f565b91505092915050565b60008135905061350a81615d11565b92915050565b60006101a0828403121561352357600080fd5b81905092915050565b60008135905061353b81615d28565b92915050565b60008151905061355081615d28565b92915050565b60006020828403121561356857600080fd5b6000613576848285016131ab565b91505092915050565b6000806000610120848603121561359557600080fd5b60006135a3868287016131c0565b93505060e084013567ffffffffffffffff8111156135c057600080fd5b6135cc8682870161324f565b92505061010084013567ffffffffffffffff8111156135ea57600080fd5b6135f6868287016133b7565b9150509250925092565b6000806020838503121561361357600080fd5b600083013567ffffffffffffffff81111561362d57600080fd5b613639858286016131de565b92509250509250929050565b60006020828403121561365757600080fd5b600082015167ffffffffffffffff81111561367157600080fd5b61367d84828501613228565b91505092915050565b60006020828403121561369857600080fd5b600082015167ffffffffffffffff8111156136b257600080fd5b6136be84828501613279565b91505092915050565b6000602082840312156136d957600080fd5b600082015167ffffffffffffffff8111156136f357600080fd5b6136ff848285016132a3565b91505092915050565b60006020828403121561371a57600080fd5b600082015167ffffffffffffffff81111561373457600080fd5b61374084828501613342565b91505092915050565b600080600060c0848603121561375e57600080fd5b600084015167ffffffffffffffff81111561377857600080fd5b61378486828701613342565b935050602061379586828701613480565b92505060a084015167ffffffffffffffff8111156137b257600080fd5b6137be868287016132f4565b9150509250925092565b60008060008060e085870312156137de57600080fd5b600085013567ffffffffffffffff8111156137f857600080fd5b6138048782880161331b565b945050602061381587828801613459565b93505060a0613826878288016134fb565b92505060c085013567ffffffffffffffff81111561384357600080fd5b61384f878288016132cd565b91505092959194509250565b6000806040838503121561386e57600080fd5b600083013567ffffffffffffffff81111561388857600080fd5b6138948582860161331b565b92505060206138a58582860161352c565b9150509250929050565b6000602082840312156138c157600080fd5b600082015167ffffffffffffffff8111156138db57600080fd5b6138e784828501613390565b91505092915050565b6000806040838503121561390357600080fd5b600083013567ffffffffffffffff81111561391d57600080fd5b61392985828601613369565b925050602061393a8582860161352c565b9150509250929050565b60006020828403121561395657600080fd5b600082015167ffffffffffffffff81111561397057600080fd5b61397c848285016133e1565b91505092915050565b60006020828403121561399757600080fd5b600082013567ffffffffffffffff8111156139b157600080fd5b6139bd848285016134a7565b91505092915050565b6000602082840312156139d857600080fd5b600082015167ffffffffffffffff8111156139f257600080fd5b6139fe848285016134d1565b91505092915050565b600080600060608486031215613a1c57600080fd5b600084013567ffffffffffffffff811115613a3657600080fd5b613a42868287016134a7565b935050602084013567ffffffffffffffff811115613a5f57600080fd5b613a6b868287016133b7565b925050604084013567ffffffffffffffff811115613a8857600080fd5b613a94868287016134a7565b9150509250925092565b600080600060808486031215613ab357600080fd5b600084015167ffffffffffffffff811115613acd57600080fd5b613ad9868287016134d1565b9350506020613aea8682870161340b565b9250506060613afb86828701613541565b9150509250925092565b60008060408385031215613b1857600080fd5b600083013567ffffffffffffffff811115613b3257600080fd5b613b3e858286016134a7565b925050602083013567ffffffffffffffff811115613b5b57600080fd5b613b67858286016134a7565b9150509250929050565b600060208284031215613b8357600080fd5b600082013567ffffffffffffffff811115613b9d57600080fd5b613ba984828501613510565b91505092915050565b600060208284031215613bc457600080fd5b6000613bd28482850161352c565b91505092915050565b600060208284031215613bed57600080fd5b6000613bfb84828501613541565b91505092915050565b600080600080600060a08688031215613c1c57600080fd5b6000613c2a8882890161352c565b9550506020613c3b8882890161352c565b9450506040613c4c8882890161352c565b9350506060613c5d8882890161352c565b9250506080613c6e8882890161352c565b9150509295509295909350565b6000613c878383613d83565b60208301905092915050565b6000613ca0848484614098565b90509392505050565b6000613cb583836142e2565b905092915050565b6000613cc98383614441565b905092915050565b6000613cde8484846144b6565b90509392505050565b6000613cf3838361453c565b60608301905092915050565b6000613d0c848484614698565b90509392505050565b6000613d2183836146f0565b905092915050565b6000613d35838361480a565b905092915050565b6000613d4a8484846148c2565b90509392505050565b6000613d5f8383614a80565b60208301905092915050565b6000613d778383614aad565b60208301905092915050565b613d8c81615b6f565b82525050565b6000613d9e838561575d565b9350613da98261555c565b8060005b85811015613de257613dbf82846158bf565b613dc98882613c7b565b9750613dd48361568d565b925050600181019050613dad565b5085925050509392505050565b6000613dfb838561578a565b935083602084028501613e0d84615566565b8060005b87811015613e53578484038952613e288284615984565b613e33868284613c93565b9550613e3e8461569a565b935060208b019a505050600181019050613e11565b50829750879450505050509392505050565b6000613e7082615614565b613e7a818561576e565b935083602082028501613e8c85615570565b8060005b85811015613ec85784840389528151613ea98582613ca9565b9450613eb4836156a7565b925060208a01995050600181019050613e90565b50829750879550505050505092915050565b6000613ee58261561f565b613eef8185615779565b935083602082028501613f018561557a565b8060005b85811015613f3d5784840389528151613f1e8582613ca9565b9450613f29836156b4565b925060208a01995050600181019050613f05565b50829750879550505050505092915050565b6000613f5a8261561f565b613f64818561578a565b935083602082028501613f768561557a565b8060005b85811015613fb25784840389528151613f938582613cbd565b9450613f9e836156b4565b925060208a01995050600181019050613f7a565b50829750879550505050505092915050565b6000613fd0838561579b565b935083602084028501613fe28461558a565b8060005b87811015614028578484038952613ffd82846159db565b614008868284613cd1565b9550614013846156c1565b935060208b019a505050600181019050613fe6565b50829750879450505050509392505050565b60006140458261562a565b61404f81856157ac565b935061405a83615594565b8060005b8381101561408b5781516140728882613ce7565b975061407d836156ce565b92505060018101905061405e565b5085935050505092915050565b60006140a4838561581c565b9350836020840285016140b6846155a4565b8060005b878110156140fc5784840389526140d18284615a3d565b6140dc868284613cff565b95506140e7846156db565b935060208b019a5050506001810190506140ba565b50829750879450505050509392505050565b600061411982615635565b61412381856157bd565b935083602082028501614135856155ae565b8060005b8581101561417157848403895281516141528582613d29565b945061415d836156e8565b925060208a01995050600181019050614139565b50829750879550505050505092915050565b600061418e82615640565b61419881856157c8565b9350836020820285016141aa856155b8565b8060005b858110156141e657848403895281516141c78582613d15565b94506141d2836156f5565b925060208a019950506001810190506141ae565b50829750879550505050505092915050565b600061420382615640565b61420d81856157d3565b93508360208202850161421f856155b8565b8060005b8581101561425b578484038952815161423c8582613d29565b9450614247836156f5565b925060208a01995050600181019050614223565b50829750879550505050505092915050565b60006142788261564b565b61428281856157de565b935083602082028501614294856155c2565b8060005b858110156142d057848403895281516142b18582613d29565b94506142bc83615702565b925060208a01995050600181019050614298565b50829750879550505050505092915050565b60006142ed82615656565b6142f781856157e9565b935083602082028501614309856155cc565b8060005b8581101561434557848403895281516143268582613d15565b94506143318361570f565b925060208a0199505060018101905061430d565b50829750879550505050505092915050565b600061436282615656565b61436c81856157fa565b93508360208202850161437e856155cc565b8060005b858110156143ba578484038952815161439b8582613d15565b94506143a68361570f565b925060208a01995050600181019050614382565b50829750879550505050505092915050565b60006143d782615656565b6143e1818561580b565b9350836020820285016143f3856155cc565b8060005b8581101561442f57848403895281516144108582613d29565b945061441b8361570f565b925060208a019950506001810190506143f7565b50829750879550505050505092915050565b600061444c82615656565b614456818561581c565b935083602082028501614468856155cc565b8060005b858110156144a457848403895281516144858582613d29565b94506144908361570f565b925060208a0199505060018101905061446c565b50829750879550505050505092915050565b60006144c2838561582d565b9350836020840285016144d4846155dc565b8060005b8781101561451a5784840389526144ef8284615aab565b6144fa868284613d3d565b95506145058461571c565b935060208b019a5050506001810190506144d8565b50829750879450505050509392505050565b61453860408383615c02565b5050565b61454581615661565b61454f818461583e565b925061455a826155e6565b8060005b8381101561458b5781516145728782613d53565b965061457d83615729565b92505060018101905061455e565b505050505050565b61459c81615661565b6145a68184615849565b92506145b1826155e6565b8060005b838110156145e25781516145c98782613d53565b96506145d483615729565b9250506001810190506145b5565b505050505050565b6145f38161566c565b6145fd8184615854565b9250614608826155f0565b8060005b838110156146395781516146208782613d6b565b965061462b83615736565b92505060018101905061460c565b505050505050565b61464a81615677565b614654818461585f565b925061465f826155fa565b8060005b838110156146905781516146778782613d6b565b965061468283615743565b925050600181019050614663565b505050505050565b60006146a4838561589d565b93507f07ffffffffffffffffffffffffffffffffffffffffffffffffffffffffffffff8311156146d357600080fd5b6020830292506146e4838584615c02565b82840190509392505050565b60006146fb82615682565b614705818561586a565b935061471083615604565b8060005b838110156147415781516147288882613d53565b975061473383615750565b925050600181019050614714565b5085935050505092915050565b600061475982615682565b614763818561587b565b935061476e83615604565b8060005b8381101561479f5781516147868882613d53565b975061479183615750565b925050600181019050614772565b5085935050505092915050565b60006147b782615682565b6147c1818561588c565b93506147cc83615604565b8060005b838110156147fd5781516147e48882613d6b565b97506147ef83615750565b9250506001810190506147d0565b5085935050505092915050565b600061481582615682565b61481f818561589d565b935061482a83615604565b8060005b8381101561485b5781516148428882613d6b565b975061484d83615750565b92505060018101905061482e565b5085935050505092915050565b61487181615b81565b82525050565b61488081615b81565b82525050565b61488f81615b81565b82525050565b61489e81615bcc565b82525050565b6148ad81615bde565b82525050565b6148bc81615bf0565b82525050565b60006148ce83856158ae565b93506148db838584615c02565b6148e483615ce9565b840190509392505050565b8082525050565b60006101a0830161490a6000840184615b02565b6149176000860182614aad565b506149256020840184615a94565b6149326020860182614886565b506149406040840184615a3d565b8583036040870152614953838284614698565b925050506149646060840184615984565b8583036060870152614977838284614098565b9250505061498860808401846158d6565b858303608087015261499b838284613d92565b925050506149ac60a084018461592d565b85830360a08701526149bf838284613fc4565b925050506149d060c0840184615b02565b6149dd60c0860182614aad565b506149eb60e0840184615b02565b6149f860e0860182614aad565b50614a07610100840184615b02565b614a15610100860182614aad565b50614a24610120840184615a32565b614a3261012086018261452c565b50614a41610160840184615a94565b614a4f610160860182614886565b50614a5e610180840184615a3d565b858303610180870152614a72838284614698565b925050508091505092915050565b614a8981615bad565b82525050565b614a9881615bad565b82525050565b614aa781615bad565b82525050565b614ab681615bad565b82525050565b60006040820190508181036000830152614ad7818587613def565b9050614ae660208301846148ef565b949350505050565b60006020820190508181036000830152614b088184613e65565b905092915050565b60006020820190508181036000830152614b2a8184613f4f565b905092915050565b60006020820190508181036000830152614b4c8184613eda565b905092915050565b60006060820190508181036000830152614b6e8186613f4f565b90508181036020830152614b8281856143cc565b9050614b9160408301846148ef565b949350505050565b60006060820190508181036000830152614bb38186613f4f565b90508181036020830152614bc781856147ac565b9050614bd66040830184614a9e565b949350505050565b60006020820190508181036000830152614bf8818461403a565b905092915050565b60006040820190508181036000830152614c1a81856141f8565b90508181036020830152614c2e8184613f4f565b90509392505050565b60006060820190508181036000830152614c5181866141f8565b90508181036020830152614c658185613f4f565b90508181036040830152614c7981846147ac565b9050949350505050565b60006080820190508181036000830152614c9d81876141f8565b90508181036020830152614cb18186613f4f565b9050614cc060408301856148ef565b8181036060830152614cd281846147ac565b905095945050505050565b600060a0820190508181036000830152614cf781886141f8565b90508181036020830152614d0b8187613f4f565b9050614d1a6040830186614a9e565b614d276060830185614877565b8181036080830152614d39818461410e565b90509695505050505050565b600060e0820190508181036000830152614d5f81876141f8565b9050614d6e60208301866145ea565b614d7b60a0830185614877565b614d8860c08301846148ef565b95945050505050565b60006060820190508181036000830152614dab81866141f8565b90508181036020830152614dbf81856147ac565b9050614dce60408301846148ef565b949350505050565b600060a0820190508181036000830152614df08188614183565b90508181036020830152614e04818761474e565b9050614e136040830186614a8f565b8181036060830152614e258185613eda565b9050614e346080830184614868565b9695505050505050565b600060c0820190508181036000830152614e588189614183565b9050614e676020830188614895565b614e746040830187614895565b614e816060830186614868565b614e8e6080830185614868565b614e9b60a08301846148b3565b979650505050505050565b60006060820190508181036000830152614ec081866141f8565b9050614ecf60208301856148ef565b614edc6040830184614a9e565b949350505050565b60006060820190508181036000830152614efe818661426d565b9050614f0d6020830185614a9e565b614f1a60408301846148ef565b949350505050565b60006020820190508181036000830152614f3c81846143cc565b905092915050565b60006020820190508181036000830152614f5e8184614357565b905092915050565b60006080820190508181036000830152614f8081876143cc565b9050614f8f6020830186614a9e565b8181036040830152614fa181856147ac565b9050614fb060608301846148a4565b95945050505050565b6000606082019050614fce6000830184614593565b92915050565b600060e082019050614fe96000830184614641565b92915050565b60006020820190508181036000830152615009818461474e565b905092915050565b6000604082019050818103600083015261502b81856147ac565b9050818103602083015261503f8184613f4f565b90509392505050565b6000608082019050818103600083015261506281876147ac565b9050818103602083015261507681866143cc565b9050818103604083015261508a81856147ac565b9050818103606083015261509e8184613f4f565b905095945050505050565b600060608201905081810360008301526150c3818661474e565b905081810360208301526150d7818561474e565b90506150e66040830184614a8f565b949350505050565b6000604082019050818103600083015261510881856147ac565b905061511760208301846148ef565b9392505050565b6000606082019050818103600083015261513881866147ac565b905061514760208301856148ef565b818103604083015261515981846147ac565b9050949350505050565b6000602082019050818103600083015261517d81846148f6565b905092915050565b6000604082019050818103600083015261519f81856148f6565b90506151ae6020830184614a9e565b9392505050565b60006020820190506151ca6000830184614a8f565b92915050565b60006060820190506151e56000830186614a9e565b81810360208301526151f781856143cc565b905061520660408301846148ef565b949350505050565b60006040820190506152236000830185614a9e565b61523060208301846148ef565b9392505050565b600060808201905061524c6000830187614a8f565b6152596020830186614a8f565b6152666040830185614a8f565b6152736060830184614a8f565b95945050505050565b600060a0820190506152916000830188614a8f565b61529e6020830187614a8f565b6152ab6040830186614a8f565b6152b86060830185614a8f565b6152c56080830184614a8f565b9695505050505050565b600080833560016020038436030381126152e857600080fd5b80840192508235915067ffffffffffffffff82111561530657600080fd5b60208301925060208202360383131561531e57600080fd5b509250929050565b6000808335600160200384360303811261533f57600080fd5b80840192508235915067ffffffffffffffff82111561535d57600080fd5b60208301925060208202360383131561537557600080fd5b509250929050565b6000615387615398565b90506153938282615c11565b919050565b6000604051905090565b600067ffffffffffffffff8211156153bd576153bc615cba565b5b602082029050919050565b600067ffffffffffffffff8211156153e3576153e2615cba565b5b602082029050602081019050919050565b600067ffffffffffffffff82111561540f5761540e615cba565b5b602082029050602081019050919050565b600067ffffffffffffffff82111561543b5761543a615cba565b5b602082029050919050565b600067ffffffffffffffff82111561546157615460615cba565b5b602082029050919050565b600067ffffffffffffffff82111561548757615486615cba565b5b602082029050919050565b600067ffffffffffffffff8211156154ad576154ac615cba565b5b602082029050602081019050919050565b600067ffffffffffffffff8211156154d9576154d8615cba565b5b602082029050919050565b600067ffffffffffffffff8211156154ff576154fe615cba565b5b602082029050919050565b600067ffffffffffffffff82111561552557615524615cba565b5b602082029050919050565b600067ffffffffffffffff82111561554b5761554a615cba565b5b602082029050602081019050919050565b6000819050919050565b6000819050919050565b6000819050919050565b6000819050602082019050919050565b6000819050919050565b6000819050602082019050919050565b6000819050919050565b6000819050919050565b6000819050919050565b6000819050919050565b6000819050602082019050919050565b6000819050919050565b6000819050919050565b6000819050919050565b6000819050919050565b6000819050602082019050919050565b600060029050919050565b600081519050919050565b600081519050919050565b600060029050919050565b600060059050919050565b600060069050919050565b600081519050919050565b600060039050919050565b600060049050919050565b600060079050919050565b600081519050919050565b6000602082019050919050565b6000602082019050919050565b6000602082019050919050565b6000602082019050919050565b6000602082019050919050565b6000602082019050919050565b6000602082019050919050565b6000602082019050919050565b6000602082019050919050565b6000602082019050919050565b6000602082019050919050565b6000602082019050919050565b6000602082019050919050565b6000602082019050919050565b6000602082019050919050565b6000602082019050919050565b600082825260208201905092915050565b600081905092915050565b600082825260208201905092915050565b600082825260208201905092915050565b600082825260208201905092915050565b600082825260208201905092915050565b600081905092915050565b600081905092915050565b600081905092915050565b600081905092915050565b600082825260208201905092915050565b600082825260208201905092915050565b600082825260208201905092915050565b600082825260208201905092915050565b600082825260208201905092915050565b600081905092915050565b600081905092915050565b600081905092915050565b600081905092915050565b600082825260208201905092915050565b600082825260208201905092915050565b600082825260208201905092915050565b600082825260208201905092915050565b600082825260208201905092915050565b60006158ce60208401846131ab565b905092915050565b600080833560016020038436030381126158ef57600080fd5b83810192508235915060208301925067ffffffffffffffff82111561591357600080fd5b60208202360384131561592557600080fd5b509250929050565b6000808335600160200384360303811261594657600080fd5b83810192508235915060208301925067ffffffffffffffff82111561596a57600080fd5b60208202360384131561597c57600080fd5b509250929050565b6000808335600160200384360303811261599d57600080fd5b83810192508235915060208301925067ffffffffffffffff8211156159c157600080fd5b6020820236038413156159d357600080fd5b509250929050565b600080833560016020038436030381126159f457600080fd5b83810192508235915060208301925067ffffffffffffffff821115615a1857600080fd5b602082023603841315615a2a57600080fd5b509250929050565b600082905092915050565b60008083356001602003843603038112615a5657600080fd5b83810192508235915060208301925067ffffffffffffffff821115615a7a57600080fd5b602082023603841315615a8c57600080fd5b509250929050565b6000615aa360208401846134fb565b905092915050565b60008083356001602003843603038112615ac457600080fd5b83810192508235915060208301925067ffffffffffffffff821115615ae857600080fd5b600182023603841315615afa57600080fd5b509250929050565b6000615b11602084018461352c565b905092915050565b6000615b2482615bad565b9150615b2f83615bad565b9250827fffffffffffffffffffffffffffffffffffffffffffffffffffffffffffffffff03821115615b6457615b63615c8b565b5b828201905092915050565b6000615b7a82615b8d565b9050919050565b60008115159050919050565b600073ffffffffffffffffffffffffffffffffffffffff82169050919050565b6000819050919050565b6000615bc4368484612e3b565b905092915050565b6000615bd782615bad565b9050919050565b6000615be982615bad565b9050919050565b6000615bfb82615bad565b9050919050565b82818337600083830152505050565b615c1a82615ce9565b810181811067ffffffffffffffff82111715615c3957615c38615cba565b5b80604052505050565b6000615c4d82615bad565b91507fffffffffffffffffffffffffffffffffffffffffffffffffffffffffffffffff821415615c8057615c7f615c8b565b5b600182019050919050565b7f4e487b7100000000000000000000000000000000000000000000000000000000600052601160045260246000fd5b7f4e487b7100000000000000000000000000000000000000000000000000000000600052604160045260246000fd5b6000601f19601f8301169050919050565b615d0381615b6f565b8114615d0e57600080fd5b50565b615d1a81615b81565b8114615d2557600080fd5b50565b615d3181615bad565b8114615d3c57600080fd5b5056fea2646970667358221220895592ffac0321c8c5df2d0d168f534d8dc5133b91794aa8375664f03fc4879a64736f6c63430008040033",
  "linkReferences": {
    "contracts/E5D/E3.sol": {
      "E3": [
        {
          "length": 20,
          "start": 4679
        },
        {
          "length": 20,
          "start": 4877
        },
        {
          "length": 20,
          "start": 5098
        }
      ]
    },
    "contracts/E5D/E32.sol": {
      "E32": [
        {
          "length": 20,
          "start": 5638
        },
        {
          "length": 20,
          "start": 5784
        },
        {
          "length": 20,
          "start": 6889
        },
        {
          "length": 20,
          "start": 8424
        }
      ]
    },
    "contracts/E5D/E33.sol": {
      "E33": [
        {
          "length": 20,
          "start": 1387
        },
        {
          "length": 20,
          "start": 2783
        },
        {
          "length": 20,
          "start": 5430
        },
        {
          "length": 20,
          "start": 6525
        },
        {
          "length": 20,
          "start": 7850
        }
      ]
    },
    "contracts/E5D/E34.sol": {
      "E34": [
        {
          "length": 20,
          "start": 1518
        }
      ]
    },
    "contracts/H5D/H3.sol": {
      "H3": [
        {
          "length": 20,
          "start": 1682
        },
        {
          "length": 20,
          "start": 1929
        },
        {
          "length": 20,
          "start": 2963
        },
        {
          "length": 20,
          "start": 3726
        },
        {
          "length": 20,
          "start": 3935
        },
        {
          "length": 20,
          "start": 6369
        },
        {
          "length": 20,
          "start": 6733
        },
        {
          "length": 20,
          "start": 8050
        },
        {
          "length": 20,
          "start": 8272
        },
        {
          "length": 20,
          "start": 8573
        },
        {
          "length": 20,
          "start": 8688
        }
      ]
    },
    "contracts/H5D/H32.sol": {
      "H32": [
        {
          "length": 20,
          "start": 5284
        }
      ]
    }
  },
  "deployedLinkReferences": {
    "contracts/E5D/E3.sol": {
      "E3": [
        {
          "length": 20,
          "start": 4360
        },
        {
          "length": 20,
          "start": 4558
        },
        {
          "length": 20,
          "start": 4779
        }
      ]
    },
    "contracts/E5D/E32.sol": {
      "E32": [
        {
          "length": 20,
          "start": 5319
        },
        {
          "length": 20,
          "start": 5465
        },
        {
          "length": 20,
          "start": 6570
        },
        {
          "length": 20,
          "start": 8105
        }
      ]
    },
    "contracts/E5D/E33.sol": {
      "E33": [
        {
          "length": 20,
          "start": 1068
        },
        {
          "length": 20,
          "start": 2464
        },
        {
          "length": 20,
          "start": 5111
        },
        {
          "length": 20,
          "start": 6206
        },
        {
          "length": 20,
          "start": 7531
        }
      ]
    },
    "contracts/E5D/E34.sol": {
      "E34": [
        {
          "length": 20,
          "start": 1199
        }
      ]
    },
    "contracts/H5D/H3.sol": {
      "H3": [
        {
          "length": 20,
          "start": 1363
        },
        {
          "length": 20,
          "start": 1610
        },
        {
          "length": 20,
          "start": 2644
        },
        {
          "length": 20,
          "start": 3407
        },
        {
          "length": 20,
          "start": 3616
        },
        {
          "length": 20,
          "start": 6050
        },
        {
          "length": 20,
          "start": 6414
        },
        {
          "length": 20,
          "start": 7731
        },
        {
          "length": 20,
          "start": 7953
        },
        {
          "length": 20,
          "start": 8254
        },
        {
          "length": 20,
          "start": 8369
        }
      ]
    },
    "contracts/H5D/H32.sol": {
      "H32": [
        {
          "length": 20,
          "start": 4965
        }
      ]
    }
  }
}