{
  "_format": "hh-sol-artifact-1",
  "contractName": "H52",
  "sourceName": "contracts/H5D/H52.sol",
  "abi": [
    {
      "inputs": [
        {
          "internalType": "address",
          "name": "p1",
          "type": "address"
        }
      ],
      "stateMutability": "nonpayable",
      "type": "constructor"
    },
    {
      "anonymous": false,
      "inputs": [
        {
          "indexed": true,
          "internalType": "uint256",
          "name": "p1",
          "type": "uint256"
        },
        {
          "indexed": true,
          "internalType": "uint256",
          "name": "p2",
          "type": "uint256"
        },
        {
          "indexed": true,
          "internalType": "uint256",
          "name": "p3",
          "type": "uint256"
        },
        {
          "indexed": false,
          "internalType": "uint256",
          "name": "p4",
          "type": "uint256"
        },
        {
          "indexed": false,
          "internalType": "uint256",
          "name": "p7",
          "type": "uint256"
        },
        {
          "indexed": false,
          "internalType": "uint256",
          "name": "p5",
          "type": "uint256"
        },
        {
          "indexed": false,
          "internalType": "uint256",
          "name": "p6",
          "type": "uint256"
        }
      ],
      "name": "e1",
      "type": "event"
    },
    {
      "anonymous": false,
      "inputs": [
        {
          "indexed": true,
          "internalType": "uint256",
          "name": "p1",
          "type": "uint256"
        },
        {
          "indexed": true,
          "internalType": "uint256",
          "name": "p2",
          "type": "uint256"
        },
        {
          "indexed": false,
          "internalType": "uint256",
          "name": "p3",
          "type": "uint256"
        },
        {
          "indexed": false,
          "internalType": "uint256",
          "name": "p4",
          "type": "uint256"
        },
        {
          "indexed": false,
          "internalType": "uint256",
          "name": "p5",
          "type": "uint256"
        },
        {
          "indexed": false,
          "internalType": "uint256",
          "name": "p6",
          "type": "uint256"
        }
      ],
      "name": "e2",
      "type": "event"
    },
    {
      "anonymous": false,
      "inputs": [
        {
          "indexed": true,
          "internalType": "uint256",
          "name": "p1",
          "type": "uint256"
        },
        {
          "indexed": true,
          "internalType": "uint256",
          "name": "p2",
          "type": "uint256"
        },
        {
          "indexed": true,
          "internalType": "uint256",
          "name": "p3",
          "type": "uint256"
        },
        {
          "indexed": false,
          "internalType": "uint256",
          "name": "p4",
          "type": "uint256"
        },
        {
          "indexed": false,
          "internalType": "uint256",
          "name": "p5",
          "type": "uint256"
        },
        {
          "indexed": false,
          "internalType": "uint256",
          "name": "p6",
          "type": "uint256"
        },
        {
          "indexed": false,
          "internalType": "uint256",
          "name": "p7",
          "type": "uint256"
        },
        {
          "indexed": false,
          "internalType": "uint256",
          "name": "p8",
          "type": "uint256"
        }
      ],
      "name": "e3",
      "type": "event"
    },
    {
      "anonymous": false,
      "inputs": [
        {
          "indexed": true,
          "internalType": "uint256",
          "name": "p1",
          "type": "uint256"
        },
        {
          "indexed": true,
          "internalType": "uint256",
          "name": "p2",
          "type": "uint256"
        },
        {
          "indexed": true,
          "internalType": "uint256",
          "name": "p3",
          "type": "uint256"
        },
        {
          "indexed": false,
          "internalType": "string",
          "name": "p4",
          "type": "string"
        },
        {
          "indexed": false,
          "internalType": "uint256",
          "name": "p5",
          "type": "uint256"
        },
        {
          "indexed": false,
          "internalType": "uint256",
          "name": "p6",
          "type": "uint256"
        },
        {
          "indexed": false,
          "internalType": "uint256",
          "name": "p7",
          "type": "uint256"
        }
      ],
      "name": "e5",
      "type": "event"
    },
    {
      "anonymous": false,
      "inputs": [
        {
          "indexed": true,
          "internalType": "uint256",
          "name": "p1",
          "type": "uint256"
        },
        {
          "indexed": true,
          "internalType": "uint256",
          "name": "p2",
          "type": "uint256"
        },
        {
          "indexed": false,
          "internalType": "uint256",
          "name": "p3",
          "type": "uint256"
        },
        {
          "indexed": false,
          "internalType": "uint256",
          "name": "p4",
          "type": "uint256"
        },
        {
          "indexed": false,
          "internalType": "uint256",
          "name": "p5",
          "type": "uint256"
        },
        {
          "indexed": true,
          "internalType": "uint256",
          "name": "p6",
          "type": "uint256"
        },
        {
          "indexed": false,
          "internalType": "uint256",
          "name": "p7",
          "type": "uint256"
        },
        {
          "indexed": false,
          "internalType": "uint256",
          "name": "p8",
          "type": "uint256"
        }
      ],
      "name": "power",
      "type": "event"
    },
    {
      "inputs": [
        {
          "internalType": "uint256[]",
          "name": "p1",
          "type": "uint256[]"
        },
        {
          "internalType": "uint256[]",
          "name": "p2",
          "type": "uint256[]"
        },
        {
          "internalType": "uint256[]",
          "name": "p3",
          "type": "uint256[]"
        },
        {
          "internalType": "uint256",
          "name": "p4",
          "type": "uint256"
        }
      ],
      "name": "f140",
      "outputs": [
        {
          "internalType": "uint256[]",
          "name": "v1",
          "type": "uint256[]"
        }
      ],
      "stateMutability": "view",
      "type": "function"
    },
    {
      "inputs": [
        {
          "internalType": "uint256[]",
          "name": "p1",
          "type": "uint256[]"
        },
        {
          "internalType": "uint256",
          "name": "p2",
          "type": "uint256"
        },
        {
          "internalType": "uint256[]",
          "name": "p3",
          "type": "uint256[]"
        }
      ],
      "name": "f140e",
      "outputs": [
        {
          "internalType": "uint256[]",
          "name": "v1",
          "type": "uint256[]"
        }
      ],
      "stateMutability": "view",
      "type": "function"
    },
    {
      "inputs": [
        {
          "internalType": "address[7]",
          "name": "p1",
          "type": "address[7]"
        }
      ],
      "name": "f163",
      "outputs": [],
      "stateMutability": "nonpayable",
      "type": "function"
    },
    {
      "inputs": [
        {
          "internalType": "uint256[][6]",
          "name": "p1",
          "type": "uint256[][6]"
        },
        {
          "internalType": "uint256[]",
          "name": "p2",
          "type": "uint256[]"
        },
        {
          "internalType": "uint256",
          "name": "p3",
          "type": "uint256"
        },
        {
          "internalType": "uint256[][][]",
          "name": "p4",
          "type": "uint256[][][]"
        },
        {
          "internalType": "bool",
          "name": "p5",
          "type": "bool"
        }
      ],
      "name": "f182",
      "outputs": [],
      "stateMutability": "nonpayable",
      "type": "function"
    },
    {
      "inputs": [
        {
          "internalType": "uint256[][5]",
          "name": "p1",
          "type": "uint256[][5]"
        },
        {
          "internalType": "uint256",
          "name": "p2",
          "type": "uint256"
        },
        {
          "internalType": "uint256",
          "name": "p3",
          "type": "uint256"
        },
        {
          "internalType": "bool",
          "name": "p4",
          "type": "bool"
        },
        {
          "internalType": "bool",
          "name": "p5",
          "type": "bool"
        },
        {
          "internalType": "uint256",
          "name": "p6",
          "type": "uint256"
        }
      ],
      "name": "f184",
      "outputs": [],
      "stateMutability": "nonpayable",
      "type": "function"
    },
    {
      "inputs": [
        {
          "components": [
            {
              "internalType": "uint256",
              "name": "sv1",
              "type": "uint256"
            },
            {
              "internalType": "bool",
              "name": "sv2",
              "type": "bool"
            },
            {
              "internalType": "uint256[]",
              "name": "sv3",
              "type": "uint256[]"
            },
            {
              "internalType": "uint256[][]",
              "name": "sv4",
              "type": "uint256[][]"
            },
            {
              "internalType": "address[]",
              "name": "sv5",
              "type": "address[]"
            },
            {
              "internalType": "string[][]",
              "name": "sv6",
              "type": "string[][]"
            },
            {
              "internalType": "uint256",
              "name": "t",
              "type": "uint256"
            },
            {
              "internalType": "uint256",
              "name": "sv7",
              "type": "uint256"
            },
            {
              "internalType": "uint256",
              "name": "sv8",
              "type": "uint256"
            },
            {
              "internalType": "uint256[2]",
              "name": "sv9",
              "type": "uint256[2]"
            },
            {
              "internalType": "bool",
              "name": "sv10",
              "type": "bool"
            },
            {
              "internalType": "uint256[]",
              "name": "sv11",
              "type": "uint256[]"
            }
          ],
          "internalType": "struct E3.TD",
          "name": "p1",
          "type": "tuple"
        }
      ],
      "name": "f185",
      "outputs": [],
      "stateMutability": "nonpayable",
      "type": "function"
    },
    {
      "inputs": [
        {
          "internalType": "uint256[][6]",
          "name": "p1",
          "type": "uint256[][6]"
        },
        {
          "internalType": "uint256",
          "name": "p2",
          "type": "uint256"
        }
      ],
      "name": "f199",
      "outputs": [],
      "stateMutability": "nonpayable",
      "type": "function"
    },
    {
      "inputs": [
        {
          "internalType": "uint256[]",
          "name": "p1",
          "type": "uint256[]"
        },
        {
          "internalType": "bool[]",
          "name": "p2",
          "type": "bool[]"
        },
        {
          "internalType": "uint256[]",
          "name": "p3",
          "type": "uint256[]"
        },
        {
          "internalType": "uint256",
          "name": "p4",
          "type": "uint256"
        },
        {
          "internalType": "uint256[][]",
          "name": "p5",
          "type": "uint256[][]"
        },
        {
          "internalType": "uint256[][]",
          "name": "p6",
          "type": "uint256[][]"
        },
        {
          "internalType": "uint256[]",
          "name": "p7",
          "type": "uint256[]"
        }
      ],
      "name": "f204",
      "outputs": [],
      "stateMutability": "nonpayable",
      "type": "function"
    },
    {
      "inputs": [
        {
          "internalType": "uint256[][6]",
          "name": "p1",
          "type": "uint256[][6]"
        },
        {
          "internalType": "uint256",
          "name": "p2",
          "type": "uint256"
        }
      ],
      "name": "f227",
      "outputs": [],
      "stateMutability": "nonpayable",
      "type": "function"
    },
    {
      "inputs": [
        {
          "internalType": "uint256[]",
          "name": "p1",
          "type": "uint256[]"
        },
        {
          "internalType": "uint256[][]",
          "name": "p2",
          "type": "uint256[][]"
        },
        {
          "internalType": "uint256[]",
          "name": "p4",
          "type": "uint256[]"
        },
        {
          "internalType": "uint256",
          "name": "p5",
          "type": "uint256"
        },
        {
          "internalType": "uint256",
          "name": "p6",
          "type": "uint256"
        }
      ],
      "name": "f270",
      "outputs": [
        {
          "internalType": "uint256[][]",
          "name": "v1",
          "type": "uint256[][]"
        }
      ],
      "stateMutability": "view",
      "type": "function"
    }
  ],
  "bytecode": "0x60a060405260008060006101000a81548160ff0219169083151502179055503480156200002b57600080fd5b5060405162005f6f38038062005f6f8339818101604052810190620000519190620000a6565b8073ffffffffffffffffffffffffffffffffffffffff1660808173ffffffffffffffffffffffffffffffffffffffff1660601b815250505062000120565b600081519050620000a08162000106565b92915050565b600060208284031215620000b957600080fd5b6000620000c9848285016200008f565b91505092915050565b6000620000df82620000e6565b9050919050565b600073ffffffffffffffffffffffffffffffffffffffff82169050919050565b6200011181620000d2565b81146200011d57600080fd5b50565b60805160601c615e306200013f6000396000611c080152615e306000f3fe608060405234801561001057600080fd5b506004361061008e5760003560e01c80630a2775c1146100935780634d729ec7146100af5780635af72c5b146100cb5780635d7810b5146100fb5780636228251b1461011757806374146c94146101335780639cc2ff8c1461014f578063d7e0ff1c1461016b578063d94e88251461019b578063f572c036146101cb575b600080fd5b6100ad60048036038101906100a89190613e74565b6101e7565b005b6100c960048036038101906100c49190613f33565b610c6e565b005b6100e560048036038101906100e09190614203565b61121a565b6040516100f2919061507f565b60405180910390f35b610115600480360381019061011091906140d5565b6112bb565b005b610131600480360381019061012c9190613d92565b61188f565b005b61014d60048036038101906101489190613bf9565b611c06565b005b61016960048036038101906101649190614356565b611edd565b005b610185600480360381019061018091906142ae565b61266a565b604051610192919061507f565b60405180910390f35b6101b560048036038101906101b09190613fc8565b612708565b6040516101c29190614fe1565b60405180910390f35b6101e560048036038101906101e09190613f33565b6127b5565b005b3360011515600160008373ffffffffffffffffffffffffffffffffffffffff1673ffffffffffffffffffffffffffffffffffffffff16815260200190815260200160002060009054906101000a900460ff1615151461024557600080fd5b600073__$7838764baeda9797ed1c4143c794f29b4f$__63343d26ac88888789886040518663ffffffff1660e01b8152600401610286959493929190614e48565b60006040518083038186803b15801561029e57600080fd5b505af41580156102b2573d6000803e3d6000fd5b505050506040513d6000823e3d601f19601f820116820180604052508101906102db9190613c22565b9050600073__$c1efb2dccb00bdcdb4d2f4fb75b83e81b5$__630a2e629189898989896002896040518863ffffffff1660e01b81526004016103239796959493929190614eb0565b60006040518083038186803b15801561033b57600080fd5b505af415801561034f573d6000803e3d6000fd5b505050506040513d6000823e3d601f19601f820116820180604052508101906103789190613ca4565b9050836109cf5760005b886001600681106103bc577f4e487b7100000000000000000000000000000000000000000000000000000000600052603260045260246000fd5b6020020151518110156109cd5760005b868281518110610405577f4e487b7100000000000000000000000000000000000000000000000000000000600052603260045260246000fd5b6020026020010151600381518110610446577f4e487b7100000000000000000000000000000000000000000000000000000000600052603260045260246000fd5b6020026020010151518110156109b9576000878381518110610491577f4e487b7100000000000000000000000000000000000000000000000000000000600052603260045260246000fd5b60200260200101516003815181106104d2577f4e487b7100000000000000000000000000000000000000000000000000000000600052603260045260246000fd5b60200260200101518281518110610512577f4e487b7100000000000000000000000000000000000000000000000000000000600052603260045260246000fd5b6020026020010151141580156105ea5750600087838151811061055e577f4e487b7100000000000000000000000000000000000000000000000000000000600052603260045260246000fd5b602002602001015160048151811061059f577f4e487b7100000000000000000000000000000000000000000000000000000000600052603260045260246000fd5b602002602001015182815181106105df577f4e487b7100000000000000000000000000000000000000000000000000000000600052603260045260246000fd5b602002602001015114155b156109a657838281518110610628577f4e487b7100000000000000000000000000000000000000000000000000000000600052603260045260246000fd5b60200260200101518181518110610668577f4e487b7100000000000000000000000000000000000000000000000000000000600052603260045260246000fd5b60200260200101516002600481106106a9577f4e487b7100000000000000000000000000000000000000000000000000000000600052603260045260246000fd5b60200201518483815181106106e7577f4e487b7100000000000000000000000000000000000000000000000000000000600052603260045260246000fd5b60200260200101518281518110610727577f4e487b7100000000000000000000000000000000000000000000000000000000600052603260045260246000fd5b6020026020010151600160048110610768577f4e487b7100000000000000000000000000000000000000000000000000000000600052603260045260246000fd5b60200201518b6001600681106107a7577f4e487b7100000000000000000000000000000000000000000000000000000000600052603260045260246000fd5b602002015184815181106107e4577f4e487b7100000000000000000000000000000000000000000000000000000000600052603260045260246000fd5b60200260200101517fe00ec1639c1c4888fdca48068d74d67a13adc5998c198ac533b78a0c53a33f9b878681518110610846577f4e487b7100000000000000000000000000000000000000000000000000000000600052603260045260246000fd5b60200260200101518581518110610886577f4e487b7100000000000000000000000000000000000000000000000000000000600052603260045260246000fd5b60200260200101516000600481106108c7577f4e487b7100000000000000000000000000000000000000000000000000000000600052603260045260246000fd5b6020020151888781518110610905577f4e487b7100000000000000000000000000000000000000000000000000000000600052603260045260246000fd5b60200260200101518681518110610945577f4e487b7100000000000000000000000000000000000000000000000000000000600052603260045260246000fd5b6020026020010151600360048110610986577f4e487b7100000000000000000000000000000000000000000000000000000000600052603260045260246000fd5b6020020151424360405161099d94939291906151cc565b60405180910390a45b80806109b190615cce565b9150506103cc565b5080806109c590615cce565b915050610382565b505b60005b88600160068110610a0c577f4e487b7100000000000000000000000000000000000000000000000000000000600052603260045260246000fd5b602002015151811015610c6357818181518110610a52577f4e487b7100000000000000000000000000000000000000000000000000000000600052603260045260246000fd5b6020026020010151600060038110610a93577f4e487b7100000000000000000000000000000000000000000000000000000000600052603260045260246000fd5b602002015189600160068110610ad2577f4e487b7100000000000000000000000000000000000000000000000000000000600052603260045260246000fd5b60200201518281518110610b0f577f4e487b7100000000000000000000000000000000000000000000000000000000600052603260045260246000fd5b60200260200101517ff785fa2850b07c67f6034bb0a72dff8d44f1b7103471ad13d4300adf935ebd18848481518110610b71577f4e487b7100000000000000000000000000000000000000000000000000000000600052603260045260246000fd5b6020026020010151600260038110610bb2577f4e487b7100000000000000000000000000000000000000000000000000000000600052603260045260246000fd5b60200201514243878781518110610bf2577f4e487b7100000000000000000000000000000000000000000000000000000000600052603260045260246000fd5b6020026020010151600160038110610c33577f4e487b7100000000000000000000000000000000000000000000000000000000600052603260045260246000fd5b6020020151604051610c4894939291906151cc565b60405180910390a38080610c5b90615cce565b9150506109d2565b505050505050505050565b3360011515600160008373ffffffffffffffffffffffffffffffffffffffff1673ffffffffffffffffffffffffffffffffffffffff16815260200190815260200160002060009054906101000a900460ff16151514610ccc57600080fd5b6000600560009054906101000a900473ffffffffffffffffffffffffffffffffffffffff1673ffffffffffffffffffffffffffffffffffffffff16632177454385600060068110610d46577f4e487b7100000000000000000000000000000000000000000000000000000000600052603260045260246000fd5b60200201516040518263ffffffff1660e01b8152600401610d67919061507f565b60006040518083038186803b158015610d7f57600080fd5b505afa158015610d93573d6000803e3d6000fd5b505050506040513d6000823e3d601f19601f82011682018060405250810190610dbc9190613c63565b905073__$c1efb2dccb00bdcdb4d2f4fb75b83e81b5$__6327ce693885856002856040518563ffffffff1660e01b8152600401610dfc9493929190614f8e565b60006040518083038186803b158015610e1457600080fd5b505af4158015610e28573d6000803e3d6000fd5b5050505060005b84600060068110610e69577f4e487b7100000000000000000000000000000000000000000000000000000000600052603260045260246000fd5b6020020151518110156112135760008086600460068110610eb3577f4e487b7100000000000000000000000000000000000000000000000000000000600052603260045260246000fd5b6020020151511415610ec55784610f45565b85600460068110610eff577f4e487b7100000000000000000000000000000000000000000000000000000000600052603260045260246000fd5b60200201518281518110610f3c577f4e487b7100000000000000000000000000000000000000000000000000000000600052603260045260246000fd5b60200260200101515b905085600260068110610f81577f4e487b7100000000000000000000000000000000000000000000000000000000600052603260045260246000fd5b60200201518281518110610fbe577f4e487b7100000000000000000000000000000000000000000000000000000000600052603260045260246000fd5b602002602001015186600360068110611000577f4e487b7100000000000000000000000000000000000000000000000000000000600052603260045260246000fd5b6020020151838151811061103d577f4e487b7100000000000000000000000000000000000000000000000000000000600052603260045260246000fd5b60200260200101518760006006811061107f577f4e487b7100000000000000000000000000000000000000000000000000000000600052603260045260246000fd5b602002015184815181106110bc577f4e487b7100000000000000000000000000000000000000000000000000000000600052603260045260246000fd5b60200260200101517f17fc008f8c4d6f4ef11c350a534561f818b4aaf36df7373bf94c3ed3b3563a8d848a600160068110611120577f4e487b7100000000000000000000000000000000000000000000000000000000600052603260045260246000fd5b6020020151878151811061115d577f4e487b7100000000000000000000000000000000000000000000000000000000600052603260045260246000fd5b60200260200101518b60056006811061119f577f4e487b7100000000000000000000000000000000000000000000000000000000600052603260045260246000fd5b602002015188815181106111dc577f4e487b7100000000000000000000000000000000000000000000000000000000600052603260045260246000fd5b602002602001015142436040516111f7959493929190615211565b60405180910390a450808061120b90615cce565b915050610e2f565b5050505050565b606073__$c1efb2dccb00bdcdb4d2f4fb75b83e81b5$__63a22b3e398686600287876040518663ffffffff1660e01b815260040161125c9594939291906150a1565b60006040518083038186803b15801561127457600080fd5b505af4158015611288573d6000803e3d6000fd5b505050506040513d6000823e3d601f19601f820116820180604052508101906112b19190614094565b9050949350505050565b3360011515600160008373ffffffffffffffffffffffffffffffffffffffff1673ffffffffffffffffffffffffffffffffffffffff16815260200190815260200160002060009054906101000a900460ff1615151461131957600080fd5b60005b88518110156118845787818151811061135e577f4e487b7100000000000000000000000000000000000000000000000000000000600052603260045260246000fd5b6020026020010151156118715760006114388683815181106113a9577f4e487b7100000000000000000000000000000000000000000000000000000000600052603260045260246000fd5b60200260200101518b84815181106113ea577f4e487b7100000000000000000000000000000000000000000000000000000000600052603260045260246000fd5b602002602001015187858151811061142b577f4e487b7100000000000000000000000000000000000000000000000000000000600052603260045260246000fd5b602002602001015161266a565b90506000879050600081141561148c57848381518110611481577f4e487b7100000000000000000000000000000000000000000000000000000000600052603260045260246000fd5b602002602001015190505b60005b8784815181106114c8577f4e487b7100000000000000000000000000000000000000000000000000000000600052603260045260246000fd5b60200260200101515181101561186d576000600260010160008a878151811061151a577f4e487b7100000000000000000000000000000000000000000000000000000000600052603260045260246000fd5b6020026020010151848151811061155a577f4e487b7100000000000000000000000000000000000000000000000000000000600052603260045260246000fd5b6020026020010151815260200190815260200160002060006001815260200190815260200160002060008e87815181106115bd577f4e487b7100000000000000000000000000000000000000000000000000000000600052603260045260246000fd5b60200260200101518152602001908152602001600020600089878151811061160e577f4e487b7100000000000000000000000000000000000000000000000000000000600052603260045260246000fd5b6020026020010151848151811061164e577f4e487b7100000000000000000000000000000000000000000000000000000000600052603260045260246000fd5b60200260200101518152602001908152602001600020549050808483815181106116a1577f4e487b7100000000000000000000000000000000000000000000000000000000600052603260045260246000fd5b6020026020010151146116b357600080fd5b60006116ff828d88815181106116f2577f4e487b7100000000000000000000000000000000000000000000000000000000600052603260045260246000fd5b6020026020010151612dba565b90506000811115611858576118578a8781518110611746577f4e487b7100000000000000000000000000000000000000000000000000000000600052603260045260246000fd5b60200260200101518481518110611786577f4e487b7100000000000000000000000000000000000000000000000000000000600052603260045260246000fd5b60200260200101518f88815181106117c7577f4e487b7100000000000000000000000000000000000000000000000000000000600052603260045260246000fd5b602002602001015183878d8b8151811061180a577f4e487b7100000000000000000000000000000000000000000000000000000000600052603260045260246000fd5b6020026020010151888151811061184a577f4e487b7100000000000000000000000000000000000000000000000000000000600052603260045260246000fd5b6020026020010151612e34565b5b5050808061186590615cce565b91505061148f565b5050505b808061187c90615cce565b91505061131c565b505050505050505050565b3360011515600160008373ffffffffffffffffffffffffffffffffffffffff1673ffffffffffffffffffffffffffffffffffffffff16815260200190815260200160002060009054906101000a900460ff161515146118ed57600080fd5b60005b8760006005811061192a577f4e487b7100000000000000000000000000000000000000000000000000000000600052603260045260246000fd5b602002015151811015611bfc576000846119c25788600260058110611978577f4e487b7100000000000000000000000000000000000000000000000000000000600052603260045260246000fd5b602002015182815181106119b5577f4e487b7100000000000000000000000000000000000000000000000000000000600052603260045260246000fd5b60200260200101516119c4565b875b9050600086611a515789600360058110611a07577f4e487b7100000000000000000000000000000000000000000000000000000000600052603260045260246000fd5b60200201518381518110611a44577f4e487b7100000000000000000000000000000000000000000000000000000000600052603260045260246000fd5b6020026020010151611a53565b875b9050611be78a600060058110611a92577f4e487b7100000000000000000000000000000000000000000000000000000000600052603260045260246000fd5b60200201518481518110611acf577f4e487b7100000000000000000000000000000000000000000000000000000000600052603260045260246000fd5b602002602001015183878d600160058110611b13577f4e487b7100000000000000000000000000000000000000000000000000000000600052603260045260246000fd5b60200201518781518110611b50577f4e487b7100000000000000000000000000000000000000000000000000000000600052603260045260246000fd5b6020026020010151611b629190615bb8565b848e600460058110611b9d577f4e487b7100000000000000000000000000000000000000000000000000000000600052603260045260246000fd5b60200201518881518110611bda577f4e487b7100000000000000000000000000000000000000000000000000000000600052603260045260246000fd5b6020026020010151612e34565b50508080611bf490615cce565b9150506118f0565b5050505050505050565b7f000000000000000000000000000000000000000000000000000000000000000073ffffffffffffffffffffffffffffffffffffffff163373ffffffffffffffffffffffffffffffffffffffff16148015611c6c575060008054906101000a900460ff16155b611c7557600080fd5b60016000806101000a81548160ff02191690831515021790555060005b6007811015611d50576001806000848460078110611cd9577f4e487b7100000000000000000000000000000000000000000000000000000000600052603260045260246000fd5b602002016020810190611cec9190613bd0565b73ffffffffffffffffffffffffffffffffffffffff1673ffffffffffffffffffffffffffffffffffffffff16815260200190815260200160002060006101000a81548160ff0219169083151502179055508080611d4890615cce565b915050611c92565b5080600560078110611d8b577f4e487b7100000000000000000000000000000000000000000000000000000000600052603260045260246000fd5b602002016020810190611d9e9190613bd0565b600560006101000a81548173ffffffffffffffffffffffffffffffffffffffff021916908373ffffffffffffffffffffffffffffffffffffffff16021790555080600160078110611e18577f4e487b7100000000000000000000000000000000000000000000000000000000600052603260045260246000fd5b602002016020810190611e2b9190613bd0565b600660006101000a81548173ffffffffffffffffffffffffffffffffffffffff021916908373ffffffffffffffffffffffffffffffffffffffff1602179055507d8f7124117c40c6824f218fee9fe20d7745a5ee9fdec00000000000000000600260010160006003815260200190815260200160002060006001815260200190815260200160002060006002815260200190815260200160002060008081526020019081526020016000208190555050565b3360011515600160008373ffffffffffffffffffffffffffffffffffffffff1673ffffffffffffffffffffffffffffffffffffffff16815260200190815260200160002060009054906101000a900460ff16151514611f3b57600080fd5b6000828060600190611f4d91906152bb565b6000818110611f85577f4e487b7100000000000000000000000000000000000000000000000000000000600052603260045260246000fd5b9050602002810190611f979190615369565b6001818110611fcf577f4e487b7100000000000000000000000000000000000000000000000000000000600052603260045260246000fd5b9050602002013590506000838060600190611fea91906152bb565b6000818110612022577f4e487b7100000000000000000000000000000000000000000000000000000000600052603260045260246000fd5b90506020028101906120349190615369565b600081811061206c577f4e487b7100000000000000000000000000000000000000000000000000000000600052603260045260246000fd5b90506020020135905061753081141561266457600182141561213257600073__$7b11637b326fa12a30ce8fbc20da0b2192$__6385becbe8866040518263ffffffff1660e01b81526004016120c191906151aa565b60006040518083038186803b1580156120d957600080fd5b505af41580156120ed573d6000803e3d6000fd5b505050506040513d6000823e3d601f19601f820116820180604052508101906121169190613d51565b905061212c81866000013560008060018061188f565b50612663565b60068214156121df57600073__$7b11637b326fa12a30ce8fbc20da0b2192$__632ff1eac8866040518263ffffffff1660e01b815260040161217491906151aa565b60006040518083038186803b15801561218c57600080fd5b505af41580156121a0573d6000803e3d6000fd5b505050506040513d6000823e3d601f19601f820116820180604052508101906121c99190613e33565b90506121d9818660000135610c6e565b50612662565b60078214156125b75760008073__$7b11637b326fa12a30ce8fbc20da0b2192$__63b011f23b876040518263ffffffff1660e01b815260040161222291906151aa565b60006040518083038186803b15801561223a57600080fd5b505af415801561224e573d6000803e3d6000fd5b505050506040513d6000823e3d601f19601f820116820180604052508101906122779190613ce5565b9150915085602001602081019061228e919061432d565b61229757600080fd5b60005b826000600381106122d4577f4e487b7100000000000000000000000000000000000000000000000000000000600052603260045260246000fd5b6020020151518110156125af5760008360006003811061231d577f4e487b7100000000000000000000000000000000000000000000000000000000600052603260045260246000fd5b6020020151828151811061235a577f4e487b7100000000000000000000000000000000000000000000000000000000600052603260045260246000fd5b602002602001015190506123b88383815181106123a0577f4e487b7100000000000000000000000000000000000000000000000000000000600052603260045260246000fd5b6020026020010151896000013583600180600161188f565b836001600381106123f2577f4e487b7100000000000000000000000000000000000000000000000000000000600052603260045260246000fd5b6020020151828151811061242f577f4e487b7100000000000000000000000000000000000000000000000000000000600052603260045260246000fd5b60200260200101518189600001357fb3291802b2b78c167de0c3d9b29006f17af7fd7aa9aa60e4ee10a777fbb83fc98b8060a0019061246e9190615264565b60008181106124a6577f4e487b7100000000000000000000000000000000000000000000000000000000600052603260045260246000fd5b90506020028101906124b89190615312565b878181106124ef577f4e487b7100000000000000000000000000000000000000000000000000000000600052603260045260246000fd5b905060200281019061250191906153c0565b42438b60026003811061253d577f4e487b7100000000000000000000000000000000000000000000000000000000600052603260045260246000fd5b60200201518a8151811061257a577f4e487b7100000000000000000000000000000000000000000000000000000000600052603260045260246000fd5b602002602001015160405161259395949392919061515c565b60405180910390a45080806125a790615cce565b91505061229a565b505050612661565b601082141561266057600073__$7b11637b326fa12a30ce8fbc20da0b2192$__632ff1eac8866040518263ffffffff1660e01b81526004016125f991906151aa565b60006040518083038186803b15801561261157600080fd5b505af4158015612625573d6000803e3d6000fd5b505050506040513d6000823e3d601f19601f8201168201806040525081019061264e9190613e33565b905061265e8186600001356127b5565b505b5b5b5b5b50505050565b606073__$c1efb2dccb00bdcdb4d2f4fb75b83e81b5$__63bc8a247f85856002866040518563ffffffff1660e01b81526004016126aa9493929190615109565b60006040518083038186803b1580156126c257600080fd5b505af41580156126d6573d6000803e3d6000fd5b505050506040513d6000823e3d601f19601f820116820180604052508101906126ff9190614094565b90509392505050565b606073__$c1efb2dccb00bdcdb4d2f4fb75b83e81b5$__63854392ee8a8a8a8a60028b8b8b8b6040518a63ffffffff1660e01b815260040161275299989796959493929190615003565b60006040518083038186803b15801561276a57600080fd5b505af415801561277e573d6000803e3d6000fd5b505050506040513d6000823e3d601f19601f820116820180604052508101906127a79190613f87565b905098975050505050505050565b3360011515600160008373ffffffffffffffffffffffffffffffffffffffff1673ffffffffffffffffffffffffffffffffffffffff16815260200190815260200160002060009054906101000a900460ff1615151461281357600080fd5b6000600560009054906101000a900473ffffffffffffffffffffffffffffffffffffffff1673ffffffffffffffffffffffffffffffffffffffff1663217745438560006006811061288d577f4e487b7100000000000000000000000000000000000000000000000000000000600052603260045260246000fd5b60200201516040518263ffffffff1660e01b81526004016128ae919061507f565b60006040518083038186803b1580156128c657600080fd5b505afa1580156128da573d6000803e3d6000fd5b505050506040513d6000823e3d601f19601f820116820180604052508101906129039190613c63565b905073__$c1efb2dccb00bdcdb4d2f4fb75b83e81b5$__63026e262f85600286856040518563ffffffff1660e01b81526004016129439493929190614f3b565b60006040518083038186803b15801561295b57600080fd5b505af415801561296f573d6000803e3d6000fd5b5050505060005b846000600681106129b0577f4e487b7100000000000000000000000000000000000000000000000000000000600052603260045260246000fd5b602002015151811015612db3576000856004600681106129f9577f4e487b7100000000000000000000000000000000000000000000000000000000600052603260045260246000fd5b60200201518281518110612a36577f4e487b7100000000000000000000000000000000000000000000000000000000600052603260045260246000fd5b602002602001015190506000600287600160068110612a7e577f4e487b7100000000000000000000000000000000000000000000000000000000600052603260045260246000fd5b60200201518481518110612abb577f4e487b7100000000000000000000000000000000000000000000000000000000600052603260045260246000fd5b602002602001015114612acf576000612b4f565b86600360068110612b09577f4e487b7100000000000000000000000000000000000000000000000000000000600052603260045260246000fd5b60200201518381518110612b46577f4e487b7100000000000000000000000000000000000000000000000000000000600052603260045260246000fd5b60200260200101515b905060008690506000871415612be15787600560068110612b99577f4e487b7100000000000000000000000000000000000000000000000000000000600052603260045260246000fd5b60200201518481518110612bd6577f4e487b7100000000000000000000000000000000000000000000000000000000600052603260045260246000fd5b602002602001015190505b8088600160068110612c1c577f4e487b7100000000000000000000000000000000000000000000000000000000600052603260045260246000fd5b60200201518581518110612c59577f4e487b7100000000000000000000000000000000000000000000000000000000600052603260045260246000fd5b602002602001015189600060068110612c9b577f4e487b7100000000000000000000000000000000000000000000000000000000600052603260045260246000fd5b60200201518681518110612cd8577f4e487b7100000000000000000000000000000000000000000000000000000000600052603260045260246000fd5b60200260200101517f65a0f9133e592d4b67e691726e9f2216f641658c01d5e455c24dc4ae8ee6a8b2868c600260068110612d3c577f4e487b7100000000000000000000000000000000000000000000000000000000600052603260045260246000fd5b60200201518981518110612d79577f4e487b7100000000000000000000000000000000000000000000000000000000600052603260045260246000fd5b6020026020010151874243604051612d95959493929190615211565b60405180910390a45050508080612dab90615cce565b915050612976565b5050505050565b600080831480612dca5750600082145b15612dd85760009050612e2e565b670de0b6b3a76400008311612e0b57670de0b6b3a76400008284612dfc9190615bb8565b612e069190615b87565b612e2b565b81670de0b6b3a764000084612e209190615b87565b612e2a9190615bb8565b5b90505b92915050565b426002800160008781526020019081526020016000206000838152602001908152602001600020541015612e6757600080fd5b60006002600101600087815260200190815260200160002060006001815260200190815260200160002090508381600087815260200190815260200160002060008481526020019081526020016000206000828254612ec69190615c12565b925050819055508381600085815260200190815260200160002060008481526020019081526020016000206000828254612f009190615b31565b9250508190555060008414612f50578285877fe00ec1639c1c4888fdca48068d74d67a13adc5998c198ac533b78a0c53a33f9b87864243604051612f4794939291906151cc565b60405180910390a45b505050505050565b6000612f6b612f668461543c565b615417565b90508083825260208201905082856020860282011115612f8a57600080fd5b60005b85811015612fd457815167ffffffffffffffff811115612fac57600080fd5b808601612fb989826138d4565b85526020850194506020840193505050600181019050612f8d565b5050509392505050565b6000612ff1612fec84615468565b615417565b9050808382526020820190508285602086028201111561301057600080fd5b60005b8581101561305a57815167ffffffffffffffff81111561303257600080fd5b80860161303f8982613996565b85526020850194506020840193505050600181019050613013565b5050509392505050565b600061307761307284615494565b615417565b9050808382526020820190508285602086028201111561309657600080fd5b60005b858110156130e057813567ffffffffffffffff8111156130b857600080fd5b8086016130c58982613a0b565b85526020850194506020840193505050600181019050613099565b5050509392505050565b60006130fd6130f884615494565b615417565b9050808382526020820190508285602086028201111561311c57600080fd5b60005b8581101561316657815167ffffffffffffffff81111561313e57600080fd5b80860161314b8982613a35565b8552602085019450602084019350505060018101905061311f565b5050509392505050565b600061318361317e846154c0565b615417565b905080838252602082019050828560608602820111156131a257600080fd5b60005b858110156131d257816131b88882613a89565b8452602084019350606083019250506001810190506131a5565b5050509392505050565b60006131ef6131ea846154ec565b615417565b9050808382526020820190508285608086028201111561320e57600080fd5b60005b8581101561323e57816132248882613ab0565b845260208401935060808301925050600181019050613211565b5050509392505050565b600061325b61325684615518565b615417565b9050808285602086028201111561327157600080fd5b60005b858110156132bb57815167ffffffffffffffff81111561329357600080fd5b8086016132a08982613b4b565b85526020850194506020840193505050600181019050613274565b5050509392505050565b60006132d86132d38461553e565b615417565b905080828560208602820111156132ee57600080fd5b60005b8581101561333857813567ffffffffffffffff81111561331057600080fd5b80860161331d8982613b21565b855260208501945060208401935050506001810190506132f1565b5050509392505050565b60006133556133508461553e565b615417565b9050808285602086028201111561336b57600080fd5b60005b858110156133b557815167ffffffffffffffff81111561338d57600080fd5b80860161339a8982613b4b565b8552602085019450602084019350505060018101905061336e565b5050509392505050565b60006133d26133cd84615564565b615417565b905080828560208602820111156133e857600080fd5b60005b8581101561343257813567ffffffffffffffff81111561340a57600080fd5b8086016134178982613b21565b855260208501945060208401935050506001810190506133eb565b5050509392505050565b600061344f61344a84615564565b615417565b9050808285602086028201111561346557600080fd5b60005b858110156134af57815167ffffffffffffffff81111561348757600080fd5b8086016134948982613b4b565b85526020850194506020840193505050600181019050613468565b5050509392505050565b60006134cc6134c78461558a565b615417565b905080838252602082019050828560208602820111156134eb57600080fd5b60005b8581101561353557813567ffffffffffffffff81111561350d57600080fd5b80860161351a8982613b21565b855260208501945060208401935050506001810190506134ee565b5050509392505050565b600061355261354d8461558a565b615417565b9050808382526020820190508285602086028201111561357157600080fd5b60005b858110156135bb57815167ffffffffffffffff81111561359357600080fd5b8086016135a08982613b4b565b85526020850194506020840193505050600181019050613574565b5050509392505050565b60006135d86135d3846155b6565b615417565b905080838252602082019050828560208602820111156135f757600080fd5b60005b85811015613627578161360d8882613b75565b8452602084019350602083019250506001810190506135fa565b5050509392505050565b600061364461363f846155e2565b615417565b9050808285602086028201111561365a57600080fd5b60005b8581101561368a57816136708882613bbb565b84526020840193506020830192505060018101905061365d565b5050509392505050565b60006136a76136a284615608565b615417565b905080828560208602820111156136bd57600080fd5b60005b858110156136ed57816136d38882613bbb565b8452602084019350602083019250506001810190506136c0565b5050509392505050565b600061370a6137058461562e565b615417565b9050808382526020820190508285602086028201111561372957600080fd5b60005b85811015613759578161373f8882613ba6565b84526020840193506020830192505060018101905061372c565b5050509392505050565b60006137766137718461562e565b615417565b9050808382526020820190508285602086028201111561379557600080fd5b60005b858110156137c557816137ab8882613bbb565b845260208401935060208301925050600181019050613798565b5050509392505050565b6000813590506137de81615db5565b92915050565b6000819050826020600702820111156137fc57600080fd5b92915050565b600082601f83011261381357600080fd5b8151613823848260208601612f58565b91505092915050565b600082601f83011261383d57600080fd5b815161384d848260208601612fde565b91505092915050565b600082601f83011261386757600080fd5b8135613877848260208601613064565b91505092915050565b600082601f83011261389157600080fd5b81516138a18482602086016130ea565b91505092915050565b600082601f8301126138bb57600080fd5b81516138cb848260208601613170565b91505092915050565b600082601f8301126138e557600080fd5b81516138f58482602086016131dc565b91505092915050565b60008083601f84011261391057600080fd5b8235905067ffffffffffffffff81111561392957600080fd5b60208301915083602082028301111561394157600080fd5b9250929050565b600082601f83011261395957600080fd5b6003613966848285613248565b91505092915050565b600082601f83011261398057600080fd5b600561398d8482856132c5565b91505092915050565b600082601f8301126139a757600080fd5b60056139b4848285613342565b91505092915050565b600082601f8301126139ce57600080fd5b60066139db8482856133bf565b91505092915050565b600082601f8301126139f557600080fd5b6006613a0284828561343c565b91505092915050565b600082601f830112613a1c57600080fd5b8135613a2c8482602086016134b9565b91505092915050565b600082601f830112613a4657600080fd5b8151613a5684826020860161353f565b91505092915050565b600082601f830112613a7057600080fd5b8135613a808482602086016135c5565b91505092915050565b600082601f830112613a9a57600080fd5b6003613aa7848285613631565b91505092915050565b600082601f830112613ac157600080fd5b6004613ace848285613694565b91505092915050565b60008083601f840112613ae957600080fd5b8235905067ffffffffffffffff811115613b0257600080fd5b602083019150836020820283011115613b1a57600080fd5b9250929050565b600082601f830112613b3257600080fd5b8135613b428482602086016136f7565b91505092915050565b600082601f830112613b5c57600080fd5b8151613b6c848260208601613763565b91505092915050565b600081359050613b8481615dcc565b92915050565b60006101a08284031215613b9d57600080fd5b81905092915050565b600081359050613bb581615de3565b92915050565b600081519050613bca81615de3565b92915050565b600060208284031215613be257600080fd5b6000613bf0848285016137cf565b91505092915050565b600060e08284031215613c0b57600080fd5b6000613c19848285016137e4565b91505092915050565b600060208284031215613c3457600080fd5b600082015167ffffffffffffffff811115613c4e57600080fd5b613c5a84828501613802565b91505092915050565b600060208284031215613c7557600080fd5b600082015167ffffffffffffffff811115613c8f57600080fd5b613c9b84828501613880565b91505092915050565b600060208284031215613cb657600080fd5b600082015167ffffffffffffffff811115613cd057600080fd5b613cdc848285016138aa565b91505092915050565b60008060408385031215613cf857600080fd5b600083015167ffffffffffffffff811115613d1257600080fd5b613d1e85828601613948565b925050602083015167ffffffffffffffff811115613d3b57600080fd5b613d478582860161382c565b9150509250929050565b600060208284031215613d6357600080fd5b600082015167ffffffffffffffff811115613d7d57600080fd5b613d8984828501613996565b91505092915050565b60008060008060008060c08789031215613dab57600080fd5b600087013567ffffffffffffffff811115613dc557600080fd5b613dd189828a0161396f565b9650506020613de289828a01613ba6565b9550506040613df389828a01613ba6565b9450506060613e0489828a01613b75565b9350506080613e1589828a01613b75565b92505060a0613e2689828a01613ba6565b9150509295509295509295565b600060208284031215613e4557600080fd5b600082015167ffffffffffffffff811115613e5f57600080fd5b613e6b848285016139e4565b91505092915050565b600080600080600060a08688031215613e8c57600080fd5b600086013567ffffffffffffffff811115613ea657600080fd5b613eb2888289016139bd565b955050602086013567ffffffffffffffff811115613ecf57600080fd5b613edb88828901613b21565b9450506040613eec88828901613ba6565b935050606086013567ffffffffffffffff811115613f0957600080fd5b613f1588828901613856565b9250506080613f2688828901613b75565b9150509295509295909350565b60008060408385031215613f4657600080fd5b600083013567ffffffffffffffff811115613f6057600080fd5b613f6c858286016139bd565b9250506020613f7d85828601613ba6565b9150509250929050565b600060208284031215613f9957600080fd5b600082015167ffffffffffffffff811115613fb357600080fd5b613fbf84828501613a35565b91505092915050565b60008060008060008060008060a0898b031215613fe457600080fd5b600089013567ffffffffffffffff811115613ffe57600080fd5b61400a8b828c01613ad7565b9850985050602089013567ffffffffffffffff81111561402957600080fd5b6140358b828c016138fe565b9650965050604089013567ffffffffffffffff81111561405457600080fd5b6140608b828c01613ad7565b945094505060606140738b828c01613ba6565b92505060806140848b828c01613ba6565b9150509295985092959890939650565b6000602082840312156140a657600080fd5b600082015167ffffffffffffffff8111156140c057600080fd5b6140cc84828501613b4b565b91505092915050565b600080600080600080600060e0888a0312156140f057600080fd5b600088013567ffffffffffffffff81111561410a57600080fd5b6141168a828b01613b21565b975050602088013567ffffffffffffffff81111561413357600080fd5b61413f8a828b01613a5f565b965050604088013567ffffffffffffffff81111561415c57600080fd5b6141688a828b01613b21565b95505060606141798a828b01613ba6565b945050608088013567ffffffffffffffff81111561419657600080fd5b6141a28a828b01613a0b565b93505060a088013567ffffffffffffffff8111156141bf57600080fd5b6141cb8a828b01613a0b565b92505060c088013567ffffffffffffffff8111156141e857600080fd5b6141f48a828b01613b21565b91505092959891949750929550565b6000806000806080858703121561421957600080fd5b600085013567ffffffffffffffff81111561423357600080fd5b61423f87828801613b21565b945050602085013567ffffffffffffffff81111561425c57600080fd5b61426887828801613b21565b935050604085013567ffffffffffffffff81111561428557600080fd5b61429187828801613b21565b92505060606142a287828801613ba6565b91505092959194509250565b6000806000606084860312156142c357600080fd5b600084013567ffffffffffffffff8111156142dd57600080fd5b6142e986828701613b21565b93505060206142fa86828701613ba6565b925050604084013567ffffffffffffffff81111561431757600080fd5b61432386828701613b21565b9150509250925092565b60006020828403121561433f57600080fd5b600061434d84828501613b75565b91505092915050565b60006020828403121561436857600080fd5b600082013567ffffffffffffffff81111561438257600080fd5b61438e84828501613b8a565b91505092915050565b60006143a38383614489565b60208301905092915050565b60006143bb8383614655565b905092915050565b60006143cf8383614889565b905092915050565b60006143e48484846148fe565b90509392505050565b60006143f98383614984565b60808301905092915050565b6000614412848484614a33565b90509392505050565b60006144278383614a8b565b905092915050565b600061443b8383614ba5565b905092915050565b6000614450848484614c4e565b90509392505050565b60006144658383614e0c565b60208301905092915050565b600061447d8383614e39565b60208301905092915050565b61449281615c46565b82525050565b60006144a483856157c2565b93506144af8261565a565b8060005b858110156144e8576144c582846158d7565b6144cf8882614397565b97506144da83615733565b9250506001810190506144b3565b5085925050509392505050565b6000614500826156e6565b61450a81856157d3565b93508360208202850161451c85615664565b8060005b85811015614558578484038952815161453985826143af565b945061454483615740565b925060208a01995050600181019050614520565b50829750879550505050505092915050565b6000614575826156f1565b61457f81856157e4565b93508360208202850161459185615674565b8060005b858110156145cd57848403895281516145ae85826143c3565b94506145b98361574d565b925060208a01995050600181019050614595565b50829750879550505050505092915050565b60006145eb83856157f5565b9350836020840285016145fd84615684565b8060005b8781101561464357848403895261461882846159f3565b6146238682846143d7565b955061462e8461575a565b935060208b019a505050600181019050614601565b50829750879450505050509392505050565b6000614660826156fc565b61466a8185615806565b93506146758361568e565b8060005b838110156146a657815161468d88826143ed565b975061469883615767565b925050600181019050614679565b5085935050505092915050565b60006146bf8385615833565b9350836020840285016146d18461569e565b8060005b878110156147175784840389526146ec8284615a55565b6146f7868284614405565b955061470284615774565b935060208b019a5050506001810190506146d5565b50829750879450505050509392505050565b60006147358385615844565b9350836020840285016147478461569e565b8060005b8781101561478d5784840389526147628284615a55565b61476d868284614405565b955061477884615774565b935060208b019a50505060018101905061474b565b50829750879450505050509392505050565b60006147aa82615707565b6147b48185615817565b9350836020820285016147c6856156a8565b8060005b8581101561480257848403895281516147e3858261442f565b94506147ee83615781565b925060208a019950506001810190506147ca565b50829750879550505050505092915050565b600061481f82615712565b6148298185615822565b93508360208202850161483b856156b2565b8060005b858110156148775784840389528151614858858261441b565b94506148638361578e565b925060208a0199505060018101905061483f565b50829750879550505050505092915050565b600061489482615712565b61489e8185615844565b9350836020820285016148b0856156b2565b8060005b858110156148ec57848403895281516148cd858261442f565b94506148d88361578e565b925060208a019950506001810190506148b4565b50829750879550505050505092915050565b600061490a8385615855565b93508360208402850161491c846156c2565b8060005b878110156149625784840389526149378284615ac3565b614942868284614443565b955061494d8461579b565b935060208b019a505050600181019050614920565b50829750879450505050509392505050565b61498060408383615c8e565b5050565b61498d8161571d565b6149978184615866565b92506149a2826156cc565b8060005b838110156149d35781516149ba8782614471565b96506149c5836157a8565b9250506001810190506149a6565b505050505050565b60006149e78385615893565b93507f07ffffffffffffffffffffffffffffffffffffffffffffffffffffffffffffff831115614a1657600080fd5b602083029250614a27838584615c8e565b82840190509392505050565b6000614a3f83856158a4565b93507f07ffffffffffffffffffffffffffffffffffffffffffffffffffffffffffffff831115614a6e57600080fd5b602083029250614a7f838584615c8e565b82840190509392505050565b6000614a9682615728565b614aa08185615871565b9350614aab836156d6565b8060005b83811015614adc578151614ac38882614459565b9750614ace836157b5565b925050600181019050614aaf565b5085935050505092915050565b6000614af482615728565b614afe8185615882565b9350614b09836156d6565b8060005b83811015614b3a578151614b218882614459565b9750614b2c836157b5565b925050600181019050614b0d565b5085935050505092915050565b6000614b5282615728565b614b5c8185615893565b9350614b67836156d6565b8060005b83811015614b98578151614b7f8882614471565b9750614b8a836157b5565b925050600181019050614b6b565b5085935050505092915050565b6000614bb082615728565b614bba81856158a4565b9350614bc5836156d6565b8060005b83811015614bf6578151614bdd8882614471565b9750614be8836157b5565b925050600181019050614bc9565b5085935050505092915050565b614c0c81615c58565b82525050565b614c1b81615c58565b82525050565b6000614c2d83856158b5565b9350614c3a838584615c8e565b614c4383615da4565b840190509392505050565b6000614c5a83856158c6565b9350614c67838584615c8e565b614c7083615da4565b840190509392505050565b8082525050565b60006101a08301614c966000840184615b1a565b614ca36000860182614e39565b50614cb16020840184615aac565b614cbe6020860182614c12565b50614ccc6040840184615a55565b8583036040870152614cdf838284614a33565b92505050614cf0606084018461599c565b8583036060870152614d03838284614729565b92505050614d1460808401846158ee565b8583036080870152614d27838284614498565b92505050614d3860a0840184615945565b85830360a0870152614d4b8382846145df565b92505050614d5c60c0840184615b1a565b614d6960c0860182614e39565b50614d7760e0840184615b1a565b614d8460e0860182614e39565b50614d93610100840184615b1a565b614da1610100860182614e39565b50614db0610120840184615a4a565b614dbe610120860182614974565b50614dcd610160840184615aac565b614ddb610160860182614c12565b50614dea610180840184615a55565b858303610180870152614dfe838284614a33565b925050508091505092915050565b614e1581615c84565b82525050565b614e2481615c84565b82525050565b614e3381615c84565b82525050565b614e4281615c84565b82525050565b600060a0820190508181036000830152614e62818861479f565b90508181036020830152614e768187614b47565b90508181036040830152614e8a818661456a565b9050614e996060830185614e2a565b614ea66080830184614c03565b9695505050505050565b600060e0820190508181036000830152614eca818a61479f565b90508181036020830152614ede8189614b47565b9050614eed6040830188614e2a565b8181036060830152614eff818761456a565b9050614f0e6080830186614c03565b614f1b60a0830185614c7b565b81810360c0830152614f2d81846144f5565b905098975050505050505050565b60006080820190508181036000830152614f55818761479f565b9050614f646020830186614c7b565b614f716040830185614e2a565b8181036060830152614f83818461456a565b905095945050505050565b60006080820190508181036000830152614fa8818761479f565b9050614fb76020830186614e2a565b614fc46040830185614c7b565b8181036060830152614fd6818461456a565b905095945050505050565b60006020820190508181036000830152614ffb8184614814565b905092915050565b600060c082019050818103600083015261501e818b8d6149db565b9050818103602083015261503381898b6146b3565b90506150426040830188614c7b565b81810360608301526150558186886149db565b90506150646080830185614e2a565b61507160a0830184614e2a565b9a9950505050505050505050565b600060208201905081810360008301526150998184614ae9565b905092915050565b600060a08201905081810360008301526150bb8188614b47565b905081810360208301526150cf8187614b47565b90506150de6040830186614c7b565b81810360608301526150f08185614b47565b90506150ff6080830184614e2a565b9695505050505050565b600060808201905081810360008301526151238187614b47565b90506151326020830186614e2a565b61513f6040830185614c7b565b81810360608301526151518184614b47565b905095945050505050565b60006080820190508181036000830152615177818789614c21565b90506151866020830186614e1b565b6151936040830185614e1b565b6151a06060830184614e1b565b9695505050505050565b600060208201905081810360008301526151c48184614c82565b905092915050565b60006080820190506151e16000830187614e1b565b6151ee6020830186614e1b565b6151fb6040830185614e1b565b6152086060830184614e1b565b95945050505050565b600060a0820190506152266000830188614e1b565b6152336020830187614e1b565b6152406040830186614e1b565b61524d6060830185614e1b565b61525a6080830184614e1b565b9695505050505050565b6000808335600160200384360303811261527d57600080fd5b80840192508235915067ffffffffffffffff82111561529b57600080fd5b6020830192506020820236038313156152b357600080fd5b509250929050565b600080833560016020038436030381126152d457600080fd5b80840192508235915067ffffffffffffffff8211156152f257600080fd5b60208301925060208202360383131561530a57600080fd5b509250929050565b6000808335600160200384360303811261532b57600080fd5b80840192508235915067ffffffffffffffff82111561534957600080fd5b60208301925060208202360383131561536157600080fd5b509250929050565b6000808335600160200384360303811261538257600080fd5b80840192508235915067ffffffffffffffff8211156153a057600080fd5b6020830192506020820236038313156153b857600080fd5b509250929050565b600080833560016020038436030381126153d957600080fd5b80840192508235915067ffffffffffffffff8211156153f757600080fd5b60208301925060018202360383131561540f57600080fd5b509250929050565b6000615421615432565b905061542d8282615c9d565b919050565b6000604051905090565b600067ffffffffffffffff82111561545757615456615d75565b5b602082029050602081019050919050565b600067ffffffffffffffff82111561548357615482615d75565b5b602082029050602081019050919050565b600067ffffffffffffffff8211156154af576154ae615d75565b5b602082029050602081019050919050565b600067ffffffffffffffff8211156154db576154da615d75565b5b602082029050602081019050919050565b600067ffffffffffffffff82111561550757615506615d75565b5b602082029050602081019050919050565b600067ffffffffffffffff82111561553357615532615d75565b5b602082029050919050565b600067ffffffffffffffff82111561555957615558615d75565b5b602082029050919050565b600067ffffffffffffffff82111561557f5761557e615d75565b5b602082029050919050565b600067ffffffffffffffff8211156155a5576155a4615d75565b5b602082029050602081019050919050565b600067ffffffffffffffff8211156155d1576155d0615d75565b5b602082029050602081019050919050565b600067ffffffffffffffff8211156155fd576155fc615d75565b5b602082029050919050565b600067ffffffffffffffff82111561562357615622615d75565b5b602082029050919050565b600067ffffffffffffffff82111561564957615648615d75565b5b602082029050602081019050919050565b6000819050919050565b6000819050602082019050919050565b6000819050602082019050919050565b6000819050919050565b6000819050602082019050919050565b6000819050919050565b6000819050919050565b6000819050602082019050919050565b6000819050919050565b6000819050919050565b6000819050602082019050919050565b600081519050919050565b600081519050919050565b600081519050919050565b600060069050919050565b600081519050919050565b600060049050919050565b600081519050919050565b6000602082019050919050565b6000602082019050919050565b6000602082019050919050565b6000602082019050919050565b6000602082019050919050565b6000602082019050919050565b6000602082019050919050565b6000602082019050919050565b6000602082019050919050565b6000602082019050919050565b6000602082019050919050565b600082825260208201905092915050565b600082825260208201905092915050565b600082825260208201905092915050565b600082825260208201905092915050565b600082825260208201905092915050565b600081905092915050565b600082825260208201905092915050565b600082825260208201905092915050565b600082825260208201905092915050565b600082825260208201905092915050565b600081905092915050565b600082825260208201905092915050565b600082825260208201905092915050565b600082825260208201905092915050565b600082825260208201905092915050565b600082825260208201905092915050565b600082825260208201905092915050565b60006158e660208401846137cf565b905092915050565b6000808335600160200384360303811261590757600080fd5b83810192508235915060208301925067ffffffffffffffff82111561592b57600080fd5b60208202360384131561593d57600080fd5b509250929050565b6000808335600160200384360303811261595e57600080fd5b83810192508235915060208301925067ffffffffffffffff82111561598257600080fd5b60208202360384131561599457600080fd5b509250929050565b600080833560016020038436030381126159b557600080fd5b83810192508235915060208301925067ffffffffffffffff8211156159d957600080fd5b6020820236038413156159eb57600080fd5b509250929050565b60008083356001602003843603038112615a0c57600080fd5b83810192508235915060208301925067ffffffffffffffff821115615a3057600080fd5b602082023603841315615a4257600080fd5b509250929050565b600082905092915050565b60008083356001602003843603038112615a6e57600080fd5b83810192508235915060208301925067ffffffffffffffff821115615a9257600080fd5b602082023603841315615aa457600080fd5b509250929050565b6000615abb6020840184613b75565b905092915050565b60008083356001602003843603038112615adc57600080fd5b83810192508235915060208301925067ffffffffffffffff821115615b0057600080fd5b600182023603841315615b1257600080fd5b509250929050565b6000615b296020840184613ba6565b905092915050565b6000615b3c82615c84565b9150615b4783615c84565b9250827fffffffffffffffffffffffffffffffffffffffffffffffffffffffffffffffff03821115615b7c57615b7b615d17565b5b828201905092915050565b6000615b9282615c84565b9150615b9d83615c84565b925082615bad57615bac615d46565b5b828204905092915050565b6000615bc382615c84565b9150615bce83615c84565b9250817fffffffffffffffffffffffffffffffffffffffffffffffffffffffffffffffff0483118215151615615c0757615c06615d17565b5b828202905092915050565b6000615c1d82615c84565b9150615c2883615c84565b925082821015615c3b57615c3a615d17565b5b828203905092915050565b6000615c5182615c64565b9050919050565b60008115159050919050565b600073ffffffffffffffffffffffffffffffffffffffff82169050919050565b6000819050919050565b82818337600083830152505050565b615ca682615da4565b810181811067ffffffffffffffff82111715615cc557615cc4615d75565b5b80604052505050565b6000615cd982615c84565b91507fffffffffffffffffffffffffffffffffffffffffffffffffffffffffffffffff821415615d0c57615d0b615d17565b5b600182019050919050565b7f4e487b7100000000000000000000000000000000000000000000000000000000600052601160045260246000fd5b7f4e487b7100000000000000000000000000000000000000000000000000000000600052601260045260246000fd5b7f4e487b7100000000000000000000000000000000000000000000000000000000600052604160045260246000fd5b6000601f19601f8301169050919050565b615dbe81615c46565b8114615dc957600080fd5b50565b615dd581615c58565b8114615de057600080fd5b50565b615dec81615c84565b8114615df757600080fd5b5056fea2646970667358221220851381a99a0cc93e49f433c6c27f71a15ec196f5858203324bb3ab2713c57ccb64736f6c63430008040033",
  "linkReferences": {
    "contracts/E5D/E3.sol": {
      "E3": [
        {
          "length": 20,
          "start": 8651
        },
        {
          "length": 20,
          "start": 8830
        },
        {
          "length": 20,
          "start": 9004
        },
        {
          "length": 20,
          "start": 9987
        }
      ]
    },
    "contracts/F5D/F33.sol": {
      "F33": [
        {
          "length": 20,
          "start": 904
        }
      ]
    },
    "contracts/H5D/H32.sol": {
      "H32": [
        {
          "length": 20,
          "start": 1056
        },
        {
          "length": 20,
          "start": 3839
        },
        {
          "length": 20,
          "start": 4957
        },
        {
          "length": 20,
          "start": 10157
        },
        {
          "length": 20,
          "start": 10315
        },
        {
          "length": 20,
          "start": 10822
        }
      ]
    }
  },
  "deployedLinkReferences": {
    "contracts/E5D/E3.sol": {
      "E3": [
        {
          "length": 20,
          "start": 8332
        },
        {
          "length": 20,
          "start": 8511
        },
        {
          "length": 20,
          "start": 8685
        },
        {
          "length": 20,
          "start": 9668
        }
      ]
    },
    "contracts/F5D/F33.sol": {
      "F33": [
        {
          "length": 20,
          "start": 585
        }
      ]
    },
    "contracts/H5D/H32.sol": {
      "H32": [
        {
          "length": 20,
          "start": 737
        },
        {
          "length": 20,
          "start": 3520
        },
        {
          "length": 20,
          "start": 4638
        },
        {
          "length": 20,
          "start": 9838
        },
        {
          "length": 20,
          "start": 9996
        },
        {
          "length": 20,
          "start": 10503
        }
      ]
    }
  }
}