{
  "_format": "hh-sol-artifact-1",
  "contractName": "H52",
  "sourceName": "contracts/H5D/H52.sol",
  "abi": [
    {
      "inputs": [
        {
          "internalType": "address",
          "name": "p1",
          "type": "address"
        }
      ],
      "stateMutability": "nonpayable",
      "type": "constructor"
    },
    {
      "anonymous": false,
      "inputs": [
        {
          "indexed": true,
          "internalType": "uint256",
          "name": "p1",
          "type": "uint256"
        },
        {
          "indexed": true,
          "internalType": "uint256",
          "name": "p2",
          "type": "uint256"
        },
        {
          "indexed": true,
          "internalType": "uint256",
          "name": "p3",
          "type": "uint256"
        },
        {
          "indexed": false,
          "internalType": "uint256",
          "name": "p4",
          "type": "uint256"
        },
        {
          "indexed": false,
          "internalType": "uint256",
          "name": "p7",
          "type": "uint256"
        },
        {
          "indexed": false,
          "internalType": "uint256",
          "name": "p5",
          "type": "uint256"
        },
        {
          "indexed": false,
          "internalType": "uint256",
          "name": "p6",
          "type": "uint256"
        }
      ],
      "name": "e1",
      "type": "event"
    },
    {
      "anonymous": false,
      "inputs": [
        {
          "indexed": true,
          "internalType": "uint256",
          "name": "p1",
          "type": "uint256"
        },
        {
          "indexed": true,
          "internalType": "uint256",
          "name": "p2",
          "type": "uint256"
        },
        {
          "indexed": false,
          "internalType": "uint256",
          "name": "p3",
          "type": "uint256"
        },
        {
          "indexed": false,
          "internalType": "uint256",
          "name": "p4",
          "type": "uint256"
        },
        {
          "indexed": false,
          "internalType": "uint256",
          "name": "p5",
          "type": "uint256"
        }
      ],
      "name": "e2",
      "type": "event"
    },
    {
      "anonymous": false,
      "inputs": [
        {
          "indexed": true,
          "internalType": "uint256",
          "name": "p1",
          "type": "uint256"
        },
        {
          "indexed": true,
          "internalType": "uint256",
          "name": "p2",
          "type": "uint256"
        },
        {
          "indexed": true,
          "internalType": "uint256",
          "name": "p3",
          "type": "uint256"
        },
        {
          "indexed": false,
          "internalType": "uint256",
          "name": "p4",
          "type": "uint256"
        },
        {
          "indexed": false,
          "internalType": "uint256",
          "name": "p5",
          "type": "uint256"
        },
        {
          "indexed": false,
          "internalType": "uint256",
          "name": "p6",
          "type": "uint256"
        },
        {
          "indexed": false,
          "internalType": "uint256",
          "name": "p7",
          "type": "uint256"
        },
        {
          "indexed": false,
          "internalType": "uint256",
          "name": "p8",
          "type": "uint256"
        }
      ],
      "name": "e3",
      "type": "event"
    },
    {
      "anonymous": false,
      "inputs": [
        {
          "indexed": true,
          "internalType": "uint256",
          "name": "p1",
          "type": "uint256"
        },
        {
          "indexed": true,
          "internalType": "uint256",
          "name": "p2",
          "type": "uint256"
        },
        {
          "indexed": true,
          "internalType": "uint256",
          "name": "p3",
          "type": "uint256"
        },
        {
          "indexed": false,
          "internalType": "string",
          "name": "p4",
          "type": "string"
        },
        {
          "indexed": false,
          "internalType": "uint256",
          "name": "p5",
          "type": "uint256"
        },
        {
          "indexed": false,
          "internalType": "uint256",
          "name": "p6",
          "type": "uint256"
        }
      ],
      "name": "e5",
      "type": "event"
    },
    {
      "anonymous": false,
      "inputs": [
        {
          "indexed": true,
          "internalType": "uint256",
          "name": "p1",
          "type": "uint256"
        },
        {
          "indexed": true,
          "internalType": "uint256",
          "name": "p2",
          "type": "uint256"
        },
        {
          "indexed": false,
          "internalType": "uint256",
          "name": "p3",
          "type": "uint256"
        },
        {
          "indexed": false,
          "internalType": "uint256",
          "name": "p4",
          "type": "uint256"
        },
        {
          "indexed": false,
          "internalType": "uint256",
          "name": "p5",
          "type": "uint256"
        },
        {
          "indexed": true,
          "internalType": "uint256",
          "name": "p6",
          "type": "uint256"
        },
        {
          "indexed": false,
          "internalType": "uint256",
          "name": "p7",
          "type": "uint256"
        },
        {
          "indexed": false,
          "internalType": "uint256",
          "name": "p8",
          "type": "uint256"
        }
      ],
      "name": "power",
      "type": "event"
    },
    {
      "inputs": [
        {
          "internalType": "uint256[]",
          "name": "p1",
          "type": "uint256[]"
        },
        {
          "internalType": "uint256[]",
          "name": "p2",
          "type": "uint256[]"
        },
        {
          "internalType": "uint256[]",
          "name": "p3",
          "type": "uint256[]"
        },
        {
          "internalType": "uint256",
          "name": "p4",
          "type": "uint256"
        }
      ],
      "name": "f140",
      "outputs": [
        {
          "internalType": "uint256[]",
          "name": "v1",
          "type": "uint256[]"
        }
      ],
      "stateMutability": "view",
      "type": "function"
    },
    {
      "inputs": [
        {
          "internalType": "uint256[]",
          "name": "p1",
          "type": "uint256[]"
        },
        {
          "internalType": "uint256",
          "name": "p2",
          "type": "uint256"
        },
        {
          "internalType": "uint256[]",
          "name": "p3",
          "type": "uint256[]"
        }
      ],
      "name": "f140e",
      "outputs": [
        {
          "internalType": "uint256[]",
          "name": "v1",
          "type": "uint256[]"
        }
      ],
      "stateMutability": "view",
      "type": "function"
    },
    {
      "inputs": [
        {
          "internalType": "address[7]",
          "name": "p1",
          "type": "address[7]"
        }
      ],
      "name": "f163",
      "outputs": [],
      "stateMutability": "nonpayable",
      "type": "function"
    },
    {
      "inputs": [
        {
          "internalType": "uint256[][5]",
          "name": "p1",
          "type": "uint256[][5]"
        },
        {
          "internalType": "uint256[]",
          "name": "p2",
          "type": "uint256[]"
        },
        {
          "internalType": "uint256",
          "name": "p3",
          "type": "uint256"
        },
        {
          "internalType": "uint256[][][]",
          "name": "p4",
          "type": "uint256[][][]"
        },
        {
          "internalType": "bool",
          "name": "p5",
          "type": "bool"
        }
      ],
      "name": "f182",
      "outputs": [],
      "stateMutability": "nonpayable",
      "type": "function"
    },
    {
      "inputs": [
        {
          "internalType": "uint256[][5]",
          "name": "p1",
          "type": "uint256[][5]"
        },
        {
          "internalType": "uint256",
          "name": "p2",
          "type": "uint256"
        },
        {
          "internalType": "uint256",
          "name": "p3",
          "type": "uint256"
        },
        {
          "internalType": "bool",
          "name": "p4",
          "type": "bool"
        },
        {
          "internalType": "bool",
          "name": "p5",
          "type": "bool"
        },
        {
          "internalType": "uint256",
          "name": "p6",
          "type": "uint256"
        }
      ],
      "name": "f184",
      "outputs": [],
      "stateMutability": "nonpayable",
      "type": "function"
    },
    {
      "inputs": [
        {
          "components": [
            {
              "internalType": "uint256",
              "name": "sv1",
              "type": "uint256"
            },
            {
              "internalType": "bool",
              "name": "sv2",
              "type": "bool"
            },
            {
              "internalType": "uint256[]",
              "name": "sv3",
              "type": "uint256[]"
            },
            {
              "internalType": "uint256[][]",
              "name": "sv4",
              "type": "uint256[][]"
            },
            {
              "internalType": "address[]",
              "name": "sv5",
              "type": "address[]"
            },
            {
              "internalType": "string[][]",
              "name": "sv6",
              "type": "string[][]"
            },
            {
              "internalType": "uint256",
              "name": "t",
              "type": "uint256"
            },
            {
              "internalType": "uint256",
              "name": "sv7",
              "type": "uint256"
            },
            {
              "internalType": "uint256",
              "name": "sv8",
              "type": "uint256"
            },
            {
              "internalType": "uint256[2]",
              "name": "sv9",
              "type": "uint256[2]"
            },
            {
              "internalType": "bool",
              "name": "sv10",
              "type": "bool"
            },
            {
              "internalType": "uint256[]",
              "name": "sv11",
              "type": "uint256[]"
            }
          ],
          "internalType": "struct E3.TD",
          "name": "p1",
          "type": "tuple"
        }
      ],
      "name": "f185",
      "outputs": [],
      "stateMutability": "nonpayable",
      "type": "function"
    },
    {
      "inputs": [
        {
          "internalType": "uint256[][6]",
          "name": "p1",
          "type": "uint256[][6]"
        },
        {
          "internalType": "uint256",
          "name": "p2",
          "type": "uint256"
        }
      ],
      "name": "f199",
      "outputs": [],
      "stateMutability": "nonpayable",
      "type": "function"
    },
    {
      "inputs": [
        {
          "internalType": "uint256[]",
          "name": "p1",
          "type": "uint256[]"
        },
        {
          "internalType": "bool[]",
          "name": "p2",
          "type": "bool[]"
        },
        {
          "internalType": "uint256[]",
          "name": "p3",
          "type": "uint256[]"
        },
        {
          "internalType": "uint256",
          "name": "p4",
          "type": "uint256"
        },
        {
          "internalType": "uint256[][]",
          "name": "p5",
          "type": "uint256[][]"
        },
        {
          "internalType": "uint256[][]",
          "name": "p6",
          "type": "uint256[][]"
        },
        {
          "internalType": "uint256[]",
          "name": "p7",
          "type": "uint256[]"
        }
      ],
      "name": "f204",
      "outputs": [],
      "stateMutability": "nonpayable",
      "type": "function"
    },
    {
      "inputs": [
        {
          "internalType": "uint256[]",
          "name": "p1",
          "type": "uint256[]"
        },
        {
          "internalType": "uint256",
          "name": "p2",
          "type": "uint256"
        },
        {
          "internalType": "uint256[][]",
          "name": "p3",
          "type": "uint256[][]"
        },
        {
          "internalType": "uint256[][]",
          "name": "p4",
          "type": "uint256[][]"
        }
      ],
      "name": "f212",
      "outputs": [],
      "stateMutability": "nonpayable",
      "type": "function"
    },
    {
      "inputs": [
        {
          "internalType": "uint256[][6]",
          "name": "p1",
          "type": "uint256[][6]"
        },
        {
          "internalType": "uint256",
          "name": "p2",
          "type": "uint256"
        }
      ],
      "name": "f227",
      "outputs": [],
      "stateMutability": "nonpayable",
      "type": "function"
    },
    {
      "inputs": [
        {
          "internalType": "uint256[]",
          "name": "p1",
          "type": "uint256[]"
        },
        {
          "internalType": "uint256[][]",
          "name": "p2",
          "type": "uint256[][]"
        },
        {
          "internalType": "uint256[]",
          "name": "p4",
          "type": "uint256[]"
        },
        {
          "internalType": "uint256",
          "name": "p5",
          "type": "uint256"
        },
        {
          "internalType": "uint256",
          "name": "p6",
          "type": "uint256"
        }
      ],
      "name": "f270",
      "outputs": [
        {
          "internalType": "uint256[][]",
          "name": "v1",
          "type": "uint256[][]"
        }
      ],
      "stateMutability": "view",
      "type": "function"
    }
  ],
  "bytecode": "0x60a060405260008060006101000a81548160ff0219169083151502179055503480156200002b57600080fd5b50604051620060bd380380620060bd8339818101604052810190620000519190620000a6565b8073ffffffffffffffffffffffffffffffffffffffff1660808173ffffffffffffffffffffffffffffffffffffffff1660601b815250505062000120565b600081519050620000a08162000106565b92915050565b600060208284031215620000b957600080fd5b6000620000c9848285016200008f565b91505092915050565b6000620000df82620000e6565b9050919050565b600073ffffffffffffffffffffffffffffffffffffffff82169050919050565b6200011181620000d2565b81146200011d57600080fd5b50565b60805160601c615f7e6200013f600039600061190a0152615f7e6000f3fe608060405234801561001057600080fd5b50600436106100995760003560e01c80634d729ec71461009e5780635af72c5b146100ba5780635d7810b5146100ea5780636228251b14610106578063702be2471461012257806374146c941461013e5780639cc2ff8c1461015a578063d7e0ff1c14610176578063d94e8825146101a6578063f47ac2a8146101d6578063f572c036146101f2575b600080fd5b6100b860048036038101906100b391906141cf565b61020e565b005b6100d460048036038101906100cf919061449f565b6107ba565b6040516100e19190615268565b60405180910390f35b61010460048036038101906100ff9190614371565b61085b565b005b610120600480360381019061011b91906140ed565b610e2f565b005b61013c6004803603810190610137919061402e565b6111a6565b005b61015860048036038101906101539190613ed6565b611908565b005b610174600480360381019061016f919061469d565b611bdf565b005b610190600480360381019061018b91906145f5565b6122ec565b60405161019d9190615268565b60405180910390f35b6101c060048036038101906101bb9190614264565b61238a565b6040516101cd91906151ca565b60405180910390f35b6101f060048036038101906101eb919061454a565b612437565b005b61020c600480360381019061020791906141cf565b61274f565b005b3360011515600160008373ffffffffffffffffffffffffffffffffffffffff1673ffffffffffffffffffffffffffffffffffffffff16815260200190815260200160002060009054906101000a900460ff1615151461026c57600080fd5b6000600560009054906101000a900473ffffffffffffffffffffffffffffffffffffffff1673ffffffffffffffffffffffffffffffffffffffff166321774543856000600681106102e6577f4e487b7100000000000000000000000000000000000000000000000000000000600052603260045260246000fd5b60200201516040518263ffffffff1660e01b81526004016103079190615268565b60006040518083038186803b15801561031f57600080fd5b505afa158015610333573d6000803e3d6000fd5b505050506040513d6000823e3d601f19601f8201168201806040525081019061035c9190613f40565b905073__$c1efb2dccb00bdcdb4d2f4fb75b83e81b5$__6327ce693885856002856040518563ffffffff1660e01b815260040161039c9493929190615177565b60006040518083038186803b1580156103b457600080fd5b505af41580156103c8573d6000803e3d6000fd5b5050505060005b84600060068110610409577f4e487b7100000000000000000000000000000000000000000000000000000000600052603260045260246000fd5b6020020151518110156107b35760008086600460068110610453577f4e487b7100000000000000000000000000000000000000000000000000000000600052603260045260246000fd5b602002015151141561046557846104e5565b8560046006811061049f577f4e487b7100000000000000000000000000000000000000000000000000000000600052603260045260246000fd5b602002015182815181106104dc577f4e487b7100000000000000000000000000000000000000000000000000000000600052603260045260246000fd5b60200260200101515b905085600260068110610521577f4e487b7100000000000000000000000000000000000000000000000000000000600052603260045260246000fd5b6020020151828151811061055e577f4e487b7100000000000000000000000000000000000000000000000000000000600052603260045260246000fd5b6020026020010151866003600681106105a0577f4e487b7100000000000000000000000000000000000000000000000000000000600052603260045260246000fd5b602002015183815181106105dd577f4e487b7100000000000000000000000000000000000000000000000000000000600052603260045260246000fd5b60200260200101518760006006811061061f577f4e487b7100000000000000000000000000000000000000000000000000000000600052603260045260246000fd5b6020020151848151811061065c577f4e487b7100000000000000000000000000000000000000000000000000000000600052603260045260246000fd5b60200260200101517f17fc008f8c4d6f4ef11c350a534561f818b4aaf36df7373bf94c3ed3b3563a8d848a6001600681106106c0577f4e487b7100000000000000000000000000000000000000000000000000000000600052603260045260246000fd5b602002015187815181106106fd577f4e487b7100000000000000000000000000000000000000000000000000000000600052603260045260246000fd5b60200260200101518b60056006811061073f577f4e487b7100000000000000000000000000000000000000000000000000000000600052603260045260246000fd5b6020020151888151811061077c577f4e487b7100000000000000000000000000000000000000000000000000000000600052603260045260246000fd5b60200260200101514243604051610797959493929190615423565b60405180910390a45080806107ab90615e1c565b9150506103cf565b5050505050565b606073__$c1efb2dccb00bdcdb4d2f4fb75b83e81b5$__63a22b3e398686600287876040518663ffffffff1660e01b81526004016107fc95949392919061528a565b60006040518083038186803b15801561081457600080fd5b505af4158015610828573d6000803e3d6000fd5b505050506040513d6000823e3d601f19601f820116820180604052508101906108519190614330565b9050949350505050565b3360011515600160008373ffffffffffffffffffffffffffffffffffffffff1673ffffffffffffffffffffffffffffffffffffffff16815260200190815260200160002060009054906101000a900460ff161515146108b957600080fd5b60005b8851811015610e24578781815181106108fe577f4e487b7100000000000000000000000000000000000000000000000000000000600052603260045260246000fd5b602002602001015115610e115760006109d8868381518110610949577f4e487b7100000000000000000000000000000000000000000000000000000000600052603260045260246000fd5b60200260200101518b848151811061098a577f4e487b7100000000000000000000000000000000000000000000000000000000600052603260045260246000fd5b60200260200101518785815181106109cb577f4e487b7100000000000000000000000000000000000000000000000000000000600052603260045260246000fd5b60200260200101516122ec565b905060008790506000811415610a2c57848381518110610a21577f4e487b7100000000000000000000000000000000000000000000000000000000600052603260045260246000fd5b602002602001015190505b60005b878481518110610a68577f4e487b7100000000000000000000000000000000000000000000000000000000600052603260045260246000fd5b602002602001015151811015610e0d576000600260010160008a8781518110610aba577f4e487b7100000000000000000000000000000000000000000000000000000000600052603260045260246000fd5b60200260200101518481518110610afa577f4e487b7100000000000000000000000000000000000000000000000000000000600052603260045260246000fd5b6020026020010151815260200190815260200160002060006001815260200190815260200160002060008e8781518110610b5d577f4e487b7100000000000000000000000000000000000000000000000000000000600052603260045260246000fd5b602002602001015181526020019081526020016000206000898781518110610bae577f4e487b7100000000000000000000000000000000000000000000000000000000600052603260045260246000fd5b60200260200101518481518110610bee577f4e487b7100000000000000000000000000000000000000000000000000000000600052603260045260246000fd5b6020026020010151815260200190815260200160002054905080848381518110610c41577f4e487b7100000000000000000000000000000000000000000000000000000000600052603260045260246000fd5b602002602001015114610c5357600080fd5b6000610c9f828d8881518110610c92577f4e487b7100000000000000000000000000000000000000000000000000000000600052603260045260246000fd5b6020026020010151612d54565b90506000811115610df857610df78a8781518110610ce6577f4e487b7100000000000000000000000000000000000000000000000000000000600052603260045260246000fd5b60200260200101518481518110610d26577f4e487b7100000000000000000000000000000000000000000000000000000000600052603260045260246000fd5b60200260200101518f8881518110610d67577f4e487b7100000000000000000000000000000000000000000000000000000000600052603260045260246000fd5b602002602001015183878d8b81518110610daa577f4e487b7100000000000000000000000000000000000000000000000000000000600052603260045260246000fd5b60200260200101518881518110610dea577f4e487b7100000000000000000000000000000000000000000000000000000000600052603260045260246000fd5b6020026020010151612dce565b5b50508080610e0590615e1c565b915050610a2f565b5050505b8080610e1c90615e1c565b9150506108bc565b505050505050505050565b3360011515600160008373ffffffffffffffffffffffffffffffffffffffff1673ffffffffffffffffffffffffffffffffffffffff16815260200190815260200160002060009054906101000a900460ff16151514610e8d57600080fd5b60005b87600060058110610eca577f4e487b7100000000000000000000000000000000000000000000000000000000600052603260045260246000fd5b60200201515181101561119c57600084610f625788600260058110610f18577f4e487b7100000000000000000000000000000000000000000000000000000000600052603260045260246000fd5b60200201518281518110610f55577f4e487b7100000000000000000000000000000000000000000000000000000000600052603260045260246000fd5b6020026020010151610f64565b875b9050600086610ff15789600360058110610fa7577f4e487b7100000000000000000000000000000000000000000000000000000000600052603260045260246000fd5b60200201518381518110610fe4577f4e487b7100000000000000000000000000000000000000000000000000000000600052603260045260246000fd5b6020026020010151610ff3565b875b90506111878a600060058110611032577f4e487b7100000000000000000000000000000000000000000000000000000000600052603260045260246000fd5b6020020151848151811061106f577f4e487b7100000000000000000000000000000000000000000000000000000000600052603260045260246000fd5b602002602001015183878d6001600581106110b3577f4e487b7100000000000000000000000000000000000000000000000000000000600052603260045260246000fd5b602002015187815181106110f0577f4e487b7100000000000000000000000000000000000000000000000000000000600052603260045260246000fd5b60200260200101516111029190615d06565b848e60046005811061113d577f4e487b7100000000000000000000000000000000000000000000000000000000600052603260045260246000fd5b6020020151888151811061117a577f4e487b7100000000000000000000000000000000000000000000000000000000600052603260045260246000fd5b6020026020010151612dce565b5050808061119490615e1c565b915050610e90565b5050505050505050565b3360011515600160008373ffffffffffffffffffffffffffffffffffffffff1673ffffffffffffffffffffffffffffffffffffffff16815260200190815260200160002060009054906101000a900460ff1615151461120457600080fd5b600073__$c1efb2dccb00bdcdb4d2f4fb75b83e81b5$__6371a0007b888888888860026040518763ffffffff1660e01b8152600401611248969594939291906150ae565b60006040518083038186803b15801561126057600080fd5b505af4158015611274573d6000803e3d6000fd5b505050506040513d6000823e3d601f19601f8201168201806040525081019061129d9190613eff565b9050826118f45760005b876001600581106112e1577f4e487b7100000000000000000000000000000000000000000000000000000000600052603260045260246000fd5b6020020151518110156118f25760005b85828151811061132a577f4e487b7100000000000000000000000000000000000000000000000000000000600052603260045260246000fd5b602002602001015160038151811061136b577f4e487b7100000000000000000000000000000000000000000000000000000000600052603260045260246000fd5b6020026020010151518110156118de5760008683815181106113b6577f4e487b7100000000000000000000000000000000000000000000000000000000600052603260045260246000fd5b60200260200101516003815181106113f7577f4e487b7100000000000000000000000000000000000000000000000000000000600052603260045260246000fd5b60200260200101518281518110611437577f4e487b7100000000000000000000000000000000000000000000000000000000600052603260045260246000fd5b60200260200101511415801561150f57506000868381518110611483577f4e487b7100000000000000000000000000000000000000000000000000000000600052603260045260246000fd5b60200260200101516004815181106114c4577f4e487b7100000000000000000000000000000000000000000000000000000000600052603260045260246000fd5b60200260200101518281518110611504577f4e487b7100000000000000000000000000000000000000000000000000000000600052603260045260246000fd5b602002602001015114155b156118cb5782828151811061154d577f4e487b7100000000000000000000000000000000000000000000000000000000600052603260045260246000fd5b6020026020010151818151811061158d577f4e487b7100000000000000000000000000000000000000000000000000000000600052603260045260246000fd5b60200260200101516002600481106115ce577f4e487b7100000000000000000000000000000000000000000000000000000000600052603260045260246000fd5b602002015183838151811061160c577f4e487b7100000000000000000000000000000000000000000000000000000000600052603260045260246000fd5b6020026020010151828151811061164c577f4e487b7100000000000000000000000000000000000000000000000000000000600052603260045260246000fd5b602002602001015160016004811061168d577f4e487b7100000000000000000000000000000000000000000000000000000000600052603260045260246000fd5b60200201518a6001600581106116cc577f4e487b7100000000000000000000000000000000000000000000000000000000600052603260045260246000fd5b60200201518481518110611709577f4e487b7100000000000000000000000000000000000000000000000000000000600052603260045260246000fd5b60200260200101517fe00ec1639c1c4888fdca48068d74d67a13adc5998c198ac533b78a0c53a33f9b86868151811061176b577f4e487b7100000000000000000000000000000000000000000000000000000000600052603260045260246000fd5b602002602001015185815181106117ab577f4e487b7100000000000000000000000000000000000000000000000000000000600052603260045260246000fd5b60200260200101516000600481106117ec577f4e487b7100000000000000000000000000000000000000000000000000000000600052603260045260246000fd5b602002015187878151811061182a577f4e487b7100000000000000000000000000000000000000000000000000000000600052603260045260246000fd5b6020026020010151868151811061186a577f4e487b7100000000000000000000000000000000000000000000000000000000600052603260045260246000fd5b60200260200101516003600481106118ab577f4e487b7100000000000000000000000000000000000000000000000000000000600052603260045260246000fd5b602002015142436040516118c294939291906153de565b60405180910390a45b80806118d690615e1c565b9150506112f1565b5080806118ea90615e1c565b9150506112a7565b505b6118ff878686612ebf565b50505050505050565b7f000000000000000000000000000000000000000000000000000000000000000073ffffffffffffffffffffffffffffffffffffffff163373ffffffffffffffffffffffffffffffffffffffff1614801561196e575060008054906101000a900460ff16155b61197757600080fd5b60016000806101000a81548160ff02191690831515021790555060005b6007811015611a525760018060008484600781106119db577f4e487b7100000000000000000000000000000000000000000000000000000000600052603260045260246000fd5b6020020160208101906119ee9190613ead565b73ffffffffffffffffffffffffffffffffffffffff1673ffffffffffffffffffffffffffffffffffffffff16815260200190815260200160002060006101000a81548160ff0219169083151502179055508080611a4a90615e1c565b915050611994565b5080600560078110611a8d577f4e487b7100000000000000000000000000000000000000000000000000000000600052603260045260246000fd5b602002016020810190611aa09190613ead565b600560006101000a81548173ffffffffffffffffffffffffffffffffffffffff021916908373ffffffffffffffffffffffffffffffffffffffff16021790555080600160078110611b1a577f4e487b7100000000000000000000000000000000000000000000000000000000600052603260045260246000fd5b602002016020810190611b2d9190613ead565b600660006101000a81548173ffffffffffffffffffffffffffffffffffffffff021916908373ffffffffffffffffffffffffffffffffffffffff1602179055507d8f7124117c40c6824f218fee9fe20d7745a5ee9fdec00000000000000000600260010160006003815260200190815260200160002060006001815260200190815260200160002060006002815260200190815260200160002060008081526020019081526020016000208190555050565b3360011515600160008373ffffffffffffffffffffffffffffffffffffffff1673ffffffffffffffffffffffffffffffffffffffff16815260200190815260200160002060009054906101000a900460ff16151514611c3d57600080fd5b6000828060600190611c4f91906154cd565b6000818110611c87577f4e487b7100000000000000000000000000000000000000000000000000000000600052603260045260246000fd5b9050602002810190611c99919061557b565b6001818110611cd1577f4e487b7100000000000000000000000000000000000000000000000000000000600052603260045260246000fd5b9050602002013590506000838060600190611cec91906154cd565b6000818110611d24577f4e487b7100000000000000000000000000000000000000000000000000000000600052603260045260246000fd5b9050602002810190611d36919061557b565b6000818110611d6e577f4e487b7100000000000000000000000000000000000000000000000000000000600052603260045260246000fd5b9050602002013590506175308114156122e6576001821415611e3457600073__$7b11637b326fa12a30ce8fbc20da0b2192$__6385becbe8866040518263ffffffff1660e01b8152600401611dc39190615385565b60006040518083038186803b158015611ddb57600080fd5b505af4158015611def573d6000803e3d6000fd5b505050506040513d6000823e3d601f19601f82011682018060405250810190611e189190613fed565b9050611e2e818660000135600080600180610e2f565b506122e5565b6006821415611ee157600073__$7b11637b326fa12a30ce8fbc20da0b2192$__632ff1eac8866040518263ffffffff1660e01b8152600401611e769190615385565b60006040518083038186803b158015611e8e57600080fd5b505af4158015611ea2573d6000803e3d6000fd5b505050506040513d6000823e3d601f19601f82011682018060405250810190611ecb919061418e565b9050611edb81866000013561020e565b506122e4565b60078214156122395760008073__$7b11637b326fa12a30ce8fbc20da0b2192$__63b011f23b876040518263ffffffff1660e01b8152600401611f249190615385565b60006040518083038186803b158015611f3c57600080fd5b505af4158015611f50573d6000803e3d6000fd5b505050506040513d6000823e3d601f19601f82011682018060405250810190611f799190613f81565b91509150856020016020810190611f909190614674565b611f9957600080fd5b60005b82600060028110611fd6577f4e487b7100000000000000000000000000000000000000000000000000000000600052603260045260246000fd5b6020020151518110156122315760008360006002811061201f577f4e487b7100000000000000000000000000000000000000000000000000000000600052603260045260246000fd5b6020020151828151811061205c577f4e487b7100000000000000000000000000000000000000000000000000000000600052603260045260246000fd5b602002602001015190506120ba8383815181106120a2577f4e487b7100000000000000000000000000000000000000000000000000000000600052603260045260246000fd5b60200260200101518960000135836001806001610e2f565b836001600281106120f4577f4e487b7100000000000000000000000000000000000000000000000000000000600052603260045260246000fd5b60200201518281518110612131577f4e487b7100000000000000000000000000000000000000000000000000000000600052603260045260246000fd5b60200260200101518189600001357f9f6484525810de192c94f0708d9870e2731979592d608d36f7f745056cb53dbd8b8060a001906121709190615476565b60008181106121a8577f4e487b7100000000000000000000000000000000000000000000000000000000600052603260045260246000fd5b90506020028101906121ba9190615524565b878181106121f1577f4e487b7100000000000000000000000000000000000000000000000000000000600052603260045260246000fd5b905060200281019061220391906155d2565b42436040516122159493929190615345565b60405180910390a450808061222990615e1c565b915050611f9c565b5050506122e3565b60108214156122e257600073__$7b11637b326fa12a30ce8fbc20da0b2192$__632ff1eac8866040518263ffffffff1660e01b815260040161227b9190615385565b60006040518083038186803b15801561229357600080fd5b505af41580156122a7573d6000803e3d6000fd5b505050506040513d6000823e3d601f19601f820116820180604052508101906122d0919061418e565b90506122e081866000013561274f565b505b5b5b5b5b50505050565b606073__$c1efb2dccb00bdcdb4d2f4fb75b83e81b5$__63bc8a247f85856002866040518563ffffffff1660e01b815260040161232c94939291906152f2565b60006040518083038186803b15801561234457600080fd5b505af4158015612358573d6000803e3d6000fd5b505050506040513d6000823e3d601f19601f820116820180604052508101906123819190614330565b90509392505050565b606073__$c1efb2dccb00bdcdb4d2f4fb75b83e81b5$__63854392ee8a8a8a8a60028b8b8b8b6040518a63ffffffff1660e01b81526004016123d4999897969594939291906151ec565b60006040518083038186803b1580156123ec57600080fd5b505af4158015612400573d6000803e3d6000fd5b505050506040513d6000823e3d601f19601f820116820180604052508101906124299190614223565b905098975050505050505050565b3360011515600160008373ffffffffffffffffffffffffffffffffffffffff1673ffffffffffffffffffffffffffffffffffffffff16815260200190815260200160002060009054906101000a900460ff1615151461249557600080fd5b60005b85518110156127475760008482815181106124dc577f4e487b7100000000000000000000000000000000000000000000000000000000600052603260045260246000fd5b602002602001015151146127345760005b848281518110612526577f4e487b7100000000000000000000000000000000000000000000000000000000600052603260045260246000fd5b602002602001015151811015612732576000858381518110612571577f4e487b7100000000000000000000000000000000000000000000000000000000600052603260045260246000fd5b602002602001015182815181106125b1577f4e487b7100000000000000000000000000000000000000000000000000000000600052603260045260246000fd5b6020026020010151905060008584815181106125f6577f4e487b7100000000000000000000000000000000000000000000000000000000600052603260045260246000fd5b60200260200101518381518110612636577f4e487b7100000000000000000000000000000000000000000000000000000000600052603260045260246000fd5b6020026020010151905060006002600101600084815260200190815260200160002060006001815260200190815260200160002060008b87815181106126a5577f4e487b7100000000000000000000000000000000000000000000000000000000600052603260045260246000fd5b60200260200101518152602001908152602001600020600083815260200190815260200160002054905061271c838b878151811061270c577f4e487b7100000000000000000000000000000000000000000000000000000000600052603260045260246000fd5b6020026020010151838c86612dce565b505050808061272a90615e1c565b9150506124ed565b505b808061273f90615e1c565b915050612498565b505050505050565b3360011515600160008373ffffffffffffffffffffffffffffffffffffffff1673ffffffffffffffffffffffffffffffffffffffff16815260200190815260200160002060009054906101000a900460ff161515146127ad57600080fd5b6000600560009054906101000a900473ffffffffffffffffffffffffffffffffffffffff1673ffffffffffffffffffffffffffffffffffffffff16632177454385600060068110612827577f4e487b7100000000000000000000000000000000000000000000000000000000600052603260045260246000fd5b60200201516040518263ffffffff1660e01b81526004016128489190615268565b60006040518083038186803b15801561286057600080fd5b505afa158015612874573d6000803e3d6000fd5b505050506040513d6000823e3d601f19601f8201168201806040525081019061289d9190613f40565b905073__$c1efb2dccb00bdcdb4d2f4fb75b83e81b5$__63026e262f85600286856040518563ffffffff1660e01b81526004016128dd9493929190615124565b60006040518083038186803b1580156128f557600080fd5b505af4158015612909573d6000803e3d6000fd5b5050505060005b8460006006811061294a577f4e487b7100000000000000000000000000000000000000000000000000000000600052603260045260246000fd5b602002015151811015612d4d57600085600460068110612993577f4e487b7100000000000000000000000000000000000000000000000000000000600052603260045260246000fd5b602002015182815181106129d0577f4e487b7100000000000000000000000000000000000000000000000000000000600052603260045260246000fd5b602002602001015190506000600287600160068110612a18577f4e487b7100000000000000000000000000000000000000000000000000000000600052603260045260246000fd5b60200201518481518110612a55577f4e487b7100000000000000000000000000000000000000000000000000000000600052603260045260246000fd5b602002602001015114612a69576000612ae9565b86600360068110612aa3577f4e487b7100000000000000000000000000000000000000000000000000000000600052603260045260246000fd5b60200201518381518110612ae0577f4e487b7100000000000000000000000000000000000000000000000000000000600052603260045260246000fd5b60200260200101515b905060008690506000871415612b7b5787600560068110612b33577f4e487b7100000000000000000000000000000000000000000000000000000000600052603260045260246000fd5b60200201518481518110612b70577f4e487b7100000000000000000000000000000000000000000000000000000000600052603260045260246000fd5b602002602001015190505b8088600160068110612bb6577f4e487b7100000000000000000000000000000000000000000000000000000000600052603260045260246000fd5b60200201518581518110612bf3577f4e487b7100000000000000000000000000000000000000000000000000000000600052603260045260246000fd5b602002602001015189600060068110612c35577f4e487b7100000000000000000000000000000000000000000000000000000000600052603260045260246000fd5b60200201518681518110612c72577f4e487b7100000000000000000000000000000000000000000000000000000000600052603260045260246000fd5b60200260200101517f65a0f9133e592d4b67e691726e9f2216f641658c01d5e455c24dc4ae8ee6a8b2868c600260068110612cd6577f4e487b7100000000000000000000000000000000000000000000000000000000600052603260045260246000fd5b60200201518981518110612d13577f4e487b7100000000000000000000000000000000000000000000000000000000600052603260045260246000fd5b6020026020010151874243604051612d2f959493929190615423565b60405180910390a45050508080612d4590615e1c565b915050612910565b5050505050565b600080831480612d645750600082145b15612d725760009050612dc8565b670de0b6b3a76400008311612da557670de0b6b3a76400008284612d969190615d06565b612da09190615cd5565b612dc5565b81670de0b6b3a764000084612dba9190615cd5565b612dc49190615d06565b5b90505b92915050565b60006002600101600087815260200190815260200160002060006001815260200190815260200160002090508381600087815260200190815260200160002060008481526020019081526020016000206000828254612e2d9190615d60565b925050819055508381600085815260200190815260200160002060008481526020019081526020016000206000828254612e679190615c7f565b9250508190555060008414612eb7578285877fe00ec1639c1c4888fdca48068d74d67a13adc5998c198ac533b78a0c53a33f9b87864243604051612eae94939291906153de565b60405180910390a45b505050505050565b60005b83600160058110612efc577f4e487b7100000000000000000000000000000000000000000000000000000000600052603260045260246000fd5b60200201515181101561334f5760008085600460058110612f46577f4e487b7100000000000000000000000000000000000000000000000000000000600052603260045260246000fd5b60200201515111612f575783612fd7565b84600460058110612f91577f4e487b7100000000000000000000000000000000000000000000000000000000600052603260045260246000fd5b60200201518281518110612fce577f4e487b7100000000000000000000000000000000000000000000000000000000600052603260045260246000fd5b60200260200101515b90506000600186600060058110613017577f4e487b7100000000000000000000000000000000000000000000000000000000600052603260045260246000fd5b60200201518481518110613054577f4e487b7100000000000000000000000000000000000000000000000000000000600052603260045260246000fd5b6020026020010151146130e5578560036005811061309b577f4e487b7100000000000000000000000000000000000000000000000000000000600052603260045260246000fd5b602002015183815181106130d8577f4e487b7100000000000000000000000000000000000000000000000000000000600052603260045260246000fd5b60200260200101516130e7565b815b90506000848481518110613124577f4e487b7100000000000000000000000000000000000000000000000000000000600052603260045260246000fd5b6020026020010151600281518110613165577f4e487b7100000000000000000000000000000000000000000000000000000000600052603260045260246000fd5b60200260200101516007815181106131a6577f4e487b7100000000000000000000000000000000000000000000000000000000600052603260045260246000fd5b60200260200101519050600060026001016000896001600581106131f3577f4e487b7100000000000000000000000000000000000000000000000000000000600052603260045260246000fd5b60200201518781518110613230577f4e487b7100000000000000000000000000000000000000000000000000000000600052603260045260246000fd5b602002602001015181526020019081526020016000206000600181526020019081526020016000206000848152602001908152602001600020600083815260200190815260200160002054905082886001600581106132b8577f4e487b7100000000000000000000000000000000000000000000000000000000600052603260045260246000fd5b602002015186815181106132f5577f4e487b7100000000000000000000000000000000000000000000000000000000600052603260045260246000fd5b60200260200101517f4a1356798b6d4fa1178ba78023f16cc3fddb1a87eeca14cfc73dc0aa37db2695834243604051613330939291906153a7565b60405180910390a350505050808061334790615e1c565b915050612ec2565b50505050565b60006133686133638461564e565b615629565b9050808382526020820190508285602086028201111561338757600080fd5b60005b858110156133d157815167ffffffffffffffff8111156133a957600080fd5b8086016133b68982613bd8565b8552602085019450602084019350505060018101905061338a565b5050509392505050565b60006133ee6133e98461567a565b615629565b9050808382526020820190508285602086028201111561340d57600080fd5b60005b8581101561345757815167ffffffffffffffff81111561342f57600080fd5b80860161343c8982613c9a565b85526020850194506020840193505050600181019050613410565b5050509392505050565b600061347461346f846156a6565b615629565b9050808382526020820190508285602086028201111561349357600080fd5b60005b858110156134dd57813567ffffffffffffffff8111156134b557600080fd5b8086016134c28982613d0f565b85526020850194506020840193505050600181019050613496565b5050509392505050565b60006134fa6134f5846156a6565b615629565b9050808382526020820190508285602086028201111561351957600080fd5b60005b8581101561356357815167ffffffffffffffff81111561353b57600080fd5b8086016135488982613d39565b8552602085019450602084019350505060018101905061351c565b5050509392505050565b600061358061357b846156d2565b615629565b9050808382526020820190508285608086028201111561359f57600080fd5b60005b858110156135cf57816135b58882613d8d565b8452602084019350608083019250506001810190506135a2565b5050509392505050565b60006135ec6135e7846156fe565b615629565b9050808285602086028201111561360257600080fd5b60005b8581101561364c57815167ffffffffffffffff81111561362457600080fd5b8086016136318982613e28565b85526020850194506020840193505050600181019050613605565b5050509392505050565b600061366961366484615724565b615629565b9050808285602086028201111561367f57600080fd5b60005b858110156136c957813567ffffffffffffffff8111156136a157600080fd5b8086016136ae8982613dfe565b85526020850194506020840193505050600181019050613682565b5050509392505050565b60006136e66136e184615724565b615629565b905080828560208602820111156136fc57600080fd5b60005b8581101561374657815167ffffffffffffffff81111561371e57600080fd5b80860161372b8982613e28565b855260208501945060208401935050506001810190506136ff565b5050509392505050565b600061376361375e8461574a565b615629565b9050808285602086028201111561377957600080fd5b60005b858110156137c357813567ffffffffffffffff81111561379b57600080fd5b8086016137a88982613dfe565b8552602085019450602084019350505060018101905061377c565b5050509392505050565b60006137e06137db8461574a565b615629565b905080828560208602820111156137f657600080fd5b60005b8581101561384057815167ffffffffffffffff81111561381857600080fd5b8086016138258982613e28565b855260208501945060208401935050506001810190506137f9565b5050509392505050565b600061385d61385884615770565b615629565b9050808382526020820190508285602086028201111561387c57600080fd5b60005b858110156138c657813567ffffffffffffffff81111561389e57600080fd5b8086016138ab8982613dfe565b8552602085019450602084019350505060018101905061387f565b5050509392505050565b60006138e36138de84615770565b615629565b9050808382526020820190508285602086028201111561390257600080fd5b60005b8581101561394c57815167ffffffffffffffff81111561392457600080fd5b8086016139318982613e28565b85526020850194506020840193505050600181019050613905565b5050509392505050565b60006139696139648461579c565b615629565b9050808382526020820190508285602086028201111561398857600080fd5b60005b858110156139b8578161399e8882613e52565b84526020840193506020830192505060018101905061398b565b5050509392505050565b60006139d56139d0846157c8565b615629565b905080828560208602820111156139eb57600080fd5b60005b85811015613a1b5781613a018882613e98565b8452602084019350602083019250506001810190506139ee565b5050509392505050565b6000613a38613a33846157ee565b615629565b90508083825260208201905082856020860282011115613a5757600080fd5b60005b85811015613a875781613a6d8882613e83565b845260208401935060208301925050600181019050613a5a565b5050509392505050565b6000613aa4613a9f846157ee565b615629565b90508083825260208201905082856020860282011115613ac357600080fd5b60005b85811015613af35781613ad98882613e98565b845260208401935060208301925050600181019050613ac6565b5050509392505050565b600081359050613b0c81615f03565b92915050565b600081905082602060070282011115613b2a57600080fd5b92915050565b600082601f830112613b4157600080fd5b8151613b51848260208601613355565b91505092915050565b600082601f830112613b6b57600080fd5b8151613b7b8482602086016133db565b91505092915050565b600082601f830112613b9557600080fd5b8135613ba5848260208601613461565b91505092915050565b600082601f830112613bbf57600080fd5b8151613bcf8482602086016134e7565b91505092915050565b600082601f830112613be957600080fd5b8151613bf984826020860161356d565b91505092915050565b60008083601f840112613c1457600080fd5b8235905067ffffffffffffffff811115613c2d57600080fd5b602083019150836020820283011115613c4557600080fd5b9250929050565b600082601f830112613c5d57600080fd5b6002613c6a8482856135d9565b91505092915050565b600082601f830112613c8457600080fd5b6005613c91848285613656565b91505092915050565b600082601f830112613cab57600080fd5b6005613cb88482856136d3565b91505092915050565b600082601f830112613cd257600080fd5b6006613cdf848285613750565b91505092915050565b600082601f830112613cf957600080fd5b6006613d068482856137cd565b91505092915050565b600082601f830112613d2057600080fd5b8135613d3084826020860161384a565b91505092915050565b600082601f830112613d4a57600080fd5b8151613d5a8482602086016138d0565b91505092915050565b600082601f830112613d7457600080fd5b8135613d84848260208601613956565b91505092915050565b600082601f830112613d9e57600080fd5b6004613dab8482856139c2565b91505092915050565b60008083601f840112613dc657600080fd5b8235905067ffffffffffffffff811115613ddf57600080fd5b602083019150836020820283011115613df757600080fd5b9250929050565b600082601f830112613e0f57600080fd5b8135613e1f848260208601613a25565b91505092915050565b600082601f830112613e3957600080fd5b8151613e49848260208601613a91565b91505092915050565b600081359050613e6181615f1a565b92915050565b60006101a08284031215613e7a57600080fd5b81905092915050565b600081359050613e9281615f31565b92915050565b600081519050613ea781615f31565b92915050565b600060208284031215613ebf57600080fd5b6000613ecd84828501613afd565b91505092915050565b600060e08284031215613ee857600080fd5b6000613ef684828501613b12565b91505092915050565b600060208284031215613f1157600080fd5b600082015167ffffffffffffffff811115613f2b57600080fd5b613f3784828501613b30565b91505092915050565b600060208284031215613f5257600080fd5b600082015167ffffffffffffffff811115613f6c57600080fd5b613f7884828501613bae565b91505092915050565b60008060408385031215613f9457600080fd5b600083015167ffffffffffffffff811115613fae57600080fd5b613fba85828601613c4c565b925050602083015167ffffffffffffffff811115613fd757600080fd5b613fe385828601613b5a565b9150509250929050565b600060208284031215613fff57600080fd5b600082015167ffffffffffffffff81111561401957600080fd5b61402584828501613c9a565b91505092915050565b600080600080600060a0868803121561404657600080fd5b600086013567ffffffffffffffff81111561406057600080fd5b61406c88828901613c73565b955050602086013567ffffffffffffffff81111561408957600080fd5b61409588828901613dfe565b94505060406140a688828901613e83565b935050606086013567ffffffffffffffff8111156140c357600080fd5b6140cf88828901613b84565b92505060806140e088828901613e52565b9150509295509295909350565b60008060008060008060c0878903121561410657600080fd5b600087013567ffffffffffffffff81111561412057600080fd5b61412c89828a01613c73565b965050602061413d89828a01613e83565b955050604061414e89828a01613e83565b945050606061415f89828a01613e52565b935050608061417089828a01613e52565b92505060a061418189828a01613e83565b9150509295509295509295565b6000602082840312156141a057600080fd5b600082015167ffffffffffffffff8111156141ba57600080fd5b6141c684828501613ce8565b91505092915050565b600080604083850312156141e257600080fd5b600083013567ffffffffffffffff8111156141fc57600080fd5b61420885828601613cc1565b925050602061421985828601613e83565b9150509250929050565b60006020828403121561423557600080fd5b600082015167ffffffffffffffff81111561424f57600080fd5b61425b84828501613d39565b91505092915050565b60008060008060008060008060a0898b03121561428057600080fd5b600089013567ffffffffffffffff81111561429a57600080fd5b6142a68b828c01613db4565b9850985050602089013567ffffffffffffffff8111156142c557600080fd5b6142d18b828c01613c02565b9650965050604089013567ffffffffffffffff8111156142f057600080fd5b6142fc8b828c01613db4565b9450945050606061430f8b828c01613e83565b92505060806143208b828c01613e83565b9150509295985092959890939650565b60006020828403121561434257600080fd5b600082015167ffffffffffffffff81111561435c57600080fd5b61436884828501613e28565b91505092915050565b600080600080600080600060e0888a03121561438c57600080fd5b600088013567ffffffffffffffff8111156143a657600080fd5b6143b28a828b01613dfe565b975050602088013567ffffffffffffffff8111156143cf57600080fd5b6143db8a828b01613d63565b965050604088013567ffffffffffffffff8111156143f857600080fd5b6144048a828b01613dfe565b95505060606144158a828b01613e83565b945050608088013567ffffffffffffffff81111561443257600080fd5b61443e8a828b01613d0f565b93505060a088013567ffffffffffffffff81111561445b57600080fd5b6144678a828b01613d0f565b92505060c088013567ffffffffffffffff81111561448457600080fd5b6144908a828b01613dfe565b91505092959891949750929550565b600080600080608085870312156144b557600080fd5b600085013567ffffffffffffffff8111156144cf57600080fd5b6144db87828801613dfe565b945050602085013567ffffffffffffffff8111156144f857600080fd5b61450487828801613dfe565b935050604085013567ffffffffffffffff81111561452157600080fd5b61452d87828801613dfe565b925050606061453e87828801613e83565b91505092959194509250565b6000806000806080858703121561456057600080fd5b600085013567ffffffffffffffff81111561457a57600080fd5b61458687828801613dfe565b945050602061459787828801613e83565b935050604085013567ffffffffffffffff8111156145b457600080fd5b6145c087828801613d0f565b925050606085013567ffffffffffffffff8111156145dd57600080fd5b6145e987828801613d0f565b91505092959194509250565b60008060006060848603121561460a57600080fd5b600084013567ffffffffffffffff81111561462457600080fd5b61463086828701613dfe565b935050602061464186828701613e83565b925050604084013567ffffffffffffffff81111561465e57600080fd5b61466a86828701613dfe565b9150509250925092565b60006020828403121561468657600080fd5b600061469484828501613e52565b91505092915050565b6000602082840312156146af57600080fd5b600082013567ffffffffffffffff8111156146c957600080fd5b6146d584828501613e67565b91505092915050565b60006146ea83836147a4565b60208301905092915050565b60006147028383614b46565b905092915050565b6000614717848484614bbb565b90509392505050565b600061472d848484614c99565b90509392505050565b60006147428383614cf1565b905092915050565b60006147568383614e0b565b905092915050565b600061476b848484614eb4565b90509392505050565b60006147808383615072565b60208301905092915050565b6000614798838361509f565b60208301905092915050565b6147ad81615d94565b82525050565b60006147bf8385615932565b93506147ca8261581a565b8060005b85811015614803576147e08284615a25565b6147ea88826146de565b97506147f5836158bd565b9250506001810190506147ce565b5085925050509392505050565b600061481b82615886565b6148258185615943565b93508360208202850161483785615824565b8060005b85811015614873578484038952815161485485826146f6565b945061485f836158ca565b925060208a0199505060018101905061483b565b50829750879550505050505092915050565b60006148918385615954565b9350836020840285016148a384615834565b8060005b878110156148e95784840389526148be8284615b41565b6148c986828461470a565b95506148d4846158d7565b935060208b019a5050506001810190506148a7565b50829750879450505050509392505050565b6000614907838561598c565b9350836020840285016149198461583e565b8060005b8781101561495f5784840389526149348284615ba3565b61493f868284614720565b955061494a846158e4565b935060208b019a50505060018101905061491d565b50829750879450505050509392505050565b600061497d838561599d565b93508360208402850161498f8461583e565b8060005b878110156149d55784840389526149aa8284615ba3565b6149b5868284614720565b95506149c0846158e4565b935060208b019a505050600181019050614993565b50829750879450505050509392505050565b60006149f282615891565b6149fc8185615965565b935083602082028501614a0e85615848565b8060005b85811015614a4a5784840389528151614a2b858261474a565b9450614a36836158f1565b925060208a01995050600181019050614a12565b50829750879550505050505092915050565b6000614a678261589c565b614a718185615970565b935083602082028501614a8385615852565b8060005b85811015614abf5784840389528151614aa0858261474a565b9450614aab836158fe565b925060208a01995050600181019050614a87565b50829750879550505050505092915050565b6000614adc826158a7565b614ae6818561597b565b935083602082028501614af88561585c565b8060005b85811015614b345784840389528151614b158582614736565b9450614b208361590b565b925060208a01995050600181019050614afc565b50829750879550505050505092915050565b6000614b51826158a7565b614b5b818561599d565b935083602082028501614b6d8561585c565b8060005b85811015614ba95784840389528151614b8a858261474a565b9450614b958361590b565b925060208a01995050600181019050614b71565b50829750879550505050505092915050565b6000614bc783856159ae565b935083602084028501614bd98461586c565b8060005b87811015614c1f578484038952614bf48284615c11565b614bff86828461475e565b9550614c0a84615918565b935060208b019a505050600181019050614bdd565b50829750879450505050509392505050565b614c3d60408383615ddc565b5050565b6000614c4d83856159e1565b93507f07ffffffffffffffffffffffffffffffffffffffffffffffffffffffffffffff831115614c7c57600080fd5b602083029250614c8d838584615ddc565b82840190509392505050565b6000614ca583856159f2565b93507f07ffffffffffffffffffffffffffffffffffffffffffffffffffffffffffffff831115614cd457600080fd5b602083029250614ce5838584615ddc565b82840190509392505050565b6000614cfc826158b2565b614d0681856159bf565b9350614d1183615876565b8060005b83811015614d42578151614d298882614774565b9750614d3483615925565b925050600181019050614d15565b5085935050505092915050565b6000614d5a826158b2565b614d6481856159d0565b9350614d6f83615876565b8060005b83811015614da0578151614d878882614774565b9750614d9283615925565b925050600181019050614d73565b5085935050505092915050565b6000614db8826158b2565b614dc281856159e1565b9350614dcd83615876565b8060005b83811015614dfe578151614de5888261478c565b9750614df083615925565b925050600181019050614dd1565b5085935050505092915050565b6000614e16826158b2565b614e2081856159f2565b9350614e2b83615876565b8060005b83811015614e5c578151614e43888261478c565b9750614e4e83615925565b925050600181019050614e2f565b5085935050505092915050565b614e7281615da6565b82525050565b614e8181615da6565b82525050565b6000614e938385615a03565b9350614ea0838584615ddc565b614ea983615ef2565b840190509392505050565b6000614ec08385615a14565b9350614ecd838584615ddc565b614ed683615ef2565b840190509392505050565b8082525050565b60006101a08301614efc6000840184615c68565b614f09600086018261509f565b50614f176020840184615bfa565b614f246020860182614e78565b50614f326040840184615ba3565b8583036040870152614f45838284614c99565b92505050614f566060840184615aea565b8583036060870152614f69838284614971565b92505050614f7a6080840184615a3c565b8583036080870152614f8d8382846147b3565b92505050614f9e60a0840184615a93565b85830360a0870152614fb1838284614885565b92505050614fc260c0840184615c68565b614fcf60c086018261509f565b50614fdd60e0840184615c68565b614fea60e086018261509f565b50614ff9610100840184615c68565b61500761010086018261509f565b50615016610120840184615b98565b615024610120860182614c31565b50615033610160840184615bfa565b615041610160860182614e78565b50615050610180840184615ba3565b858303610180870152615064838284614c99565b925050508091505092915050565b61507b81615dd2565b82525050565b61508a81615dd2565b82525050565b61509981615dd2565b82525050565b6150a881615dd2565b82525050565b600060c08201905081810360008301526150c881896149e7565b905081810360208301526150dc8188614dad565b90506150eb6040830187615090565b81810360608301526150fd8186614810565b905061510c6080830185614e69565b61511960a0830184614ee1565b979650505050505050565b6000608082019050818103600083015261513e8187614a5c565b905061514d6020830186614ee1565b61515a6040830185615090565b818103606083015261516c8184614810565b905095945050505050565b600060808201905081810360008301526151918187614a5c565b90506151a06020830186615090565b6151ad6040830185614ee1565b81810360608301526151bf8184614810565b905095945050505050565b600060208201905081810360008301526151e48184614ad1565b905092915050565b600060c0820190508181036000830152615207818b8d614c41565b9050818103602083015261521c81898b6148fb565b905061522b6040830188614ee1565b818103606083015261523e818688614c41565b905061524d6080830185615090565b61525a60a0830184615090565b9a9950505050505050505050565b600060208201905081810360008301526152828184614d4f565b905092915050565b600060a08201905081810360008301526152a48188614dad565b905081810360208301526152b88187614dad565b90506152c76040830186614ee1565b81810360608301526152d98185614dad565b90506152e86080830184615090565b9695505050505050565b6000608082019050818103600083015261530c8187614dad565b905061531b6020830186615090565b6153286040830185614ee1565b818103606083015261533a8184614dad565b905095945050505050565b60006060820190508181036000830152615360818688614e87565b905061536f6020830185615081565b61537c6040830184615081565b95945050505050565b6000602082019050818103600083015261539f8184614ee8565b905092915050565b60006060820190506153bc6000830186615081565b6153c96020830185615081565b6153d66040830184615081565b949350505050565b60006080820190506153f36000830187615081565b6154006020830186615081565b61540d6040830185615081565b61541a6060830184615081565b95945050505050565b600060a0820190506154386000830188615081565b6154456020830187615081565b6154526040830186615081565b61545f6060830185615081565b61546c6080830184615081565b9695505050505050565b6000808335600160200384360303811261548f57600080fd5b80840192508235915067ffffffffffffffff8211156154ad57600080fd5b6020830192506020820236038313156154c557600080fd5b509250929050565b600080833560016020038436030381126154e657600080fd5b80840192508235915067ffffffffffffffff82111561550457600080fd5b60208301925060208202360383131561551c57600080fd5b509250929050565b6000808335600160200384360303811261553d57600080fd5b80840192508235915067ffffffffffffffff82111561555b57600080fd5b60208301925060208202360383131561557357600080fd5b509250929050565b6000808335600160200384360303811261559457600080fd5b80840192508235915067ffffffffffffffff8211156155b257600080fd5b6020830192506020820236038313156155ca57600080fd5b509250929050565b600080833560016020038436030381126155eb57600080fd5b80840192508235915067ffffffffffffffff82111561560957600080fd5b60208301925060018202360383131561562157600080fd5b509250929050565b6000615633615644565b905061563f8282615deb565b919050565b6000604051905090565b600067ffffffffffffffff82111561566957615668615ec3565b5b602082029050602081019050919050565b600067ffffffffffffffff82111561569557615694615ec3565b5b602082029050602081019050919050565b600067ffffffffffffffff8211156156c1576156c0615ec3565b5b602082029050602081019050919050565b600067ffffffffffffffff8211156156ed576156ec615ec3565b5b602082029050602081019050919050565b600067ffffffffffffffff82111561571957615718615ec3565b5b602082029050919050565b600067ffffffffffffffff82111561573f5761573e615ec3565b5b602082029050919050565b600067ffffffffffffffff82111561576557615764615ec3565b5b602082029050919050565b600067ffffffffffffffff82111561578b5761578a615ec3565b5b602082029050602081019050919050565b600067ffffffffffffffff8211156157b7576157b6615ec3565b5b602082029050602081019050919050565b600067ffffffffffffffff8211156157e3576157e2615ec3565b5b602082029050919050565b600067ffffffffffffffff82111561580957615808615ec3565b5b602082029050602081019050919050565b6000819050919050565b6000819050602082019050919050565b6000819050919050565b6000819050919050565b6000819050919050565b6000819050919050565b6000819050602082019050919050565b6000819050919050565b6000819050602082019050919050565b600081519050919050565b600060059050919050565b600060069050919050565b600081519050919050565b600081519050919050565b6000602082019050919050565b6000602082019050919050565b6000602082019050919050565b6000602082019050919050565b6000602082019050919050565b6000602082019050919050565b6000602082019050919050565b6000602082019050919050565b6000602082019050919050565b600082825260208201905092915050565b600082825260208201905092915050565b600082825260208201905092915050565b600081905092915050565b600081905092915050565b600082825260208201905092915050565b600082825260208201905092915050565b600082825260208201905092915050565b600082825260208201905092915050565b600082825260208201905092915050565b600082825260208201905092915050565b600082825260208201905092915050565b600082825260208201905092915050565b600082825260208201905092915050565b600082825260208201905092915050565b6000615a346020840184613afd565b905092915050565b60008083356001602003843603038112615a5557600080fd5b83810192508235915060208301925067ffffffffffffffff821115615a7957600080fd5b602082023603841315615a8b57600080fd5b509250929050565b60008083356001602003843603038112615aac57600080fd5b83810192508235915060208301925067ffffffffffffffff821115615ad057600080fd5b602082023603841315615ae257600080fd5b509250929050565b60008083356001602003843603038112615b0357600080fd5b83810192508235915060208301925067ffffffffffffffff821115615b2757600080fd5b602082023603841315615b3957600080fd5b509250929050565b60008083356001602003843603038112615b5a57600080fd5b83810192508235915060208301925067ffffffffffffffff821115615b7e57600080fd5b602082023603841315615b9057600080fd5b509250929050565b600082905092915050565b60008083356001602003843603038112615bbc57600080fd5b83810192508235915060208301925067ffffffffffffffff821115615be057600080fd5b602082023603841315615bf257600080fd5b509250929050565b6000615c096020840184613e52565b905092915050565b60008083356001602003843603038112615c2a57600080fd5b83810192508235915060208301925067ffffffffffffffff821115615c4e57600080fd5b600182023603841315615c6057600080fd5b509250929050565b6000615c776020840184613e83565b905092915050565b6000615c8a82615dd2565b9150615c9583615dd2565b9250827fffffffffffffffffffffffffffffffffffffffffffffffffffffffffffffffff03821115615cca57615cc9615e65565b5b828201905092915050565b6000615ce082615dd2565b9150615ceb83615dd2565b925082615cfb57615cfa615e94565b5b828204905092915050565b6000615d1182615dd2565b9150615d1c83615dd2565b9250817fffffffffffffffffffffffffffffffffffffffffffffffffffffffffffffffff0483118215151615615d5557615d54615e65565b5b828202905092915050565b6000615d6b82615dd2565b9150615d7683615dd2565b925082821015615d8957615d88615e65565b5b828203905092915050565b6000615d9f82615db2565b9050919050565b60008115159050919050565b600073ffffffffffffffffffffffffffffffffffffffff82169050919050565b6000819050919050565b82818337600083830152505050565b615df482615ef2565b810181811067ffffffffffffffff82111715615e1357615e12615ec3565b5b80604052505050565b6000615e2782615dd2565b91507fffffffffffffffffffffffffffffffffffffffffffffffffffffffffffffffff821415615e5a57615e59615e65565b5b600182019050919050565b7f4e487b7100000000000000000000000000000000000000000000000000000000600052601160045260246000fd5b7f4e487b7100000000000000000000000000000000000000000000000000000000600052601260045260246000fd5b7f4e487b7100000000000000000000000000000000000000000000000000000000600052604160045260246000fd5b6000601f19601f8301169050919050565b615f0c81615d94565b8114615f1757600080fd5b50565b615f2381615da6565b8114615f2e57600080fd5b50565b615f3a81615dd2565b8114615f4557600080fd5b5056fea26469706673582212207c9f9a7d2cad8c2d1726e89154209f72e29a1e57ccb0c4a34f0725a72c01bc8264736f6c63430008040033",
  "linkReferences": {
    "contracts/E5D/E3.sol": {
      "E3": [
        {
          "length": 20,
          "start": 7885
        },
        {
          "length": 20,
          "start": 8064
        },
        {
          "length": 20,
          "start": 8238
        },
        {
          "length": 20,
          "start": 9093
        }
      ]
    },
    "contracts/H5D/H32.sol": {
      "H32": [
        {
          "length": 20,
          "start": 1183
        },
        {
          "length": 20,
          "start": 2301
        },
        {
          "length": 20,
          "start": 4935
        },
        {
          "length": 20,
          "start": 9263
        },
        {
          "length": 20,
          "start": 9421
        },
        {
          "length": 20,
          "start": 10720
        }
      ]
    }
  },
  "deployedLinkReferences": {
    "contracts/E5D/E3.sol": {
      "E3": [
        {
          "length": 20,
          "start": 7566
        },
        {
          "length": 20,
          "start": 7745
        },
        {
          "length": 20,
          "start": 7919
        },
        {
          "length": 20,
          "start": 8774
        }
      ]
    },
    "contracts/H5D/H32.sol": {
      "H32": [
        {
          "length": 20,
          "start": 864
        },
        {
          "length": 20,
          "start": 1982
        },
        {
          "length": 20,
          "start": 4616
        },
        {
          "length": 20,
          "start": 8944
        },
        {
          "length": 20,
          "start": 9102
        },
        {
          "length": 20,
          "start": 10401
        }
      ]
    }
  }
}