{
  "_format": "hh-sol-artifact-1",
  "contractName": "F5",
  "sourceName": "contracts/F5D/F5.sol",
  "abi": [
    {
      "inputs": [
        {
          "internalType": "address",
          "name": "p1",
          "type": "address"
        }
      ],
      "stateMutability": "nonpayable",
      "type": "constructor"
    },
    {
      "anonymous": false,
      "inputs": [
        {
          "indexed": true,
          "internalType": "uint256",
          "name": "p1",
          "type": "uint256"
        },
        {
          "indexed": true,
          "internalType": "uint256",
          "name": "p2",
          "type": "uint256"
        },
        {
          "indexed": false,
          "internalType": "uint256",
          "name": "p3",
          "type": "uint256"
        },
        {
          "indexed": false,
          "internalType": "uint256",
          "name": "p4",
          "type": "uint256"
        },
        {
          "indexed": false,
          "internalType": "uint256",
          "name": "p5",
          "type": "uint256"
        }
      ],
      "name": "e1",
      "type": "event"
    },
    {
      "anonymous": false,
      "inputs": [
        {
          "indexed": true,
          "internalType": "uint256",
          "name": "p1",
          "type": "uint256"
        },
        {
          "indexed": true,
          "internalType": "uint256",
          "name": "p2",
          "type": "uint256"
        },
        {
          "indexed": false,
          "internalType": "uint256",
          "name": "p3",
          "type": "uint256"
        },
        {
          "indexed": false,
          "internalType": "uint256",
          "name": "p4",
          "type": "uint256"
        },
        {
          "indexed": false,
          "internalType": "uint256",
          "name": "p5",
          "type": "uint256"
        }
      ],
      "name": "e2",
      "type": "event"
    },
    {
      "anonymous": false,
      "inputs": [
        {
          "indexed": true,
          "internalType": "uint256",
          "name": "p1",
          "type": "uint256"
        },
        {
          "indexed": true,
          "internalType": "uint256",
          "name": "p2",
          "type": "uint256"
        },
        {
          "indexed": false,
          "internalType": "uint256",
          "name": "p3",
          "type": "uint256"
        },
        {
          "indexed": false,
          "internalType": "uint256",
          "name": "p4",
          "type": "uint256"
        },
        {
          "indexed": false,
          "internalType": "uint256",
          "name": "p5",
          "type": "uint256"
        }
      ],
      "name": "e4",
      "type": "event"
    },
    {
      "anonymous": false,
      "inputs": [
        {
          "indexed": true,
          "internalType": "uint256",
          "name": "p1",
          "type": "uint256"
        },
        {
          "indexed": false,
          "internalType": "uint256",
          "name": "p2",
          "type": "uint256"
        },
        {
          "indexed": false,
          "internalType": "uint256",
          "name": "p3",
          "type": "uint256"
        },
        {
          "indexed": false,
          "internalType": "uint256",
          "name": "p4",
          "type": "uint256"
        },
        {
          "indexed": false,
          "internalType": "uint256",
          "name": "p5",
          "type": "uint256"
        },
        {
          "indexed": false,
          "internalType": "uint256",
          "name": "p6",
          "type": "uint256"
        },
        {
          "indexed": false,
          "internalType": "uint256",
          "name": "p7",
          "type": "uint256"
        }
      ],
      "name": "e5",
      "type": "event"
    },
    {
      "inputs": [
        {
          "internalType": "address[7]",
          "name": "p1",
          "type": "address[7]"
        },
        {
          "internalType": "uint256[][][]",
          "name": "p2",
          "type": "uint256[][][]"
        },
        {
          "internalType": "uint256[][]",
          "name": "p3",
          "type": "uint256[][]"
        },
        {
          "internalType": "string[][]",
          "name": "p4",
          "type": "string[][]"
        },
        {
          "internalType": "uint256[]",
          "name": "p5",
          "type": "uint256[]"
        }
      ],
      "name": "f159",
      "outputs": [],
      "stateMutability": "nonpayable",
      "type": "function"
    },
    {
      "inputs": [
        {
          "internalType": "uint256[][]",
          "name": "p1",
          "type": "uint256[][]"
        }
      ],
      "name": "f168",
      "outputs": [
        {
          "internalType": "uint256[]",
          "name": "",
          "type": "uint256[]"
        }
      ],
      "stateMutability": "view",
      "type": "function"
    },
    {
      "inputs": [
        {
          "components": [
            {
              "internalType": "uint256",
              "name": "sv1",
              "type": "uint256"
            },
            {
              "internalType": "bool",
              "name": "sv2",
              "type": "bool"
            },
            {
              "internalType": "uint256[]",
              "name": "sv3",
              "type": "uint256[]"
            },
            {
              "internalType": "uint256[][]",
              "name": "sv4",
              "type": "uint256[][]"
            },
            {
              "internalType": "address[]",
              "name": "sv5",
              "type": "address[]"
            },
            {
              "internalType": "string[][]",
              "name": "sv6",
              "type": "string[][]"
            },
            {
              "internalType": "uint256",
              "name": "t",
              "type": "uint256"
            },
            {
              "internalType": "uint256",
              "name": "sv7",
              "type": "uint256"
            },
            {
              "internalType": "uint256",
              "name": "sv8",
              "type": "uint256"
            },
            {
              "internalType": "uint256[2]",
              "name": "sv9",
              "type": "uint256[2]"
            },
            {
              "internalType": "bool",
              "name": "sv10",
              "type": "bool"
            },
            {
              "internalType": "uint256[]",
              "name": "sv11",
              "type": "uint256[]"
            }
          ],
          "internalType": "struct E3.TD",
          "name": "p1",
          "type": "tuple"
        }
      ],
      "name": "f172",
      "outputs": [],
      "stateMutability": "nonpayable",
      "type": "function"
    },
    {
      "inputs": [
        {
          "internalType": "uint256[][5]",
          "name": "p1",
          "type": "uint256[][5]"
        },
        {
          "internalType": "uint256",
          "name": "p2",
          "type": "uint256"
        }
      ],
      "name": "f196",
      "outputs": [],
      "stateMutability": "nonpayable",
      "type": "function"
    },
    {
      "inputs": [
        {
          "components": [
            {
              "internalType": "uint256",
              "name": "sv1",
              "type": "uint256"
            },
            {
              "internalType": "bool",
              "name": "sv2",
              "type": "bool"
            },
            {
              "internalType": "uint256[]",
              "name": "sv3",
              "type": "uint256[]"
            },
            {
              "internalType": "uint256[][]",
              "name": "sv4",
              "type": "uint256[][]"
            },
            {
              "internalType": "address[]",
              "name": "sv5",
              "type": "address[]"
            },
            {
              "internalType": "string[][]",
              "name": "sv6",
              "type": "string[][]"
            },
            {
              "internalType": "uint256",
              "name": "t",
              "type": "uint256"
            },
            {
              "internalType": "uint256",
              "name": "sv7",
              "type": "uint256"
            },
            {
              "internalType": "uint256",
              "name": "sv8",
              "type": "uint256"
            },
            {
              "internalType": "uint256[2]",
              "name": "sv9",
              "type": "uint256[2]"
            },
            {
              "internalType": "bool",
              "name": "sv10",
              "type": "bool"
            },
            {
              "internalType": "uint256[]",
              "name": "sv11",
              "type": "uint256[]"
            }
          ],
          "internalType": "struct E3.TD",
          "name": "p1",
          "type": "tuple"
        }
      ],
      "name": "f197",
      "outputs": [],
      "stateMutability": "nonpayable",
      "type": "function"
    },
    {
      "inputs": [
        {
          "internalType": "uint256[]",
          "name": "p1",
          "type": "uint256[]"
        },
        {
          "internalType": "uint256[][]",
          "name": "p2",
          "type": "uint256[][]"
        }
      ],
      "name": "f229",
      "outputs": [
        {
          "internalType": "uint256[][]",
          "name": "v1",
          "type": "uint256[][]"
        }
      ],
      "stateMutability": "view",
      "type": "function"
    },
    {
      "inputs": [
        {
          "internalType": "uint256[]",
          "name": "p1",
          "type": "uint256[]"
        },
        {
          "internalType": "uint256[][]",
          "name": "p2",
          "type": "uint256[][]"
        }
      ],
      "name": "f235",
      "outputs": [
        {
          "internalType": "uint256[][]",
          "name": "v1",
          "type": "uint256[][]"
        }
      ],
      "stateMutability": "view",
      "type": "function"
    },
    {
      "inputs": [
        {
          "internalType": "uint256[][][]",
          "name": "v1",
          "type": "uint256[][][]"
        },
        {
          "internalType": "uint256[21]",
          "name": "p2",
          "type": "uint256[21]"
        },
        {
          "internalType": "uint256[][]",
          "name": "p3",
          "type": "uint256[][]"
        }
      ],
      "name": "f263",
      "outputs": [],
      "stateMutability": "nonpayable",
      "type": "function"
    },
    {
      "inputs": [
        {
          "internalType": "uint256",
          "name": "id",
          "type": "uint256"
        }
      ],
      "name": "f73",
      "outputs": [
        {
          "internalType": "uint256[][]",
          "name": "",
          "type": "uint256[][]"
        }
      ],
      "stateMutability": "view",
      "type": "function"
    },
    {
      "inputs": [
        {
          "internalType": "uint256[]",
          "name": "p1",
          "type": "uint256[]"
        }
      ],
      "name": "f74",
      "outputs": [
        {
          "internalType": "uint256[][][]",
          "name": "",
          "type": "uint256[][][]"
        }
      ],
      "stateMutability": "view",
      "type": "function"
    }
  ],
  "bytecode": "0x60a060405260008060006101000a81548160ff0219169083151502179055503480156200002b57600080fd5b50604051620050f9380380620050f98339818101604052810190620000519190620000a6565b8073ffffffffffffffffffffffffffffffffffffffff1660808173ffffffffffffffffffffffffffffffffffffffff1660601b815250505062000120565b600081519050620000a08162000106565b92915050565b600060208284031215620000b957600080fd5b6000620000c9848285016200008f565b91505092915050565b6000620000df82620000e6565b9050919050565b600073ffffffffffffffffffffffffffffffffffffffff82169050919050565b6200011181620000d2565b81146200011d57600080fd5b50565b60805160601c614fba6200013f600039600061168c0152614fba6000f3fe608060405234801561001057600080fd5b506004361061008e5760003560e01c806304ef7f60146100935780630d8d5052146100c35780631b533712146100df5780634df34bb31461010f57806385f5fa161461012b578063b3318bc114610147578063d53b2c0e14610177578063da3f9bf8146101a7578063db410c02146101c3578063ec21a35f146101f3575b600080fd5b6100ad60048036038101906100a89190613031565b61020f565b6040516100ba9190614478565b60405180910390f35b6100dd60048036038101906100d891906131aa565b6102a7565b005b6100f960048036038101906100f491906130b3565b610443565b6040516101069190614358565b60405180910390f35b61012960048036038101906101249190612fdd565b6104e3565b005b610145600480360381019061014091906131aa565b61091c565b005b610161600480360381019061015c9190613128565b610ee3565b60405161016e9190614249565b60405180910390f35b610191600480360381019061018c91906131eb565b610f7b565b60405161019e9190614358565b60405180910390f35b6101c160048036038101906101bc9190612eaf565b611013565b005b6101dd60048036038101906101d891906130b3565b6115e9565b6040516101ea9190614358565b60405180910390f35b61020d60048036038101906102089190612d41565b61168a565b005b606073__$c0df607595f0ff971730314cc21dbfc3d1$__635554f7c88360026040518363ffffffff1660e01b815260040161024b92919061437a565b60006040518083038186803b15801561026357600080fd5b505af4158015610277573d6000803e3d6000fd5b505050506040513d6000823e3d601f19601f820116820180604052508101906102a09190613169565b9050919050565b3360011515600160008373ffffffffffffffffffffffffffffffffffffffff1673ffffffffffffffffffffffffffffffffffffffff16815260200190815260200160002060009054906101000a900460ff1615151461030557600080fd5b60008280604001906103179190614765565b8460c00135818110610352577f4e487b7100000000000000000000000000000000000000000000000000000000600052603260045260246000fd5b9050602002013590506103d48184806060019061036f919061470e565b9061037a9190614dea565b856000013586806040019061038f9190614765565b80806020026020016040519081016040528093929190818152602001838360200280828437600081840152601f19601f82011690508083019250505050505050611d7e565b73__$c0df607595f0ff971730314cc21dbfc3d1$__633e10d94a8260026040518363ffffffff1660e01b815260040161040e92919061464d565b60006040518083038186803b15801561042657600080fd5b505af415801561043a573d6000803e3d6000fd5b50505050505050565b606073__$c0df607595f0ff971730314cc21dbfc3d1$__62fd6bf38686600287876040518663ffffffff1660e01b815260040161048495949392919061442f565b60006040518083038186803b15801561049c57600080fd5b505af41580156104b0573d6000803e3d6000fd5b505050506040513d6000823e3d601f19601f820116820180604052508101906104d99190613072565b9050949350505050565b3360011515600160008373ffffffffffffffffffffffffffffffffffffffff1673ffffffffffffffffffffffffffffffffffffffff16815260200190815260200160002060009054906101000a900460ff1615151461054157600080fd5b73__$c0df607595f0ff971730314cc21dbfc3d1$__63a28bde7f848460026040518463ffffffff1660e01b815260040161057d9392919061431a565b60006040518083038186803b15801561059557600080fd5b505af41580156105a9573d6000803e3d6000fd5b5050505060005b836000600581106105ea577f4e487b7100000000000000000000000000000000000000000000000000000000600052603260045260246000fd5b6020020151518110156109165760008085600460058110610634577f4e487b7100000000000000000000000000000000000000000000000000000000600052603260045260246000fd5b602002015151141561064657836106c6565b84600460058110610680577f4e487b7100000000000000000000000000000000000000000000000000000000600052603260045260246000fd5b602002015182815181106106bd577f4e487b7100000000000000000000000000000000000000000000000000000000600052603260045260246000fd5b60200260200101515b905084600060058110610702577f4e487b7100000000000000000000000000000000000000000000000000000000600052603260045260246000fd5b6020020151828151811061073f577f4e487b7100000000000000000000000000000000000000000000000000000000600052603260045260246000fd5b60200260200101517f5a05f268afa860ccaa96df90af3b98a2d584cac91bb01d3f8fee0c934d3bca0b82876001600581106107a3577f4e487b7100000000000000000000000000000000000000000000000000000000600052603260045260246000fd5b602002015185815181106107e0577f4e487b7100000000000000000000000000000000000000000000000000000000600052603260045260246000fd5b602002602001015188600260058110610822577f4e487b7100000000000000000000000000000000000000000000000000000000600052603260045260246000fd5b6020020151868151811061085f577f4e487b7100000000000000000000000000000000000000000000000000000000600052603260045260246000fd5b6020026020010151896003600581106108a1577f4e487b7100000000000000000000000000000000000000000000000000000000600052603260045260246000fd5b602002015187815181106108de577f4e487b7100000000000000000000000000000000000000000000000000000000600052603260045260246000fd5b602002602001015142436040516108fa969594939291906146ad565b60405180910390a250808061090e90614e87565b9150506105b0565b50505050565b3360011515600160008373ffffffffffffffffffffffffffffffffffffffff1673ffffffffffffffffffffffffffffffffffffffff16815260200190815260200160002060009054906101000a900460ff1615151461097a57600080fd5b600082806060019061098c919061470e565b60008181106109c4577f4e487b7100000000000000000000000000000000000000000000000000000000600052603260045260246000fd5b90506020028101906109d69190614765565b6001818110610a0e577f4e487b7100000000000000000000000000000000000000000000000000000000600052603260045260246000fd5b9050602002013590506000838060600190610a29919061470e565b6000818110610a61577f4e487b7100000000000000000000000000000000000000000000000000000000600052603260045260246000fd5b9050602002810190610a739190614765565b6000818110610aab577f4e487b7100000000000000000000000000000000000000000000000000000000600052603260045260246000fd5b905060200201359050614e20811415610b6c57600b821415610b6757600073__$7b11637b326fa12a30ce8fbc20da0b2192$__6386ae6f8b866040518263ffffffff1660e01b8152600401610b0091906145ed565b60006040518083038186803b158015610b1857600080fd5b505af4158015610b2c573d6000803e3d6000fd5b505050506040513d6000823e3d601f19601f82011682018060405250810190610b559190612f30565b9050610b658186600001356104e3565b505b610edd565b617530811415610edc57600073__$7b11637b326fa12a30ce8fbc20da0b2192$__63779712f1866040518263ffffffff1660e01b8152600401610baf91906145ed565b60006040518083038186803b158015610bc757600080fd5b505af4158015610bdb573d6000803e3d6000fd5b505050506040513d6000823e3d601f19601f82011682018060405250810190610c049190612f30565b90506002831480610c155750600c83145b15610d5f57600060028414610c2b576001610c2e565b60005b60ff169050610d5982600060058110610c70577f4e487b7100000000000000000000000000000000000000000000000000000000600052603260045260246000fd5b6020020151878060600190610c85919061470e565b6003818110610cbd577f4e487b7100000000000000000000000000000000000000000000000000000000600052603260045260246000fd5b9050602002810190610ccf9190614765565b80806020026020016040519081016040528093929190818152602001838360200280828437600081840152601f19601f8201169050808301925050505050505088600001358486600160058110610d4f577f4e487b7100000000000000000000000000000000000000000000000000000000600052603260045260246000fd5b6020020151611e88565b50610eda565b600d831415610ed957600073__$2c5481ac3a53d4f4da52c7594a1c0a4117$__63e6459c3e878060600190610d94919061470e565b85600060058110610dce577f4e487b7100000000000000000000000000000000000000000000000000000000600052603260045260246000fd5b602002015160036040518563ffffffff1660e01b8152600401610df4949392919061426b565b60006040518083038186803b158015610e0c57600080fd5b505af4158015610e20573d6000803e3d6000fd5b505050506040513d6000823e3d601f19601f82011682018060405250810190610e499190613072565b9050610ed782600060058110610e88577f4e487b7100000000000000000000000000000000000000000000000000000000600052603260045260246000fd5b602002015182886000013585600160058110610ecd577f4e487b7100000000000000000000000000000000000000000000000000000000600052603260045260246000fd5b602002015161225a565b505b5b505b5b50505050565b606073__$c0df607595f0ff971730314cc21dbfc3d1$__632073b67b8360026040518363ffffffff1660e01b8152600401610f1f9291906145bd565b60006040518083038186803b158015610f3757600080fd5b505af4158015610f4b573d6000803e3d6000fd5b505050506040513d6000823e3d601f19601f82011682018060405250810190610f749190612e6e565b9050919050565b606073__$c0df607595f0ff971730314cc21dbfc3d1$__63bd5523958360026040518363ffffffff1660e01b8152600401610fb792919061464d565b60006040518083038186803b158015610fcf57600080fd5b505af4158015610fe3573d6000803e3d6000fd5b505050506040513d6000823e3d601f19601f8201168201806040525081019061100c9190613072565b9050919050565b3360011515600160008373ffffffffffffffffffffffffffffffffffffffff1673ffffffffffffffffffffffffffffffffffffffff16815260200190815260200160002060009054906101000a900460ff1615151461107157600080fd5b600073__$7838764baeda9797ed1c4143c794f29b4f$__6346e764b785876040518363ffffffff1660e01b81526004016110ac9291906143fd565b60006040518083038186803b1580156110c457600080fd5b505af41580156110d8573d6000803e3d6000fd5b505050506040513d6000823e3d601f19601f820116820180604052508101906111019190612e2d565b905060008460086015811061113f577f4e487b7100000000000000000000000000000000000000000000000000000000600052603260045260246000fd5b60200201351461124f5761124e81600060038110611186577f4e487b7100000000000000000000000000000000000000000000000000000000600052603260045260246000fd5b60200201516000600381106111c4577f4e487b7100000000000000000000000000000000000000000000000000000000600052603260045260246000fd5b602002015184600084600060038110611206577f4e487b7100000000000000000000000000000000000000000000000000000000600052603260045260246000fd5b6020020151600160038110611244577f4e487b7100000000000000000000000000000000000000000000000000000000600052603260045260246000fd5b602002015161225a565b5b60008460096015811061128b577f4e487b7100000000000000000000000000000000000000000000000000000000600052603260045260246000fd5b60200201351461141857611417816001600381106112d2577f4e487b7100000000000000000000000000000000000000000000000000000000600052603260045260246000fd5b6020020151600060038110611310577f4e487b7100000000000000000000000000000000000000000000000000000000600052603260045260246000fd5b60200201518260016003811061134f577f4e487b7100000000000000000000000000000000000000000000000000000000600052603260045260246000fd5b602002015160026003811061138d577f4e487b7100000000000000000000000000000000000000000000000000000000600052603260045260246000fd5b6020020151600080856001600381106113cf577f4e487b7100000000000000000000000000000000000000000000000000000000600052603260045260246000fd5b602002015160016003811061140d577f4e487b7100000000000000000000000000000000000000000000000000000000600052603260045260246000fd5b6020020151611e88565b5b600084600a60158110611454577f4e487b7100000000000000000000000000000000000000000000000000000000600052603260045260246000fd5b6020020135146115e2576115e18160026003811061149b577f4e487b7100000000000000000000000000000000000000000000000000000000600052603260045260246000fd5b60200201516000600381106114d9577f4e487b7100000000000000000000000000000000000000000000000000000000600052603260045260246000fd5b602002015182600260038110611518577f4e487b7100000000000000000000000000000000000000000000000000000000600052603260045260246000fd5b6020020151600260038110611556577f4e487b7100000000000000000000000000000000000000000000000000000000600052603260045260246000fd5b60200201516000600185600260038110611599577f4e487b7100000000000000000000000000000000000000000000000000000000600052603260045260246000fd5b60200201516001600381106115d7577f4e487b7100000000000000000000000000000000000000000000000000000000600052603260045260246000fd5b6020020151611e88565b5b5050505050565b606073__$c0df607595f0ff971730314cc21dbfc3d1$__63d9e944d98686600287876040518663ffffffff1660e01b815260040161162b95949392919061442f565b60006040518083038186803b15801561164357600080fd5b505af4158015611657573d6000803e3d6000fd5b505050506040513d6000823e3d601f19601f820116820180604052508101906116809190613072565b9050949350505050565b7f000000000000000000000000000000000000000000000000000000000000000073ffffffffffffffffffffffffffffffffffffffff163373ffffffffffffffffffffffffffffffffffffffff161480156116f0575060008054906101000a900460ff16155b6116f957600080fd5b60016000806101000a81548160ff02191690831515021790555060005b60078110156117d45760018060008c846007811061175d577f4e487b7100000000000000000000000000000000000000000000000000000000600052603260045260246000fd5b6020020160208101906117709190612d18565b73ffffffffffffffffffffffffffffffffffffffff1673ffffffffffffffffffffffffffffffffffffffff16815260200190815260200160002060006101000a81548160ff02191690831515021790555080806117cc90614e87565b915050611716565b508860016007811061180f577f4e487b7100000000000000000000000000000000000000000000000000000000600052603260045260246000fd5b6020020160208101906118229190612d18565b600560006101000a81548173ffffffffffffffffffffffffffffffffffffffff021916908373ffffffffffffffffffffffffffffffffffffffff1602179055508860036007811061189c577f4e487b7100000000000000000000000000000000000000000000000000000000600052603260045260246000fd5b6020020160208101906118af9190612d18565b600660006101000a81548173ffffffffffffffffffffffffffffffffffffffff021916908373ffffffffffffffffffffffffffffffffffffffff16021790555088600460078110611929577f4e487b7100000000000000000000000000000000000000000000000000000000600052603260045260246000fd5b60200201602081019061193c9190612d18565b600760006101000a81548173ffffffffffffffffffffffffffffffffffffffff021916908373ffffffffffffffffffffffffffffffffffffffff160217905550886005600781106119b6577f4e487b7100000000000000000000000000000000000000000000000000000000600052603260045260246000fd5b6020020160208101906119c99190612d18565b600860006101000a81548173ffffffffffffffffffffffffffffffffffffffff021916908373ffffffffffffffffffffffffffffffffffffffff16021790555088600660078110611a43577f4e487b7100000000000000000000000000000000000000000000000000000000600052603260045260246000fd5b602002016020810190611a569190612d18565b600960006101000a81548173ffffffffffffffffffffffffffffffffffffffff021916908373ffffffffffffffffffffffffffffffffffffffff160217905550600660009054906101000a900473ffffffffffffffffffffffffffffffffffffffff1673ffffffffffffffffffffffffffffffffffffffff1663f45f2c678a8a8a8a8a6040518663ffffffff1660e01b8152600401611af995949392919061419b565b600060405180830381600087803b158015611b1357600080fd5b505af1158015611b27573d6000803e3d6000fd5b50505050600760009054906101000a900473ffffffffffffffffffffffffffffffffffffffff1673ffffffffffffffffffffffffffffffffffffffff16632db07d318a6040518263ffffffff1660e01b8152600401611b869190614180565b600060405180830381600087803b158015611ba057600080fd5b505af1158015611bb4573d6000803e3d6000fd5b50505050600860009054906101000a900473ffffffffffffffffffffffffffffffffffffffff1673ffffffffffffffffffffffffffffffffffffffff166334ee2caa8a8a8a8a8a6040518663ffffffff1660e01b8152600401611c1b95949392919061419b565b600060405180830381600087803b158015611c3557600080fd5b505af1158015611c49573d6000803e3d6000fd5b50505050600960009054906101000a900473ffffffffffffffffffffffffffffffffffffffff1673ffffffffffffffffffffffffffffffffffffffff166374146c948a6040518263ffffffff1660e01b8152600401611ca89190614180565b600060405180830381600087803b158015611cc257600080fd5b505af1158015611cd6573d6000803e3d6000fd5b50505050600560009054906101000a900473ffffffffffffffffffffffffffffffffffffffff1673ffffffffffffffffffffffffffffffffffffffff1663e559a33d8a8888888888886040518863ffffffff1660e01b8152600401611d4197969594939291906141e6565b600060405180830381600087803b158015611d5b57600080fd5b505af1158015611d6f573d6000803e3d6000fd5b50505050505050505050505050565b600073__$2c5481ac3a53d4f4da52c7594a1c0a4117$__632391c553858585600a6040518563ffffffff1660e01b8152600401611dbe94939291906143aa565b60006040518083038186803b158015611dd657600080fd5b505af4158015611dea573d6000803e3d6000fd5b505050506040513d6000823e3d601f19601f82011682018060405250810190611e139190613072565b905073__$c0df607595f0ff971730314cc21dbfc3d1$__631b2545bc868360026040518463ffffffff1660e01b8152600401611e519392919061460f565b60006040518083038186803b158015611e6957600080fd5b505af4158015611e7d573d6000803e3d6000fd5b505050505050505050565b6000821415611f2157600560009054906101000a900473ffffffffffffffffffffffffffffffffffffffff1673ffffffffffffffffffffffffffffffffffffffff1663378b914b8683866040518463ffffffff1660e01b8152600401611ef093929190614502565b60006040518083038186803b158015611f0857600080fd5b505afa158015611f1c573d6000803e3d6000fd5b505050505b600073__$c0df607595f0ff971730314cc21dbfc3d1$__63b0ba394a878787876002886040518763ffffffff1660e01b8152600401611f6596959493929190614547565b60006040518083038186803b158015611f7d57600080fd5b505af4158015611f91573d6000803e3d6000fd5b505050506040513d6000823e3d601f19601f82011682018060405250810190611fba9190612f30565b905060005b86518110156121b7576000859050600081141561201a5783828151811061200f577f4e487b7100000000000000000000000000000000000000000000000000000000600052603260045260246000fd5b602002602001015190505b60008514156120e5578088838151811061205d577f4e487b7100000000000000000000000000000000000000000000000000000000600052603260045260246000fd5b60200260200101517f82138c3e7c8da08373e0ee2722dc0f9641d5f8993c868f5e508ecbe227fb4da28985815181106120bf577f4e487b7100000000000000000000000000000000000000000000000000000000600052603260045260246000fd5b602002602001015143426040516120d893929190614676565b60405180910390a36121a3565b8088838151811061211f577f4e487b7100000000000000000000000000000000000000000000000000000000600052603260045260246000fd5b60200260200101517f4a1356798b6d4fa1178ba78023f16cc3fddb1a87eeca14cfc73dc0aa37db2695898581518110612181577f4e487b7100000000000000000000000000000000000000000000000000000000600052603260045260246000fd5b6020026020010151434260405161219a93929190614676565b60405180910390a35b5080806121af90614e87565b915050611fbf565b50600960009054906101000a900473ffffffffffffffffffffffffffffffffffffffff1673ffffffffffffffffffffffffffffffffffffffff16636228251b8260008060008060016040518763ffffffff1660e01b8152600401612220969594939291906142b2565b600060405180830381600087803b15801561223a57600080fd5b505af115801561224e573d6000803e3d6000fd5b50505050505050505050565b60008073__$c0df607595f0ff971730314cc21dbfc3d1$__63b472f54f8787876002886040518663ffffffff1660e01b815260040161229d95949392919061449a565b60006040518083038186803b1580156122b557600080fd5b505af41580156122c9573d6000803e3d6000fd5b505050506040513d6000823e3d601f19601f820116820180604052508101906122f29190612f71565b9150915060005b8651811015612425576000859050600081141561235457848281518110612349577f4e487b7100000000000000000000000000000000000000000000000000000000600052603260045260246000fd5b602002602001015190505b8088838151811061238e577f4e487b7100000000000000000000000000000000000000000000000000000000600052603260045260246000fd5b60200260200101517ff545471c7a84cbc8a7af0c97cfca9f19ba30eef9fa8b835cb359894a0311af6c8585815181106123f0577f4e487b7100000000000000000000000000000000000000000000000000000000600052603260045260246000fd5b6020026020010151434260405161240993929190614676565b60405180910390a350808061241d90614e87565b9150506122f9565b50600960009054906101000a900473ffffffffffffffffffffffffffffffffffffffff1673ffffffffffffffffffffffffffffffffffffffff16636228251b8360008060008060016040518763ffffffff1660e01b815260040161248e969594939291906142b2565b600060405180830381600087803b1580156124a857600080fd5b505af11580156124bc573d6000803e3d6000fd5b50505050505050505050565b60006124db6124d6846147e1565b6147bc565b905080828560208602820111156124f157600080fd5b60005b8581101561253b57815167ffffffffffffffff81111561251357600080fd5b8086016125208982612b38565b855260208501945060208401935050506001810190506124f4565b5050509392505050565b600061255861255384614807565b6147bc565b9050808382526020820190508285602086028201111561257757600080fd5b60005b858110156125c157813567ffffffffffffffff81111561259957600080fd5b8086016125a68982612bad565b8552602085019450602084019350505060018101905061257a565b5050509392505050565b60006125de6125d984614807565b6147bc565b905080838252602082019050828560208602820111156125fd57600080fd5b60005b8581101561264757815167ffffffffffffffff81111561261f57600080fd5b80860161262c8982612bd7565b85526020850194506020840193505050600181019050612600565b5050509392505050565b600061266461265f84614833565b6147bc565b9050808285602086028201111561267a57600080fd5b60005b858110156126c457815167ffffffffffffffff81111561269c57600080fd5b8086016126a98982612c93565b8552602085019450602084019350505060018101905061267d565b5050509392505050565b60006126e16126dc84614859565b6147bc565b905080828560208602820111156126f757600080fd5b60005b8581101561274157813567ffffffffffffffff81111561271957600080fd5b8086016127268982612c69565b855260208501945060208401935050506001810190506126fa565b5050509392505050565b600061275e61275984614859565b6147bc565b9050808285602086028201111561277457600080fd5b60005b858110156127be57815167ffffffffffffffff81111561279657600080fd5b8086016127a38982612c93565b85526020850194506020840193505050600181019050612777565b5050509392505050565b60006127db6127d68461487f565b6147bc565b905080838252602082019050828560208602820111156127fa57600080fd5b60005b8581101561284457813567ffffffffffffffff81111561281c57600080fd5b8086016128298982612c69565b855260208501945060208401935050506001810190506127fd565b5050509392505050565b600061286161285c8461487f565b6147bc565b9050808382526020820190508285602086028201111561288057600080fd5b60005b858110156128ca57815167ffffffffffffffff8111156128a257600080fd5b8086016128af8982612c93565b85526020850194506020840193505050600181019050612883565b5050509392505050565b60006128e76128e2846148ab565b6147bc565b9050808382526020820190508285602086028201111561290657600080fd5b60005b85811015612936578161291c8882612cee565b845260208401935060208301925050600181019050612909565b5050509392505050565b600061295361294e846148ab565b6147bc565b9050808382526020820190508285602086028201111561297257600080fd5b60005b858110156129a257816129888882612d03565b845260208401935060208301925050600181019050612975565b5050509392505050565b6000813590506129bb81614f3f565b92915050565b6000819050826020600702820111156129d957600080fd5b92915050565b60008083601f8401126129f157600080fd5b8235905067ffffffffffffffff811115612a0a57600080fd5b602083019150836020820283011115612a2257600080fd5b9250929050565b600082601f830112612a3a57600080fd5b6003612a478482856124c8565b91505092915050565b600082601f830112612a6157600080fd5b8135612a71848260208601612545565b91505092915050565b600082601f830112612a8b57600080fd5b8151612a9b8482602086016125cb565b91505092915050565b60008083601f840112612ab657600080fd5b8235905067ffffffffffffffff811115612acf57600080fd5b602083019150836020820283011115612ae757600080fd5b9250929050565b60008083601f840112612b0057600080fd5b8235905067ffffffffffffffff811115612b1957600080fd5b602083019150836020820283011115612b3157600080fd5b9250929050565b600082601f830112612b4957600080fd5b6003612b56848285612651565b91505092915050565b600082601f830112612b7057600080fd5b6005612b7d8482856126ce565b91505092915050565b600082601f830112612b9757600080fd5b6005612ba484828561274b565b91505092915050565b600082601f830112612bbe57600080fd5b8135612bce8482602086016127c8565b91505092915050565b600082601f830112612be857600080fd5b8151612bf884826020860161284e565b91505092915050565b600081905082602060150282011115612c1957600080fd5b92915050565b60008083601f840112612c3157600080fd5b8235905067ffffffffffffffff811115612c4a57600080fd5b602083019150836020820283011115612c6257600080fd5b9250929050565b600082601f830112612c7a57600080fd5b8135612c8a8482602086016128d4565b91505092915050565b600082601f830112612ca457600080fd5b8151612cb4848260208601612940565b91505092915050565b600081359050612ccc81614f56565b92915050565b60006101a08284031215612ce557600080fd5b81905092915050565b600081359050612cfd81614f6d565b92915050565b600081519050612d1281614f6d565b92915050565b600060208284031215612d2a57600080fd5b6000612d38848285016129ac565b91505092915050565b60008060008060008060008060006101608a8c031215612d6057600080fd5b6000612d6e8c828d016129c1565b99505060e08a013567ffffffffffffffff811115612d8b57600080fd5b612d978c828d016129df565b98509850506101008a013567ffffffffffffffff811115612db757600080fd5b612dc38c828d01612aee565b96509650506101208a013567ffffffffffffffff811115612de357600080fd5b612def8c828d01612aa4565b94509450506101408a013567ffffffffffffffff811115612e0f57600080fd5b612e1b8c828d01612c1f565b92509250509295985092959850929598565b600060208284031215612e3f57600080fd5b600082015167ffffffffffffffff811115612e5957600080fd5b612e6584828501612a29565b91505092915050565b600060208284031215612e8057600080fd5b600082015167ffffffffffffffff811115612e9a57600080fd5b612ea684828501612a7a565b91505092915050565b60008060006102e08486031215612ec557600080fd5b600084013567ffffffffffffffff811115612edf57600080fd5b612eeb86828701612a50565b9350506020612efc86828701612c01565b9250506102c084013567ffffffffffffffff811115612f1a57600080fd5b612f2686828701612bad565b9150509250925092565b600060208284031215612f4257600080fd5b600082015167ffffffffffffffff811115612f5c57600080fd5b612f6884828501612b86565b91505092915050565b60008060408385031215612f8457600080fd5b600083015167ffffffffffffffff811115612f9e57600080fd5b612faa85828601612b86565b925050602083015167ffffffffffffffff811115612fc757600080fd5b612fd385828601612c93565b9150509250929050565b60008060408385031215612ff057600080fd5b600083013567ffffffffffffffff81111561300a57600080fd5b61301685828601612b5f565b925050602061302785828601612cee565b9150509250929050565b60006020828403121561304357600080fd5b600082013567ffffffffffffffff81111561305d57600080fd5b61306984828501612bad565b91505092915050565b60006020828403121561308457600080fd5b600082015167ffffffffffffffff81111561309e57600080fd5b6130aa84828501612bd7565b91505092915050565b600080600080604085870312156130c957600080fd5b600085013567ffffffffffffffff8111156130e357600080fd5b6130ef87828801612c1f565b9450945050602085013567ffffffffffffffff81111561310e57600080fd5b61311a87828801612aee565b925092505092959194509250565b60006020828403121561313a57600080fd5b600082013567ffffffffffffffff81111561315457600080fd5b61316084828501612c69565b91505092915050565b60006020828403121561317b57600080fd5b600082015167ffffffffffffffff81111561319557600080fd5b6131a184828501612c93565b91505092915050565b6000602082840312156131bc57600080fd5b600082013567ffffffffffffffff8111156131d657600080fd5b6131e284828501612cd2565b91505092915050565b6000602082840312156131fd57600080fd5b600061320b84828501612cee565b91505092915050565b6000613220838361335e565b60208301905092915050565b6000613238838361336d565b60208301905092915050565b6000613251848484613684565b90509392505050565b60006132668383613946565b905092915050565b600061327a8383613aa5565b905092915050565b600061328f848484613b1a565b90509392505050565b60006132a5848484613b90565b90509392505050565b60006132bb848484613c27565b90509392505050565b60006132d1848484613d2f565b90509392505050565b60006132e68383613d87565b905092915050565b60006132fa8383613ea1565b905092915050565b600061330f848484613f59565b90509392505050565b6000613325848484613f86565b90509392505050565b600061333a8383614144565b60208301905092915050565b60006133528383614171565b60208301905092915050565b61336781614da2565b82525050565b61337681614da2565b82525050565b6133858161494d565b61338f8184614a06565b925061339a826148d7565b8060005b838110156133d3576133b08284614b48565b6133ba8782613214565b96506133c583614984565b92505060018101905061339e565b505050505050565b60006133e78385614a11565b93506133f2826148e1565b8060005b8581101561342b576134088284614b48565b613412888261322c565b975061341d83614991565b9250506001810190506133f6565b5085925050509392505050565b60006134448385614a22565b935083602084028501613456846148eb565b8060005b8781101561349c5784840389526134718284614c0d565b61347c868284613244565b95506134878461499e565b935060208b019a50505060018101905061345a565b50829750879450505050509392505050565b60006134b982614958565b6134c38185614a22565b9350836020820285016134d5856148f5565b8060005b8581101561351157848403895281516134f2858261325a565b94506134fd836149ab565b925060208a019950506001810190506134d9565b50829750879550505050505092915050565b600061352e82614958565b6135388185614a33565b93508360208202850161354a856148f5565b8060005b858110156135865784840389528151613567858261326e565b9450613572836149ab565b925060208a0199505060018101905061354e565b50829750879550505050505092915050565b60006135a48385614a44565b9350836020840285016135b684614905565b8060005b878110156135fc5784840389526135d18284614c64565b6135dc868284613282565b95506135e7846149b8565b935060208b019a5050506001810190506135ba565b50829750879450505050509392505050565b600061361a8385614a55565b93508360208402850161362c84614905565b8060005b878110156136725784840389526136478284614c64565b613652868284613298565b955061365d846149b8565b935060208b019a505050600181019050613630565b50829750879450505050509392505050565b60006136908385614a7c565b9350836020840285016136a28461490f565b8060005b878110156136e85784840389526136bd8284614cc6565b6136c88682846132ae565b95506136d3846149c5565b935060208b019a5050506001810190506136a6565b50829750879450505050509392505050565b60006137068385614a8d565b9350836020840285016137188461490f565b8060005b8781101561375e5784840389526137338284614cc6565b61373e8682846132ae565b9550613749846149c5565b935060208b019a50505060018101905061371c565b50829750879450505050509392505050565b600061377c8385614a9e565b93508360208402850161378e8461490f565b8060005b878110156137d45784840389526137a98284614cc6565b6137b48682846132c4565b95506137bf846149c5565b935060208b019a505050600181019050613792565b50829750879450505050509392505050565b60006137f28385614aaf565b9350836020840285016138048461490f565b8060005b8781101561384a57848403895261381f8284614cc6565b61382a8682846132c4565b9550613835846149c5565b935060208b019a505050600181019050613808565b50829750879450505050509392505050565b600061386782614963565b6138718185614a66565b93508360208202850161388385614919565b8060005b858110156138bf57848403895281516138a085826132da565b94506138ab836149d2565b925060208a01995050600181019050613887565b50829750879550505050505092915050565b60006138dc82614963565b6138e68185614a71565b9350836020820285016138f885614919565b8060005b85811015613934578484038952815161391585826132ee565b9450613920836149d2565b925060208a019950506001810190506138fc565b50829750879550505050505092915050565b60006139518261496e565b61395b8185614a7c565b93508360208202850161396d85614923565b8060005b858110156139a9578484038952815161398a85826132da565b9450613995836149df565b925060208a01995050600181019050613971565b50829750879550505050505092915050565b60006139c68261496e565b6139d08185614a8d565b9350836020820285016139e285614923565b8060005b85811015613a1e57848403895281516139ff85826132da565b9450613a0a836149df565b925060208a019950506001810190506139e6565b50829750879550505050505092915050565b6000613a3b8261496e565b613a458185614a9e565b935083602082028501613a5785614923565b8060005b85811015613a935784840389528151613a7485826132ee565b9450613a7f836149df565b925060208a01995050600181019050613a5b565b50829750879550505050505092915050565b6000613ab08261496e565b613aba8185614aaf565b935083602082028501613acc85614923565b8060005b85811015613b085784840389528151613ae985826132ee565b9450613af4836149df565b925060208a01995050600181019050613ad0565b50829750879550505050505092915050565b6000613b268385614ac0565b935083602084028501613b3884614933565b8060005b87811015613b7e578484038952613b538284614d34565b613b5e868284613302565b9550613b69846149ec565b935060208b019a505050600181019050613b3c565b50829750879450505050509392505050565b6000613b9c8385614ad1565b935083602084028501613bae84614933565b8060005b87811015613bf4578484038952613bc98284614d34565b613bd4868284613318565b9550613bdf846149ec565b935060208b019a505050600181019050613bb2565b50829750879450505050509392505050565b613c136102a08383614e47565b5050565b613c2360408383614e47565b5050565b6000613c338385614ae2565b93507f07ffffffffffffffffffffffffffffffffffffffffffffffffffffffffffffff831115613c6257600080fd5b602083029250613c73838584614e47565b82840190509392505050565b6000613c8b8385614af3565b93507f07ffffffffffffffffffffffffffffffffffffffffffffffffffffffffffffff831115613cba57600080fd5b602083029250613ccb838584614e47565b82840190509392505050565b6000613ce38385614b04565b93507f07ffffffffffffffffffffffffffffffffffffffffffffffffffffffffffffff831115613d1257600080fd5b602083029250613d23838584614e47565b82840190509392505050565b6000613d3b8385614b15565b93507f07ffffffffffffffffffffffffffffffffffffffffffffffffffffffffffffff831115613d6a57600080fd5b602083029250613d7b838584614e47565b82840190509392505050565b6000613d9282614979565b613d9c8185614ae2565b9350613da78361493d565b8060005b83811015613dd8578151613dbf888261332e565b9750613dca836149f9565b925050600181019050613dab565b5085935050505092915050565b6000613df082614979565b613dfa8185614af3565b9350613e058361493d565b8060005b83811015613e36578151613e1d888261332e565b9750613e28836149f9565b925050600181019050613e09565b5085935050505092915050565b6000613e4e82614979565b613e588185614b04565b9350613e638361493d565b8060005b83811015613e94578151613e7b8882613346565b9750613e86836149f9565b925050600181019050613e67565b5085935050505092915050565b6000613eac82614979565b613eb68185614b15565b9350613ec18361493d565b8060005b83811015613ef2578151613ed98882613346565b9750613ee4836149f9565b925050600181019050613ec5565b5085935050505092915050565b613f0881614db4565b82525050565b613f1781614db4565b82525050565b613f2681614dff565b82525050565b613f3581614e11565b82525050565b613f4481614e23565b82525050565b613f5381614e35565b82525050565b6000613f658385614b26565b9350613f72838584614e47565b613f7b83614f2e565b840190509392505050565b6000613f928385614b37565b9350613f9f838584614e47565b613fa883614f2e565b840190509392505050565b8082525050565b60006101a08301613fce6000840184614d8b565b613fdb6000860182614171565b50613fe96020840184614d1d565b613ff66020860182613f0e565b506140046040840184614cc6565b8583036040870152614017838284613d2f565b925050506140286060840184614c0d565b858303606087015261403b8382846137e6565b9250505061404c6080840184614b5f565b858303608087015261405f8382846133db565b9250505061407060a0840184614bb6565b85830360a087015261408383828461360e565b9250505061409460c0840184614d8b565b6140a160c0860182614171565b506140af60e0840184614d8b565b6140bc60e0860182614171565b506140cb610100840184614d8b565b6140d9610100860182614171565b506140e8610120840184614cbb565b6140f6610120860182613c17565b50614105610160840184614d1d565b614113610160860182613f0e565b50614122610180840184614cc6565b858303610180870152614136838284613d2f565b925050508091505092915050565b61414d81614de0565b82525050565b61415c81614de0565b82525050565b61416b81614de0565b82525050565b61417a81614de0565b82525050565b600060e082019050614195600083018461337c565b92915050565b6000610120820190506141b1600083018861337c565b81810360e08301526141c4818688613438565b90508181036101008301526141da8184866136fa565b90509695505050505050565b6000610140820190506141fc600083018a61337c565b81810360e083015261420f81888a6136fa565b9050818103610100830152614225818688613598565b905081810361012083015261423b818486613c7f565b905098975050505050505050565b6000602082019050818103600083015261426381846134ae565b905092915050565b60006060820190508181036000830152614286818688613770565b9050818103602083015261429a8185613e43565b90506142a96040830184613f4a565b95945050505050565b600060c08201905081810360008301526142cc818961385c565b90506142db6020830188613f1d565b6142e86040830187613f1d565b6142f56060830186613eff565b6143026080830185613eff565b61430f60a0830184613f3b565b979650505050505050565b6000606082019050818103600083015261433481866138d1565b90506143436020830185614162565b6143506040830184613fb3565b949350505050565b6000602082019050818103600083015261437281846139bb565b905092915050565b600060408201905081810360008301526143948185613a30565b90506143a36020830184613fb3565b9392505050565b600060808201905081810360008301526143c48187613a30565b90506143d36020830186614162565b81810360408301526143e58185613e43565b90506143f46060830184613f2c565b95945050505050565b60006102c0820190506144136000830185613c06565b8181036102a08301526144268184613523565b90509392505050565b6000606082019050818103600083015261444a818789613cd7565b90506144596020830186613fb3565b818103604083015261446c818486613770565b90509695505050505050565b600060208201905081810360008301526144928184613de5565b905092915050565b600060a08201905081810360008301526144b48188613e43565b905081810360208301526144c88187613a30565b90506144d76040830186614162565b6144e46060830185613fb3565b81810360808301526144f68184613e43565b90509695505050505050565b6000606082019050818103600083015261451c8186613de5565b905081810360208301526145308185613de5565b905061453f6040830184614153565b949350505050565b600060c08201905081810360008301526145618189613e43565b905081810360208301526145758188613e43565b90506145846040830187614162565b6145916060830186614162565b61459e6080830185613fb3565b81810360a08301526145b08184613e43565b9050979650505050505050565b600060408201905081810360008301526145d78185613e43565b90506145e66020830184613fb3565b9392505050565b600060208201905081810360008301526146078184613fba565b905092915050565b60006060820190506146246000830186614162565b81810360208301526146368185613a30565b90506146456040830184613fb3565b949350505050565b60006040820190506146626000830185614162565b61466f6020830184613fb3565b9392505050565b600060608201905061468b6000830186614153565b6146986020830185614153565b6146a56040830184614153565b949350505050565b600060c0820190506146c26000830189614153565b6146cf6020830188614153565b6146dc6040830187614153565b6146e96060830186614153565b6146f66080830185614153565b61470360a0830184614153565b979650505050505050565b6000808335600160200384360303811261472757600080fd5b80840192508235915067ffffffffffffffff82111561474557600080fd5b60208301925060208202360383131561475d57600080fd5b509250929050565b6000808335600160200384360303811261477e57600080fd5b80840192508235915067ffffffffffffffff82111561479c57600080fd5b6020830192506020820236038313156147b457600080fd5b509250929050565b60006147c66147d7565b90506147d28282614e56565b919050565b6000604051905090565b600067ffffffffffffffff8211156147fc576147fb614eff565b5b602082029050919050565b600067ffffffffffffffff82111561482257614821614eff565b5b602082029050602081019050919050565b600067ffffffffffffffff82111561484e5761484d614eff565b5b602082029050919050565b600067ffffffffffffffff82111561487457614873614eff565b5b602082029050919050565b600067ffffffffffffffff82111561489a57614899614eff565b5b602082029050602081019050919050565b600067ffffffffffffffff8211156148c6576148c5614eff565b5b602082029050602081019050919050565b6000819050919050565b6000819050919050565b6000819050919050565b6000819050602082019050919050565b6000819050919050565b6000819050919050565b6000819050919050565b6000819050602082019050919050565b6000819050919050565b6000819050602082019050919050565b600060079050919050565b600081519050919050565b600060059050919050565b600081519050919050565b600081519050919050565b6000602082019050919050565b6000602082019050919050565b6000602082019050919050565b6000602082019050919050565b6000602082019050919050565b6000602082019050919050565b6000602082019050919050565b6000602082019050919050565b6000602082019050919050565b6000602082019050919050565b600081905092915050565b600082825260208201905092915050565b600082825260208201905092915050565b600082825260208201905092915050565b600082825260208201905092915050565b600082825260208201905092915050565b600081905092915050565b600081905092915050565b600082825260208201905092915050565b600082825260208201905092915050565b600082825260208201905092915050565b600082825260208201905092915050565b600082825260208201905092915050565b600082825260208201905092915050565b600082825260208201905092915050565b600082825260208201905092915050565b600082825260208201905092915050565b600082825260208201905092915050565b600082825260208201905092915050565b600082825260208201905092915050565b6000614b5760208401846129ac565b905092915050565b60008083356001602003843603038112614b7857600080fd5b83810192508235915060208301925067ffffffffffffffff821115614b9c57600080fd5b602082023603841315614bae57600080fd5b509250929050565b60008083356001602003843603038112614bcf57600080fd5b83810192508235915060208301925067ffffffffffffffff821115614bf357600080fd5b602082023603841315614c0557600080fd5b509250929050565b60008083356001602003843603038112614c2657600080fd5b83810192508235915060208301925067ffffffffffffffff821115614c4a57600080fd5b602082023603841315614c5c57600080fd5b509250929050565b60008083356001602003843603038112614c7d57600080fd5b83810192508235915060208301925067ffffffffffffffff821115614ca157600080fd5b602082023603841315614cb357600080fd5b509250929050565b600082905092915050565b60008083356001602003843603038112614cdf57600080fd5b83810192508235915060208301925067ffffffffffffffff821115614d0357600080fd5b602082023603841315614d1557600080fd5b509250929050565b6000614d2c6020840184612cbd565b905092915050565b60008083356001602003843603038112614d4d57600080fd5b83810192508235915060208301925067ffffffffffffffff821115614d7157600080fd5b600182023603841315614d8357600080fd5b509250929050565b6000614d9a6020840184612cee565b905092915050565b6000614dad82614dc0565b9050919050565b60008115159050919050565b600073ffffffffffffffffffffffffffffffffffffffff82169050919050565b6000819050919050565b6000614df73684846127c8565b905092915050565b6000614e0a82614de0565b9050919050565b6000614e1c82614de0565b9050919050565b6000614e2e82614de0565b9050919050565b6000614e4082614de0565b9050919050565b82818337600083830152505050565b614e5f82614f2e565b810181811067ffffffffffffffff82111715614e7e57614e7d614eff565b5b80604052505050565b6000614e9282614de0565b91507fffffffffffffffffffffffffffffffffffffffffffffffffffffffffffffffff821415614ec557614ec4614ed0565b5b600182019050919050565b7f4e487b7100000000000000000000000000000000000000000000000000000000600052601160045260246000fd5b7f4e487b7100000000000000000000000000000000000000000000000000000000600052604160045260246000fd5b6000601f19601f8301169050919050565b614f4881614da2565b8114614f5357600080fd5b50565b614f5f81614db4565b8114614f6a57600080fd5b50565b614f7681614de0565b8114614f8157600080fd5b5056fea2646970667358221220df4e7d4b1dcd9b30dd0c4e1b0982391d8629a3c7e2b23d969c507d50eed345eb64736f6c63430008040033",
  "linkReferences": {
    "contracts/E5D/E3.sol": {
      "E3": [
        {
          "length": 20,
          "start": 3082
        },
        {
          "length": 20,
          "start": 3257
        }
      ]
    },
    "contracts/E5D/E32.sol": {
      "E32": [
        {
          "length": 20,
          "start": 3755
        },
        {
          "length": 20,
          "start": 7873
        }
      ]
    },
    "contracts/F5D/F3.sol": {
      "F3": [
        {
          "length": 20,
          "start": 850
        },
        {
          "length": 20,
          "start": 1301
        },
        {
          "length": 20,
          "start": 1414
        },
        {
          "length": 20,
          "start": 1666
        },
        {
          "length": 20,
          "start": 4134
        },
        {
          "length": 20,
          "start": 4286
        },
        {
          "length": 20,
          "start": 5932
        },
        {
          "length": 20,
          "start": 8022
        },
        {
          "length": 20,
          "start": 8292
        },
        {
          "length": 20,
          "start": 9118
        }
      ]
    },
    "contracts/F5D/F33.sol": {
      "F33": [
        {
          "length": 20,
          "start": 4532
        }
      ]
    }
  },
  "deployedLinkReferences": {
    "contracts/E5D/E3.sol": {
      "E3": [
        {
          "length": 20,
          "start": 2763
        },
        {
          "length": 20,
          "start": 2938
        }
      ]
    },
    "contracts/E5D/E32.sol": {
      "E32": [
        {
          "length": 20,
          "start": 3436
        },
        {
          "length": 20,
          "start": 7554
        }
      ]
    },
    "contracts/F5D/F3.sol": {
      "F3": [
        {
          "length": 20,
          "start": 531
        },
        {
          "length": 20,
          "start": 982
        },
        {
          "length": 20,
          "start": 1095
        },
        {
          "length": 20,
          "start": 1347
        },
        {
          "length": 20,
          "start": 3815
        },
        {
          "length": 20,
          "start": 3967
        },
        {
          "length": 20,
          "start": 5613
        },
        {
          "length": 20,
          "start": 7703
        },
        {
          "length": 20,
          "start": 7973
        },
        {
          "length": 20,
          "start": 8799
        }
      ]
    },
    "contracts/F5D/F33.sol": {
      "F33": [
        {
          "length": 20,
          "start": 4213
        }
      ]
    }
  }
}