{
  "_format": "hh-sol-artifact-1",
  "contractName": "G5",
  "sourceName": "contracts/G5D/G5.sol",
  "abi": [
    {
      "inputs": [
        {
          "internalType": "address",
          "name": "p1",
          "type": "address"
        }
      ],
      "stateMutability": "nonpayable",
      "type": "constructor"
    },
    {
      "anonymous": false,
      "inputs": [
        {
          "indexed": true,
          "internalType": "uint256",
          "name": "p1",
          "type": "uint256"
        },
        {
          "indexed": true,
          "internalType": "uint256",
          "name": "p2",
          "type": "uint256"
        },
        {
          "indexed": true,
          "internalType": "uint256",
          "name": "p3",
          "type": "uint256"
        },
        {
          "indexed": false,
          "internalType": "uint256",
          "name": "p4",
          "type": "uint256"
        },
        {
          "indexed": false,
          "internalType": "uint256",
          "name": "p5",
          "type": "uint256"
        },
        {
          "indexed": false,
          "internalType": "uint256",
          "name": "p6",
          "type": "uint256"
        }
      ],
      "name": "e1",
      "type": "event"
    },
    {
      "anonymous": false,
      "inputs": [
        {
          "indexed": true,
          "internalType": "uint256",
          "name": "p1",
          "type": "uint256"
        },
        {
          "indexed": true,
          "internalType": "uint256",
          "name": "p2",
          "type": "uint256"
        },
        {
          "indexed": false,
          "internalType": "uint256",
          "name": "p3",
          "type": "uint256"
        },
        {
          "indexed": false,
          "internalType": "uint256",
          "name": "p4",
          "type": "uint256"
        },
        {
          "indexed": false,
          "internalType": "uint256",
          "name": "p5",
          "type": "uint256"
        },
        {
          "indexed": false,
          "internalType": "uint256",
          "name": "p6",
          "type": "uint256"
        },
        {
          "indexed": false,
          "internalType": "uint256",
          "name": "p7",
          "type": "uint256"
        }
      ],
      "name": "e2",
      "type": "event"
    },
    {
      "inputs": [
        {
          "internalType": "uint256[]",
          "name": "p1",
          "type": "uint256[]"
        }
      ],
      "name": "f111",
      "outputs": [
        {
          "internalType": "uint256[][][]",
          "name": "",
          "type": "uint256[][][]"
        }
      ],
      "stateMutability": "nonpayable",
      "type": "function"
    },
    {
      "inputs": [
        {
          "internalType": "address[7]",
          "name": "p1",
          "type": "address[7]"
        },
        {
          "internalType": "uint256[][][]",
          "name": "p2",
          "type": "uint256[][][]"
        },
        {
          "internalType": "uint256[][]",
          "name": "p3",
          "type": "uint256[][]"
        }
      ],
      "name": "f160",
      "outputs": [],
      "stateMutability": "nonpayable",
      "type": "function"
    },
    {
      "inputs": [
        {
          "components": [
            {
              "internalType": "uint256",
              "name": "sv1",
              "type": "uint256"
            },
            {
              "internalType": "bool",
              "name": "sv2",
              "type": "bool"
            },
            {
              "internalType": "uint256[]",
              "name": "sv3",
              "type": "uint256[]"
            },
            {
              "internalType": "uint256[][]",
              "name": "sv4",
              "type": "uint256[][]"
            },
            {
              "internalType": "address[]",
              "name": "sv5",
              "type": "address[]"
            },
            {
              "internalType": "string[][]",
              "name": "sv6",
              "type": "string[][]"
            },
            {
              "internalType": "uint256",
              "name": "t",
              "type": "uint256"
            },
            {
              "internalType": "uint256",
              "name": "sv7",
              "type": "uint256"
            },
            {
              "internalType": "uint256",
              "name": "sv8",
              "type": "uint256"
            },
            {
              "internalType": "uint256[2]",
              "name": "sv9",
              "type": "uint256[2]"
            },
            {
              "internalType": "bool",
              "name": "sv10",
              "type": "bool"
            },
            {
              "internalType": "uint256[]",
              "name": "sv11",
              "type": "uint256[]"
            }
          ],
          "internalType": "struct E3.TD",
          "name": "p1",
          "type": "tuple"
        }
      ],
      "name": "f174",
      "outputs": [],
      "stateMutability": "nonpayable",
      "type": "function"
    },
    {
      "inputs": [
        {
          "internalType": "uint256[]",
          "name": "p1",
          "type": "uint256[]"
        },
        {
          "internalType": "uint256",
          "name": "p2",
          "type": "uint256"
        },
        {
          "internalType": "uint256[][]",
          "name": "p3",
          "type": "uint256[][]"
        },
        {
          "internalType": "uint256[][][2]",
          "name": "p4",
          "type": "uint256[][][2]"
        }
      ],
      "name": "f200",
      "outputs": [],
      "stateMutability": "nonpayable",
      "type": "function"
    },
    {
      "inputs": [
        {
          "internalType": "uint256[][5]",
          "name": "p1",
          "type": "uint256[][5]"
        },
        {
          "internalType": "uint256",
          "name": "p2",
          "type": "uint256"
        },
        {
          "internalType": "uint256",
          "name": "p3",
          "type": "uint256"
        }
      ],
      "name": "f238",
      "outputs": [],
      "stateMutability": "nonpayable",
      "type": "function"
    },
    {
      "inputs": [
        {
          "internalType": "uint256",
          "name": "p1",
          "type": "uint256"
        },
        {
          "internalType": "bool",
          "name": "p2",
          "type": "bool"
        }
      ],
      "name": "f77",
      "outputs": [
        {
          "internalType": "uint256[][]",
          "name": "",
          "type": "uint256[][]"
        }
      ],
      "stateMutability": "view",
      "type": "function"
    },
    {
      "inputs": [
        {
          "internalType": "uint256[]",
          "name": "p1",
          "type": "uint256[]"
        },
        {
          "internalType": "bool",
          "name": "p2",
          "type": "bool"
        }
      ],
      "name": "f78",
      "outputs": [
        {
          "internalType": "uint256[][][]",
          "name": "",
          "type": "uint256[][][]"
        }
      ],
      "stateMutability": "view",
      "type": "function"
    },
    {
      "inputs": [
        {
          "internalType": "uint256[]",
          "name": "targets",
          "type": "uint256[]"
        },
        {
          "internalType": "uint256[]",
          "name": "p3",
          "type": "uint256[]"
        },
        {
          "internalType": "uint256",
          "name": "p4",
          "type": "uint256"
        }
      ],
      "name": "f79",
      "outputs": [
        {
          "internalType": "uint256[][][]",
          "name": "",
          "type": "uint256[][][]"
        },
        {
          "internalType": "uint256[][4]",
          "name": "",
          "type": "uint256[][4]"
        }
      ],
      "stateMutability": "view",
      "type": "function"
    }
  ],
  "bytecode": "0x60a060405260008060006101000a81548160ff0219169083151502179055503480156200002b57600080fd5b5060405162005fb738038062005fb78339818101604052810190620000519190620000a6565b8073ffffffffffffffffffffffffffffffffffffffff1660808173ffffffffffffffffffffffffffffffffffffffff1660601b815250505062000120565b600081519050620000a08162000106565b92915050565b600060208284031215620000b957600080fd5b6000620000c9848285016200008f565b91505092915050565b6000620000df82620000e6565b9050919050565b600073ffffffffffffffffffffffffffffffffffffffff82169050919050565b6200011181620000d2565b81146200011d57600080fd5b50565b60805160601c615e786200013f600039600061231d0152615e786000f3fe608060405234801561001057600080fd5b50600436106100785760003560e01c80630676d1711461007d5780631986d425146100995780633f0705fc146100c957806357c47478146100e557806366ab4428146101015780637063d5c2146101325780639403f45614610162578063f45f2c6714610192575b600080fd5b61009760048036038101906100929190613daa565b6101ae565b005b6100b360048036038101906100ae9190613ffb565b610781565b6040516100c09190614d61565b60405180910390f35b6100e360048036038101906100de919061414c565b61081c565b005b6100ff60048036038101906100fa919061404f565b610c67565b005b61011b60048036038101906101169190613f7c565b6120e0565b604051610129929190614d83565b60405180910390f35b61014c60048036038101906101479190613efa565b612189565b6040516101599190614d61565b60405180910390f35b61017c600480360381019061017791906141b6565b612280565b6040516101899190615038565b60405180910390f35b6101ac60048036038101906101a79190613b0c565b61231b565b005b3360011515600160008373ffffffffffffffffffffffffffffffffffffffff1673ffffffffffffffffffffffffffffffffffffffff16815260200190815260200160002060009054906101000a900460ff1615151461020c57600080fd5b609882146102e257600a60009054906101000a900473ffffffffffffffffffffffffffffffffffffffff1673ffffffffffffffffffffffffffffffffffffffff1663512ed4b78560006005811061028c577f4e487b7100000000000000000000000000000000000000000000000000000000600052603260045260246000fd5b602002015185856040518463ffffffff1660e01b81526004016102b193929190615487565b60006040518083038186803b1580156102c957600080fd5b505afa1580156102dd573d6000803e3d6000fd5b505050505b600073__$ccab4b824cb48649c7bbfeac646fb6cb19$__63b4fed3b3866002866040518463ffffffff1660e01b815260040161032093929190614f62565b60206040518083038186803b15801561033857600080fd5b505af415801561034c573d6000803e3d6000fd5b505050506040513d601f19601f820116820180604052508101906103709190614123565b905060005b856000600581106103af577f4e487b7100000000000000000000000000000000000000000000000000000000600052603260045260246000fd5b602002015151811015610699576000859050600081141561044c5786600460058110610404577f4e487b7100000000000000000000000000000000000000000000000000000000600052603260045260246000fd5b60200201518281518110610441577f4e487b7100000000000000000000000000000000000000000000000000000000600052603260045260246000fd5b602002602001015190505b8087600060058110610487577f4e487b7100000000000000000000000000000000000000000000000000000000600052603260045260246000fd5b602002015183815181106104c4577f4e487b7100000000000000000000000000000000000000000000000000000000600052603260045260246000fd5b60200260200101517fa095494d0526498663961c7fcf6d0f864cd7b2df5aa2520c38c9272097de3c6689600160058110610527577f4e487b7100000000000000000000000000000000000000000000000000000000600052603260045260246000fd5b60200201518581518110610564577f4e487b7100000000000000000000000000000000000000000000000000000000600052603260045260246000fd5b60200260200101518a6002600581106105a6577f4e487b7100000000000000000000000000000000000000000000000000000000600052603260045260246000fd5b602002015186815181106105e3577f4e487b7100000000000000000000000000000000000000000000000000000000600052603260045260246000fd5b60200260200101518b600360058110610625577f4e487b7100000000000000000000000000000000000000000000000000000000600052603260045260246000fd5b60200201518781518110610662577f4e487b7100000000000000000000000000000000000000000000000000000000600052603260045260246000fd5b6020026020010151424360405161067d959493929190615640565b60405180910390a350808061069190615d45565b915050610375565b50801561077a57600960009054906101000a900473ffffffffffffffffffffffffffffffffffffffff1673ffffffffffffffffffffffffffffffffffffffff1663a2703b716106ea60026000612280565b600181518110610723577f4e487b7100000000000000000000000000000000000000000000000000000000600052603260045260246000fd5b60200260200101516040518263ffffffff1660e01b81526004016107479190615129565b600060405180830381600087803b15801561076157600080fd5b505af1158015610775573d6000803e3d6000fd5b505050505b5050505050565b606073__$ccab4b824cb48649c7bbfeac646fb6cb19$__639ba0ac00846002856040518463ffffffff1660e01b81526004016107bf939291906153c6565b60006040518083038186803b1580156107d757600080fd5b505af41580156107eb573d6000803e3d6000fd5b505050506040513d6000823e3d601f19601f820116820180604052508101906108149190613c50565b905092915050565b3360011515600160008373ffffffffffffffffffffffffffffffffffffffff1673ffffffffffffffffffffffffffffffffffffffff16815260200190815260200160002060009054906101000a900460ff1615151461087a57600080fd5b600082806060019061088c9190615693565b60008181106108c4577f4e487b7100000000000000000000000000000000000000000000000000000000600052603260045260246000fd5b90506020028101906108d691906156ea565b600981811061090e577f4e487b7100000000000000000000000000000000000000000000000000000000600052603260045260246000fd5b90506020020135905060008360e001359050600061099c8580606001906109359190615693565b906109409190615cb7565b8385886000013589806040019061095791906156ea565b80806020026020016040519081016040528093929190818152602001838360200280828437600081840152601f19601f820116905080830192505050505050506127c3565b9050601e831415610c3d576000600660009054906101000a900473ffffffffffffffffffffffffffffffffffffffff1673ffffffffffffffffffffffffffffffffffffffff1663c59983b86040518163ffffffff1660e01b815260040160206040518083038186803b158015610a1157600080fd5b505afa158015610a25573d6000803e3d6000fd5b505050506040513d601f19601f82011682018060405250810190610a49919061418d565b905060006002600001600060028152602001908152602001600020600060018152602001908152602001600020905073__$f27e79961c3433e31ab5fa1d53780be647$__63b46e164084600281518110610acc577f4e487b7100000000000000000000000000000000000000000000000000000000600052603260045260246000fd5b60200260200101518460405180606001604052808660006003815260200190815260200160002054815260200186600060098152602001908152602001600020548152602001866000601781526020019081526020016000205481525087600381518110610b63577f4e487b7100000000000000000000000000000000000000000000000000000000600052603260045260246000fd5b60200260200101516040518563ffffffff1660e01b8152600401610b8a9493929190615434565b60006040518083038186803b158015610ba257600080fd5b505af4158015610bb6573d6000803e3d6000fd5b5050505073__$ccab4b824cb48649c7bbfeac646fb6cb19$__63a95e827884836000601e8152602001908152602001600020546040518363ffffffff1660e01b8152600401610c069291906150a6565b60006040518083038186803b158015610c1e57600080fd5b505af4158015610c32573d6000803e3d6000fd5b505050505050610c60565b610c5f85600001358383886020016020810190610c5a91906140fa565b6128ea565b5b5050505050565b3360011515600160008373ffffffffffffffffffffffffffffffffffffffff1673ffffffffffffffffffffffffffffffffffffffff16815260200190815260200160002060009054906101000a900460ff16151514610cc557600080fd5b6000600a60009054906101000a900473ffffffffffffffffffffffffffffffffffffffff1673ffffffffffffffffffffffffffffffffffffffff1663f7b79c1c87876040518363ffffffff1660e01b8152600401610d24929190615404565b60006040518083038186803b158015610d3c57600080fd5b505afa158015610d50573d6000803e3d6000fd5b505050506040513d6000823e3d601f19601f82011682018060405250810190610d799190613f3b565b90506000610d88876000610781565b9050600080600860009054906101000a900473ffffffffffffffffffffffffffffffffffffffff1673ffffffffffffffffffffffffffffffffffffffff16633d49ba568a85896040518463ffffffff1660e01b8152600401610dec9392919061514b565b61030060405180830381600087803b158015610e0757600080fd5b505af1158015610e1b573d6000803e3d6000fd5b505050506040513d601f19601f82011682018060405250810190610e3f9190613e93565b91509150600082600060158110610e7f577f4e487b7100000000000000000000000000000000000000000000000000000000600052603260045260246000fd5b6020020151141580610ed05750600082600260158110610ec8577f4e487b7100000000000000000000000000000000000000000000000000000000600052603260045260246000fd5b602002015114155b156110be576000600660009054906101000a900473ffffffffffffffffffffffffffffffffffffffff1673ffffffffffffffffffffffffffffffffffffffff16631711b18d856040518263ffffffff1660e01b8152600401610f329190614d61565b60006040518083038186803b158015610f4a57600080fd5b505afa158015610f5e573d6000803e3d6000fd5b505050506040513d6000823e3d601f19601f82011682018060405250810190610f879190613c0f565b9050600073__$8b1a9a3b6813947be4374081ea9c64093b$__63041435a08c878986896040518663ffffffff1660e01b8152600401610fca9594939291906152d3565b60006040518083038186803b158015610fe257600080fd5b505af4158015610ff6573d6000803e3d6000fd5b505050506040513d6000823e3d601f19601f8201168201806040525081019061101f9190613cfd565b9050600760009054906101000a900473ffffffffffffffffffffffffffffffffffffffff1673ffffffffffffffffffffffffffffffffffffffff16636228251b8260008060008060016040518763ffffffff1660e01b815260040161108996959493929190614efa565b600060405180830381600087803b1580156110a357600080fd5b505af11580156110b7573d6000803e3d6000fd5b5050505050505b6000826001601581106110fa577f4e487b7100000000000000000000000000000000000000000000000000000000600052603260045260246000fd5b60200201511461165957600073__$7b11637b326fa12a30ce8fbc20da0b2192$__63d15c89cf856040518263ffffffff1660e01b815260040161113d9190614d3f565b60006040518083038186803b15801561115557600080fd5b505af4158015611169573d6000803e3d6000fd5b505050506040513d6000823e3d601f19601f820116820180604052508101906111929190613f3b565b90506000600a60009054906101000a900473ffffffffffffffffffffffffffffffffffffffff1673ffffffffffffffffffffffffffffffffffffffff1663229df571836040518263ffffffff1660e01b81526004016111f19190615129565b60006040518083038186803b15801561120957600080fd5b505afa15801561121d573d6000803e3d6000fd5b505050506040513d6000823e3d601f19601f820116820180604052508101906112469190613f3b565b9050600073__$8b1a9a3b6813947be4374081ea9c64093b$__63cdbb74668d88856040518463ffffffff1660e01b815260040161128593929190615287565b60006040518083038186803b15801561129d57600080fd5b505af41580156112b1573d6000803e3d6000fd5b505050506040513d6000823e3d601f19601f820116820180604052508101906112da9190613b8d565b9050600081600060038110611318577f4e487b7100000000000000000000000000000000000000000000000000000000600052603260045260246000fd5b6020020151600060058110611356577f4e487b7100000000000000000000000000000000000000000000000000000000600052603260045260246000fd5b602002015151146113ad576113ac8160006003811061139e577f4e487b7100000000000000000000000000000000000000000000000000000000600052603260045260246000fd5b6020020151600060986101ae565b5b6000816001600381106113e9577f4e487b7100000000000000000000000000000000000000000000000000000000600052603260045260246000fd5b6020020151600060058110611427577f4e487b7100000000000000000000000000000000000000000000000000000000600052603260045260246000fd5b6020020151511461150157600660009054906101000a900473ffffffffffffffffffffffffffffffffffffffff1673ffffffffffffffffffffffffffffffffffffffff16631a4655c1826001600381106114aa577f4e487b7100000000000000000000000000000000000000000000000000000000600052603260045260246000fd5b602002015160006040518363ffffffff1660e01b81526004016114ce929190614eca565b600060405180830381600087803b1580156114e857600080fd5b505af11580156114fc573d6000803e3d6000fd5b505050505b60008160026003811061153d577f4e487b7100000000000000000000000000000000000000000000000000000000600052603260045260246000fd5b602002015160006005811061157b577f4e487b7100000000000000000000000000000000000000000000000000000000600052603260045260246000fd5b6020020151511461165557600560009054906101000a900473ffffffffffffffffffffffffffffffffffffffff1673ffffffffffffffffffffffffffffffffffffffff16634df34bb3826002600381106115fe577f4e487b7100000000000000000000000000000000000000000000000000000000600052603260045260246000fd5b602002015160006040518363ffffffff1660e01b8152600401611622929190614eca565b600060405180830381600087803b15801561163c57600080fd5b505af1158015611650573d6000803e3d6000fd5b505050505b5050505b600082600360158110611695577f4e487b7100000000000000000000000000000000000000000000000000000000600052603260045260246000fd5b60200201511461189a5760008067ffffffffffffffff8111156116e1577f4e487b7100000000000000000000000000000000000000000000000000000000600052604160045260246000fd5b60405190808252806020026020018201604052801561170f5781602001602082028036833780820191505090505b509050600073__$8b1a9a3b6813947be4374081ea9c64093b$__635d01c9988c878760036040518563ffffffff1660e01b815260040161175294939291906151dd565b60006040518083038186803b15801561176a57600080fd5b505af415801561177e573d6000803e3d6000fd5b505050506040513d6000823e3d601f19601f820116820180604052508101906117a79190613d3e565b509050600660009054906101000a900473ffffffffffffffffffffffffffffffffffffffff1673ffffffffffffffffffffffffffffffffffffffff16635dd9077e826040518060800160405280600081526020016000815260200160008152602001600081525060016040518060400160405280888152602001888152506040518563ffffffff1660e01b81526004016118449493929190614e77565b606060405180830381600087803b15801561185e57600080fd5b505af1158015611872573d6000803e3d6000fd5b505050506040513d601f19601f820116820180604052508101906118969190613ed1565b5050505b6000826004601581106118d6577f4e487b7100000000000000000000000000000000000000000000000000000000600052603260045260246000fd5b602002015114611a0457600073__$8b1a9a3b6813947be4374081ea9c64093b$__63da8065ec85856040518363ffffffff1660e01b815260040161191b929190614dff565b60006040518083038186803b15801561193357600080fd5b505af4158015611947573d6000803e3d6000fd5b505050506040513d6000823e3d601f19601f820116820180604052508101906119709190613e11565b9050600760009054906101000a900473ffffffffffffffffffffffffffffffffffffffff1673ffffffffffffffffffffffffffffffffffffffff16634d729ec78260006040518363ffffffff1660e01b81526004016119d0929190615008565b600060405180830381600087803b1580156119ea57600080fd5b505af11580156119fe573d6000803e3d6000fd5b50505050505b600082600560158110611a40577f4e487b7100000000000000000000000000000000000000000000000000000000600052603260045260246000fd5b602002015114611bc05760008073__$8b1a9a3b6813947be4374081ea9c64093b$__635d01c9988c878760056040518563ffffffff1660e01b8152600401611a8b9493929190615232565b60006040518083038186803b158015611aa357600080fd5b505af4158015611ab7573d6000803e3d6000fd5b505050506040513d6000823e3d601f19601f82011682018060405250810190611ae09190613d3e565b91509150600660009054906101000a900473ffffffffffffffffffffffffffffffffffffffff1673ffffffffffffffffffffffffffffffffffffffff16635dd9077e83604051806080016040528060008152602001600081526020016000815260200160008152506000856040518563ffffffff1660e01b8152600401611b6a9493929190614e77565b606060405180830381600087803b158015611b8457600080fd5b505af1158015611b98573d6000803e3d6000fd5b505050506040513d601f19601f82011682018060405250810190611bbc9190613ed1565b5050505b600082600660158110611bfc577f4e487b7100000000000000000000000000000000000000000000000000000000600052603260045260246000fd5b602002015114611d2c57600073__$bc0fdd3d50fca8e2388bb8b2c736c8b69a$__630fdee46b8b86866040518463ffffffff1660e01b8152600401611c4393929190615197565b60006040518083038186803b158015611c5b57600080fd5b505af4158015611c6f573d6000803e3d6000fd5b505050506040513d6000823e3d601f19601f82011682018060405250810190611c989190613e11565b9050600660009054906101000a900473ffffffffffffffffffffffffffffffffffffffff1673ffffffffffffffffffffffffffffffffffffffff166342210e708260006040518363ffffffff1660e01b8152600401611cf8929190615008565b600060405180830381600087803b158015611d1257600080fd5b505af1158015611d26573d6000803e3d6000fd5b50505050505b600082600760158110611d68577f4e487b7100000000000000000000000000000000000000000000000000000000600052603260045260246000fd5b602002015114611e9857600073__$bc0fdd3d50fca8e2388bb8b2c736c8b69a$__63b675d6d98b86866040518463ffffffff1660e01b8152600401611daf93929190615197565b60006040518083038186803b158015611dc757600080fd5b505af4158015611ddb573d6000803e3d6000fd5b505050506040513d6000823e3d601f19601f82011682018060405250810190611e049190613e11565b9050600760009054906101000a900473ffffffffffffffffffffffffffffffffffffffff1673ffffffffffffffffffffffffffffffffffffffff1663f572c0368260006040518363ffffffff1660e01b8152600401611e64929190615008565b600060405180830381600087803b158015611e7e57600080fd5b505af1158015611e92573d6000803e3d6000fd5b50505050505b80600060038110611ed2577f4e487b7100000000000000000000000000000000000000000000000000000000600052603260045260246000fd5b602002015115611f6e57600560009054906101000a900473ffffffffffffffffffffffffffffffffffffffff1673ffffffffffffffffffffffffffffffffffffffff1663da3f9bf884848a6040518463ffffffff1660e01b8152600401611f3b93929190614e30565b600060405180830381600087803b158015611f5557600080fd5b505af1158015611f69573d6000803e3d6000fd5b505050505b80600260038110611fa8577f4e487b7100000000000000000000000000000000000000000000000000000000600052603260045260246000fd5b6020020151156120d557600073__$bc0fdd3d50fca8e2388bb8b2c736c8b69a$__63ce5bd7f585856040518363ffffffff1660e01b8152600401611fed929190614dff565b60006040518083038186803b15801561200557600080fd5b505af4158015612019573d6000803e3d6000fd5b505050506040513d6000823e3d601f19601f820116820180604052508101906120429190613bce565b9050600a60009054906101000a900473ffffffffffffffffffffffffffffffffffffffff1673ffffffffffffffffffffffffffffffffffffffff1663221ec36882856040518363ffffffff1660e01b81526004016120a1929190614d0e565b600060405180830381600087803b1580156120bb57600080fd5b505af11580156120cf573d6000803e3d6000fd5b50505050505b505050505050505050565b60606120ea612e88565b73__$ccab4b824cb48649c7bbfeac646fb6cb19$__63f460f8e886600287876040518563ffffffff1660e01b81526004016121289493929190615373565b60006040518083038186803b15801561214057600080fd5b505af4158015612154573d6000803e3d6000fd5b505050506040513d6000823e3d601f19601f8201168201806040525081019061217d9190613c91565b91509150935093915050565b60603360011515600160008373ffffffffffffffffffffffffffffffffffffffff1673ffffffffffffffffffffffffffffffffffffffff16815260200190815260200160002060009054906101000a900460ff161515146121e957600080fd5b73__$ccab4b824cb48649c7bbfeac646fb6cb19$__63f7edbe648460026040518363ffffffff1660e01b8152600401612223929190615343565b60006040518083038186803b15801561223b57600080fd5b505af415801561224f573d6000803e3d6000fd5b505050506040513d6000823e3d601f19601f820116820180604052508101906122789190613c50565b915050919050565b606073__$ccab4b824cb48649c7bbfeac646fb6cb19$__63ee3ffd5f846002856040518463ffffffff1660e01b81526004016122be939291906154fc565b60006040518083038186803b1580156122d657600080fd5b505af41580156122ea573d6000803e3d6000fd5b505050506040513d6000823e3d601f19601f820116820180604052508101906123139190613e52565b905092915050565b7f000000000000000000000000000000000000000000000000000000000000000073ffffffffffffffffffffffffffffffffffffffff163373ffffffffffffffffffffffffffffffffffffffff16148015612381575060008054906101000a900460ff16155b61238a57600080fd5b60016000806101000a81548160ff02191690831515021790555060005b60078110156124575760018060008684600781106123ee577f4e487b7100000000000000000000000000000000000000000000000000000000600052603260045260246000fd5b602002015173ffffffffffffffffffffffffffffffffffffffff1673ffffffffffffffffffffffffffffffffffffffff16815260200190815260200160002060006101000a81548160ff021916908315150217905550808061244f90615d45565b9150506123a7565b5082600160078110612492577f4e487b7100000000000000000000000000000000000000000000000000000000600052603260045260246000fd5b6020020151600a60006101000a81548173ffffffffffffffffffffffffffffffffffffffff021916908373ffffffffffffffffffffffffffffffffffffffff16021790555082600060078110612511577f4e487b7100000000000000000000000000000000000000000000000000000000600052603260045260246000fd5b6020020151600960006101000a81548173ffffffffffffffffffffffffffffffffffffffff021916908373ffffffffffffffffffffffffffffffffffffffff16021790555082600260078110612590577f4e487b7100000000000000000000000000000000000000000000000000000000600052603260045260246000fd5b6020020151600560006101000a81548173ffffffffffffffffffffffffffffffffffffffff021916908373ffffffffffffffffffffffffffffffffffffffff1602179055508260046007811061260f577f4e487b7100000000000000000000000000000000000000000000000000000000600052603260045260246000fd5b6020020151600860006101000a81548173ffffffffffffffffffffffffffffffffffffffff021916908373ffffffffffffffffffffffffffffffffffffffff1602179055508260056007811061268e577f4e487b7100000000000000000000000000000000000000000000000000000000600052603260045260246000fd5b6020020151600660006101000a81548173ffffffffffffffffffffffffffffffffffffffff021916908373ffffffffffffffffffffffffffffffffffffffff1602179055508260066007811061270d577f4e487b7100000000000000000000000000000000000000000000000000000000600052603260045260246000fd5b6020020151600760006101000a81548173ffffffffffffffffffffffffffffffffffffffff021916908373ffffffffffffffffffffffffffffffffffffffff16021790555073__$ccab4b824cb48649c7bbfeac646fb6cb19$__634b640ce6838360026040518463ffffffff1660e01b815260040161278e93929190614dba565b60006040518083038186803b1580156127a657600080fd5b505af41580156127ba573d6000803e3d6000fd5b50505050505050565b60606000601e85146127d65760166127d9565b60145b60ff16905073__$2c5481ac3a53d4f4da52c7594a1c0a4117$__632391c553888686856040518563ffffffff1660e01b815260040161281b94939291906150d6565b60006040518083038186803b15801561283357600080fd5b505af4158015612847573d6000803e3d6000fd5b505050506040513d6000823e3d601f19601f820116820180604052508101906128709190613e52565b915073__$ccab4b824cb48649c7bbfeac646fb6cb19$__63d9ad21ce83600289896040518563ffffffff1660e01b81526004016128b0949392919061505a565b60006040518083038186803b1580156128c857600080fd5b505af41580156128dc573d6000803e3d6000fd5b505050505095945050505050565b600060026000016000858152602001908152602001600020600060018152602001908152602001600020905060008073__$ccab4b824cb48649c7bbfeac646fb6cb19$__6364399b0d600288876040518463ffffffff1660e01b8152600401612955939291906154c5565b604080518083038186803b15801561296c57600080fd5b505af4158015612980573d6000803e3d6000fd5b505050506040513d601f19601f820116820180604052508101906129a491906141f2565b915091506000600284600080815260200190815260200160002054149050600860009054906101000a900473ffffffffffffffffffffffffffffffffffffffff1673ffffffffffffffffffffffffffffffffffffffff166381cd1b4b85600060058152602001908152602001600020548a848b88886040518763ffffffff1660e01b8152600401612a3a969594939291906155a8565b600060405180830381600087803b158015612a5457600080fd5b505af1158015612a68573d6000803e3d6000fd5b5050505060006002600001600086600060058152602001908152602001600020548152602001908152602001600020600060018152602001908152602001600020905060008160006004815260200190815260200160002054141580612ae257506000816000600a81526020019081526020016000205414155b15612d4b576000600660009054906101000a900473ffffffffffffffffffffffffffffffffffffffff1673ffffffffffffffffffffffffffffffffffffffff1663c59983b86040518163ffffffff1660e01b815260040160206040518083038186803b158015612b5157600080fd5b505afa158015612b65573d6000803e3d6000fd5b505050506040513d601f19601f82011682018060405250810190612b89919061418d565b9050600073__$f27e79961c3433e31ab5fa1d53780be647$__6365fe24ab60026000016000600281526020019081526020016000206000600181526020019081526020016000206000601781526020019081526020016000205484604051806060016040528088600060048152602001908152602001600020548152602001886000600a815260200190815260200160002054815260200188600060258152602001908152602001600020548152508d6040518563ffffffff1660e01b8152600401612c58949392919061555c565b60006040518083038186803b158015612c7057600080fd5b505af4158015612c84573d6000803e3d6000fd5b505050506040513d6000823e3d601f19601f82011682018060405250810190612cad9190613cfd565b9050600760009054906101000a900473ffffffffffffffffffffffffffffffffffffffff1673ffffffffffffffffffffffffffffffffffffffff16636228251b828d8d60018060016040518763ffffffff1660e01b8152600401612d1696959493929190614fa0565b600060405180830381600087803b158015612d3057600080fd5b505af1158015612d44573d6000803e3d6000fd5b5050505050505b6001856000808152602001908152602001600020541415612e1a57600a60009054906101000a900473ffffffffffffffffffffffffffffffffffffffff1673ffffffffffffffffffffffffffffffffffffffff16632e807c9d866000600981526020019081526020016000205487600060058152602001908152602001600020546040518363ffffffff1660e01b8152600401612de9929190615533565b60006040518083038186803b158015612e0157600080fd5b505afa158015612e15573d6000803e3d6000fd5b505050505b846000808152602001908152602001600020548886600060058152602001908152602001600020547fd13b7e2eabd02f4dbc1780c7d1f308a13aa0847100c5ea782274bfd5c7821ad98c4243604051612e7593929190615609565b60405180910390a4505050505050505050565b60405180608001604052806004905b6060815260200190600190039081612e975790505090565b6000612ec2612ebd84615766565b615741565b90508082856020860282011115612ed857600080fd5b60005b85811015612f085781612eee8882613790565b845260208401935060208301925050600181019050612edb565b5050509392505050565b6000612f25612f208461578c565b615741565b90508082856020860282011115612f3b57600080fd5b60005b85811015612f8557815167ffffffffffffffff811115612f5d57600080fd5b808601612f6a8982613931565b85526020850194506020840193505050600181019050612f3e565b5050509392505050565b6000612fa2612f9d846157b2565b615741565b90508082856020860282011115612fb857600080fd5b60005b8581101561300257815167ffffffffffffffff811115612fda57600080fd5b808601612fe78982613931565b85526020850194506020840193505050600181019050612fbb565b5050509392505050565b600061301f61301a846157d8565b615741565b9050808285602086028201111561303557600080fd5b60005b8581101561307f57813567ffffffffffffffff81111561305757600080fd5b808601613064898261397f565b85526020850194506020840193505050600181019050613038565b5050509392505050565b600061309c613097846157d8565b615741565b905080828560208602820111156130b257600080fd5b60005b858110156130fc57815167ffffffffffffffff8111156130d457600080fd5b8086016130e189826139a9565b855260208501945060208401935050506001810190506130b5565b5050509392505050565b6000613119613114846157fe565b615741565b9050808382526020820190508285602086028201111561313857600080fd5b60005b8581101561318257813567ffffffffffffffff81111561315a57600080fd5b808601613167898261397f565b8552602085019450602084019350505060018101905061313b565b5050509392505050565b600061319f61319a846157fe565b615741565b905080838252602082019050828560208602820111156131be57600080fd5b60005b8581101561320857815167ffffffffffffffff8111156131e057600080fd5b8086016131ed89826139a9565b855260208501945060208401935050506001810190506131c1565b5050509392505050565b60006132256132208461582a565b615741565b9050808285602086028201111561323b57600080fd5b60005b8581101561328557815167ffffffffffffffff81111561325d57600080fd5b80860161326a8982613a72565b8552602085019450602084019350505060018101905061323e565b5050509392505050565b60006132a261329d84615850565b615741565b905080828560208602820111156132b857600080fd5b60005b8581101561330257815167ffffffffffffffff8111156132da57600080fd5b8086016132e78982613a72565b855260208501945060208401935050506001810190506132bb565b5050509392505050565b600061331f61331a84615876565b615741565b9050808285602086028201111561333557600080fd5b60005b8581101561337f57813567ffffffffffffffff81111561335757600080fd5b8086016133648982613a48565b85526020850194506020840193505050600181019050613338565b5050509392505050565b600061339c61339784615876565b615741565b905080828560208602820111156133b257600080fd5b60005b858110156133fc57815167ffffffffffffffff8111156133d457600080fd5b8086016133e18982613a72565b855260208501945060208401935050506001810190506133b5565b5050509392505050565b60006134196134148461589c565b615741565b9050808285602086028201111561342f57600080fd5b60005b8581101561347957815167ffffffffffffffff81111561345157600080fd5b80860161345e8982613a72565b85526020850194506020840193505050600181019050613432565b5050509392505050565b6000613496613491846158c2565b615741565b905080838252602082019050828560208602820111156134b557600080fd5b60005b858110156134ff57813567ffffffffffffffff8111156134d757600080fd5b8086016134e48982613a48565b855260208501945060208401935050506001810190506134b8565b5050509392505050565b600061351c613517846158c2565b615741565b9050808382526020820190508285602086028201111561353b57600080fd5b60005b8581101561358557815167ffffffffffffffff81111561355d57600080fd5b80860161356a8982613a72565b8552602085019450602084019350505060018101905061353e565b5050509392505050565b60006135a261359d846158ee565b615741565b905080828560208602820111156135b857600080fd5b60005b858110156135e857816135ce8882613ab1565b8452602084019350602083019250506001810190506135bb565b5050509392505050565b600061360561360084615914565b615741565b9050808285602086028201111561361b57600080fd5b60005b8581101561364b57816136318882613af7565b84526020840193506020830192505060018101905061361e565b5050509392505050565b60006136686136638461593a565b615741565b9050808285602086028201111561367e57600080fd5b60005b858110156136ae57816136948882613af7565b845260208401935060208301925050600181019050613681565b5050509392505050565b60006136cb6136c684615960565b615741565b905080838252602082019050828560208602820111156136ea57600080fd5b60005b8581101561371a57816137008882613ae2565b8452602084019350602083019250506001810190506136ed565b5050509392505050565b600061373761373284615960565b615741565b9050808382526020820190508285602086028201111561375657600080fd5b60005b85811015613786578161376c8882613af7565b845260208401935060208301925050600181019050613759565b5050509392505050565b60008135905061379f81615dfd565b92915050565b600082601f8301126137b657600080fd5b60076137c3848285612eaf565b91505092915050565b600082601f8301126137dd57600080fd5b60036137ea848285612f12565b91505092915050565b600082601f83011261380457600080fd5b6005613811848285612f8f565b91505092915050565b600082601f83011261382b57600080fd5b600261383884828561300c565b91505092915050565b600082601f83011261385257600080fd5b600261385f848285613089565b91505092915050565b600082601f83011261387957600080fd5b8135613889848260208601613106565b91505092915050565b600082601f8301126138a357600080fd5b81516138b384826020860161318c565b91505092915050565b600082601f8301126138cd57600080fd5b60026138da848285613212565b91505092915050565b600082601f8301126138f457600080fd5b600461390184828561328f565b91505092915050565b600082601f83011261391b57600080fd5b600561392884828561330c565b91505092915050565b600082601f83011261394257600080fd5b600561394f848285613389565b91505092915050565b600082601f83011261396957600080fd5b6006613976848285613406565b91505092915050565b600082601f83011261399057600080fd5b81356139a0848260208601613483565b91505092915050565b600082601f8301126139ba57600080fd5b81516139ca848260208601613509565b91505092915050565b600082601f8301126139e457600080fd5b60036139f184828561358f565b91505092915050565b600082601f830112613a0b57600080fd5b6015613a188482856135f2565b91505092915050565b600082601f830112613a3257600080fd5b6003613a3f848285613655565b91505092915050565b600082601f830112613a5957600080fd5b8135613a698482602086016136b8565b91505092915050565b600082601f830112613a8357600080fd5b8151613a93848260208601613724565b91505092915050565b600081359050613aab81615e14565b92915050565b600081519050613ac081615e14565b92915050565b60006101a08284031215613ad957600080fd5b81905092915050565b600081359050613af181615e2b565b92915050565b600081519050613b0681615e2b565b92915050565b60008060006101208486031215613b2257600080fd5b6000613b30868287016137a5565b93505060e084013567ffffffffffffffff811115613b4d57600080fd5b613b5986828701613868565b92505061010084013567ffffffffffffffff811115613b7757600080fd5b613b838682870161397f565b9150509250925092565b600060208284031215613b9f57600080fd5b600082015167ffffffffffffffff811115613bb957600080fd5b613bc5848285016137cc565b91505092915050565b600060208284031215613be057600080fd5b600082015167ffffffffffffffff811115613bfa57600080fd5b613c06848285016137f3565b91505092915050565b600060208284031215613c2157600080fd5b600082015167ffffffffffffffff811115613c3b57600080fd5b613c4784828501613841565b91505092915050565b600060208284031215613c6257600080fd5b600082015167ffffffffffffffff811115613c7c57600080fd5b613c8884828501613892565b91505092915050565b60008060408385031215613ca457600080fd5b600083015167ffffffffffffffff811115613cbe57600080fd5b613cca85828601613892565b925050602083015167ffffffffffffffff811115613ce757600080fd5b613cf3858286016138e3565b9150509250929050565b600060208284031215613d0f57600080fd5b600082015167ffffffffffffffff811115613d2957600080fd5b613d3584828501613931565b91505092915050565b60008060408385031215613d5157600080fd5b600083015167ffffffffffffffff811115613d6b57600080fd5b613d7785828601613931565b925050602083015167ffffffffffffffff811115613d9457600080fd5b613da0858286016138bc565b9150509250929050565b600080600060608486031215613dbf57600080fd5b600084013567ffffffffffffffff811115613dd957600080fd5b613de58682870161390a565b9350506020613df686828701613ae2565b9250506040613e0786828701613ae2565b9150509250925092565b600060208284031215613e2357600080fd5b600082015167ffffffffffffffff811115613e3d57600080fd5b613e4984828501613958565b91505092915050565b600060208284031215613e6457600080fd5b600082015167ffffffffffffffff811115613e7e57600080fd5b613e8a848285016139a9565b91505092915050565b6000806103008385031215613ea757600080fd5b6000613eb5858286016139fa565b9250506102a0613ec7858286016139d3565b9150509250929050565b600060608284031215613ee357600080fd5b6000613ef184828501613a21565b91505092915050565b600060208284031215613f0c57600080fd5b600082013567ffffffffffffffff811115613f2657600080fd5b613f3284828501613a48565b91505092915050565b600060208284031215613f4d57600080fd5b600082015167ffffffffffffffff811115613f6757600080fd5b613f7384828501613a72565b91505092915050565b600080600060608486031215613f9157600080fd5b600084013567ffffffffffffffff811115613fab57600080fd5b613fb786828701613a48565b935050602084013567ffffffffffffffff811115613fd457600080fd5b613fe086828701613a48565b9250506040613ff186828701613ae2565b9150509250925092565b6000806040838503121561400e57600080fd5b600083013567ffffffffffffffff81111561402857600080fd5b61403485828601613a48565b925050602061404585828601613a9c565b9150509250929050565b6000806000806080858703121561406557600080fd5b600085013567ffffffffffffffff81111561407f57600080fd5b61408b87828801613a48565b945050602061409c87828801613ae2565b935050604085013567ffffffffffffffff8111156140b957600080fd5b6140c58782880161397f565b925050606085013567ffffffffffffffff8111156140e257600080fd5b6140ee8782880161381a565b91505092959194509250565b60006020828403121561410c57600080fd5b600061411a84828501613a9c565b91505092915050565b60006020828403121561413557600080fd5b600061414384828501613ab1565b91505092915050565b60006020828403121561415e57600080fd5b600082013567ffffffffffffffff81111561417857600080fd5b61418484828501613ac6565b91505092915050565b60006020828403121561419f57600080fd5b60006141ad84828501613af7565b91505092915050565b600080604083850312156141c957600080fd5b60006141d785828601613ae2565b92505060206141e885828601613a9c565b9150509250929050565b6000806040838503121561420557600080fd5b600061421385828601613af7565b925050602061422485828601613af7565b9150509250929050565b600061423a83836145f5565b905092915050565b600061424e83836147c9565b905092915050565b60006142628383614928565b905092915050565b60006142768383614af9565b905092915050565b600061428a8383614c13565b905092915050565b600061429e8383614cd2565b60208301905092915050565b60006142b68383614cff565b60208301905092915050565b60006142cd82615a16565b6142d78185615b36565b9350836020820285016142e98561598c565b8060005b858110156143255784840389528151614306858261422e565b945061431183615a9a565b925060208a019950506001810190506142ed565b50829750879550505050505092915050565b600061434282615a21565b61434c8185615b41565b93508360208202850161435e85615996565b8060005b8581101561439a578484038952815161437b8582614242565b945061438683615aa7565b925060208a01995050600181019050614362565b50829750879550505050505092915050565b60006143b782615a21565b6143c18185615b4c565b9350836020820285016143d385615996565b8060005b8581101561440f57848403895281516143f08582614256565b94506143fb83615aa7565b925060208a019950506001810190506143d7565b50829750879550505050505092915050565b600061442c82615a2c565b6144368185615b57565b935083602082028501614448856159a0565b8060005b8581101561448457848403895281516144658582614242565b945061447083615ab4565b925060208a0199505060018101905061444c565b50829750879550505050505092915050565b60006144a182615a2c565b6144ab8185615b68565b9350836020820285016144bd856159a0565b8060005b858110156144f957848403895281516144da8582614256565b94506144e583615ab4565b925060208a019950506001810190506144c1565b50829750879550505050505092915050565b600061451682615a37565b6145208185615b79565b935083602082028501614532856159b0565b8060005b8581101561456e578484038952815161454f858261426a565b945061455a83615ac1565b925060208a01995050600181019050614536565b50829750879550505050505092915050565b600061458b82615a42565b6145958185615b84565b9350836020820285016145a7856159ba565b8060005b858110156145e357848403895281516145c4858261426a565b94506145cf83615ace565b925060208a019950506001810190506145ab565b50829750879550505050505092915050565b600061460082615a4d565b61460a8185615b8f565b93508360208202850161461c856159c4565b8060005b858110156146585784840389528151614639858261426a565b945061464483615adb565b925060208a01995050600181019050614620565b50829750879550505050505092915050565b600061467582615a4d565b61467f8185615b9a565b935083602082028501614691856159c4565b8060005b858110156146cd57848403895281516146ae858261426a565b94506146b983615adb565b925060208a01995050600181019050614695565b50829750879550505050505092915050565b60006146ea82615a4d565b6146f48185615ba5565b935083602082028501614706856159c4565b8060005b858110156147425784840389528151614723858261427e565b945061472e83615adb565b925060208a0199505060018101905061470a565b50829750879550505050505092915050565b600061475f82615a58565b6147698185615bb0565b93508360208202850161477b856159ce565b8060005b858110156147b75784840389528151614798858261426a565b94506147a383615ae8565b925060208a0199505060018101905061477f565b50829750879550505050505092915050565b60006147d482615a63565b6147de8185615bbb565b9350836020820285016147f0856159d8565b8060005b8581101561482c578484038952815161480d858261426a565b945061481883615af5565b925060208a019950506001810190506147f4565b50829750879550505050505092915050565b600061484982615a63565b6148538185615bcc565b935083602082028501614865856159d8565b8060005b858110156148a15784840389528151614882858261426a565b945061488d83615af5565b925060208a01995050600181019050614869565b50829750879550505050505092915050565b60006148be82615a63565b6148c88185615bdd565b9350836020820285016148da856159d8565b8060005b8581101561491657848403895281516148f7858261427e565b945061490283615af5565b925060208a019950506001810190506148de565b50829750879550505050505092915050565b600061493382615a63565b61493d8185615bee565b93508360208202850161494f856159d8565b8060005b8581101561498b578484038952815161496c858261427e565b945061497783615af5565b925060208a01995050600181019050614953565b50829750879550505050505092915050565b6149a681615a6e565b6149b08184615bff565b92506149bb826159e8565b8060005b838110156149ec5781516149d38782614292565b96506149de83615b02565b9250506001810190506149bf565b505050505050565b6149fd81615a6e565b614a078184615c0a565b9250614a12826159e8565b8060005b83811015614a43578151614a2a87826142aa565b9650614a3583615b02565b925050600181019050614a16565b505050505050565b614a5481615a79565b614a5e8184615c15565b9250614a69826159f2565b8060005b83811015614a9a578151614a8187826142aa565b9650614a8c83615b0f565b925050600181019050614a6d565b505050505050565b614aab81615a84565b614ab58184615c20565b9250614ac0826159fc565b8060005b83811015614af1578151614ad88782614292565b9650614ae383615b1c565b925050600181019050614ac4565b505050505050565b6000614b0482615a8f565b614b0e8185615c2b565b9350614b1983615a06565b8060005b83811015614b4a578151614b318882614292565b9750614b3c83615b29565b925050600181019050614b1d565b5085935050505092915050565b6000614b6282615a8f565b614b6c8185615c3c565b9350614b7783615a06565b8060005b83811015614ba8578151614b8f8882614292565b9750614b9a83615b29565b925050600181019050614b7b565b5085935050505092915050565b6000614bc082615a8f565b614bca8185615c4d565b9350614bd583615a06565b8060005b83811015614c06578151614bed88826142aa565b9750614bf883615b29565b925050600181019050614bd9565b5085935050505092915050565b6000614c1e82615a8f565b614c288185615c5e565b9350614c3383615a06565b8060005b83811015614c64578151614c4b88826142aa565b9750614c5683615b29565b925050600181019050614c37565b5085935050505092915050565b614c7a81615c81565b82525050565b614c8981615c81565b82525050565b614c9881615ccc565b82525050565b614ca781615cde565b82525050565b614cb681615cf0565b82525050565b614cc581615d02565b82525050565b8082525050565b614cdb81615cad565b82525050565b614cea81615cad565b82525050565b614cf981615cad565b82525050565b614d0881615cad565b82525050565b60006102c0820190508181036000830152614d2981856142c2565b9050614d38602083018461499d565b9392505050565b60006020820190508181036000830152614d598184614496565b905092915050565b60006020820190508181036000830152614d7b8184614421565b905092915050565b60006040820190508181036000830152614d9d8185614421565b90508181036020830152614db18184614580565b90509392505050565b60006060820190508181036000830152614dd48186614496565b90508181036020830152614de881856148b3565b9050614df76040830184614ccb565b949350505050565b60006102c0820190508181036000830152614e1a8185614496565b9050614e2960208301846149f4565b9392505050565b60006102e0820190508181036000830152614e4b8186614421565b9050614e5a602083018561499d565b8181036102c0830152614e6d818461483e565b9050949350505050565b600060e0820190508181036000830152614e91818761466a565b9050614ea06020830186614aa2565b614ead60a0830185614c71565b81810360c0830152614ebf818461450b565b905095945050505050565b60006040820190508181036000830152614ee4818561466a565b9050614ef36020830184614c8f565b9392505050565b600060c0820190508181036000830152614f14818961466a565b9050614f236020830188614c8f565b614f306040830187614c8f565b614f3d6060830186614c71565b614f4a6080830185614c71565b614f5760a0830184614c9e565b979650505050505050565b60006060820190508181036000830152614f7c81866146df565b9050614f8b6020830185614ccb565b614f986040830184614cf0565b949350505050565b600060c0820190508181036000830152614fba818961466a565b9050614fc96020830188614ce1565b614fd66040830187614ce1565b614fe36060830186614c71565b614ff06080830185614c71565b614ffd60a0830184614c9e565b979650505050505050565b600060408201905081810360008301526150228185614754565b90506150316020830184614c8f565b9392505050565b60006020820190508181036000830152615052818461483e565b905092915050565b6000608082019050818103600083015261507481876148b3565b90506150836020830186614ccb565b6150906040830185614cf0565b61509d6060830184614cf0565b95945050505050565b600060408201905081810360008301526150c081856148b3565b90506150cf6020830184614cf0565b9392505050565b600060808201905081810360008301526150f081876148b3565b90506150ff6020830186614cf0565b81810360408301526151118185614bb5565b90506151206060830184614cf0565b95945050505050565b600060208201905081810360008301526151438184614b57565b905092915050565b600060608201905081810360008301526151658186614b57565b905081810360208301526151798185614421565b9050818103604083015261518d8184614337565b9050949350505050565b60006102e08201905081810360008301526151b28186614bb5565b905081810360208301526151c68185614496565b90506151d560408301846149f4565b949350505050565b60006103008201905081810360008301526151f88187614bb5565b9050818103602083015261520c8186614496565b905061521b60408301856149f4565b6152296102e0830184614cad565b95945050505050565b600061030082019050818103600083015261524d8187614bb5565b905081810360208301526152618186614496565b905061527060408301856149f4565b61527e6102e0830184614cbc565b95945050505050565b600060608201905081810360008301526152a18186614bb5565b905081810360208301526152b58185614496565b905081810360408301526152c98184614bb5565b9050949350505050565b60006103208201905081810360008301526152ee8188614bb5565b905081810360208301526153028187614496565b905081810360408301526153168186614bb5565b9050818103606083015261532a81856143ac565b905061533960808301846149f4565b9695505050505050565b6000604082019050818103600083015261535d8185614bb5565b905061536c6020830184614ccb565b9392505050565b6000608082019050818103600083015261538d8187614bb5565b905061539c6020830186614ccb565b81810360408301526153ae8185614bb5565b90506153bd6060830184614cf0565b95945050505050565b600060608201905081810360008301526153e08186614bb5565b90506153ef6020830185614ccb565b6153fc6040830184614c80565b949350505050565b6000604082019050818103600083015261541e8185614b57565b905061542d6020830184614ce1565b9392505050565b600060c082019050818103600083015261544e8187614bb5565b905061545d6020830186614cf0565b61546a6040830185614a4b565b81810360a083015261547c8184614bb5565b905095945050505050565b600060608201905081810360008301526154a18186614b57565b90506154b06020830185614ce1565b6154bd6040830184614ce1565b949350505050565b60006060820190506154da6000830186614ccb565b6154e76020830185614cf0565b6154f46040830184614c80565b949350505050565b60006060820190506155116000830186614cf0565b61551e6020830185614ccb565b61552b6040830184614c80565b949350505050565b60006040820190506155486000830185614ce1565b6155556020830184614ce1565b9392505050565b600060c0820190506155716000830187614cf0565b61557e6020830186614cf0565b61558b6040830185614a4b565b81810360a083015261559d81846148b3565b905095945050505050565b600060c0820190506155bd6000830189614ce1565b6155ca6020830188614ce1565b6155d76040830187614c71565b6155e46060830186614ce1565b6155f16080830185614ce1565b6155fe60a0830184614ce1565b979650505050505050565b600060608201905061561e6000830186614ce1565b61562b6020830185614ce1565b6156386040830184614ce1565b949350505050565b600060a0820190506156556000830188614ce1565b6156626020830187614ce1565b61566f6040830186614ce1565b61567c6060830185614ce1565b6156896080830184614ce1565b9695505050505050565b600080833560016020038436030381126156ac57600080fd5b80840192508235915067ffffffffffffffff8211156156ca57600080fd5b6020830192506020820236038313156156e257600080fd5b509250929050565b6000808335600160200384360303811261570357600080fd5b80840192508235915067ffffffffffffffff82111561572157600080fd5b60208301925060208202360383131561573957600080fd5b509250929050565b600061574b61575c565b90506157578282615d14565b919050565b6000604051905090565b600067ffffffffffffffff82111561578157615780615dbd565b5b602082029050919050565b600067ffffffffffffffff8211156157a7576157a6615dbd565b5b602082029050919050565b600067ffffffffffffffff8211156157cd576157cc615dbd565b5b602082029050919050565b600067ffffffffffffffff8211156157f3576157f2615dbd565b5b602082029050919050565b600067ffffffffffffffff82111561581957615818615dbd565b5b602082029050602081019050919050565b600067ffffffffffffffff82111561584557615844615dbd565b5b602082029050919050565b600067ffffffffffffffff82111561586b5761586a615dbd565b5b602082029050919050565b600067ffffffffffffffff82111561589157615890615dbd565b5b602082029050919050565b600067ffffffffffffffff8211156158b7576158b6615dbd565b5b602082029050919050565b600067ffffffffffffffff8211156158dd576158dc615dbd565b5b602082029050602081019050919050565b600067ffffffffffffffff82111561590957615908615dbd565b5b602082029050919050565b600067ffffffffffffffff82111561592f5761592e615dbd565b5b602082029050919050565b600067ffffffffffffffff82111561595557615954615dbd565b5b602082029050919050565b600067ffffffffffffffff82111561597b5761597a615dbd565b5b602082029050602081019050919050565b6000819050919050565b6000819050919050565b6000819050602082019050919050565b6000819050919050565b6000819050919050565b6000819050919050565b6000819050919050565b6000819050602082019050919050565b6000819050919050565b6000819050919050565b6000819050919050565b6000819050602082019050919050565b600060059050919050565b600060029050919050565b600081519050919050565b600060029050919050565b600060049050919050565b600060059050919050565b600060069050919050565b600081519050919050565b600060159050919050565b600060039050919050565b600060049050919050565b600081519050919050565b6000602082019050919050565b6000602082019050919050565b6000602082019050919050565b6000602082019050919050565b6000602082019050919050565b6000602082019050919050565b6000602082019050919050565b6000602082019050919050565b6000602082019050919050565b6000602082019050919050565b6000602082019050919050565b6000602082019050919050565b600081905092915050565b600081905092915050565b600081905092915050565b600082825260208201905092915050565b600082825260208201905092915050565b600081905092915050565b600081905092915050565b600081905092915050565b600081905092915050565b600081905092915050565b600081905092915050565b600082825260208201905092915050565b600082825260208201905092915050565b600082825260208201905092915050565b600082825260208201905092915050565b600081905092915050565b600081905092915050565b600081905092915050565b600081905092915050565b600082825260208201905092915050565b600082825260208201905092915050565b600082825260208201905092915050565b600082825260208201905092915050565b6000615c7a82615c8d565b9050919050565b60008115159050919050565b600073ffffffffffffffffffffffffffffffffffffffff82169050919050565b6000819050919050565b6000615cc4368484613483565b905092915050565b6000615cd782615cad565b9050919050565b6000615ce982615cad565b9050919050565b6000615cfb82615cad565b9050919050565b6000615d0d82615cad565b9050919050565b615d1d82615dec565b810181811067ffffffffffffffff82111715615d3c57615d3b615dbd565b5b80604052505050565b6000615d5082615cad565b91507fffffffffffffffffffffffffffffffffffffffffffffffffffffffffffffffff821415615d8357615d82615d8e565b5b600182019050919050565b7f4e487b7100000000000000000000000000000000000000000000000000000000600052601160045260246000fd5b7f4e487b7100000000000000000000000000000000000000000000000000000000600052604160045260246000fd5b6000601f19601f8301169050919050565b615e0681615c6f565b8114615e1157600080fd5b50565b615e1d81615c81565b8114615e2857600080fd5b50565b615e3481615cad565b8114615e3f57600080fd5b5056fea264697066735822122003915dbdba84efa48a46f512a8068782a95e2bc55e84c7e4e7a5cdcb71e567f764736f6c63430008040033",
  "linkReferences": {
    "contracts/E5D/E3.sol": {
      "E3": [
        {
          "length": 20,
          "start": 4679
        }
      ]
    },
    "contracts/E5D/E32.sol": {
      "E32": [
        {
          "length": 20,
          "start": 10527
        }
      ]
    },
    "contracts/E5D/E33.sol": {
      "E33": [
        {
          "length": 20,
          "start": 3001
        },
        {
          "length": 20,
          "start": 11470
        }
      ]
    },
    "contracts/F5D/F32.sol": {
      "F32": [
        {
          "length": 20,
          "start": 7497
        },
        {
          "length": 20,
          "start": 7861
        },
        {
          "length": 20,
          "start": 8437
        }
      ]
    },
    "contracts/G5D/G3.sol": {
      "G3": [
        {
          "length": 20,
          "start": 1061
        },
        {
          "length": 20,
          "start": 2244
        },
        {
          "length": 20,
          "start": 3323
        },
        {
          "length": 20,
          "start": 8747
        },
        {
          "length": 20,
          "start": 9002
        },
        {
          "length": 20,
          "start": 9155
        },
        {
          "length": 20,
          "start": 10387
        },
        {
          "length": 20,
          "start": 10675
        },
        {
          "length": 20,
          "start": 10842
        }
      ]
    },
    "contracts/G5D/G33.sol": {
      "G33": [
        {
          "length": 20,
          "start": 4300
        },
        {
          "length": 20,
          "start": 5003
        },
        {
          "length": 20,
          "start": 6229
        },
        {
          "length": 20,
          "start": 6691
        },
        {
          "length": 20,
          "start": 7054
        }
      ]
    }
  },
  "deployedLinkReferences": {
    "contracts/E5D/E3.sol": {
      "E3": [
        {
          "length": 20,
          "start": 4360
        }
      ]
    },
    "contracts/E5D/E32.sol": {
      "E32": [
        {
          "length": 20,
          "start": 10208
        }
      ]
    },
    "contracts/E5D/E33.sol": {
      "E33": [
        {
          "length": 20,
          "start": 2682
        },
        {
          "length": 20,
          "start": 11151
        }
      ]
    },
    "contracts/F5D/F32.sol": {
      "F32": [
        {
          "length": 20,
          "start": 7178
        },
        {
          "length": 20,
          "start": 7542
        },
        {
          "length": 20,
          "start": 8118
        }
      ]
    },
    "contracts/G5D/G3.sol": {
      "G3": [
        {
          "length": 20,
          "start": 742
        },
        {
          "length": 20,
          "start": 1925
        },
        {
          "length": 20,
          "start": 3004
        },
        {
          "length": 20,
          "start": 8428
        },
        {
          "length": 20,
          "start": 8683
        },
        {
          "length": 20,
          "start": 8836
        },
        {
          "length": 20,
          "start": 10068
        },
        {
          "length": 20,
          "start": 10356
        },
        {
          "length": 20,
          "start": 10523
        }
      ]
    },
    "contracts/G5D/G33.sol": {
      "G33": [
        {
          "length": 20,
          "start": 3981
        },
        {
          "length": 20,
          "start": 4684
        },
        {
          "length": 20,
          "start": 5910
        },
        {
          "length": 20,
          "start": 6372
        },
        {
          "length": 20,
          "start": 6735
        }
      ]
    }
  }
}