{
  "_format": "hh-sol-artifact-1",
  "contractName": "H5",
  "sourceName": "contracts/H5D/H5.sol",
  "abi": [
    {
      "inputs": [
        {
          "internalType": "address",
          "name": "p1",
          "type": "address"
        }
      ],
      "stateMutability": "nonpayable",
      "type": "constructor"
    },
    {
      "anonymous": false,
      "inputs": [
        {
          "indexed": true,
          "internalType": "uint256",
          "name": "p1",
          "type": "uint256"
        },
        {
          "indexed": true,
          "internalType": "uint256",
          "name": "p2",
          "type": "uint256"
        },
        {
          "indexed": true,
          "internalType": "uint256",
          "name": "p3",
          "type": "uint256"
        },
        {
          "indexed": false,
          "internalType": "uint256",
          "name": "p4",
          "type": "uint256"
        },
        {
          "indexed": false,
          "internalType": "uint256",
          "name": "p5",
          "type": "uint256"
        },
        {
          "indexed": false,
          "internalType": "uint256",
          "name": "p6",
          "type": "uint256"
        },
        {
          "indexed": false,
          "internalType": "uint256",
          "name": "p7",
          "type": "uint256"
        },
        {
          "indexed": false,
          "internalType": "uint256",
          "name": "p8",
          "type": "uint256"
        },
        {
          "indexed": false,
          "internalType": "uint256",
          "name": "p9",
          "type": "uint256"
        },
        {
          "indexed": false,
          "internalType": "uint256",
          "name": "p10",
          "type": "uint256"
        }
      ],
      "name": "e1",
      "type": "event"
    },
    {
      "anonymous": false,
      "inputs": [
        {
          "indexed": true,
          "internalType": "uint256",
          "name": "p1",
          "type": "uint256"
        },
        {
          "indexed": false,
          "internalType": "uint256",
          "name": "p2",
          "type": "uint256"
        },
        {
          "indexed": false,
          "internalType": "uint256",
          "name": "p3",
          "type": "uint256"
        },
        {
          "indexed": false,
          "internalType": "uint256",
          "name": "p4",
          "type": "uint256"
        },
        {
          "indexed": false,
          "internalType": "uint256",
          "name": "p5",
          "type": "uint256"
        }
      ],
      "name": "e2",
      "type": "event"
    },
    {
      "anonymous": false,
      "inputs": [
        {
          "indexed": true,
          "internalType": "uint256",
          "name": "p1",
          "type": "uint256"
        },
        {
          "indexed": false,
          "internalType": "uint256",
          "name": "p2",
          "type": "uint256"
        },
        {
          "indexed": false,
          "internalType": "uint256",
          "name": "p3",
          "type": "uint256"
        },
        {
          "indexed": false,
          "internalType": "uint256",
          "name": "p4",
          "type": "uint256"
        },
        {
          "indexed": false,
          "internalType": "uint256",
          "name": "p5",
          "type": "uint256"
        },
        {
          "indexed": false,
          "internalType": "uint256",
          "name": "p6",
          "type": "uint256"
        },
        {
          "indexed": false,
          "internalType": "uint256",
          "name": "p7",
          "type": "uint256"
        }
      ],
      "name": "e3",
      "type": "event"
    },
    {
      "inputs": [
        {
          "internalType": "address[7]",
          "name": "p1",
          "type": "address[7]"
        },
        {
          "internalType": "uint256[][][]",
          "name": "p2",
          "type": "uint256[][][]"
        },
        {
          "internalType": "uint256[][]",
          "name": "p3",
          "type": "uint256[][]"
        }
      ],
      "name": "f162",
      "outputs": [],
      "stateMutability": "nonpayable",
      "type": "function"
    },
    {
      "inputs": [
        {
          "components": [
            {
              "internalType": "uint256",
              "name": "sv1",
              "type": "uint256"
            },
            {
              "internalType": "bool",
              "name": "sv2",
              "type": "bool"
            },
            {
              "internalType": "uint256[]",
              "name": "sv3",
              "type": "uint256[]"
            },
            {
              "internalType": "uint256[][]",
              "name": "sv4",
              "type": "uint256[][]"
            },
            {
              "internalType": "address[]",
              "name": "sv5",
              "type": "address[]"
            },
            {
              "internalType": "string[][]",
              "name": "sv6",
              "type": "string[][]"
            },
            {
              "internalType": "uint256",
              "name": "t",
              "type": "uint256"
            },
            {
              "internalType": "uint256",
              "name": "sv7",
              "type": "uint256"
            },
            {
              "internalType": "uint256",
              "name": "sv8",
              "type": "uint256"
            },
            {
              "internalType": "uint256[2]",
              "name": "sv9",
              "type": "uint256[2]"
            },
            {
              "internalType": "bool",
              "name": "sv10",
              "type": "bool"
            },
            {
              "internalType": "uint256[]",
              "name": "sv11",
              "type": "uint256[]"
            }
          ],
          "internalType": "struct E3.TD",
          "name": "p1",
          "type": "tuple"
        }
      ],
      "name": "f176",
      "outputs": [],
      "stateMutability": "nonpayable",
      "type": "function"
    },
    {
      "inputs": [
        {
          "components": [
            {
              "internalType": "uint256",
              "name": "sv1",
              "type": "uint256"
            },
            {
              "internalType": "bool",
              "name": "sv2",
              "type": "bool"
            },
            {
              "internalType": "uint256[]",
              "name": "sv3",
              "type": "uint256[]"
            },
            {
              "internalType": "uint256[][]",
              "name": "sv4",
              "type": "uint256[][]"
            },
            {
              "internalType": "address[]",
              "name": "sv5",
              "type": "address[]"
            },
            {
              "internalType": "string[][]",
              "name": "sv6",
              "type": "string[][]"
            },
            {
              "internalType": "uint256",
              "name": "t",
              "type": "uint256"
            },
            {
              "internalType": "uint256",
              "name": "sv7",
              "type": "uint256"
            },
            {
              "internalType": "uint256",
              "name": "sv8",
              "type": "uint256"
            },
            {
              "internalType": "uint256[2]",
              "name": "sv9",
              "type": "uint256[2]"
            },
            {
              "internalType": "bool",
              "name": "sv10",
              "type": "bool"
            },
            {
              "internalType": "uint256[]",
              "name": "sv11",
              "type": "uint256[]"
            }
          ],
          "internalType": "struct E3.TD",
          "name": "p1",
          "type": "tuple"
        }
      ],
      "name": "f179",
      "outputs": [
        {
          "internalType": "uint256[3]",
          "name": "v1",
          "type": "uint256[3]"
        }
      ],
      "stateMutability": "nonpayable",
      "type": "function"
    },
    {
      "inputs": [
        {
          "internalType": "uint256[][5]",
          "name": "p1",
          "type": "uint256[][5]"
        },
        {
          "internalType": "uint256[4]",
          "name": "p2",
          "type": "uint256[4]"
        },
        {
          "internalType": "bool",
          "name": "p3",
          "type": "bool"
        },
        {
          "internalType": "uint256[][2]",
          "name": "p4",
          "type": "uint256[][2]"
        }
      ],
      "name": "f180",
      "outputs": [
        {
          "internalType": "uint256[3]",
          "name": "v1",
          "type": "uint256[3]"
        }
      ],
      "stateMutability": "nonpayable",
      "type": "function"
    },
    {
      "inputs": [
        {
          "internalType": "uint256[][5]",
          "name": "p1",
          "type": "uint256[][5]"
        },
        {
          "internalType": "uint256",
          "name": "p2",
          "type": "uint256"
        }
      ],
      "name": "f198",
      "outputs": [],
      "stateMutability": "nonpayable",
      "type": "function"
    },
    {
      "inputs": [
        {
          "internalType": "uint256[][6]",
          "name": "p1",
          "type": "uint256[][6]"
        },
        {
          "internalType": "uint256",
          "name": "p2",
          "type": "uint256"
        }
      ],
      "name": "f230",
      "outputs": [],
      "stateMutability": "nonpayable",
      "type": "function"
    },
    {
      "inputs": [
        {
          "internalType": "uint256[]",
          "name": "p1",
          "type": "uint256[]"
        },
        {
          "internalType": "uint256[]",
          "name": "p2",
          "type": "uint256[]"
        }
      ],
      "name": "f241",
      "outputs": [
        {
          "internalType": "uint256[4][]",
          "name": "",
          "type": "uint256[4][]"
        }
      ],
      "stateMutability": "view",
      "type": "function"
    },
    {
      "inputs": [
        {
          "internalType": "uint256[]",
          "name": "p1",
          "type": "uint256[]"
        },
        {
          "internalType": "uint256[][]",
          "name": "p2",
          "type": "uint256[][]"
        },
        {
          "internalType": "uint256[]",
          "name": "p3",
          "type": "uint256[]"
        }
      ],
      "name": "f245",
      "outputs": [
        {
          "internalType": "uint256[][]",
          "name": "v1",
          "type": "uint256[][]"
        }
      ],
      "stateMutability": "view",
      "type": "function"
    },
    {
      "inputs": [
        {
          "internalType": "uint256[]",
          "name": "p1",
          "type": "uint256[]"
        }
      ],
      "name": "f247",
      "outputs": [
        {
          "internalType": "uint256[]",
          "name": "v1",
          "type": "uint256[]"
        }
      ],
      "stateMutability": "view",
      "type": "function"
    },
    {
      "inputs": [],
      "name": "f258",
      "outputs": [
        {
          "internalType": "uint256",
          "name": "",
          "type": "uint256"
        }
      ],
      "stateMutability": "view",
      "type": "function"
    },
    {
      "inputs": [
        {
          "internalType": "uint256",
          "name": "p1",
          "type": "uint256"
        },
        {
          "internalType": "uint256",
          "name": "p2",
          "type": "uint256"
        },
        {
          "internalType": "uint256",
          "name": "p3",
          "type": "uint256"
        },
        {
          "internalType": "uint256",
          "name": "p4",
          "type": "uint256"
        },
        {
          "internalType": "uint256",
          "name": "p5",
          "type": "uint256"
        }
      ],
      "name": "f286",
      "outputs": [
        {
          "internalType": "uint256",
          "name": "",
          "type": "uint256"
        }
      ],
      "stateMutability": "view",
      "type": "function"
    },
    {
      "inputs": [
        {
          "internalType": "uint256",
          "name": "p1",
          "type": "uint256"
        }
      ],
      "name": "f85",
      "outputs": [
        {
          "internalType": "uint256[][]",
          "name": "",
          "type": "uint256[][]"
        }
      ],
      "stateMutability": "view",
      "type": "function"
    },
    {
      "inputs": [
        {
          "internalType": "uint256[]",
          "name": "p1",
          "type": "uint256[]"
        }
      ],
      "name": "f86",
      "outputs": [
        {
          "internalType": "uint256[][][]",
          "name": "",
          "type": "uint256[][][]"
        }
      ],
      "stateMutability": "view",
      "type": "function"
    },
    {
      "inputs": [
        {
          "internalType": "uint256[][][]",
          "name": "p1",
          "type": "uint256[][][]"
        }
      ],
      "name": "f88",
      "outputs": [
        {
          "internalType": "uint256[][][2]",
          "name": "",
          "type": "uint256[][][2]"
        }
      ],
      "stateMutability": "view",
      "type": "function"
    }
  ],
  "bytecode": "0x60a060405260008060006101000a81548160ff0219169083151502179055503480156200002b57600080fd5b5060405162005dc038038062005dc08339818101604052810190620000519190620000a6565b8073ffffffffffffffffffffffffffffffffffffffff1660808173ffffffffffffffffffffffffffffffffffffffff1660601b815250505062000120565b600081519050620000a08162000106565b92915050565b600060208284031215620000b957600080fd5b6000620000c9848285016200008f565b91505092915050565b6000620000df82620000e6565b9050919050565b600073ffffffffffffffffffffffffffffffffffffffff82169050919050565b6200011181620000d2565b81146200011d57600080fd5b50565b60805160601c615c816200013f6000396000610b6a0152615c816000f3fe608060405234801561001057600080fd5b50600436106100ba5760003560e01c806303c0d5d8146100bf5780630ef46749146100db5780631711b18d1461010b5780631a4655c11461013b578063217745431461015757806334ee2caa1461018757806342210e70146101a35780634d009804146101bf578063559c0130146101ef5780635dd9077e1461021f5780636f6830211461024f578063b544588c1461027f578063c59983b8146102af578063c900e7ce146102cd575b600080fd5b6100d960048036038101906100d49190613a6b565b6102fd565b005b6100f560048036038101906100f09190613901565b61049e565b6040516101029190614e3e565b60405180910390f35b610125600480360381019061012091906134fa565b610549565b60405161013291906149e8565b60405180910390f35b61015560048036038101906101509190613755565b6105ea565b005b610171600480360381019061016c919061387f565b610ad0565b60405161017e9190614a2c565b60405180910390f35b6101a1600480360381019061019c9190613479565b610b68565b005b6101bd60048036038101906101b891906137ea565b610e3e565b005b6101d960048036038101906101d49190613a6b565b610fd1565b6040516101e69190614eb3565b60405180910390f35b6102096004803603810190610204919061387f565b6113d2565b6040516102169190614ee9565b60405180910390f35b610239600480360381019061023491906136c2565b61166f565b6040516102469190614eb3565b60405180910390f35b61026960048036038101906102649190613afe565b611c7f565b604051610276919061506a565b60405180910390f35b610299600480360381019061029491906139ff565b611d66565b6040516102a69190614ad8565b60405180910390f35b6102b7611e01565b6040516102c4919061506a565b60405180910390f35b6102e760048036038101906102e29190613aac565b611e44565b6040516102f49190614e3e565b60405180910390f35b3360011515600160008373ffffffffffffffffffffffffffffffffffffffff1673ffffffffffffffffffffffffffffffffffffffff16815260200190815260200160002060009054906101000a900460ff1615151461035b57600080fd5b600082806040019061036d9190615258565b8460c001358181106103a8577f4e487b7100000000000000000000000000000000000000000000000000000000600052603260045260246000fd5b90506020020135905061042a818480606001906103c59190615201565b906103d09190615ac3565b85600001358680604001906103e59190615258565b80806020026020016040519081016040528093929190818152602001838360200280828437600081840152601f19601f82011690508083019250505050505050611edc565b73__$f27e79961c3433e31ab5fa1d53780be647$__6303f9881e61044d83611e44565b6040518263ffffffff1660e01b81526004016104699190614e1c565b60006040518083038186803b15801561048157600080fd5b505af4158015610495573d6000803e3d6000fd5b50505050505050565b606060006104ab85610ad0565b905073__$322b8033ec09b31b83f44ce15d1fa7a4cb$__63f6e0be24868686856040518563ffffffff1660e01b81526004016104ea9493929190614f42565b60006040518083038186803b15801561050257600080fd5b505af4158015610516573d6000803e3d6000fd5b505050506040513d6000823e3d601f19601f8201168201806040525081019061053f919061383e565b9150509392505050565b610551612893565b73__$a8d73648a227029b1a94ace56064e1f587$__6330874d1e848460026040518463ffffffff1660e01b815260040161058d939291906149b6565b60006040518083038186803b1580156105a557600080fd5b505af41580156105b9573d6000803e3d6000fd5b505050506040513d6000823e3d601f19601f820116820180604052508101906105e2919061353f565b905092915050565b3360011515600160008373ffffffffffffffffffffffffffffffffffffffff1673ffffffffffffffffffffffffffffffffffffffff16815260200190815260200160002060009054906101000a900460ff1615151461064857600080fd5b73__$a8d73648a227029b1a94ace56064e1f587$__63fc4c2079846002856040518463ffffffff1660e01b815260040161068493929190614da0565b60006040518083038186803b15801561069c57600080fd5b505af41580156106b0573d6000803e3d6000fd5b5050505060005b836000600581106106f1577f4e487b7100000000000000000000000000000000000000000000000000000000600052603260045260246000fd5b602002015151811015610a1d576000808560046005811061073b577f4e487b7100000000000000000000000000000000000000000000000000000000600052603260045260246000fd5b602002015151141561074d57836107cd565b84600460058110610787577f4e487b7100000000000000000000000000000000000000000000000000000000600052603260045260246000fd5b602002015182815181106107c4577f4e487b7100000000000000000000000000000000000000000000000000000000600052603260045260246000fd5b60200260200101515b905084600060058110610809577f4e487b7100000000000000000000000000000000000000000000000000000000600052603260045260246000fd5b60200201518281518110610846577f4e487b7100000000000000000000000000000000000000000000000000000000600052603260045260246000fd5b60200260200101517f502ae8c5a2aa270b6a5598f8be74006b61cd14c32b816d8bcb96d5e548c4952682876001600581106108aa577f4e487b7100000000000000000000000000000000000000000000000000000000600052603260045260246000fd5b602002015185815181106108e7577f4e487b7100000000000000000000000000000000000000000000000000000000600052603260045260246000fd5b602002602001015188600260058110610929577f4e487b7100000000000000000000000000000000000000000000000000000000600052603260045260246000fd5b60200201518681518110610966577f4e487b7100000000000000000000000000000000000000000000000000000000600052603260045260246000fd5b6020026020010151896003600581106109a8577f4e487b7100000000000000000000000000000000000000000000000000000000600052603260045260246000fd5b602002015187815181106109e5577f4e487b7100000000000000000000000000000000000000000000000000000000600052603260045260246000fd5b60200260200101514243604051610a0196959493929190615131565b60405180910390a2508080610a1590615b4e565b9150506106b7565b5073__$f27e79961c3433e31ab5fa1d53780be647$__63e800c6ab610a7f85600060058110610a75577f4e487b7100000000000000000000000000000000000000000000000000000000600052603260045260246000fd5b6020020151610ad0565b6040518263ffffffff1660e01b8152600401610a9b9190614a0a565b60006040518083038186803b158015610ab357600080fd5b505af4158015610ac7573d6000803e3d6000fd5b50505050505050565b606073__$a8d73648a227029b1a94ace56064e1f587$__63e38b745d8360026040518363ffffffff1660e01b8152600401610b0c929190614fa3565b60006040518083038186803b158015610b2457600080fd5b505af4158015610b38573d6000803e3d6000fd5b505050506040513d6000823e3d601f19601f82011682018060405250810190610b619190613580565b9050919050565b7f000000000000000000000000000000000000000000000000000000000000000073ffffffffffffffffffffffffffffffffffffffff163373ffffffffffffffffffffffffffffffffffffffff16148015610bce575060008054906101000a900460ff16155b610bd757600080fd5b60016000806101000a81548160ff02191690831515021790555060005b6007811015610cb2576001806000868460078110610c3b577f4e487b7100000000000000000000000000000000000000000000000000000000600052603260045260246000fd5b602002016020810190610c4e9190613450565b73ffffffffffffffffffffffffffffffffffffffff1673ffffffffffffffffffffffffffffffffffffffff16815260200190815260200160002060006101000a81548160ff0219169083151502179055508080610caa90615b4e565b915050610bf4565b5082600160078110610ced577f4e487b7100000000000000000000000000000000000000000000000000000000600052603260045260246000fd5b602002016020810190610d009190613450565b600660006101000a81548173ffffffffffffffffffffffffffffffffffffffff021916908373ffffffffffffffffffffffffffffffffffffffff16021790555082600660078110610d7a577f4e487b7100000000000000000000000000000000000000000000000000000000600052603260045260246000fd5b602002016020810190610d8d9190613450565b600560006101000a81548173ffffffffffffffffffffffffffffffffffffffff021916908373ffffffffffffffffffffffffffffffffffffffff16021790555073__$a8d73648a227029b1a94ace56064e1f587$__639146a9f7838360026040518463ffffffff1660e01b8152600401610e0993929190614a4e565b60006040518083038186803b158015610e2157600080fd5b505af4158015610e35573d6000803e3d6000fd5b50505050505050565b3360011515600160008373ffffffffffffffffffffffffffffffffffffffff1673ffffffffffffffffffffffffffffffffffffffff16815260200190815260200160002060009054906101000a900460ff16151514610e9c57600080fd5b600073__$a8d73648a227029b1a94ace56064e1f587$__6359cbc7ab858560026040518463ffffffff1660e01b8152600401610eda93929190614dde565b60006040518083038186803b158015610ef257600080fd5b505af4158015610f06573d6000803e3d6000fd5b505050506040513d6000823e3d601f19601f82011682018060405250810190610f2f9190613602565b9050600560009054906101000a900473ffffffffffffffffffffffffffffffffffffffff1673ffffffffffffffffffffffffffffffffffffffff16636228251b8260008060008060016040518763ffffffff1660e01b8152600401610f9996959493929190614d38565b600060405180830381600087803b158015610fb357600080fd5b505af1158015610fc7573d6000803e3d6000fd5b5050505050505050565b610fd96128ba565b3360011515600160008373ffffffffffffffffffffffffffffffffffffffff1673ffffffffffffffffffffffffffffffffffffffff16815260200190815260200160002060009054906101000a900460ff1615151461103757600080fd5b60008380606001906110499190615201565b6000818110611081577f4e487b7100000000000000000000000000000000000000000000000000000000600052603260045260246000fd5b90506020028101906110939190615258565b60018181106110cb577f4e487b7100000000000000000000000000000000000000000000000000000000600052603260045260246000fd5b90506020020135905060008480606001906110e69190615201565b600081811061111e577f4e487b7100000000000000000000000000000000000000000000000000000000600052603260045260246000fd5b90506020028101906111309190615258565b6000818110611168577f4e487b7100000000000000000000000000000000000000000000000000000000600052603260045260246000fd5b905060200201359050614e2081141561122957600382141561122457600073__$7b11637b326fa12a30ce8fbc20da0b2192$__6386ae6f8b876040518263ffffffff1660e01b81526004016111bd9190615018565b60006040518083038186803b1580156111d557600080fd5b505af41580156111e9573d6000803e3d6000fd5b505050506040513d6000823e3d601f19601f820116820180604052508101906112129190613602565b90506112228187600001356105ea565b505b6113ca565b6175308114156113c95760098214806112425750600882145b1561131e57600080600073__$7b11637b326fa12a30ce8fbc20da0b2192$__630d1b6edb89876040518363ffffffff1660e01b815260040161128592919061503a565b60006040518083038186803b15801561129d57600080fd5b505af41580156112b1573d6000803e3d6000fd5b505050506040513d6000823e3d601f19601f820116820180604052508101906112da9190613643565b92509250925060098514156112fc576112f6838360018461166f565b50611316565b600885141561131557611312838360008461166f565b96505b5b5050506113c8565b60118214156113c757600073__$7b11637b326fa12a30ce8fbc20da0b2192$__632ff1eac8876040518263ffffffff1660e01b81526004016113609190615018565b60006040518083038186803b15801561137857600080fd5b505af415801561138c573d6000803e3d6000fd5b505050506040513d6000823e3d601f19601f820116820180604052508101906113b591906137a9565b90506113c5818760000135610e3e565b505b5b5b5b505050919050565b606060006113df83610ad0565b9050600073__$c1efb2dccb00bdcdb4d2f4fb75b83e81b5$__632ebecaf285846040518363ffffffff1660e01b815260040161141c929190614f0b565b60006040518083038186803b15801561143457600080fd5b505af4158015611448573d6000803e3d6000fd5b505050506040513d6000823e3d601f19601f820116820180604052508101906114719190613602565b9050600073__$f27e79961c3433e31ab5fa1d53780be647$__63596e319884846000600581106114ca577f4e487b7100000000000000000000000000000000000000000000000000000000600052603260045260246000fd5b6020020151436040518463ffffffff1660e01b81526004016114ee93929190614a93565b60006040518083038186803b15801561150657600080fd5b505af415801561151a573d6000803e3d6000fd5b505050506040513d6000823e3d601f19601f8201168201806040525081019061154391906138c0565b905073__$2c5481ac3a53d4f4da52c7594a1c0a4117$__6339eac4b68385846040518463ffffffff1660e01b815260040161158093929190614b31565b60006040518083038186803b15801561159857600080fd5b505af41580156115ac573d6000803e3d6000fd5b505050506040513d6000823e3d601f19601f820116820180604052508101906115d59190613580565b925073__$2c5481ac3a53d4f4da52c7594a1c0a4117$__630a24a1f683856040518363ffffffff1660e01b8152600401611610929190614afa565b60006040518083038186803b15801561162857600080fd5b505af415801561163c573d6000803e3d6000fd5b505050506040513d6000823e3d601f19601f8201168201806040525081019061166591906138c0565b9350505050919050565b6116776128ba565b3360011515600160008373ffffffffffffffffffffffffffffffffffffffff1673ffffffffffffffffffffffffffffffffffffffff16815260200190815260200160002060009054906101000a900460ff161515146116d557600080fd5b600073__$a8d73648a227029b1a94ace56064e1f587$__63c03199cb88888860026040518563ffffffff1660e01b81526004016117159493929190614c3f565b60006040518083038186803b15801561172d57600080fd5b505af4158015611741573d6000803e3d6000fd5b505050506040513d6000823e3d601f19601f8201168201806040525081019061176a9190613580565b9050846118da57600073__$f27e79961c3433e31ab5fa1d53780be647$__63596e3198838a6000600581106117c8577f4e487b7100000000000000000000000000000000000000000000000000000000600052603260045260246000fd5b6020020151436040518463ffffffff1660e01b81526004016117ec93929190614a93565b60006040518083038186803b15801561180457600080fd5b505af4158015611818573d6000803e3d6000fd5b505050506040513d6000823e3d601f19601f8201168201806040525081019061184191906138c0565b905073__$a8d73648a227029b1a94ace56064e1f587$__63faf8175a89846002856040518563ffffffff1660e01b81526004016118819493929190614b7d565b60006040518083038186803b15801561189957600080fd5b505af41580156118ad573d6000803e3d6000fd5b505050506040513d6000823e3d601f19601f820116820180604052508101906118d69190613580565b9150505b600080600073__$2c5481ac3a53d4f4da52c7594a1c0a4117$__63039fff838b868c600160048110611935577f4e487b7100000000000000000000000000000000000000000000000000000000600052603260045260246000fd5b60200201518c8c6040518663ffffffff1660e01b815260040161195c959493929190614bd7565b60006040518083038186803b15801561197457600080fd5b505af4158015611988573d6000803e3d6000fd5b505050506040513d6000823e3d601f19601f820116820180604052508101906119b19190613998565b925092509250611a008a848b6000600481106119f6577f4e487b7100000000000000000000000000000000000000000000000000000000600052603260045260246000fd5b6020020151611fe6565b87611a1057611a0f8a84612434565b5b600560009054906101000a900473ffffffffffffffffffffffffffffffffffffffff1673ffffffffffffffffffffffffffffffffffffffff1663702be2478b858c600060048110611a8a577f4e487b7100000000000000000000000000000000000000000000000000000000600052603260045260246000fd5b6020020151888d6040518663ffffffff1660e01b8152600401611ab1959493929190614cd0565b600060405180830381600087803b158015611acb57600080fd5b505af1158015611adf573d6000803e3d6000fd5b50505050600082600060028110611b1f577f4e487b7100000000000000000000000000000000000000000000000000000000600052603260045260246000fd5b602002015114611c2e5781600060028110611b63577f4e487b7100000000000000000000000000000000000000000000000000000000600052603260045260246000fd5b602002015186600060038110611ba2577f4e487b7100000000000000000000000000000000000000000000000000000000600052603260045260246000fd5b60200201818152505081600160028110611be5577f4e487b7100000000000000000000000000000000000000000000000000000000600052603260045260246000fd5b602002015186600160038110611c24577f4e487b7100000000000000000000000000000000000000000000000000000000600052603260045260246000fd5b6020020181815250505b8086600260038110611c69577f4e487b7100000000000000000000000000000000000000000000000000000000600052603260045260246000fd5b6020020181815250505050505050949350505050565b600080611c8a611e01565b90506000600190506003851415611ca057600290505b73__$f27e79961c3433e31ab5fa1d53780be647$__630e9c92db6040518060e001604052808481526020018b81526020018781526020018981526020018a8152602001858152602001888152506040518263ffffffff1660e01b8152600401611d099190614ece565b60206040518083038186803b158015611d2157600080fd5b505af4158015611d35573d6000803e3d6000fd5b505050506040513d601f19601f82011682018060405250810190611d599190613ad5565b9250505095945050505050565b606073__$a8d73648a227029b1a94ace56064e1f587$__631235c2a7846002856040518463ffffffff1660e01b8152600401611da493929190614fd3565b60006040518083038186803b158015611dbc57600080fd5b505af4158015611dd0573d6000803e3d6000fd5b505050506040513d6000823e3d601f19601f82011682018060405250810190611df991906135c1565b905092915050565b6000600260000160006005815260200190815260200160002060006002815260200190815260200160002060006006815260200190815260200160002054905090565b606073__$a8d73648a227029b1a94ace56064e1f587$__638b0f11d28360026040518363ffffffff1660e01b8152600401611e809291906150c3565b60006040518083038186803b158015611e9857600080fd5b505af4158015611eac573d6000803e3d6000fd5b505050506040513d6000823e3d601f19601f82011682018060405250810190611ed5919061383e565b9050919050565b600073__$2c5481ac3a53d4f4da52c7594a1c0a4117$__632391c553858585600c6040518563ffffffff1660e01b8152600401611f1c9493929190614e60565b60006040518083038186803b158015611f3457600080fd5b505af4158015611f48573d6000803e3d6000fd5b505050506040513d6000823e3d601f19601f82011682018060405250810190611f71919061383e565b905073__$a8d73648a227029b1a94ace56064e1f587$__63df983c32868360026040518463ffffffff1660e01b8152600401611faf93929190615085565b60006040518083038186803b158015611fc757600080fd5b505af4158015611fdb573d6000803e3d6000fd5b505050505050505050565b73__$a8d73648a227029b1a94ace56064e1f587$__636a234f16848460026040518463ffffffff1660e01b815260040161202293929190614c8b565b60006040518083038186803b15801561203a57600080fd5b505af415801561204e573d6000803e3d6000fd5b5050505060005b8360016005811061208f577f4e487b7100000000000000000000000000000000000000000000000000000000600052603260045260246000fd5b60200201515181101561242e57600060026000016000866001600581106120df577f4e487b7100000000000000000000000000000000000000000000000000000000600052603260045260246000fd5b6020020151848151811061211c577f4e487b7100000000000000000000000000000000000000000000000000000000600052603260045260246000fd5b60200260200101518152602001908152602001600020905060008086600460058110612171577f4e487b7100000000000000000000000000000000000000000000000000000000600052603260045260246000fd5b602002015151116121825783612202565b856004600581106121bc577f4e487b7100000000000000000000000000000000000000000000000000000000600052603260045260246000fd5b602002015183815181106121f9577f4e487b7100000000000000000000000000000000000000000000000000000000600052603260045260246000fd5b60200260200101515b9050808660006005811061223f577f4e487b7100000000000000000000000000000000000000000000000000000000600052603260045260246000fd5b6020020151848151811061227c577f4e487b7100000000000000000000000000000000000000000000000000000000600052603260045260246000fd5b6020026020010151876001600581106122be577f4e487b7100000000000000000000000000000000000000000000000000000000600052603260045260246000fd5b602002015185815181106122fb577f4e487b7100000000000000000000000000000000000000000000000000000000600052603260045260246000fd5b60200260200101517f1a9b88ef3462af43c8ce7467cb73175fb81c4797ae185bf15d26c85304685f52856000600281526020019081526020016000206000600281526020019081526020016000205486600060028152602001908152602001600020600080815260200190815260200160002054876000600281526020019081526020016000206000600181526020019081526020016000205488600060028152602001908152602001600020600060038152602001908152602001600020548c8b815181106123f4577f4e487b7100000000000000000000000000000000000000000000000000000000600052603260045260246000fd5b602002602001015142436040516124119796959493929190615192565b60405180910390a45050808061242690615b4e565b915050612055565b50505050565b60005b82600160058110612471577f4e487b7100000000000000000000000000000000000000000000000000000000600052603260045260246000fd5b60200201515181101561288e576000836000600581106124ba577f4e487b7100000000000000000000000000000000000000000000000000000000600052603260045260246000fd5b602002015182815181106124f7577f4e487b7100000000000000000000000000000000000000000000000000000000600052603260045260246000fd5b6020026020010151141561287b5760006002600001600085600160058110612548577f4e487b7100000000000000000000000000000000000000000000000000000000600052603260045260246000fd5b60200201518481518110612585577f4e487b7100000000000000000000000000000000000000000000000000000000600052603260045260246000fd5b60200260200101518152602001908152602001600020600060018152602001908152602001600020600060018152602001908152602001600020541461287a5760006002600001600085600160058110612608577f4e487b7100000000000000000000000000000000000000000000000000000000600052603260045260246000fd5b60200201518481518110612645577f4e487b7100000000000000000000000000000000000000000000000000000000600052603260045260246000fd5b602002602001015181526020019081526020016000206000600281526020019081526020016000209050438160006005815260200190815260200160002054146126fe578282815181106126c2577f4e487b7100000000000000000000000000000000000000000000000000000000600052603260045260246000fd5b60200260200101518160006004815260200190815260200160002081905550438160006005815260200190815260200160002081905550612769565b828281518110612737577f4e487b7100000000000000000000000000000000000000000000000000000000600052603260045260246000fd5b60200260200101518160006004815260200190815260200160002060008282546127619190615a25565b925050819055505b836001600581106127a3577f4e487b7100000000000000000000000000000000000000000000000000000000600052603260045260246000fd5b602002015182815181106127e0577f4e487b7100000000000000000000000000000000000000000000000000000000600052603260045260246000fd5b60200260200101517f4a1356798b6d4fa1178ba78023f16cc3fddb1a87eeca14cfc73dc0aa37db26958260006006815260200190815260200160002054858581518110612856577f4e487b7100000000000000000000000000000000000000000000000000000000600052603260045260246000fd5b6020026020010151434260405161287094939291906150ec565b60405180910390a2505b5b808061288690615b4e565b915050612437565b505050565b60405180604001604052806002905b60608152602001906001900390816128a25790505090565b6040518060600160405280600390602082028036833780820191505090505090565b60006128ef6128ea846152d4565b6152af565b9050808285602086028201111561290557600080fd5b60005b8581101561294f57815167ffffffffffffffff81111561292757600080fd5b8086016129348982613302565b85526020850194506020840193505050600181019050612908565b5050509392505050565b600061296c612967846152fa565b6152af565b9050808382526020820190508285602086028201111561298b57600080fd5b60005b858110156129d557813567ffffffffffffffff8111156129ad57600080fd5b8086016129ba89826132d8565b8552602085019450602084019350505060018101905061298e565b5050509392505050565b60006129f26129ed846152fa565b6152af565b90508083825260208201905082856020860282011115612a1157600080fd5b60005b85811015612a5b57815167ffffffffffffffff811115612a3357600080fd5b808601612a408982613302565b85526020850194506020840193505050600181019050612a14565b5050509392505050565b6000612a78612a7384615326565b6152af565b90508083825260208201905082856080860282011115612a9757600080fd5b60005b85811015612ac75781612aad888261337a565b845260208401935060808301925050600181019050612a9a565b5050509392505050565b6000612ae4612adf84615352565b6152af565b90508082856020860282011115612afa57600080fd5b60005b85811015612b4457813567ffffffffffffffff811115612b1c57600080fd5b808601612b2989826133a1565b85526020850194506020840193505050600181019050612afd565b5050509392505050565b6000612b61612b5c84615352565b6152af565b90508082856020860282011115612b7757600080fd5b60005b85811015612bc157815167ffffffffffffffff811115612b9957600080fd5b808601612ba689826133cb565b85526020850194506020840193505050600181019050612b7a565b5050509392505050565b6000612bde612bd984615378565b6152af565b90508082856020860282011115612bf457600080fd5b60005b85811015612c3e57813567ffffffffffffffff811115612c1657600080fd5b808601612c2389826133a1565b85526020850194506020840193505050600181019050612bf7565b5050509392505050565b6000612c5b612c5684615378565b6152af565b90508082856020860282011115612c7157600080fd5b60005b85811015612cbb57815167ffffffffffffffff811115612c9357600080fd5b808601612ca089826133cb565b85526020850194506020840193505050600181019050612c74565b5050509392505050565b6000612cd8612cd38461539e565b6152af565b90508082856020860282011115612cee57600080fd5b60005b85811015612d3857813567ffffffffffffffff811115612d1057600080fd5b808601612d1d89826133a1565b85526020850194506020840193505050600181019050612cf1565b5050509392505050565b6000612d55612d508461539e565b6152af565b90508082856020860282011115612d6b57600080fd5b60005b85811015612db557815167ffffffffffffffff811115612d8d57600080fd5b808601612d9a89826133cb565b85526020850194506020840193505050600181019050612d6e565b5050509392505050565b6000612dd2612dcd846153c4565b6152af565b90508083825260208201905082856020860282011115612df157600080fd5b60005b85811015612e3b57813567ffffffffffffffff811115612e1357600080fd5b808601612e2089826133a1565b85526020850194506020840193505050600181019050612df4565b5050509392505050565b6000612e58612e53846153c4565b6152af565b90508083825260208201905082856020860282011115612e7757600080fd5b60005b85811015612ec157815167ffffffffffffffff811115612e9957600080fd5b808601612ea689826133cb565b85526020850194506020840193505050600181019050612e7a565b5050509392505050565b6000612ede612ed9846153f0565b6152af565b90508082856020860282011115612ef457600080fd5b60005b85811015612f245781612f0a888261343b565b845260208401935060208301925050600181019050612ef7565b5050509392505050565b6000612f41612f3c84615416565b6152af565b90508082856020860282011115612f5757600080fd5b60005b85811015612f875781612f6d8882613426565b845260208401935060208301925050600181019050612f5a565b5050509392505050565b6000612fa4612f9f84615416565b6152af565b90508082856020860282011115612fba57600080fd5b60005b85811015612fea5781612fd0888261343b565b845260208401935060208301925050600181019050612fbd565b5050509392505050565b60006130076130028461543c565b6152af565b9050808382526020820190508285602086028201111561302657600080fd5b60005b85811015613056578161303c8882613426565b845260208401935060208301925050600181019050613029565b5050509392505050565b600061307361306e8461543c565b6152af565b9050808382526020820190508285602086028201111561309257600080fd5b60005b858110156130c257816130a8888261343b565b845260208401935060208301925050600181019050613095565b5050509392505050565b6000813590506130db81615c06565b92915050565b6000819050826020600702820111156130f957600080fd5b92915050565b60008083601f84011261311157600080fd5b8235905067ffffffffffffffff81111561312a57600080fd5b60208301915083602082028301111561314257600080fd5b9250929050565b600082601f83011261315a57600080fd5b60026131678482856128dc565b91505092915050565b600082601f83011261318157600080fd5b8135613191848260208601612959565b91505092915050565b600082601f8301126131ab57600080fd5b81516131bb8482602086016129df565b91505092915050565b600082601f8301126131d557600080fd5b81516131e5848260208601612a65565b91505092915050565b600082601f8301126131ff57600080fd5b600261320c848285612ad1565b91505092915050565b600082601f83011261322657600080fd5b6002613233848285612b4e565b91505092915050565b600082601f83011261324d57600080fd5b600561325a848285612bcb565b91505092915050565b600082601f83011261327457600080fd5b6005613281848285612c48565b91505092915050565b600082601f83011261329b57600080fd5b60066132a8848285612cc5565b91505092915050565b600082601f8301126132c257600080fd5b60066132cf848285612d42565b91505092915050565b600082601f8301126132e957600080fd5b81356132f9848260208601612dbf565b91505092915050565b600082601f83011261331357600080fd5b8151613323848260208601612e45565b91505092915050565b600082601f83011261333d57600080fd5b600261334a848285612ecb565b91505092915050565b600082601f83011261336457600080fd5b6004613371848285612f2e565b91505092915050565b600082601f83011261338b57600080fd5b6004613398848285612f91565b91505092915050565b600082601f8301126133b257600080fd5b81356133c2848260208601612ff4565b91505092915050565b600082601f8301126133dc57600080fd5b81516133ec848260208601613060565b91505092915050565b60008135905061340481615c1d565b92915050565b60006101a0828403121561341d57600080fd5b81905092915050565b60008135905061343581615c34565b92915050565b60008151905061344a81615c34565b92915050565b60006020828403121561346257600080fd5b6000613470848285016130cc565b91505092915050565b6000806000610120848603121561348f57600080fd5b600061349d868287016130e1565b93505060e084013567ffffffffffffffff8111156134ba57600080fd5b6134c686828701613170565b92505061010084013567ffffffffffffffff8111156134e457600080fd5b6134f0868287016132d8565b9150509250925092565b6000806020838503121561350d57600080fd5b600083013567ffffffffffffffff81111561352757600080fd5b613533858286016130ff565b92509250509250929050565b60006020828403121561355157600080fd5b600082015167ffffffffffffffff81111561356b57600080fd5b61357784828501613149565b91505092915050565b60006020828403121561359257600080fd5b600082015167ffffffffffffffff8111156135ac57600080fd5b6135b88482850161319a565b91505092915050565b6000602082840312156135d357600080fd5b600082015167ffffffffffffffff8111156135ed57600080fd5b6135f9848285016131c4565b91505092915050565b60006020828403121561361457600080fd5b600082015167ffffffffffffffff81111561362e57600080fd5b61363a84828501613263565b91505092915050565b600080600060c0848603121561365857600080fd5b600084015167ffffffffffffffff81111561367257600080fd5b61367e86828701613263565b935050602061368f8682870161337a565b92505060a084015167ffffffffffffffff8111156136ac57600080fd5b6136b886828701613215565b9150509250925092565b60008060008060e085870312156136d857600080fd5b600085013567ffffffffffffffff8111156136f257600080fd5b6136fe8782880161323c565b945050602061370f87828801613353565b93505060a0613720878288016133f5565b92505060c085013567ffffffffffffffff81111561373d57600080fd5b613749878288016131ee565b91505092959194509250565b6000806040838503121561376857600080fd5b600083013567ffffffffffffffff81111561378257600080fd5b61378e8582860161323c565b925050602061379f85828601613426565b9150509250929050565b6000602082840312156137bb57600080fd5b600082015167ffffffffffffffff8111156137d557600080fd5b6137e1848285016132b1565b91505092915050565b600080604083850312156137fd57600080fd5b600083013567ffffffffffffffff81111561381757600080fd5b6138238582860161328a565b925050602061383485828601613426565b9150509250929050565b60006020828403121561385057600080fd5b600082015167ffffffffffffffff81111561386a57600080fd5b61387684828501613302565b91505092915050565b60006020828403121561389157600080fd5b600082013567ffffffffffffffff8111156138ab57600080fd5b6138b7848285016133a1565b91505092915050565b6000602082840312156138d257600080fd5b600082015167ffffffffffffffff8111156138ec57600080fd5b6138f8848285016133cb565b91505092915050565b60008060006060848603121561391657600080fd5b600084013567ffffffffffffffff81111561393057600080fd5b61393c868287016133a1565b935050602084013567ffffffffffffffff81111561395957600080fd5b613965868287016132d8565b925050604084013567ffffffffffffffff81111561398257600080fd5b61398e868287016133a1565b9150509250925092565b6000806000608084860312156139ad57600080fd5b600084015167ffffffffffffffff8111156139c757600080fd5b6139d3868287016133cb565b93505060206139e48682870161332c565b92505060606139f58682870161343b565b9150509250925092565b60008060408385031215613a1257600080fd5b600083013567ffffffffffffffff811115613a2c57600080fd5b613a38858286016133a1565b925050602083013567ffffffffffffffff811115613a5557600080fd5b613a61858286016133a1565b9150509250929050565b600060208284031215613a7d57600080fd5b600082013567ffffffffffffffff811115613a9757600080fd5b613aa38482850161340a565b91505092915050565b600060208284031215613abe57600080fd5b6000613acc84828501613426565b91505092915050565b600060208284031215613ae757600080fd5b6000613af58482850161343b565b91505092915050565b600080600080600060a08688031215613b1657600080fd5b6000613b2488828901613426565b9550506020613b3588828901613426565b9450506040613b4688828901613426565b9350506060613b5788828901613426565b9250506080613b6888828901613426565b9150509295509295909350565b6000613b818383613c7d565b60208301905092915050565b6000613b9a848484613f92565b90509392505050565b6000613baf83836141dc565b905092915050565b6000613bc3838361433b565b905092915050565b6000613bd88484846143b0565b90509392505050565b6000613bed838361448d565b60808301905092915050565b6000613c06848484614592565b90509392505050565b6000613c1b83836145ea565b905092915050565b6000613c2f8383614704565b905092915050565b6000613c448484846147bc565b90509392505050565b6000613c59838361497a565b60208301905092915050565b6000613c7183836149a7565b60208301905092915050565b613c8681615a7b565b82525050565b6000613c988385615669565b9350613ca382615468565b8060005b85811015613cdc57613cb982846157cb565b613cc38882613b75565b9750613cce83615599565b925050600181019050613ca7565b5085925050509392505050565b6000613cf58385615696565b935083602084028501613d0784615472565b8060005b87811015613d4d578484038952613d228284615890565b613d2d868284613b8d565b9550613d38846155a6565b935060208b019a505050600181019050613d0b565b50829750879450505050509392505050565b6000613d6a82615520565b613d74818561567a565b935083602082028501613d868561547c565b8060005b85811015613dc25784840389528151613da38582613ba3565b9450613dae836155b3565b925060208a01995050600181019050613d8a565b50829750879550505050505092915050565b6000613ddf8261552b565b613de98185615685565b935083602082028501613dfb85615486565b8060005b85811015613e375784840389528151613e188582613ba3565b9450613e23836155c0565b925060208a01995050600181019050613dff565b50829750879550505050505092915050565b6000613e548261552b565b613e5e8185615696565b935083602082028501613e7085615486565b8060005b85811015613eac5784840389528151613e8d8582613bb7565b9450613e98836155c0565b925060208a01995050600181019050613e74565b50829750879550505050505092915050565b6000613eca83856156a7565b935083602084028501613edc84615496565b8060005b87811015613f22578484038952613ef782846158e7565b613f02868284613bcb565b9550613f0d846155cd565b935060208b019a505050600181019050613ee0565b50829750879450505050509392505050565b6000613f3f82615536565b613f4981856156b8565b9350613f54836154a0565b8060005b83811015613f85578151613f6c8882613be1565b9750613f77836155da565b925050600181019050613f58565b5085935050505092915050565b6000613f9e8385615728565b935083602084028501613fb0846154b0565b8060005b87811015613ff6578484038952613fcb8284615949565b613fd6868284613bf9565b9550613fe1846155e7565b935060208b019a505050600181019050613fb4565b50829750879450505050509392505050565b600061401382615541565b61401d81856156c9565b93508360208202850161402f856154ba565b8060005b8581101561406b578484038952815161404c8582613c23565b9450614057836155f4565b925060208a01995050600181019050614033565b50829750879550505050505092915050565b60006140888261554c565b61409281856156d4565b9350836020820285016140a4856154c4565b8060005b858110156140e057848403895281516140c18582613c0f565b94506140cc83615601565b925060208a019950506001810190506140a8565b50829750879550505050505092915050565b60006140fd8261554c565b61410781856156df565b935083602082028501614119856154c4565b8060005b8581101561415557848403895281516141368582613c23565b945061414183615601565b925060208a0199505060018101905061411d565b50829750879550505050505092915050565b600061417282615557565b61417c81856156ea565b93508360208202850161418e856154ce565b8060005b858110156141ca57848403895281516141ab8582613c23565b94506141b68361560e565b925060208a01995050600181019050614192565b50829750879550505050505092915050565b60006141e782615562565b6141f181856156f5565b935083602082028501614203856154d8565b8060005b8581101561423f57848403895281516142208582613c0f565b945061422b8361561b565b925060208a01995050600181019050614207565b50829750879550505050505092915050565b600061425c82615562565b6142668185615706565b935083602082028501614278856154d8565b8060005b858110156142b457848403895281516142958582613c0f565b94506142a08361561b565b925060208a0199505060018101905061427c565b50829750879550505050505092915050565b60006142d182615562565b6142db8185615717565b9350836020820285016142ed856154d8565b8060005b85811015614329578484038952815161430a8582613c23565b94506143158361561b565b925060208a019950506001810190506142f1565b50829750879550505050505092915050565b600061434682615562565b6143508185615728565b935083602082028501614362856154d8565b8060005b8581101561439e578484038952815161437f8582613c23565b945061438a8361561b565b925060208a01995050600181019050614366565b50829750879550505050505092915050565b60006143bc8385615739565b9350836020840285016143ce846154e8565b8060005b878110156144145784840389526143e982846159b7565b6143f4868284613c37565b95506143ff84615628565b935060208b019a5050506001810190506143d2565b50829750879450505050509392505050565b61443260408383615b0e565b5050565b61443f8161556d565b614449818461574a565b9250614454826154f2565b8060005b8381101561448557815161446c8782613c4d565b965061447783615635565b925050600181019050614458565b505050505050565b61449681615578565b6144a08184615755565b92506144ab826154fc565b8060005b838110156144dc5781516144c38782613c4d565b96506144ce83615642565b9250506001810190506144af565b505050505050565b6144ed81615578565b6144f78184615760565b9250614502826154fc565b8060005b8381101561453357815161451a8782613c65565b965061452583615642565b925050600181019050614506565b505050505050565b61454481615583565b61454e818461576b565b925061455982615506565b8060005b8381101561458a5781516145718782613c65565b965061457c8361564f565b92505060018101905061455d565b505050505050565b600061459e83856157a9565b93507f07ffffffffffffffffffffffffffffffffffffffffffffffffffffffffffffff8311156145cd57600080fd5b6020830292506145de838584615b0e565b82840190509392505050565b60006145f58261558e565b6145ff8185615776565b935061460a83615510565b8060005b8381101561463b5781516146228882613c4d565b975061462d8361565c565b92505060018101905061460e565b5085935050505092915050565b60006146538261558e565b61465d8185615787565b935061466883615510565b8060005b838110156146995781516146808882613c4d565b975061468b8361565c565b92505060018101905061466c565b5085935050505092915050565b60006146b18261558e565b6146bb8185615798565b93506146c683615510565b8060005b838110156146f75781516146de8882613c65565b97506146e98361565c565b9250506001810190506146ca565b5085935050505092915050565b600061470f8261558e565b61471981856157a9565b935061472483615510565b8060005b8381101561475557815161473c8882613c65565b97506147478361565c565b925050600181019050614728565b5085935050505092915050565b61476b81615a8d565b82525050565b61477a81615a8d565b82525050565b61478981615a8d565b82525050565b61479881615ad8565b82525050565b6147a781615aea565b82525050565b6147b681615afc565b82525050565b60006147c883856157ba565b93506147d5838584615b0e565b6147de83615bf5565b840190509392505050565b8082525050565b60006101a083016148046000840184615a0e565b61481160008601826149a7565b5061481f60208401846159a0565b61482c6020860182614780565b5061483a6040840184615949565b858303604087015261484d838284614592565b9250505061485e6060840184615890565b8583036060870152614871838284613f92565b9250505061488260808401846157e2565b8583036080870152614895838284613c8c565b925050506148a660a0840184615839565b85830360a08701526148b9838284613ebe565b925050506148ca60c0840184615a0e565b6148d760c08601826149a7565b506148e560e0840184615a0e565b6148f260e08601826149a7565b50614901610100840184615a0e565b61490f6101008601826149a7565b5061491e61012084018461593e565b61492c610120860182614426565b5061493b6101608401846159a0565b614949610160860182614780565b50614958610180840184615949565b85830361018087015261496c838284614592565b925050508091505092915050565b61498381615ab9565b82525050565b61499281615ab9565b82525050565b6149a181615ab9565b82525050565b6149b081615ab9565b82525050565b600060408201905081810360008301526149d1818587613ce9565b90506149e060208301846147e9565b949350505050565b60006020820190508181036000830152614a028184613d5f565b905092915050565b60006020820190508181036000830152614a248184613e49565b905092915050565b60006020820190508181036000830152614a468184613dd4565b905092915050565b60006060820190508181036000830152614a688186613e49565b90508181036020830152614a7c81856142c6565b9050614a8b60408301846147e9565b949350505050565b60006060820190508181036000830152614aad8186613e49565b90508181036020830152614ac181856146a6565b9050614ad06040830184614998565b949350505050565b60006020820190508181036000830152614af28184613f34565b905092915050565b60006040820190508181036000830152614b1481856140f2565b90508181036020830152614b288184613e49565b90509392505050565b60006060820190508181036000830152614b4b81866140f2565b90508181036020830152614b5f8185613e49565b90508181036040830152614b7381846146a6565b9050949350505050565b60006080820190508181036000830152614b9781876140f2565b90508181036020830152614bab8186613e49565b9050614bba60408301856147e9565b8181036060830152614bcc81846146a6565b905095945050505050565b600060a0820190508181036000830152614bf181886140f2565b90508181036020830152614c058187613e49565b9050614c146040830186614998565b614c216060830185614771565b8181036080830152614c338184614008565b90509695505050505050565b600060e0820190508181036000830152614c5981876140f2565b9050614c6860208301866144e4565b614c7560a0830185614771565b614c8260c08301846147e9565b95945050505050565b60006060820190508181036000830152614ca581866140f2565b90508181036020830152614cb981856146a6565b9050614cc860408301846147e9565b949350505050565b600060a0820190508181036000830152614cea818861407d565b90508181036020830152614cfe8187614648565b9050614d0d6040830186614989565b8181036060830152614d1f8185613dd4565b9050614d2e6080830184614762565b9695505050505050565b600060c0820190508181036000830152614d52818961407d565b9050614d61602083018861478f565b614d6e604083018761478f565b614d7b6060830186614762565b614d886080830185614762565b614d9560a08301846147ad565b979650505050505050565b60006060820190508181036000830152614dba81866140f2565b9050614dc960208301856147e9565b614dd66040830184614998565b949350505050565b60006060820190508181036000830152614df88186614167565b9050614e076020830185614998565b614e1460408301846147e9565b949350505050565b60006020820190508181036000830152614e3681846142c6565b905092915050565b60006020820190508181036000830152614e588184614251565b905092915050565b60006080820190508181036000830152614e7a81876142c6565b9050614e896020830186614998565b8181036040830152614e9b81856146a6565b9050614eaa606083018461479e565b95945050505050565b6000606082019050614ec86000830184614436565b92915050565b600060e082019050614ee3600083018461453b565b92915050565b60006020820190508181036000830152614f038184614648565b905092915050565b60006040820190508181036000830152614f2581856146a6565b90508181036020830152614f398184613e49565b90509392505050565b60006080820190508181036000830152614f5c81876146a6565b90508181036020830152614f7081866142c6565b90508181036040830152614f8481856146a6565b90508181036060830152614f988184613e49565b905095945050505050565b60006040820190508181036000830152614fbd81856146a6565b9050614fcc60208301846147e9565b9392505050565b60006060820190508181036000830152614fed81866146a6565b9050614ffc60208301856147e9565b818103604083015261500e81846146a6565b9050949350505050565b6000602082019050818103600083015261503281846147f0565b905092915050565b6000604082019050818103600083015261505481856147f0565b90506150636020830184614998565b9392505050565b600060208201905061507f6000830184614989565b92915050565b600060608201905061509a6000830186614998565b81810360208301526150ac81856142c6565b90506150bb60408301846147e9565b949350505050565b60006040820190506150d86000830185614998565b6150e560208301846147e9565b9392505050565b60006080820190506151016000830187614989565b61510e6020830186614989565b61511b6040830185614989565b6151286060830184614989565b95945050505050565b600060c0820190506151466000830189614989565b6151536020830188614989565b6151606040830187614989565b61516d6060830186614989565b61517a6080830185614989565b61518760a0830184614989565b979650505050505050565b600060e0820190506151a7600083018a614989565b6151b46020830189614989565b6151c16040830188614989565b6151ce6060830187614989565b6151db6080830186614989565b6151e860a0830185614989565b6151f560c0830184614989565b98975050505050505050565b6000808335600160200384360303811261521a57600080fd5b80840192508235915067ffffffffffffffff82111561523857600080fd5b60208301925060208202360383131561525057600080fd5b509250929050565b6000808335600160200384360303811261527157600080fd5b80840192508235915067ffffffffffffffff82111561528f57600080fd5b6020830192506020820236038313156152a757600080fd5b509250929050565b60006152b96152ca565b90506152c58282615b1d565b919050565b6000604051905090565b600067ffffffffffffffff8211156152ef576152ee615bc6565b5b602082029050919050565b600067ffffffffffffffff82111561531557615314615bc6565b5b602082029050602081019050919050565b600067ffffffffffffffff82111561534157615340615bc6565b5b602082029050602081019050919050565b600067ffffffffffffffff82111561536d5761536c615bc6565b5b602082029050919050565b600067ffffffffffffffff82111561539357615392615bc6565b5b602082029050919050565b600067ffffffffffffffff8211156153b9576153b8615bc6565b5b602082029050919050565b600067ffffffffffffffff8211156153df576153de615bc6565b5b602082029050602081019050919050565b600067ffffffffffffffff82111561540b5761540a615bc6565b5b602082029050919050565b600067ffffffffffffffff82111561543157615430615bc6565b5b602082029050919050565b600067ffffffffffffffff82111561545757615456615bc6565b5b602082029050602081019050919050565b6000819050919050565b6000819050919050565b6000819050919050565b6000819050602082019050919050565b6000819050919050565b6000819050602082019050919050565b6000819050919050565b6000819050919050565b6000819050919050565b6000819050919050565b6000819050602082019050919050565b6000819050919050565b6000819050919050565b6000819050919050565b6000819050919050565b6000819050602082019050919050565b600060029050919050565b600081519050919050565b600081519050919050565b600060029050919050565b600060059050919050565b600060069050919050565b600081519050919050565b600060039050919050565b600060049050919050565b600060079050919050565b600081519050919050565b6000602082019050919050565b6000602082019050919050565b6000602082019050919050565b6000602082019050919050565b6000602082019050919050565b6000602082019050919050565b6000602082019050919050565b6000602082019050919050565b6000602082019050919050565b6000602082019050919050565b6000602082019050919050565b6000602082019050919050565b6000602082019050919050565b6000602082019050919050565b6000602082019050919050565b6000602082019050919050565b600082825260208201905092915050565b600081905092915050565b600082825260208201905092915050565b600082825260208201905092915050565b600082825260208201905092915050565b600082825260208201905092915050565b600081905092915050565b600081905092915050565b600081905092915050565b600081905092915050565b600082825260208201905092915050565b600082825260208201905092915050565b600082825260208201905092915050565b600082825260208201905092915050565b600082825260208201905092915050565b600081905092915050565b600081905092915050565b600081905092915050565b600081905092915050565b600082825260208201905092915050565b600082825260208201905092915050565b600082825260208201905092915050565b600082825260208201905092915050565b600082825260208201905092915050565b60006157da60208401846130cc565b905092915050565b600080833560016020038436030381126157fb57600080fd5b83810192508235915060208301925067ffffffffffffffff82111561581f57600080fd5b60208202360384131561583157600080fd5b509250929050565b6000808335600160200384360303811261585257600080fd5b83810192508235915060208301925067ffffffffffffffff82111561587657600080fd5b60208202360384131561588857600080fd5b509250929050565b600080833560016020038436030381126158a957600080fd5b83810192508235915060208301925067ffffffffffffffff8211156158cd57600080fd5b6020820236038413156158df57600080fd5b509250929050565b6000808335600160200384360303811261590057600080fd5b83810192508235915060208301925067ffffffffffffffff82111561592457600080fd5b60208202360384131561593657600080fd5b509250929050565b600082905092915050565b6000808335600160200384360303811261596257600080fd5b83810192508235915060208301925067ffffffffffffffff82111561598657600080fd5b60208202360384131561599857600080fd5b509250929050565b60006159af60208401846133f5565b905092915050565b600080833560016020038436030381126159d057600080fd5b83810192508235915060208301925067ffffffffffffffff8211156159f457600080fd5b600182023603841315615a0657600080fd5b509250929050565b6000615a1d6020840184613426565b905092915050565b6000615a3082615ab9565b9150615a3b83615ab9565b9250827fffffffffffffffffffffffffffffffffffffffffffffffffffffffffffffffff03821115615a7057615a6f615b97565b5b828201905092915050565b6000615a8682615a99565b9050919050565b60008115159050919050565b600073ffffffffffffffffffffffffffffffffffffffff82169050919050565b6000819050919050565b6000615ad0368484612dbf565b905092915050565b6000615ae382615ab9565b9050919050565b6000615af582615ab9565b9050919050565b6000615b0782615ab9565b9050919050565b82818337600083830152505050565b615b2682615bf5565b810181811067ffffffffffffffff82111715615b4557615b44615bc6565b5b80604052505050565b6000615b5982615ab9565b91507fffffffffffffffffffffffffffffffffffffffffffffffffffffffffffffffff821415615b8c57615b8b615b97565b5b600182019050919050565b7f4e487b7100000000000000000000000000000000000000000000000000000000600052601160045260246000fd5b7f4e487b7100000000000000000000000000000000000000000000000000000000600052604160045260246000fd5b6000601f19601f8301169050919050565b615c0f81615a7b565b8114615c1a57600080fd5b50565b615c2681615a8d565b8114615c3157600080fd5b50565b615c3d81615ab9565b8114615c4857600080fd5b5056fea264697066735822122079f0f5adac80a550a31bb81b365cbaffc44e43247cbf66db2ca65a0ae0a9ba3e64736f6c63430008040033",
  "linkReferences": {
    "contracts/E5D/E3.sol": {
      "E3": [
        {
          "length": 20,
          "start": 4807
        },
        {
          "length": 20,
          "start": 5005
        },
        {
          "length": 20,
          "start": 5226
        }
      ]
    },
    "contracts/E5D/E32.sol": {
      "E32": [
        {
          "length": 20,
          "start": 5766
        },
        {
          "length": 20,
          "start": 5912
        },
        {
          "length": 20,
          "start": 6688
        },
        {
          "length": 20,
          "start": 8223
        }
      ]
    },
    "contracts/E5D/E33.sol": {
      "E33": [
        {
          "length": 20,
          "start": 1387
        },
        {
          "length": 20,
          "start": 2911
        },
        {
          "length": 20,
          "start": 5558
        },
        {
          "length": 20,
          "start": 6324
        },
        {
          "length": 20,
          "start": 7649
        }
      ]
    },
    "contracts/E5D/E34.sol": {
      "E34": [
        {
          "length": 20,
          "start": 1518
        }
      ]
    },
    "contracts/H5D/H3.sol": {
      "H3": [
        {
          "length": 20,
          "start": 1682
        },
        {
          "length": 20,
          "start": 1929
        },
        {
          "length": 20,
          "start": 3091
        },
        {
          "length": 20,
          "start": 3854
        },
        {
          "length": 20,
          "start": 4063
        },
        {
          "length": 20,
          "start": 6168
        },
        {
          "length": 20,
          "start": 6532
        },
        {
          "length": 20,
          "start": 7849
        },
        {
          "length": 20,
          "start": 8071
        },
        {
          "length": 20,
          "start": 8372
        },
        {
          "length": 20,
          "start": 8487
        }
      ]
    },
    "contracts/H5D/H32.sol": {
      "H32": [
        {
          "length": 20,
          "start": 5412
        }
      ]
    }
  },
  "deployedLinkReferences": {
    "contracts/E5D/E3.sol": {
      "E3": [
        {
          "length": 20,
          "start": 4488
        },
        {
          "length": 20,
          "start": 4686
        },
        {
          "length": 20,
          "start": 4907
        }
      ]
    },
    "contracts/E5D/E32.sol": {
      "E32": [
        {
          "length": 20,
          "start": 5447
        },
        {
          "length": 20,
          "start": 5593
        },
        {
          "length": 20,
          "start": 6369
        },
        {
          "length": 20,
          "start": 7904
        }
      ]
    },
    "contracts/E5D/E33.sol": {
      "E33": [
        {
          "length": 20,
          "start": 1068
        },
        {
          "length": 20,
          "start": 2592
        },
        {
          "length": 20,
          "start": 5239
        },
        {
          "length": 20,
          "start": 6005
        },
        {
          "length": 20,
          "start": 7330
        }
      ]
    },
    "contracts/E5D/E34.sol": {
      "E34": [
        {
          "length": 20,
          "start": 1199
        }
      ]
    },
    "contracts/H5D/H3.sol": {
      "H3": [
        {
          "length": 20,
          "start": 1363
        },
        {
          "length": 20,
          "start": 1610
        },
        {
          "length": 20,
          "start": 2772
        },
        {
          "length": 20,
          "start": 3535
        },
        {
          "length": 20,
          "start": 3744
        },
        {
          "length": 20,
          "start": 5849
        },
        {
          "length": 20,
          "start": 6213
        },
        {
          "length": 20,
          "start": 7530
        },
        {
          "length": 20,
          "start": 7752
        },
        {
          "length": 20,
          "start": 8053
        },
        {
          "length": 20,
          "start": 8168
        }
      ]
    },
    "contracts/H5D/H32.sol": {
      "H32": [
        {
          "length": 20,
          "start": 5093
        }
      ]
    }
  }
}